:100000000C9488010C94B0010C94B0010C94B001D4
:100010000C94B0010C94B0010C94B0010C94B0019C
:100020000C94B0010C94B0010C94B0010C94B0018C
:100030000C94B0010C94B0010C94B0010C94B0017C
:100040000C94840A0C94B0010C94520A0C942C0A5F
:100050000C94B0010C94B0010C94B0010C94B0015C
:100060000C94B0010C94B0010000000800020100E3
:100070000003040700000000000000005358313264
:100080003736204C462F48462063616C69627261A6
:1000900074696F6E00556E7265636F676E697A651D
:1000A00064207472616E736365697665720053587B
:1000B000313237362064657465637465642C20734F
:1000C00074617274696E670053583132373220643C
:1000D000657465637465642C207374617274696EF1
:1000E0006700535831323732207375636365737319
:1000F00066756C6C7920636F6E666967757265648E
:100100000A0053657474696E67206E6F64652061C0
:100110006464723A2073746174652000536574746A
:10012000696E6720506F7765723A207374617465E9
:10013000200053657474696E67204368616E6E6554
:100140006C3A207374617465200053657474696E31
:1001500067204D6F64653A207374617465200041B7
:10016000546D65676133323850206465746563741B
:1001700065640A0053696D706C65204C6F52612094
:1001800070696E672D706F6E672077697468207470
:10019000686520676174657761790A002D2D3E20BE
:1001A00052535349206572726F720A002D2D3E2002
:1001B0005253534920002D2D3E2072657472790AE6
:1001C0000020444946533D33534946533D20002DBA
:1001D0002D3E207761697420666F72200023310AFA
:1001E000002332004F4B32002D2D3E20434144204E
:1001F0000020434144203D20002D2D3E20776169A1
:100200007420666F7220004F4B310A002D2D3E2066
:1002100043414420002D2D3E204353310A00232327
:10022000206E6F7420656E6F75676820546F412073
:1002300061742000506F6E67207265636569766532
:10024000642066726F6D2067617465776179210043
:100250004E6F20506F6E672066726F6D206777213A
:10026000005061636B65742073656E742C20737429
:10027000617465200053656E64696E672050696E15
:1002800067002072656D61696E696E6720546F4109
:100290002069732000206379636C6520656E647348
:1002A00020617420006379636C6520626567696E04
:1002B0007320617420002323206E657720637963A7
:1002C0006C6520666F7220546F412023230000006C
:1002D0000000250028002B0000000000240027005B
:1002E0002A000404040404040404020202020202B8
:1002F00003030303030301020408102040800102EA
:10030000040810200102040810202E2E2E00CE0A10
:1003100011241FBECFEFD8E0DEBFCDBF11E0A0E0BB
:10032000B1E0ECE2F3E302C005900D92A235B10713
:10033000D9F723E0A2E5B1E001C01D92A13CB207CC
:10034000E1F711E0C8E8D1E004C02197FE010E9466
:10035000AF16C738D107C9F70E945E0B0C949419E9
:100360000C94000090E0FC01EA50FD4F24918E5166
:100370009D4FFC018491882399F090E0880F991F8C
:10038000FC01E852FD4FA591B491FC01E253FD4FF1
:10039000859194918FB7F894EC91E22BEC938FBFF9
:1003A0000895AF92BF92CF92DF92EF92FF920F9398
:1003B0001F93CF93DF936C017B018B01040F151FFB
:1003C000EB015E01AE18BF08C017D10759F0699163
:1003D000D601ED91FC910190F081E02DC6010995C7
:1003E000892B79F7C501DF91CF911F910F91FF9074
:1003F000EF90DF90CF90BF90AF900895FC01538DA8
:10040000448D252F30E0842F90E0821B930B5417EE
:1004100010F0CF96089501970895FC01918D828D7B
:10042000981761F0A28DAE0FBF2FB11D5D968C9114
:10043000928D9F5F9F73928F90E008958FEF9FEF53
:100440000895FC01918D828D981731F0828DE80F0F
:10045000F11D858D90E008958FEF9FEF0895FC01C9
:10046000918D228D892F90E0805C9F4F821B910996
:100470008F739927089580EC91E00E942F0221E06C
:10048000892B09F420E0822F089580E090E0892BE9
:1004900029F00E943B0281110C9400000895FC0198
:1004A000A48DA80FB92FB11DA35ABF4F2C91848DD5
:1004B00090E001968F739927848FA689B7892C9332
:1004C000A089B1898C91837080648C93938D848D85
:1004D000981306C00288F389E02D80818F7D808388
:1004E0000895EF92FF920F931F93CF93DF93EC0148
:1004F00081E0888F9B8D8C8D98131AC0E889F989CB
:10050000808185FF15C09FB7F894EE89FF896083CD
:10051000E889F98980818370806480839FBF81E04E
:1005200090E0DF91CF911F910F91FF90EF90089590
:10053000F62E0B8D10E00F5F1F4F0F731127E02E6B
:100540008C8D8E110CC00FB607FCFACFE889F989A3
:10055000808185FFF5CFCE010E944F02F1CFEB8D58
:10056000EC0FFD2FF11DE35AFF4FF0829FB7F89477
:100570000B8FEA89FB8980818062CFCF0F931F9315
:10058000CF93DF938C01D0E0C0E0F801EC0FFD1FAA
:100590006491662341F080EC91E00E947102892B06
:1005A00011F02196F2CFCE01DF91CF911F910F91E3
:1005B0000895CF93DF93EC01888D8823B9F0AA8941
:1005C000BB89E889F9898C9185FD03C0808186FD0E
:1005D0000DC00FB607FCF7CF8C9185FFF2CF80815D
:1005E00085FFEDCFCE010E944F02E9CFDF91CF9181
:1005F000089590E0FC01E859FF4F2491FC01EA5076
:10060000FD4F3491FC01EE51FD4FE491EE23C9F012
:10061000222339F0233001F1A8F4213019F12230DE
:1006200029F1F0E0EE0FFF1FE253FD4FA591B491C9
:100630008FB7F894EC91611126C030953E233C931E
:100640008FBF08952730A9F02830C9F0243049F72A
:10065000809180008F7D03C0809180008F77809390
:100660008000DFCF84B58F7784BDDBCF84B58F7DED
:10067000FBCF8091B0008F778093B000D2CF809174
:10068000B0008F7DF9CF3E2BDACF3FB7F894809141
:10069000570190915801A0915901B0915A0126B586
:1006A000A89B05C02F3F19F00196A11DB11D3FBFAA
:1006B000BA2FA92F982F8827BC01CD01620F711D79
:1006C000811D911D42E0660F771F881F991F4A9573
:1006D000D1F708958F929F92AF92BF92CF92DF92FF
:1006E000EF92FF926B017C010E9445034B015C017C
:1006F000C114D104E104F104B9F00E944503681962
:1007000079098A099B09683E73408105910580F348
:1007100021E0C21AD108E108F10888EE880E83E0D2
:10072000981EA11CB11CE4CFFF90EF90DF90CF90FA
:10073000BF90AF909F908F9008952FB7F8946091DD
:1007400053017091540180915501909156012FBF32
:1007500008958EBD00000DB407FEFDCF8EB508953F
:100760000F931F93CF93DF93082F162FCDE5D2E081
:1007700060E08B810E94F902802F80680E94A903AB
:10078000812F0E94A90361E08B81DF91CF911F919E
:100790000F910C94F9021F93CF93DF93182FCDE59F
:1007A000D2E060E08B810E94F902812F0E94A903B0
:1007B00080E00E94A903182F61E08B810E94F9025A
:1007C000812FDF91CF911F910895CF93DF93D82F81
:1007D000D06281E00E94CB03C82F8091980261E82B
:1007E000813011F061E081E00E94B0036D2F8BE059
:1007F0000E94B0036C2F81E00E94B00380E0DF9183
:10080000CF9108958F929F92AF92BF92CF92DF9235
:10081000EF92FF92CF93DF934B015C010E949D0307
:10082000609361027093620280936302909364020A
:1008300081E00E94CB03C82F8091980261E881304B
:1008400011F061E081E00E94B003B501882799278B
:1008500086E00E94B00399278B2D7A2D692D87E0C1
:100860000E94B003682D88E00E94B0030E949D039F
:1008700060936502709366028093670290936802AA
:1008800064E670E080E090E00E946A0386E00E94E7
:10089000CB03C82E87E00E94CB03D82FD12CDC2CB1
:1008A000CC24F12CE12CFE2CED2CDC2CCC2488E08B
:1008B0000E94CB032D2F30E0322F222790E0B0E0B2
:1008C000A0E0820F931FA11DB11D8C0D9D1DAE1DBB
:1008D000BF1DD1E088169906AA06BB0649F480928E
:1008E000810290928202A0928302B0928402D0E0B0
:1008F0006C2F81E00E94B00364E670E080E090E03D
:100900000E946A038D2FDF91CF91FF90EF90DF90CF
:10091000CF90BF90AF909F908F9008958091980254
:10092000882381F08EE10E94CB0390E024E095952E
:1009300087952A95E1F7809380028650873020F0D2
:1009400081E008958FEF089580E0089580919802E6
:10095000882321F18DE10E94CB0390915D02682FE5
:1009600091111AC064608DE10E94B0038DE10E9474
:10097000CB0390915D0220E0911101C022E090E054
:1009800002C0959587952A95E2F780FF09C081E01E
:1009900080938F0280E008956160E5CF8FEF089526
:1009A00081E00895809198028130D9F489E10E9414
:1009B000CB0380937B02282F30E087FF0DC0319559
:1009C0002195310935952795359527952F732195D3
:1009D0002093860280E008953595279535952795D3
:1009E000F7CF8FEF0895CF9381E00E94CB03C82FFC
:1009F00080919802813061F461E80E94B0036FEF4A
:100A000082E10E94B0036C2F81E0CF910C94B0037F
:100A100061E081E00E94B0036FEF8EE30E94B003BB
:100A20006FEF8FE3EECFCF93DF93C82F81E00E946B
:100A3000CB03D82FC0939D02809198028130F9F4A6
:100A400061E80E94B00360919D0282E20E94B003BF
:100A500082E20E94CB03C1E090919D02981301C0F5
:100A6000C0E06D2F81E00E94B0036AEF70E080E08B
:100A700090E00E946A038C2FDF91CF91089561E08E
:100A800081E00E94B00360919D0282E30E94B00366
:100A900082E3DFCF2F923F924F925F926F927F92CD
:100AA0008F929F92AF92BF92CF92DF92EF92FF927E
:100AB0000F931F93CF93DF93CDB7DEB761970FB638
:100AC000F894DEBF0FBECDBF898B80917E02812C52
:100AD00034E2932E34EFA32E37E4B32E873081F027
:100AE000812C44E2942E44EFA42E48E4B42E8830A6
:100AF00039F4812C24E2922E24E7A22E28E4B22E8F
:100B00001091800281E00E94CB038B830E949D03A1
:100B100020919802288B213009F0F5C061E881E02E
:100B20000E94B00381E090E002C0880F991F1A95DF
:100B3000E2F7312C212C10E000E033E039839C01F6
:100B4000990F440B550B2C873D874E875F870E947A
:100B5000F3040E949D030E949D039B01AC012C594C
:100B60003F4F4F4F5F4F2C833D834E835F8367E83A
:100B700081E00E94B0030E944503688779878A87D5
:100B80009B8782E10E94CB031A82382F3470F32EA8
:100B900082FD4EC00E949D032C813D814E815F816C
:100BA000621773078407950708F042C00E94450347
:100BB0006B017C016C857D858E859F850E940D155E
:100BC0009B01AC01C501B4010E9463149B01AC01FF
:100BD00060E070E080E89FE30E9463142B013C0119
:100BE000C701B601288539854A855B85621B730B71
:100BF000840B950B0E940B156B017C0120E034E205
:100C000044E759E4C301B2010E94F61520E030E048
:100C100040E753E40E94E0139B01AC01C701B60119
:100C20000E94F11518169CF082E10E94CB03ADCF13
:100C30000E949D03F11025C08981815089838823FA
:100C400009F45EC08989811182CF198225C03A8159
:100C50003111EACF80915D0295E7F92E813011F4D0
:100C600083E6F82E8BE10E94CB038F0D80938702E1
:100C7000280E311C87FD3A940F5F1F4F41E04A83D5
:100C8000D3CF82E10E94CB03817059895150598B97
:100C900051112FC08983188AC101B8010E9487169B
:100CA000609387026B8181E00E94B0030E949D03E4
:100CB0000E94F3044981442311F052E0588B888943
:100CC00061960FB6F894DEBF0FBECDBFDF91CF9116
:100CD0001F910F91FF90EF90DF90CF90BF90AF905A
:100CE0009F908F907F906F905F904F903F902F904C
:100CF0000895882309F42BCF188A91E09983CCCFEB
:100D000021E02983C9CF198232E0388BCBCFEF9213
:100D1000FF920F931F93CF93DF938091980205E08A
:100D200010E0D0E0C0E0813041F535E0E32EF12C59
:100D300010E000E080915D02C5E7813009F4C3E670
:100D40008BE10E94CB038C0F80938702080F111D4B
:100D500087FD1A9581E0E81AF10861F7C80165E09E
:100D600070E00E9487166093870280E0DF91CF9148
:100D70001F910F91FF90EF90089581E10E94CB03A6
:100D800090E09595879580938702C80FD91F0150F1
:100D9000110999F7CE01E3CFFC0101900020E9F79A
:100DA0003197AF01481B590BBC0180EC91E00C94CA
:100DB000D1018CE291E00C94CC06CF93DF930E949A
:100DC000BE02EC010E94D9068C0F9D1FDF91CF91CE
:100DD00008951F93CF93DF93C0E01AE068EC70E0B2
:100DE00080E090E00E946A0360E081E00E94B0032E
:100DF00060E881E00E94B00361E881E00E94B003F6
:100E0000C19FB00111246E5C7F4F072E000C880B30
:100E1000990B0E946A0381E00E94CB03D82F8AE0DD
:100E200093E00E94DD06C0FD03C0C43159F0CF5FDE
:100E3000D138A1F681E08093980280E0DF91CF91D4
:100E40001F910895C0E0F4CFCF93DF93C82F81E0C6
:100E50000E94CB03D82F80919802811102C00E947A
:100E6000E90661E881E00E94B0036C2F89E30E94EB
:100E7000B00364E670E080E090E00E946A0389E3DA
:100E80000E94CB03C81311C0C0935E02C0E06D2F57
:100E900081E00E94B00364E670E080E090E00E9490
:100EA0006A038C2FDF91CF910895C1E0F0CFFF92BC
:100EB0000F931F93CF93DF938C0181E00E94CB03AC
:100EC000F82E80919802D2E0811103C00E94E906B9
:100ED000D82F61E881E00E94B0038DE10E94CB032E
:100EE000C82F90915D02911142C008301105C9F1DF
:100EF00009301105C9F1CF730E948E0480918002E0
:100F00008B3011F4C16002C08C30E1F36C2F8DE1A5
:100F10000E94B00364E670E080E090E00E946A0303
:100F20008DE10E94CB0390915D02282F30E091115A
:100F300044C096E0359527959A95E1F7083011055C
:100F400089F109301105A9F1232B41F49091800218
:100F50009B3009F057C08095D82FD170D11157C060
:100F600024C0CF77C064D2CFCF7BC068CFCFCF7043
:100F700008301105D1F30930110591F0C0670E94C6
:100F80008E04809180028B50823008F0BFCF86E2C1
:100F90000E94CB03682F686086E20E94B003B6CF40
:100FA000C069B4CF21303105C9F600937E02D0E08C
:100FB0002EC02230310591F6F8CF84E03595279583
:100FC0008A95E1F70830110599F009301105A9F06B
:100FD0002730310519F686E20E94CB0390918002FA
:100FE0009B3031F583FBDD27D0F981E0D827B6CFE0
:100FF0002830310509F0B2CFD8CF2930310509F0BA
:10100000ADCFD3CF9C3089F680FDCFCFD1E06F2D0F
:1010100081E00E94B00364E670E080E090E00E940E
:101020006A038D2FDF91CF911F910F91FF9008954B
:101030009C3009F0BACF83FDB8CFE8CFFF920F9371
:101040001F93CF93DF93182F81E00E94CB03082FCB
:1010500080919802811115C00E94E906602F81E0FD
:101060000E94B00364E670E080E090E00E946A03B2
:101070001093800280E0DF91CF911F910F91FF903C
:10108000089561E881E00E94B0038EE10E94CB03E5
:10109000C82F1A30B1F040F4183069F0193071F0EF
:1010A000CF77C067D0E034C01B3071F01C30C1F77F
:1010B000CF7CC06C1CC0CF78C068F4CFCF79C0693A
:1010C000F1CFCF7AC06AEECFCF7BC06B8091980210
:1010D000882369F080915D0281116BC08DE10E94CF
:1010E000CB03829586958695837080937E0280914E
:1010F0007E028730B9F680915D02811160C08DE17A
:101100000E94CB03D82FD1606D2F8DE10E94B003D8
:1011100080919802882339F18DE10E94CB03909150
:101120008002963049F090915D02682F911150C075
:101130006B7F8DE10E94B00380915D02F12C8111E3
:1011400002C082E0F82E80918002863061F08DE14D
:101150000E94CB0390E002C095958795FA94E2F740
:1011600080FF10928F0263E081E30E94B0036AE087
:1011700087E30E94B00380915D0281112BC0C4609F
:101180006D2F8DE10E94B0036C2F8EE10E94B003A1
:1011900064E670E080E090E00E946A0380915D0266
:1011A00081111FC08DE10E94CB038EE10E94CB0311
:1011B00055CF8DE10E94CB0382958F7096CF86E24A
:1011C0000E94CB03682F686086E20E94B0036ACF5A
:1011D0006E7FAFCF86E20E94CB03682F646086E209
:1011E000D1CF86E2E0CFCF93DF9381E00E94CB03A3
:1011F000D82F80919802C2E0811103C00E94E906B5
:10120000C82F61E881E00E94B0038DE10E94CB030A
:1012100090915D02682F91112EC06F7C68608DE106
:101220000E94B00364E670E080E090E00E946A03F0
:101230008DE10E94CB0320915D02213009F023E073
:1012400090E002C0959587952A95E2F787709927D7
:10125000019709F4C0E081E080937F026D2F0E9426
:10126000B00364E670E080E090E00E946A038C2F97
:10127000DF91CF910895617F6260D1CF8F929F926D
:10128000AF92BF920F931F93CF93DF93CDB7DEB78B
:10129000A1970FB6F894DEBF0FBECDBF19A24230A2
:1012A00008F44AE08E010F5D1F4F842E912CB12C63
:1012B000A12CA50194010E94AE13E62FB901CA0129
:1012C000EA30F4F4E05DD801EE938D01232B242B5A
:1012D000252B79F790E080E0109719F0CD010E945E
:1012E000CC06A1960FB6F894DEBF0FBECDBFDF913E
:1012F000CF911F910F91BF90AF909F908F900895C5
:10130000E95CE1CFCF92DF92EF92FF92CF93DF9330
:101310006B017C016DE280EC91E00E947102EC01B6
:1013200066277727CB016C197D098E099F094AE052
:101330000E943E098C0F9D1FDF91CF91FF90EF908F
:10134000DF90CF900895CF93DF930E94CC06EC01FD
:101350000E94D9068C0F9D1FDF91CF910895BC018B
:10136000990F880B990B97FD0C9482094AE00C9415
:101370003E090E949D03AB01BC018091BB0390918B
:10138000BC03A091BD03B091BE0384179507A607C7
:10139000B70708F054C08093B7039093B803A093A5
:1013A000B903B093BA0340EA5CE860E070E04093B0
:1013B000B3035093B4036093B5037093B60380589E
:1013C0009141A94CBF4F8093BB039093BC03A09362
:1013D000BD03B093BE0386EB92E00E94DD0685EA72
:1013E00092E00E94BE026091B7037091B8038091B1
:1013F000B9039091BA034AE00E943E0985E992E060
:101400000E94BE026091BB037091BC038091BD033A
:101410009091BE034AE00E943E0982E892E00E9459
:10142000BE026091B3037091B4038091B5039091B3
:10143000B60397FF0DC00E9482090E94D9066091F1
:10144000B3037091B4038091B5039091B6030895EE
:101450004AE00E943E09F1CF1F920F920FB60F9201
:1014600011242F933F934F935F936F937F938F93A9
:101470009F93AF93BF93EF93FF9380EC91E00E9413
:101480004F02FF91EF91BF91AF919F918F917F910B
:101490006F915F914F913F912F910F900FBE0F90E1
:1014A0001F9018951F920F920FB60F9211242F9331
:1014B0008F939F93EF93FF93E091D001F091D1012F
:1014C0008081E091D601F091D70182FD1BC090810F
:1014D0008091D9018F5F8F732091DA01821741F0DB
:1014E000E091D901F0E0E054FE4F958F8093D9014F
:1014F000FF91EF919F918F912F910F900FBE0F90C1
:101500001F9018958081F4CF1F920F920FB60F9203
:1015100011242F933F938F939F93AF93BF93809109
:10152000530190915401A0915501B0915601309111
:10153000520123E0230F2D3758F50196A11DB11D4F
:10154000209352018093530190935401A09355012D
:10155000B09356018091570190915801A091590183
:10156000B0915A010196A11DB11D8093570190932E
:101570005801A0935901B0935A01BF91AF919F9127
:101580008F913F912F910F900FBE0F901F90189544
:1015900026E8230F0296A11DB11DD2CF0F931F93F2
:1015A000CF93DF93E0ECF1E01382128288EE93E0B8
:1015B000A0E0B0E084839583A683B7838EE191E0B9
:1015C0009183808385EC90E09587848784EC90E01C
:1015D0009787868780EC90E0918B808B81EC90E000
:1015E000938B828B82EC90E0958B848B86EC90E0E1
:1015F000978B868B118E128E138E148ECDE5D2E0D2
:101600008AE08B8397E099A381E08AA39BA340E0C3
:1016100050EC64EE70E04CA35DA36EA37FA31AAA06
:101620001CAA1BAE9FE098A71EAA1FAA18AE92E1A3
:101630009A831B8E1E8A8F8B188E89E08D8B1D8E50
:101640001092B2030E949D036093B7037093B80396
:101650008093B9039093BA0300EA1CE820E030E0DD
:101660000093B3031093B4032093B5033093B603F0
:1016700060587141894C9F4F6093BB037093BC03CA
:101680008093BD039093BE031F8E81EB92E09093F5
:101690009F0280939E029093A7028093A6028CEAF9
:1016A00093E09093AF028093AE0219AE88AD809321
:1016B000A002DF91CF911F910F910895CF93DF93F7
:1016C00000D000D000D0CDB7DEB7789484B582606A
:1016D00084BD84B5816084BD85B5826085BD85B5D6
:1016E000816085BD80916E00816080936E00109254
:1016F00081008091810082608093810080918100CF
:10170000816080938100809180008160809380005F
:101710008091B10084608093B1008091B0008160BD
:101720008093B00080917A00846080937A008091E9
:101730007A00826080937A0080917A008160809341
:101740007A0080917A00806880937A001092C100BC
:10175000E091D001F091D10182E08083E091CC0151
:10176000F091CD011082E091CE01F091CF0183E3A1
:1017700080831092D801E091D401F091D50186E0E8
:101780008083E091D201F091D301808180618083D8
:10179000E091D201F091D301808188608083E09153
:1017A000D201F091D301808180688083E091D201E1
:1017B000F091D30180818F7D808384E791E00E9446
:1017C000BE028FE591E00E94BE02809160020E94FD
:1017D000B20161E0809160020E94F90264E670E06B
:1017E00080E090E00E946A032FB72983F8948091EB
:1017F0005B01811124C0ECEEF2E08491E0E0F3E0C3
:101800009491E82FF0E0EE0FFF1FE852FD4FA591F5
:10181000B491EC91E92321F461E08AE00E94F9029D
:101820008AE00E94B2018CB580618CBD8CB5806469
:101830008CBD8DE00E94B2018BE00E94B2018091CC
:101840005B018F5F80935B0139813FBF8CB58F7DDA
:101850008CBD8CB58C7F81608CBD8DB581608DBD5C
:101860008CB5837F8CBD64E670E080E090E00E94E0
:101870006A0382E40E94CB03823209F0D2C388EC6F
:1018800090E00E94DD0610925D0280915D02813041
:1018900041F58CE790E00E94DD0660E089E00E945F
:1018A000B0038BE30E94CB03682F60648BE30E943C
:1018B000B0038BE30E94CB0385FDFBCF60E070E0BB
:1018C00089ED90E00E9402048BE30E94CB03682F15
:1018D00060648BE30E94B0038BE30E94CB0385FD21
:1018E000FBCF8BE10E94E5030E94E90680919802FC
:1018F0008D83813009F0AEC380915D028111A3C355
:101900009DE1998389810E94CB0390915D02682FAC
:1019100091119EC3626089810E94B00389810E94F7
:10192000CB0390E00D8002C0959587950A94E2F76D
:1019300080FF03C081E08093910280919802813002
:1019400009F096C380E20E94CB0310928A02809332
:101950008B0281E20E94CB0320918A0230918B029C
:10196000820F932F911D90938B0280938A02809116
:101970005F020E94240780919802882329F089E35E
:101980000E94CB0380935E0280915E0280935F028F
:101990000E949D03611571058105910511F00E945A
:1019A000731381E00E94CB038D8380919802811193
:1019B00002C00E94E90661E881E00E94B0030E9433
:1019C000F3088CE00E941E0887E090E00E94570711
:1019D0008DE10E94CB0320915D0290E0211151C363
:1019E000B3E095958795BA95E1F7019709F44DC352
:1019F00021E0298380915F020E942407998191113F
:101A000003C081E0809371026D8181E00E94B00388
:101A100064E670E080E090E00E946A038AE491E06E
:101A20000E94BE02A9818A2F90E00E94AF098EE237
:101A300091E00E94A309B1E0B09375026CEC7CE4E4
:101A400088ED90E00E940204898382E391E00E9485
:101A5000BE022981822F220F990B0E94AF098EE2CC
:101A600091E00E94A30931E030937A0280915D02F7
:101A700081111EC38AE5898381E00E94CB038D8397
:101A80008091980261E8813011F061E081E00E946C
:101A9000B00364E889810E94B00380E10E94E503FD
:101AA00090915D0280917A02911108C3882309F414
:101AB00002C3ACE8A983698189E00E94B0039981DF
:101AC0009093850289E00E94CB03A1E0A9839091C5
:101AD0008502981301C019826D8181E00E94B003D4
:101AE00064E670E080E090E00E946A038CE191E09F
:101AF0000E94BE02B9818B2F90E00E94AF098EE256
:101B000091E00E94A30988E080938E0281E00E9408
:101B1000CB0389838091980261EC813011F061E000
:101B200081E00E94B00368E083E30E94B00360E0BC
:101B300084E30E94B00383E30E94CB03182F6981E2
:101B400081E00E94B00321E030E03A832983809154
:101B50008E02811302C01A82198282E091E00E94F3
:101B6000BE0289819A810E94AF098EE291E00E94B3
:101B7000A30982EE90E00E94BE0264EF71E080E073
:101B800090E00E946A0385E192E00E94BE0280918B
:101B90007202882309F402C1A0907502AA2009F4F8
:101BA000FDC013E0B12C77E0472E512C612C712C35
:101BB000E3E09E2E08E00E949D036093690270930B
:101BC0006A0280936B0290936C02809172020E9471
:101BD0004A0589830E949D0360936D0270936E0293
:101BE00080936F02909370028CE092E00E94BE029C
:101BF00060916D0270916E0280916F0290917002FF
:101C0000C0906902D0906A02E0906B02F0906C0282
:101C10006C197D098E099F094AE00E943E090E94C5
:101C2000D9063981311159C287E092E00E94BE0283
:101C300080917302882309F482C00E942413A301B7
:101C400092010E947C136B017C01AFEFCA1ADA0A81
:101C5000EA0AFA0A89EF91E00E94BE02C701B601C2
:101C60007727882799274AE00E943E0981EF91E073
:101C70000E94BE02E0917102F0E0E15FFE4F8081C0
:101C8000C89EC00111240E94AF090E94D906E091AC
:101C90007102F0E0E15FFE4F6081C69EB001112449
:101CA000072E000C880B990B0E946A030E949D036B
:101CB0006093690270936A0280936B0290936C0246
:101CC000809172020E944A05282F30E03A832983CE
:101CD0000E949D0360936D0270936E0280936F0269
:101CE0009093700288EE91E00E94BE0260916D02B6
:101CF00070916E0280916F0290917002C0906902A3
:101D0000D0906A02E0906B02F0906C026C197D0931
:101D10008E099F094AE00E943E090E94D9068981E6
:101D20009A81892B09F0D6C184EE91E00E94BE020F
:101D30000E94D906A981BA81AB2B09F01FC28091FC
:101D40007402882309F428C20E94870681111AC2EE
:101D500038E039830E9487068CEA91E00E94BE0237
:101D600080918702082E000C990B0E94AF090E94F7
:101D7000D90689818150898361E070E080E090E03C
:101D80000E946A0380918702873A0CF400C299810D
:101D90009111E0CF1150BA2C09F00CCF80E1809363
:101DA0009A026FE271E08CE591E00E94B51685E73A
:101DB00092E00E94BE028EE291E00E94A30924E01C
:101DC00030E030938D0220938C028091B2038823FF
:101DD00009F4EAC180917802882309F4E0C184E023
:101DE00090E09E838D830E94B90969837A838B83F7
:101DF0009C8310917E02C12C54E2D52E54EFE52E27
:101E000057E4F52E173081F0C12C64E2D62E64E73A
:101E1000E62E68E4F62E183039F0C12C44E2D42EB8
:101E200044EFE42E48E4F42E00918002202E312C61
:101E300061E070E0002E02C0660F771F0A94E2F79F
:101E4000072E000C880B990B0E940D159B01AC010D
:101E5000C701B6010E9463149B01AC0160E070E011
:101E600080E89FE30E9463146B017C0160918A0209
:101E700070918B026C5F7F4F90E080E00E940B15A9
:101E800020E030E048E850E40E94E013A70196010A
:101E90000E94F6152B013C01173019F411E00C30AB
:101EA00009F010E02D813E81220F331F22193309E2
:101EB000255F3F4F3E832D8360918F023BEF3603BA
:101EC000B00111248D819E81680F791F660F771FE5
:101ED000660F771F072E000C880B990B0E940D15BB
:101EE0004B015C01812F90E0880F991FB101681BA5
:101EF000790B660F771F660F771F072E000C880B74
:101F0000990B0E940D159B01AC01C501B4010E9403
:101F100063140E944C144B015C0160917F0270E0DD
:101F20006C5F7F4F072E000C880B990B0E940D15DC
:101F3000A50194010E94F6154B015C0120E030E000
:101F4000A9010E94F11520E030E040E051E41816AC
:101F500034F4C501B4010E94E0139B01AC01C70138
:101F6000B6010E94F615A30192010E94E01320E041
:101F700034E244E759E40E94F61527E73EEB4FE7C9
:101F80005FE30E94E0130E9448150E94DC1428EED3
:101F900033E040E050E00E94AE13CA01B9010E9454
:101FA0000B1520E030E040E85FE30E94E0130E9460
:101FB000DC147093C0036093BF0389819A81AB8165
:101FC000BC81861B970BA109B109B7FFEDC08EE15B
:101FD00092E00E94BE020E949D034AE00E943E09D8
:101FE0000E94D90614E081E692E00E94BE02812F91
:101FF00090E00E94AF098EE291E00E94A3091330A5
:1020000009F0F0C180E592E00E94BE028EE291E00C
:102010000E94A30960E177E280E090E00E946A03F9
:10202000C0CE82E40E94CB03823141F48EEA90E07C
:102030000E94DD0681E080935D0227CC85E990E077
:102040000E94DD0622CCA2E0AD83BEE1B9835ACC6A
:10205000646061CC80E30E94CB03682F606180E301
:102060000E94B00380E30E94CB0384FD63CC65CC67
:1020700085E20E94CB0310928A0280938B0286E253
:1020800069CC95958795C99781F48EE10E94CB0321
:1020900090E0F4E095958795FA95E1F731E0398382
:1020A0000C9709F0A7CC1982A5CC81E08983A2CC3A
:1020B0009DE49983E1CCBFE0B983FDCC811107C0D9
:1020C0002EE02983898180678983682FF5CC3CE8DD
:1020D0003983F8CF81EE91E029CE8DED91E00E9419
:1020E000BE020E942413A30192010E947C136B0183
:1020F0007C01BFEFCB1ADB0AEB0AFB0A8FEC91E005
:102100000E94BE02C701B6017727882799274AE0B7
:102110000E943E0981EC91E00E94BE02D12CE09128
:102120007102F0E0EC5FFE4F8081899DC0011124B7
:102130009C012C9DC0012D9D900D3C9D900D112466
:102140000E94AF090E94D906E0917102F0E0EC5FB5
:10215000FE4F8081899DC00111248C9DB0018D9D11
:10216000700D9C9D700D1124072E000C880B990B8F
:102170000E946A0386EB91E00E94BE02015009F0C2
:102180001ACDDDCD8CE991E00E94BE0207CEA98177
:10219000AA2309F4FFCD02CEB110FCCDFFCDA8E0FB
:1021A000B0E0BE83AD831FCE81E00E94CB03082F39
:1021B0000E94F3048091980261E8813011F061E09F
:1021C00081E00E94B00310929402209195028091C8
:1021D0008C0290918D02211181C021E02093920206
:1021E0002093990220918E0220939B0220919302CA
:1021F00020939C022F5F209393021092A0022091C3
:102200009802211108C0CD9730F0ACE3B0E0B09354
:102210008D02A0938C02ECE5F1E09F012C5531403A
:1022200080918C0290918D022817390750F44191CA
:1022300080919E0290919F02280F391FD9014C93E3
:10224000ECCF20917802211101C004960E94130561
:10225000182F80919A02982F906190939A029091F2
:102260007C02992319F0886180939A0260E88DE0DE
:102270000E94B003111146C080917802811113C0F1
:10228000609199020E94B00360919A0280E00E94DE
:10229000B00360919B0280E00E94B00360919C02B9
:1022A00080E00E94B0031A82198280918C02909182
:1022B0008D0229813A812817390720F5E0919E0285
:1022C000F0919F02E20FF31F608180E00E94B00353
:1022D00089819A8101969A838983E7CF213029F4F5
:1022E00020919D022F5F20939D0220917802211161
:1022F00001C004960E941305182F809195028093C7
:10230000A002A7CF602F81E00E94B00311116BCE15
:10231000A0E1B7E2B093B103A093B0030E949D0384
:102320006B017C01B0E1CB0EB7E2DB1EE11CF11CBE
:1023300080919802813009F040C00E94F30463E864
:1023400081E00E94B00382E10E94CB03898329814E
:1023500023FD07C00E949D036C157D058E059F051A
:1023600090F3898183FF3CC08091B203882311F1EF
:10237000A091BF03B091C003BA83A9830E94B90999
:102380008091B2038823B1F08091B3039091B4039C
:10239000A091B503B091B60329813A81821B930BBA
:1023A000A109B1098093B3039093B403A093B5033B
:1023B000B093B6030E94F30416CE63E081E00E945E
:1023C000B0038FE30E94CB038983398133FDC9CFEA
:1023D0000E949D036C157D058E059F0590F3C1CF6E
:1023E00011E0E8CF111112CE84E392E00E94BE0208
:1023F0008EE291E00E94A30980917902282F082E95
:10240000000C330B3F938F9384E391E09F938F9362
:102410008CE591E09F938F930E94BC168CE591E030
:102420000E94CC068EE291E00E94A3090E94D20491
:102430000F900F900F900F900F900F908091980237
:10244000813009F05BC00E94D204811157C08AE13B
:102450000E94CB03B0918602B98390915D020091F6
:102460008102109182022091830230918402C82E51
:10247000D12CF12CE12CB7FF6AC06DE970E09130EE
:1024800011F06BE870E00C3C1C4C274D310508F056
:102490005BC087E090E0680F791F719561957109C5
:1024A000072E000C880B990B0E940D154B015C0147
:1024B000C701B6010E940D159B01AC01C501B40115
:1024C0000E94E0136B017C01A9816A2FAA0F770B90
:1024D000880B990B0E940D1520E030E040E85EE388
:1024E0000E94F6159B01AC01C701B6010E94E013E2
:1024F0000E94D514709389026093880280918902AA
:102500008F93809188028F9380918602282F082EC6
:10251000000C330B3F938F9323E431E03F932F93D1
:102520008CE591E09F938F930E94BC168CE591E01F
:102530000E94CC068EE291E00E94A3090FB6F894A7
:10254000DEBF0FBECDBF62CD90E080E0A4CF6DE9CD
:1025500070E0913011F06BE870E087E090E00C3CA7
:102560001C4C274D310510F090E080E0680F791F7A
:10257000719561957109072E000C880B990B0E94CB
:102580000D154B015C01C701B6010E940D1520E03D
:1025900030E040E851E40E94F61520E030E040E7EA
:1025A00051E40E9463149B01AC01C501B4019ECFAC
:1025B0008F929F92AF92BF92CF92DF92EF92FF9253
:1025C000CF93DF93EC01688179818A819B816115CA
:1025D00071058105910521F464E279ED8BE597E0C1
:1025E0002DE133EF41E050E00E947C1349015A0194
:1025F0009B01AC01A7EAB1E40E949B136B017C0133
:10260000ACEEB4EFA50194010E94A913C60ED71E2B
:10261000E81EF91EF7FE06C081E0C81AD108E108DD
:1026200080E8F80AC882D982EA82FB82C701B60133
:102630009F77DF91CF91FF90EF90DF90CF90BF9089
:10264000AF909F908F9008958F929F92AF92BF927C
:10265000CF92DF92EF92FF926091000170910101A1
:102660008091020190910301611571058105910529
:1026700021F464E279ED8BE597E02DE133EF41E061
:1026800050E00E947C1349015A019B01AC01A7EA6A
:10269000B1E40E949B136B017C01ACEEB4EFA50189
:1026A00094010E94A913C60ED71EE81EF91EF7FE5C
:1026B00006C081E0C81AD108E10880E8F80AC09293
:1026C0000001D0920101E0920201F0920301C701E2
:1026D000B6019F77FF90EF90DF90CF90BF90AF90C3
:1026E0009F908F90089560930001709301018093F3
:1026F0000201909303010895052E97FB1EF40094A8
:102700000E94931357FD07D00E94AE1307FC03D01D
:102710004EF40C94931350954095309521953F4F6E
:102720004F4F5F4F089590958095709561957F4FBD
:102730008F4F9F4F08950E94D013A59F900DB49F77
:10274000900DA49F800D911D11240895B7FF0C9446
:102750009B130E949B13821B930B0895A1E21A2ED8
:10276000AA1BBB1BFD010DC0AA1FBB1FEE1FFF1F35
:10277000A217B307E407F50720F0A21BB30BE40B85
:10278000F50B661F771F881F991F1A9469F76095CC
:102790007095809590959B01AC01BD01CF01089586
:1027A000A29FB001B39FC001A39F700D811D112492
:1027B000911DB29F700D811D1124911D08955058D7
:1027C000BB27AA270E94F7130C949F150E9491150E
:1027D00038F00E94981520F039F49F3F19F426F440
:1027E0000C948E150EF4E095E7FB0C945F15E92F21
:1027F0000E94B01558F3BA1762077307840795074C
:1028000020F079F4A6F50C94EA150EF4E0950B2E61
:10281000BA2FA02D0B01B90190010C01CA01A00132
:102820001124FF27591B99F0593F50F4503E68F18D
:102830001A16F040A22F232F342F4427585FF3CFCE
:10284000469537952795A795F0405395C9F77EF49F
:102850001F16BA0B620B730B840BBAF09150A1F0E8
:10286000FF0FBB1F661F771F881FC2F70EC0BA0F6E
:10287000621F731F841F48F4879577956795B795F6
:10288000F7959E3F08F0B0CF9395880F08F09927F1
:10289000EE0F9795879508950E94D21590F09F3777
:1028A00048F4911116F40C94EB1560E070E080E8A8
:1028B0009FE3089526F01B16611D711D811D0C9468
:1028C00065150C9480150E9477140C949F150E9436
:1028D000981558F00E94911540F029F45F3F29F0B7
:1028E0000C945F1551110C94EB150C948E150E94ED
:1028F000B01568F39923B1F3552391F3951B550B4C
:10290000BB27AA2762177307840738F09F5F5F4FC2
:10291000220F331F441FAA1FA9F335D00E2E3AF001
:10292000E0E832D091505040E695001CCAF72BD019
:10293000FE2F29D0660F771F881FBB1F261737076A
:102940004807AB07B0E809F0BB0B802DBF01FF279C
:1029500093585F4F3AF09E3F510578F00C945F1505
:102960000C94EB155F3FE4F3983ED4F3869577958E
:102970006795B795F7959F5FC9F7880F911D969555
:10298000879597F90895E1E0660F771F881FBB1FB1
:10299000621773078407BA0720F0621B730B840B5E
:1029A000BA0BEE1F88F7E09508950E94DC14689436
:1029B000B1110C94EB1508950E94B81588F09F573B
:1029C00098F0B92F9927B751B0F0E1F0660F771F53
:1029D000881F991F1AF0BA95C9F714C0B13091F049
:1029E0000E94EA15B1E008950C94EA15672F782F3C
:1029F0008827B85F39F0B93FCCF38695779567950E
:102A0000B395D9F73EF490958095709561957F4F79
:102A10008F4F9F4F0895E89409C097FB3EF490951F
:102A20008095709561957F4F8F4F9F4F9923A9F0A7
:102A3000F92F96E9BB279395F69587957795679536
:102A4000B795F111F8CFFAF4BB0F11F460FF1BC07A
:102A50006F5F7F4F8F4F9F4F16C0882311F096E90D
:102A600011C0772321F09EE8872F762F05C06623BB
:102A700071F096E8862F70E060E02AF09A95660F74
:102A8000771F881FDAF7880F9695879597F908952D
:102A90000E94D21590F09F3748F4911116F00C94D3
:102AA000EB1560E070E080E89FEB089526F41B16BC
:102AB000611D711D811D0C9465150C94801597F98D
:102AC0009F6780E870E060E00895882371F47723C1
:102AD00021F09850872B762F07C0662311F4992791
:102AE0000DC09051862B70E060E02AF09A95660F39
:102AF000771F881FDAF7880F9695879597F90895BD
:102B00009F3F31F0915020F4879577956795B79561
:102B1000880F911D9695879597F908959FEF80EC02
:102B2000089500240A941616170618060906089533
:102B300000240A9412161306140605060895092E99
:102B40000394000C11F4882352F0BB0F40F4BF2B08
:102B500011F460FF04C06F5F7F4F8F4F9F4F089548
:102B600057FD9058440F551F59F05F3F71F047953E
:102B7000880F97FB991F61F09F3F79F08795089523
:102B8000121613061406551FF2CF4695F1DF08C042
:102B9000161617061806991FF1CF8695710561055F
:102BA000089408950E94B815A0F0BEE7B91788F4FC
:102BB000BB279F3860F41616B11D672F782F882722
:102BC000985FF7CF869577956795B11D9395963960
:102BD000C8F30895E894BB2766277727CB0197F9B8
:102BE00008950E94631608F48FEF08950E94091655
:102BF0000C949F150E94911538F00E94981520F0B2
:102C0000952311F00C945F150C948E1511240C94DF
:102C1000EB150E94B01570F3959FC1F3950F50E02E
:102C2000551F629FF001729FBB27F00DB11D639F7E
:102C3000AA27F00DB11DAA1F649F6627B00DA11D24
:102C4000661F829F2227B00DA11D621F739FB00DCA
:102C5000A11D621F839FA00D611D221F749F33273A
:102C6000A00D611D231F849F600D211D822F762FD3
:102C70006A2F11249F5750409AF0F1F088234AF0B0
:102C8000EE0FFF1FBB1F661F771F881F915050401C
:102C9000A9F79E3F510580F00C945F150C94EB153D
:102CA0005F3FE4F3983ED4F3869577956795B795A3
:102CB000F795E7959F5FC1F7FE2B880F911D9695BD
:102CC000879597F90895990F0008550FAA0BE0E82A
:102CD000FEEF16161706E807F907C0F012161306DE
:102CE000E407F50798F0621B730B840B950B39F41E
:102CF0000A2661F0232B242B252B21F408950A2684
:102D000009F4A140A6958FEF811D811D089597FBC1
:102D1000072E16F4009407D077FD09D00E949B1669
:102D200007FC05D03EF4909581959F4F08957095CE
:102D300061957F4F0895AA1BBB1B51E107C0AA1FD5
:102D4000BB1FA617B70710F0A61BB70B881F991F4C
:102D50005A95A9F780959095BC01CD010895EE0F85
:102D6000FF1F0590F491E02D0994FB01DC01019017
:102D70000D920020E1F70895AEE0B0E0E2ECF6E15C
:102D80000C946B190D891E8986E08C831A83098344
:102D90008FEF9FE79E838D83AE01475E5F4F6F8904
:102DA000788DCE0101960E94DF162F813885020FA3
:102DB000131FF80110822E96E4E00C948719ABE003
:102DC000B0E0E5EEF6E10C945D197C013B018A016F
:102DD000FC0117821682838181FFC8C1CE01019652
:102DE0005C01F7019381F30193FD859193FF81913C
:102DF0003F01882309F453C1853239F493FD85914D
:102E000093FF81913F01853229F4B70190E00E9440
:102E1000CF18E7CF912C212C312CFFE1F31538F09E
:102E20008B3211F190F4803209F1833229F137FCB1
:102E30003CC020ED280F2A3050F536FE20C08AE035
:102E4000989E200D1124922E06C08D3291F0803371
:102E500071F7689430F8F30193FD859193FF8191A8
:102E60003F018111DACF21C0689431F8689432F8BB
:102E7000F2CF689433F8EFCF689434F8ECCFEAE0FF
:102E80002E9E200D1124222E689435F8E4CF8E3228
:102E900029F436FC04C1689436F8DDCF8C3619F479
:102EA000689437F8D8CF8836B1F2982F9F7D955423
:102EB0009330E0F08336A1F18337C1F1833509F017
:102EC00063C02801F2E04F0E511CF801C080D18090
:102ED000692D70E036FC02C06FEF7FEFC6010E94E3
:102EE000B9184C01689437F882010AC00C5F1F4F73
:102EF000FFE3F98388248394912C6501E89437F8E3
:102F000033FE2DC0522C8114910471F5552009F423
:102F100068CFB70180E290E00E94CF185A94F6CFB4
:102F2000F801808189830E5F1F4FE4CF2801F2E012
:102F30004F0E511CF801C080D180692D70E036FC25
:102F400002C06FEF7FEFC6010E94C4184C018201DE
:102F5000D5CFB70180E290E00E94CF182A942814C0
:102F6000190409F0B0F7CECFF60137FC859137FE92
:102F700081916F01B70190E00E94CF1851105A94CF
:102F8000F1E08F1A9108BFCF843619F0893609F025
:102F900077C0F80137FE6BC06081718182819381B7
:102FA0000C5F1F4FF32DFF763F2E97FF09C09095C2
:102FB0008095709561957F4F8F4F9F4F689437F83C
:102FC0002AE030E0A5010E94FF18C82ECA188C2CF8
:102FD000432C36FE0CC0E89440F8C91440F434FE8B
:102FE00005C032FC03C0F32DFE7E4F2E892C44FE1B
:102FF00095C0FE01EC0DF11D8081803309F087C082
:10300000242D297E422E842D8870582E43FC95C095
:1030100040FE8FC09C2C821418F42C0C922C981813
:1030200044FE91C0B70180E390E00E94CF1842FEB9
:1030300009C088E790E041FE02C088E590E0B70152
:103040000E94CF18C91408F48AC0CA94D12C9FEFEB
:10305000C91AD90ACA0CDB1CF60182916F01B701AB
:1030600090E00E94CF18AC14BD04B1F74FCF60813F
:103070007181072E000C880B990B0E5F1F4F92CFAA
:10308000D32CE894D4F82AE030E0853739F1232DA9
:10309000297FD22E8F3601F148F48835A9F0F70147
:1030A000868197812B96E2E10C947919803749F05B
:1030B0008837A9F7D4FE02C06894D2F820E130E046
:1030C0000DC06894D4F8F6CF34FE03C0822F86601A
:1030D000D82E20E132E002C028E030E0F801D7FE2F
:1030E0000FC060817181828193810C5F1F4FA501A8
:1030F0000E94FF18C82ECA183D2CE89437F867CFF5
:103100006081718190E080E00E5F1F4FF0CF42FC44
:1031100002C0839478CF8394839475CF842D86786E
:1031200009F471CFF6CFB70180E290E00E94CF188A
:1031300083948214C0F3512C73CF522C58188214EC
:1031400008F46ECFF8CF842D867809F47BCF8BE21C
:1031500041FE80E247FC8DE2B70190E071CFB701FC
:1031600080E390E00E94CF189A946CCF8FEF9FEF8E
:1031700099CFFC010590615070400110D8F78095FF
:1031800090958E0F9F1F0895FC0161507040019033
:103190000110D8F7809590958E0F9F1F08950F937B
:1031A0001F93CF93DF93182F092FEB018B8181FDA4
:1031B00009C01FEF0FEF812F902FDF91CF911F914B
:1031C0000F91089582FF14C02E813F818C819D81D3
:1031D000281739073CF4E881F981CF0101969983DA
:1031E000888310838E819F8101969F838E83E3CF96
:1031F000E885F985812F0995892BA1F3DACFFA01AA
:10320000AA27283051F1203181F1E8946F936E7F25
:103210006E5F7F4F8F4F9F4FAF4FB1E03ED0B4E016
:103220003CD0670F781F891F9A1FA11D680F791F57
:103230008A1F911DA11D6A0F711D811D911DA11D68
:1032400020D009F468943F912AE0269F1124301978
:10325000305D3193DEF6CF010895462F4770405D13
:103260004193B3E00FD0C9F7F6CF462F4F70405DC2
:103270004A3318F0495D31FD4052419302D0A9F71D
:10328000EACFB4E0A6959795879577956795BA9517
:10329000C9F700976105710508959B01AC010A2EDD
:1032A00006945795479537952795BA95C9F7620FB4
:1032B000731F841F951FA01D08952F923F924F9258
:1032C0005F926F927F928F929F92AF92BF92CF92B6
:1032D000DF92EF92FF920F931F93CF93DF93CDB7BF
:1032E000DEB7CA1BDB0B0FB6F894DEBF0FBECDBF37
:1032F00009942A88398848885F846E847D848C8408
:103300009B84AA84B984C884DF80EE80FD800C8110
:103310001B81AA81B981CE0FD11D0FB6F894DEBFF3
:0C3320000FBECDBFED010895F894FFCF63
:10332C000100000000B75E2C2F17180C0C070400CE
:10333C003E1F101008090503010100000000710276
:10334C00D101FE01D9022F020D0221020D0A0050FB
:10335C00696E6700534E522061742067773D256477
:10336C0009200046726F6D2067773D25642C25641B
:02337C0000004F
:107E0000112484B714BE81FFF0D085E080938100F7
:107E100082E08093C00088E18093C10086E0809377
:107E2000C20080E18093C4008EE0C9D0259A86E02C
:107E300020E33CEF91E0309385002093840096BBD3
:107E4000B09BFECF1D9AA8958150A9F7CC24DD24C4
:107E500088248394B5E0AB2EA1E19A2EF3E0BF2EE7
:107E6000A2D0813461F49FD0082FAFD0023811F036
:107E7000013811F484E001C083E08DD089C08234E0
:107E800011F484E103C0853419F485E0A6D080C0E4
:107E9000853579F488D0E82EFF2485D0082F10E0AE
:107EA000102F00270E291F29000F111F8ED06801E7
:107EB0006FC0863521F484E090D080E0DECF843638
:107EC00009F040C070D06FD0082F6DD080E0C81688
:107ED00080E7D80618F4F601B7BEE895C0E0D1E017
:107EE00062D089930C17E1F7F0E0CF16F0E7DF06D8
:107EF00018F0F601B7BEE89568D007B600FCFDCFD4
:107F0000A601A0E0B1E02C9130E011968C91119780
:107F100090E0982F8827822B932B1296FA010C0160
:107F200087BEE89511244E5F5F4FF1E0A038BF0790
:107F300051F7F601A7BEE89507B600FCFDCF97BE46
:107F4000E89526C08437B1F42ED02DD0F82E2BD052
:107F50003CD0F601EF2C8F010F5F1F4F84911BD097
:107F6000EA94F801C1F70894C11CD11CFA94CF0C13
:107F7000D11C0EC0853739F428D08EE10CD085E9AC
:107F80000AD08FE07ACF813511F488E018D01DD067
:107F900080E101D065CF982F8091C00085FFFCCF94
:107FA0009093C60008958091C00087FFFCCF809118
:107FB000C00084FD01C0A8958091C6000895E0E648
:107FC000F0E098E1908380830895EDDF803219F02E
:107FD00088E0F5DFFFCF84E1DECF1F93182FE3DFCA
:107FE0001150E9F7F2DF1F91089580E0E8DFEE27F6
:047FF000FF270994CA
:027FFE00040479
:0400000300007E007B
:00000001FF
