:100000000C9486020C94AE020C94AE020C94AE02D8
:100010000C94AE020C94AE020C94160C0C94AE022E
:100020000C94AE020C94AE020C94AE020C94AE0290
:100030000C94AE020C94AE020C94AE020C94AE0280
:100040000C94CC0B0C94AE020C949A0B0C94740B85
:100050000C94AE020C94AE020C94AE020C94AE0260
:100060000C94AE020C94AE0200407A10F35A00A039
:10007000724E18090010A5D4E80000E87648170071
:1000800000E40B54020000CA9A3B000000E1F505B1
:10009000000080969800000040420F000000A086FB
:1000A00001000000102700000000E803000000002D
:1000B0006400000000000A000000000001000000D1
:1000C00000002C76D888DC674F0823DFC1DFAE59EB
:1000D000E1B1B796E5E3E453C63AE651997696E87E
:1000E000E6C28426EB898C9B62ED407C6FFCEFBC02
:1000F0009C9F40F2BAA56FA5F490055A2AF75C932D
:100100006B6CF9676DC11BFCE0E40D47FEF520E662
:10011000B500D0ED902E0300943577050080841E45
:10012000080000204E0A000000C80C333333330FA0
:10013000986E12831141EF8D2114893BE65516CF3D
:10014000FEE6DB18D1844B381BF77C1D901DA4BB49
:10015000E424203284725E228100C9F124ECA1E5FE
:100160003D2700000000250028002B0000000008AB
:10017000000201000003040700000000000000006E
:10018000535831323736204C462F48462063616C35
:100190006962726174696F6E0000000000240027BC
:1001A000002A000102040810204080010204081007
:1001B00020010204081020040404040404040402BE
:1001C0000202020202030303030303556E72656316
:1001D0006F676E697A6564207472616E73636569B6
:1001E0007665720053583132373620646574656322
:1001F0007465642C207374617274696E670053585F
:10020000313237322064657465637465642C207301
:1002100074617274696E67005358313237322073DB
:1002200075636365737366756C6C7920636F6E6656
:100230006967757265640A0053657474696E672036
:100240006E6F646520616464723A207374617465D2
:10025000200053657474696E6720506F7765723A39
:10026000207374617465200053657474696E67202F
:100270004368616E6E656C3A20737461746520002A
:1002800053657474696E67204D6F64653A207374AA
:1002900061746520005573696E67207061636B65DA
:1002A000742073657175656E6365206E756D62652A
:1002B00072206F662000476574206261636B207056
:1002C000726576696F7573207378313237322063C7
:1002D0006F6E6669670A0041546D65676133323835
:1002E000502064657465637465640A0053696D70B9
:1002F0006C65204C6F52612074656D70657261741D
:100300007572652073656E736F720A005265616461
:10031000696E6720002D2D3E20525353492065728F
:10032000726F720A002D2D3E205253534920002D2A
:100330002D3E2072657472790A0020444946533D6F
:1003400033534946533D20002D2D3E20776169747B
:1003500020666F72200023310A002332004F4B3297
:10036000002D2D3E20434144200020434144203DA8
:1003700020002D2D3E207761697420666F72200069
:100380004F4B310A002D2D3E2043414420002D2D9E
:100390003E204353310A002323206E6F7420656E84
:1003A0006F75676820546F4120617420002E0043F0
:1003B0006F756C64206E6F74207377697463682046
:1003C0004C6F5261206D6F64756C6520696E20738F
:1003D0006C656570206D6F64650A005375636365B5
:1003E000737366756C6C7920737769746368204CDD
:1003F0006F5261206D6F64756C6520696E20736C3F
:10040000656570206D6F64650A0053776974636871
:1004100020746F20706F77657220736176696E67E4
:10042000206D6F64650A0052656D61696E696E6763
:1004300020546F4120697320005061636B65742004
:1004400073656E742C20737461746520004C6F5258
:10045000612053656E7420772F43414420696E20DC
:10046000004C6F52612053656E7420696E20004C01
:100470006F526120706B742073657120004C6F5255
:100480006120706B742073697A6520005265616C1D
:10049000207061796C6F61642073697A652069737B
:1004A000200053656E64696E6720004D65616E20A3
:1004B00074656D7020697320002072656D61696ECE
:1004C000696E6720546F412069732000206379634F
:1004D0006C6520656E647320617420006379636CC1
:1004E0006520626567696E73206174200023232094
:1004F0006E6577206379636C6520666F7220546F38
:1005000041202323002E2E2E00002D0C11241FBE6F
:10051000CFEFD8E0DEBFCDBF11E0A0E0B1E0E6E470
:10052000F1E402C005900D92AE34B107D9F723E093
:10053000AEE4B1E001C01D92A539B207E1F712E0C7
:10054000C6E8D2E004C02197FE010E94081CC5380D
:10055000D107C9F70E94C30C0C94A1200C94000091
:10056000AF92BF92CF92DF92EF92FF920F931F93C1
:10057000CF93DF936C017B018B01040F151FEB01FF
:100580005E01AE18BF08C017D10759F06991D601B6
:10059000ED91FC910190F081E02DC6010995892B28
:1005A00079F7C501DF91CF911F910F91FF90EF90E7
:1005B000DF90CF90BF90AF900895FC01538D448D94
:1005C000252F30E0842F90E0821B930B541710F0FE
:1005D000CF96089501970895FC01918D828D98170B
:1005E00061F0A28DAE0FBF2FB11D5D968C91928DE3
:1005F0009F5F9F73928F90E008958FEF9FEF089514
:10060000FC01918D828D981731F0828DE80FF11DDC
:10061000858D90E008958FEF9FEF0895FC01918DF7
:10062000228D892F90E0805C9F4F821B91098F73F0
:10063000992708958EE891E00E940E0321E0892B0E
:1006400009F420E0822F089580E090E0892B29F0C2
:100650000E941A0381110C9400000895FC01A48DDE
:10066000A80FB92FB11DA35ABF4F2C91848D90E0D4
:1006700001968F739927848FA689B7892C93A089B7
:10068000B1898C91837080648C93938D848D981341
:1006900006C00288F389E02D80818F7D80830895D4
:1006A000EF92FF920F931F93CF93DF93EC0181E0C2
:1006B000888F9B8D8C8D98131AC0E889F989808169
:1006C00085FF15C09FB7F894EE89FF896083E8899C
:1006D000F98980818370806480839FBF81E090E08E
:1006E000DF91CF911F910F91FF90EF900895F62E1B
:1006F0000B8D10E00F5F1F4F0F731127E02E8C8DB5
:100700008E110CC00FB607FCFACFE889F9898081F9
:1007100085FFF5CFCE010E942E03F1CFEB8DEC0FBC
:10072000FD2FF11DE35AFF4FF0829FB7F8940B8F16
:10073000EA89FB8980818062CFCF0F931F93CF938B
:10074000DF938C01D0E0C0E0F801EC0FFD1F649155
:10075000662341F08EE891E00E945003892B11F04E
:100760002196F2CFCE01DF91CF911F910F91089585
:10077000CF93DF93EC01888D8823B9F0AA89BB89D8
:10078000E889F9898C9185FD03C0808186FD0DC0C3
:100790000FB607FCF7CF8C9185FFF2CF808185FFE4
:1007A000EDCFCE010E942E03E9CFDF91CF910895C6
:1007B00090E0FC01E459FE4F2491FC01ED55FE4F01
:1007C0003491FC01E954FE4FE491EE23C9F0222359
:1007D00039F0233001F1A8F4213019F1223029F148
:1007E000F0E0EE0FFF1FEE59FE4FA591B4918FB7C9
:1007F000F894EC91611126C030953E233C938FBF55
:1008000008952730A9F02830C9F0243049F78091A5
:1008100080008F7D03C0809180008F77809380005F
:10082000DFCF84B58F7784BDDBCF84B58F7DFBCFE1
:100830008091B0008F778093B000D2CF8091B000CC
:100840008F7DF9CF3E2BDACFCF93DF9390E0FC0181
:10085000ED55FE4F249189549E4FFC0184918823CD
:10086000D1F090E0880F991FFC01E756FE4FA5914B
:10087000B491FC01EE59FE4FC591D49161110EC0A7
:100880009FB7F8948C91E22FE0958E238C9328816A
:10089000E223E8839FBFDF91CF9108958FB7F8944B
:1008A000EC91E22BEC938FBFF6CF3FB7F894809199
:1008B000530190915401A0915501B091560126B574
:1008C000A89B05C02F3F19F00196A11DB11D3FBF88
:1008D000BA2FA92F982F8827BC01CD01620F711D57
:1008E000811D911D42E0660F771F881F991F4A9551
:1008F000D1F708958F929F92AF92BF92CF92DF92DD
:10090000EF92FF926B017C010E9455044B015C0148
:10091000C114D104E104F104B9F00E94550468192E
:1009200079098A099B09683E73408105910580F326
:1009300021E0C21AD108E108F10888EE880E83E0B0
:10094000981EA11CB11CE4CFFF90EF90DF90CF90D8
:10095000BF90AF909F908F9008952FB7F8946091BB
:100960004F017091500180915101909152012FBF20
:1009700008954115510529F4EAE7F0E080818F7769
:1009800080836A307105B9F0CB01880F991F880FF9
:10099000991F807267706860682B88E10FB6F894C1
:1009A000A895809360000FBE60936000E0E6F0E0E1
:1009B000808180648083232BD9F483B7817F846016
:1009C00083BFF89483B7816083BF85B7806685BF96
:1009D0008F7D85BF7894889583B78E7F83BF789409
:1009E000452B29F4EAE7F0E0808180688083089550
:1009F00083B7817F846083BFF89483B7816083BFAE
:100A00007894889583B78E7F83BF7894E9CF8EBD25
:100A100000000DB407FEFDCF8EB508950F931F9310
:100A2000CF93DF93082F162FCBE2D2E060E08B81CB
:100A30000E94D803802F80680E940705812F0E94A2
:100A4000070561E08B81DF91CF911F910F910C948D
:100A5000D8031F93CF93DF93182FCBE2D2E060E04F
:100A60008B810E94D803812F0E94070580E00E949D
:100A70000705182F61E08B810E94D803812FDF9139
:100A8000CF911F910895CF93DF93D82FD06281E04B
:100A90000E942905C82F8091660261E8813011F01B
:100AA00061E081E00E940E056D2F8BE00E940E0533
:100AB0006C2F81E00E940E0580E0DF91CF910895B8
:100AC0008F929F92AF92BF92CF92DF92EF92FF925E
:100AD000CF93DF934B015C010E94AD0460932F0222
:100AE00070933002809331029093320281E00E9431
:100AF0002905C82F8091660261E8813011F061E01C
:100B000081E00E940E05B5018827992786E00E94A2
:100B10000E0599278B2D7A2D692D87E00E940E05F1
:100B2000682D88E00E940E050E94AD046093330298
:100B300070933402809335029093360264E670E03D
:100B400080E090E00E947A0486E00E942905C82E89
:100B500087E00E942905D82FD12CDC2CCC24F12C45
:100B6000E12CFE2CED2CDC2CCC2488E00E94290505
:100B70002D2F30E0322F222790E0B0E0A0E0820F4E
:100B8000931FA11DB11D8C0D9D1DAE1DBF1DD1E07C
:100B900088169906AA06BB0649F480924F029092E5
:100BA0005002A0925102B0925202D0E06C2F81E02C
:100BB0000E940E0564E670E080E090E00E947A04F6
:100BC0008D2FDF91CF91FF90EF90DF90CF90BF906E
:100BD000AF909F908F90089580916602882381F056
:100BE0008EE10E94290590E024E0959587952A954D
:100BF000E1F780934E028650873020F081E008951F
:100C00008FEF089580E0089580916602882321F196
:100C10008DE10E94290590912B02682F91111AC035
:100C200064608DE10E940E058DE10E94290590917E
:100C30002B0220E0911101C022E090E002C09595C6
:100C400087952A95E2F780FF09C081E080935D02D5
:100C500080E008956160E5CF8FEF089581E0089509
:100C6000CF9381E00E942905C82F809166028130D0
:100C700061F461E80E940E056FEF82E10E940E05AB
:100C80006C2F81E0CF910C940E0561E081E00E9411
:100C90000E056FEF8EE30E940E056FEF8FE3EECF30
:100CA000CF93DF93C82F81E00E942905D82FC093EE
:100CB0006B02809166028130F9F461E80E940E05B2
:100CC00060916B0282E20E940E0582E20E94290579
:100CD000C1E090916B02981301C0C0E06D2F81E0DC
:100CE0000E940E056AEF70E080E090E00E947A04B6
:100CF0008C2FDF91CF91089561E081E00E940E0575
:100D000060916B0282E30E940E0582E3DFCF2F9297
:100D10003F924F925F926F927F928F929F92AF928B
:100D2000BF92CF92DF92EF92FF920F931F93CF93D8
:100D3000DF93CDB7DEB761970FB6F894DEBF0FBE75
:100D4000CDBF898B80914C02812C34E2932E34EFFD
:100D5000A32E37E4B32E873081F0812C44E2942E09
:100D600044EFA42E48E4B42E883039F4812C24E2D8
:100D7000922E24E7A22E28E4B22E10914E0281E09A
:100D80000E9429058B830E94AD0420916602288B66
:100D9000213009F0F5C061E881E00E940E0581E094
:100DA00090E002C0880F991F1A95E2F7312C212C90
:100DB00010E000E033E039839C01990F440B550BA0
:100DC0002C873D874E875F870E9430060E94AD04C6
:100DD0000E94AD049B01AC012C593F4F4F4F5F4F18
:100DE0002C833D834E835F8367E881E00E940E057C
:100DF0000E945504688779878A879B8782E10E94D1
:100E000029051A82382F3470F32E82FD4EC00E94BD
:100E1000AD042C813D814E815F8162177307840789
:100E2000950708F042C00E9455046B017C016C8557
:100E30007D858E859F850E948C189B01AC01C50124
:100E4000B4010E94DD1A9B01AC0160E070E080E813
:100E50009FE30E94DD1A2B013C01C701B6012885E2
:100E600039854A855B85621B730B840B950B0E9449
:100E70008A186B017C0120E034E244E759E4C301A5
:100E8000B2010E94EB1820E030E040E753E40E94FA
:100E90005A1A9B01AC01C701B6010E94D61B181655
:100EA0009CF082E10E942905ADCF0E94AD04F110B3
:100EB00025C0898181508983882309F45EC089898E
:100EC000811182CF198225C03A813111EACF8091F8
:100ED0002B0295E7F92E813011F483E6F82E8BE191
:100EE0000E9429058F0D80935502280E311C87FD25
:100EF0003A940F5F1F4F41E04A83D3CF82E10E94B3
:100F00002905817059895150598B51112FC08983FE
:100F1000188AC101B8010E94E01B609355026B81E1
:100F200081E00E940E050E94AD040E9430064981B6
:100F3000442311F052E0588B888961960FB6F894DB
:100F4000DEBF0FBECDBFDF91CF911F910F91FF90FC
:100F5000EF90DF90CF90BF90AF909F908F907F9059
:100F60006F905F904F903F902F900895882309F4E1
:100F70002BCF188A91E09983CCCF21E02983C9CF68
:100F8000198232E0388BCBCFEF92FF920F931F93F1
:100F9000CF93DF938091660205E010E0D0E0C0E0DF
:100FA000813041F535E0E32EF12C10E000E0809136
:100FB0002B02C5E7813009F4C3E68BE10E942905C5
:100FC0008C0F80935502080F111D87FD1A9581E043
:100FD000E81AF10861F7C80165E070E00E94E01BC3
:100FE0006093550280E0DF91CF911F910F91FF90A8
:100FF000EF90089581E10E94290590E095958795ED
:1010000080935502C80FD91F0150110999F7CE01DD
:10101000E3CFFC0101900020E9F73197AF01481BB5
:10102000590BBC018EE891E00C94B00286E391E08C
:101030000C940908CF93DF930E949D03EC010E945A
:1010400016088C0F9D1FDF91CF9108951F93CF93AA
:10105000DF93C0E01AE068EC70E080E090E00E946E
:101060007A0460E081E00E940E0560E881E00E9461
:101070000E0561E881E00E940E05C19FB0011124B8
:101080006E5C7F4F072E000C880B990B0E947A0430
:1010900081E00E942905D82F85E095E00E941A087A
:1010A000C0FD03C0C43159F0CF5FD138A1F681E053
:1010B0008093660280E0DF91CF911F910895C0E098
:1010C000F4CFCF93DF93C82F81E00E942905D82F5A
:1010D00080916602811102C00E94260861E881E0C9
:1010E0000E940E056C2F89E30E940E0564E670E0F5
:1010F00080E090E00E947A0489E30E942905C813E9
:1011000011C0C0932C02C0E06D2F81E00E940E053B
:1011100064E670E080E090E00E947A048C2FDF911A
:10112000CF910895C1E0F0CFFF920F931F93CF931B
:10113000DF938C0181E00E942905F82E80916602E0
:10114000D2E0811103C00E942608D82F61E881E017
:101150000E940E058DE10E942905C82F90912B0257
:10116000911142C008301105C9F109301105C9F1CA
:10117000CF730E94EC0580914E028B3011F4C16058
:1011800002C08C30E1F36C2F8DE10E940E0564E605
:1011900070E080E090E00E947A048DE10E942905D1
:1011A00090912B02282F30E0911144C096E03595A4
:1011B00027959A95E1F70830110589F10930110555
:1011C000A9F1232B41F490914E029B3009F057C0B6
:1011D0008095D82FD170D11157C024C0CF77C0646B
:1011E000D2CFCF7BC068CFCFCF7008301105D1F3FD
:1011F0000930110591F0C0670E94EC0580914E0204
:101200008B50823008F0BFCF86E20E942905682FFC
:10121000686086E20E940E05B6CFC069B4CF213067
:101220003105C9F600934C02D0E02EC022303105C2
:1012300091F6F8CF84E0359527958A95E1F7083047
:10124000110599F009301105A9F02730310519F67B
:1012500086E20E94290590914E029B3031F583FB76
:10126000DD27D0F981E0D827B6CF2830310509F045
:10127000B2CFD8CF2930310509F0ADCFD3CF9C30D4
:1012800089F680FDCFCFD1E06F2D81E00E940E0561
:1012900064E670E080E090E00E947A048D2FDF9198
:1012A000CF911F910F91FF9008959C3009F0BACF14
:1012B00083FDB8CFE8CFFF920F931F93CF93DF93B7
:1012C000182F81E00E942905082F80916602811164
:1012D00015C00E942608602F81E00E940E0564E67A
:1012E00070E080E090E00E947A0410934E0280E06B
:1012F000DF91CF911F910F91FF90089561E881E0F8
:101300000E940E058EE10E942905C82F1A30B1F007
:1013100040F4183069F0193071F0CF77C067D0E031
:1013200034C01B3071F01C30C1F7CF7CC06C1CC0C6
:10133000CF78C068F4CFCF79C069F1CFCF7AC06AD7
:10134000EECFCF7BC06B80916602882369F08091DD
:101350002B0281116BC08DE10E9429058295869533
:101360008695837080934C0280914C028730B9F649
:1013700080912B02811160C08DE10E942905D82F38
:10138000D1606D2F8DE10E940E0580916602882349
:1013900039F18DE10E94290590914E02963049F075
:1013A00090912B02682F911150C06B7F8DE10E94AC
:1013B0000E0580912B02F12C811102C082E0F82EE3
:1013C00080914E02863061F08DE10E94290590E007
:1013D00002C095958795FA94E2F780FF10925D021E
:1013E00063E081E30E940E056AE087E30E940E0538
:1013F00080912B0281112BC0C4606D2F8DE10E9462
:101400000E056C2F8EE10E940E0564E670E080E010
:1014100090E00E947A0480912B0281111FC08DE11F
:101420000E9429058EE10E94290555CF8DE10E9479
:10143000290582958F7096CF86E20E942905682F34
:10144000686086E20E940E056ACF6E7FAFCF86E2AB
:101450000E942905682F646086E2D1CF86E2E0CF42
:10146000CF93DF9381E00E942905D82F80916602F7
:10147000C2E0811103C00E942608C82F61E881E004
:101480000E940E058DE10E94290590912B02682F84
:1014900091112EC06F7C68608DE10E940E0564E69C
:1014A00070E080E090E00E947A048DE10E942905BE
:1014B00020912B02213009F023E090E002C09595A5
:1014C00087952A95E2F787709927019709F4C0E07C
:1014D00081E080934D026D2F0E940E0564E670E05E
:1014E00080E090E00E947A048C2FDF91CF910895E4
:1014F000617F6260D1CF8F929F92AF92BF920F9324
:101500001F93CF93DF93CDB7DEB7A1970FB6F894B3
:10151000DEBF0FBECDBF19A2423008F44AE08E01F3
:101520000F5D1F4F842E912CB12CA12CA50194018D
:101530000E94281AE62FB901CA01EA30F4F4E05DEE
:10154000D801EE938D01232B242B252B79F790E0E6
:1015500080E0109719F0CD010E940908A1960FB6FE
:10156000F894DEBF0FBECDBFDF91CF911F910F91D9
:10157000BF90AF909F908F900895E95CE1CFCF939B
:10158000DF930E940908EC010E9416088C0F9D1F32
:10159000DF91CF910895CF92DF92EF92FF92CF9398
:1015A000DF9397FF1BC06B017C016DE28EE891E039
:1015B0000E945003EC0166277727CB016C197D0947
:1015C0008E099F094AE00E947B0A8C0F9D1FDF91C4
:1015D000CF91FF90EF90DF90CF9008954AE0DF9198
:1015E000CF91FF90EF90DF90CF900C947B0ABC01DD
:1015F000990F880B990B0C94CB0A80918003882358
:1016000009F46DC00E94AD04AB01BC018091890357
:1016100090918A03A0918B03B0918C038417950756
:10162000A607B70708F052C08093850390938603FE
:10163000A0938703B093880340EA5CE860E070E021
:1016400040938103509382036093830370938403D8
:1016500080589141A94CBF4F8093890390938A038E
:10166000A0938B03B0938C038DEE94E00E941A0834
:101670008CED94E00E949D03609185037091860338
:1016800080918703909188034AE00E947B0A8CEC4A
:1016900094E00E949D036091890370918A03809178
:1016A0008B0390918C034AE00E947B0A89EB94E0C3
:1016B0000E949D0360918103709182038091830356
:1016C000909184030E94CB0A0E94160860918103C6
:1016D000709182038091830390918403089560EA5E
:1016E0007CE880E090E008951F920F920FB60F9271
:1016F00011242F933F934F935F936F937F938F9317
:101700009F93AF93BF93EF93FF938EE891E00E9476
:101710002E03FF91EF91BF91AF919F918F917F9198
:101720006F915F914F913F912F910F900FBE0F904E
:101730001F9018951F920F920FB60F9211242F939E
:101740008F939F93EF93FF93E0919E01F0919F0100
:101750008081E091A401F091A50182FD1BC09081E0
:101760008091A7018F5F8F732091A801821741F0AC
:10177000E091A701F0E0E257FE4F958F8093A7011B
:10178000FF91EF919F918F912F910F900FBE0F902E
:101790001F9018958081F4CF1F920F920FB60F9271
:1017A00011242F933F938F939F93AF93BF93809177
:1017B0004F0190915001A0915101B091520130918F
:1017C0004E0123E0230F2D3758F50196A11DB11DC1
:1017D00020934E0180934F0190935001A0935101AB
:1017E000B09352018091530190915401A091550101
:1017F000B09156010196A11DB11D809353019093A4
:101800005401A0935501B0935601BF91AF919F91A0
:101810008F913F912F910F900FBE0F901F901895B1
:1018200026E8230F0296A11DB11DD2CF1F920F9261
:101830000FB60F9211248F930FB6F894A89580914C
:101840006000886180936000109260000FBE8F91ED
:101850000F900FBE0F901F9018950F931F93CF936B
:10186000DF93EEE8F1E01382128288EE93E0A0E0CD
:10187000B0E084839583A683B78388E291E0918367
:10188000808385EC90E09587848784EC90E097874F
:10189000868780EC90E0918B808B81EC90E0938B3D
:1018A000828B82EC90E0958B848B86EC90E0978B1A
:1018B000868B118E128E138E148ECBE2D2E08AE0CC
:1018C0008B8397E099A381E08AA39BA340E050EC2F
:1018D00064EE70E04CA35DA36EA37FA31AAA1CAABA
:1018E0001BAE9FE098A71EAA1FAA18AE92E19A838A
:1018F0001B8E1E8A8F8B188E89E08D8B1D8E109209
:1019000080030E94AD0460938503709386038093E7
:1019100087039093880300EA1CE820E030E00093FE
:1019200081031093820320938303309384036058D0
:101930007141894C9F4F6093890370938A03809310
:101940008B0390938C031F8E8FE792E090936D0230
:1019500080936C0290937502809374028AE793E0FF
:1019600090937D0280937C0219AE88AD80936E02C5
:101970008BE490E09093900380938F03DF91CF915D
:101980001F910F910895CF93DF93CDB7DEB7AB973B
:101990000FB6F894DEBF0FBECDBF789484B58260D9
:1019A00084BD84B5816084BD85B5826085BD85B503
:1019B000816085BD80916E00816080936E00109281
:1019C00081008091810082608093810080918100FC
:1019D000816080938100809180008160809380008D
:1019E0008091B10084608093B1008091B0008160EB
:1019F0008093B00080917A00846080937A00809117
:101A00007A00826080937A0080917A00816080936E
:101A10007A0080917A00806880937A001092C100E9
:101A200060E08FE00E94240461E089E00E942404C9
:101A300068EB7BE080E090E00E947A04E0919E01F8
:101A4000F0919F0182E08083E0919A01F0919B01E7
:101A50001082E0919C01F0919D0183E380831092BC
:101A6000A601E091A201F091A30186E08083E091BC
:101A7000A001F091A101808180618083E091A001AB
:101A8000F091A101808188608083E091A001F091B4
:101A9000A101808180688083E091A001F091A10183
:101AA00080818F7D80838CEE92E00E949D0387ED84
:101AB00092E00E949D0361E080912E020E94240426
:101AC00061E080912E020E94D80364E670E080E01D
:101AD00090E00E947A041FB7F89480915701811119
:101AE00027C0E1ECF1E08491EDEAF1E09491E82F78
:101AF000F0E0EE0FFF1FE756FE4FA591B491EC9179
:101B0000E92321F461E08AE00E94D80361E08AE0E1
:101B10000E9424048CB580618CBD8CB580648CBD22
:101B200061E08DE00E94240461E08BE00E942404C7
:101B3000809157018F5F809357011FBF8CB58F7DB8
:101B40008CBD8CB58C7F81608CBD8DB581608DBD69
:101B50008CB5837F8CBD64E670E080E090E00E94ED
:101B60007A0482E40E942905823209F0EBC08EEFEC
:101B700091E00E941A0810922B0280912B02813072
:101B800041F580E891E00E941A0860E089E00E9437
:101B90000E058BE30E942905682F60648BE30E9489
:101BA0000E058BE30E94290585FDFBCF60E070E008
:101BB00089ED90E00E9460058BE30E942905682F63
:101BC00060648BE30E940E058BE30E94290585FD6E
:101BD000FBCF8BE10E9443050E942608009166021C
:101BE000013009F0C3C080912B021DE1882311F060
:101BF00002E01EE1812F0E94290590912B02682F9F
:101C00009111B2C06260812F0E940E05812F0E9447
:101C1000290590E002C0959587950A95E2F780FF27
:101C200003C081E080935F0280916602813009F0F9
:101C3000ABC080E20E94290510925802809359029D
:101C400081E20E9429052091580230915902820FA9
:101C5000932F911D909359028093580280912D02E9
:101C60000E94610880916602882329F089E30E941E
:101C7000290580932C0280912C0280932D020E94D2
:101C8000AD04611571058105910511F00E9445169D
:101C900090E080E00E94A919082F8093590181E00B
:101CA00090E00E94A919182F80935A0182E090E0D9
:101CB0000E94A91980935B01023109F06EC01433B0
:101CC00009F06BC086EB92E00E949D0380915B015E
:101CD0008093610285E992E00E949D036091610218
:101CE00070E090E080E04AE00E947B0A88E391E0A7
:101CF0000E94BF0A81E00E942905082F8091660298
:101D0000811102C00E94260861E881E00E940E0550
:101D10000E94300A8CE00E945B0987E090E00E94FC
:101D200094088DE10E94290520912B0290E0211159
:101D30003FC033E0959587953A95E1F70197E1F13A
:101D400011E047C082E40E942905823141F484EE0B
:101D500091E00E941A0881E080932B020ECF8BEC59
:101D600091E00E941A0809CF64604DCF80E30E9481
:101D70002905682F606180E30E940E0580E30E94C0
:101D8000290584FD4ECF50CF85E20E94290510928F
:101D900058028093590286E254CF82E18093590120
:101DA00084E380935A018091610280935B01A2CF0A
:101DB00095958795C99721F68EE10E94290590E0B7
:101DC00014E0959587951A95E1F711E00C9709F4C1
:101DD00010E080912D020E946108111103C081E082
:101DE00080933F02602F81E00E940E0564E670E060
:101DF00080E090E00E947A0480E892E00E949D03D7
:101E0000812F90E00E94F70A88E391E00E94BF0AC8
:101E10006CEC7CE488ED90E00E946005182F88E669
:101E200092E00E949D03812F110F990B0E94F70AE7
:101E300088E391E00E94BF0A81E080934302109200
:101E400042028093480280912B021AE581111DE421
:101E500081E00E942905082F8091660261E88130A7
:101E600011F061E081E00E940E0564E8812F0E947C
:101E70000E0580E10E94430590912B02809148025B
:101E8000911128C41CE8811101C01FE0612F89E075
:101E90000E940E051093530289E00E94290511E06B
:101EA00090915302981301C010E0602F81E00E94CE
:101EB0000E0564E670E080E090E00E947A0482E51E
:101EC00092E00E949D03812F90E00E94F70A88E330
:101ED00091E00E94BF0A88E080935C0281E00E944A
:101EE0002905182F8091660261EC813011F061E0C4
:101EF00081E00E940E0568E083E30E940E0560E029
:101F000084E30E940E0583E30E942905F82E612FC9
:101F100081E00E940E0501E010E080915C028F11CB
:101F200002C010E000E088E392E00E949D03C80137
:101F30000E94F70A88E391E00E94BF0A88E192E0DC
:101F40000E949D0364EF71E080E090E00E947A04BB
:101F500061E089E00E94D80368EC70E080E090E0E6
:101F60000E947A04A5E0EA2EF12C812C912C5401D8
:101F7000B1E4DB2ED0927C0080917A008064809363
:101F80007A0080917A0086FDFCCF60917800009104
:101F90007900102F062F8CE093E00E949D03C8016A
:101FA0000E94F70A0E941608B801110F880B990BBE
:101FB0000E948C1820E030E44CE955E40E94EB18B4
:101FC00020E030E040E85AE30E94EB1820E030E0E7
:101FD00040E251E40E94DD1A9B01AC01C501B4014D
:101FE0000E945A1A4B015C0164E670E080E090E0C8
:101FF0000E947A0421E0E21AF10809F0BBCF60E008
:1020000089E00E94D8038BEA94E00E949D0320E0BF
:1020100030E040EA50E4C501B4010E94DD1A6B01D2
:102020007C01AC019B010E94DB1B882309F457C390
:1020300089E391E00E94090888E391E00E94BF0AC9
:102040008E010F5F1F4F22E044E0C701B6010E94DE
:102050008C157C0110E000E0009799F0FC010190E4
:102060000020E9F7BF01681B790B90E080E00E9437
:10207000331D8C01009729F0FC011082B7010E94EA
:10208000F91D1F930F9380E091E09F938F9385E458
:1020900091E09F938F938CE591E09F938F930E94A3
:1020A000001E1C01D82E0FB6F894DEBF0FBECDBFA8
:1020B0000115110519F0C8010E94AA1C82EA94E0DA
:1020C0000E949D038CE591E00E94090888E391E05D
:1020D0000E94BF0A8CE894E00E949D036D2D70E081
:1020E00090E080E04AE00E947B0A88E391E00E9451
:1020F000BF0A33248EE893E00E949D038091400242
:10210000882309F4F6C0C0904302CC2009F4F1C042
:10211000F3E0FF2ED12CE8E0EE2E0E94AD04609398
:102120003702709338028093390290933A0280917B
:1021300040020E948706182F0E94AD0460933B0264
:1021400070933C0280933D0290933E0285E893E0B9
:102150000E949D0360913B0270913C0280913D0280
:1021600090913E028090370290903802A090390200
:10217000B0903A02681979098A099B094AE00E94DD
:102180007B0A0E94160811113CC380E893E00E946C
:102190009D0380914102882309F480C00E94F615B6
:1021A00027E030E040E050E00E94BF194B015C01A5
:1021B0003FEF831A930AA30AB30A82E793E00E94CF
:1021C0009D03C501B4017727882799274AE00E941B
:1021D0007B0A8AE693E00E949D03E0913F02F0E0D3
:1021E000E75EFE4F8081889EC00111240E94F70A9D
:1021F0000E941608E0913F02F0E0E75EFE4F60812A
:10220000869EB0011124072E000C880B990B0E94AA
:102210007A040E94AD046093370270933802809371
:10222000390290933A02809140020E948706082F5B
:1022300010E00E94AD0460933B0270933C028093D7
:102240003D0290933E0281E693E00E949D036091DF
:102250003B0270913C0280913D0290913E02809041
:10226000370290903802A0903902B0903A02681973
:1022700079098A099B094AE00E947B0A0E94160894
:102280008DE593E00115110511F08AE593E00E94B8
:102290009D030E941608012B09F008C38091420299
:1022A000882309F410C30E94C407811103C318E0F6
:1022B0000E94C40785E293E00E949D03809155022D
:1022C000082E000C990B0E94F70A0E941608115064
:1022D00061E070E080E090E00E947A048091550215
:1022E000873A0CF4ECC21111E3CFFA94DC2CF11014
:1022F00012CF0E94AD046CA37DA38EA39FA380E1A7
:10230000809368022CEF221631040CF4DFC28BEFAD
:1023100090E090935B0280935A028091800388231F
:1023200009F4D9C2A0905A02B0905B028091460293
:10233000811103C034E0A30EB11C0E94FD0A68A7FE
:1023400079A78AA79BA710914C02C12C64E2D62ED4
:1023500064EFE62E67E4F62E173081F0C12C74E2AC
:10236000D72E74E7E72E78E4F72E183039F0C12C19
:1023700054E2D52E54EFE52E58E4F52E00914E028E
:10238000402F50E05BA34AA361E070E0002E02C042
:10239000660F771F0A94E2F7072E000C880B990B43
:1023A0000E948C189B01AC01C701B6010E94DD1A86
:1023B0009B01AC0160E070E080E89FE30E94DD1AC1
:1023C0006B017C0160915802709159026C5F7F4FE4
:1023D00090E080E00E948A1820E030E048E850E475
:1023E0000E945A1AA70196010E94EB182B013C018A
:1023F000173019F411E00C3009F010E0B50177271F
:10240000660F771F8AA19BA1681B790B655F7F4FC1
:1024100020915D024BEF420390011124620F731F64
:10242000660F771F660F771F072E000C880B990B1E
:102430000E948C184B015C01812F90E0880F991F3E
:102440006AA17BA1681B790B660F771F660F771F48
:10245000072E000C880B990B0E948C189B01AC0175
:10246000C501B4010E94DD1A0E94C61A4B015C012D
:1024700060914D0270E06C5F7F4F072E000C880B5F
:10248000990B0E948C18A50194010E94EB184B0136
:102490005C0120E030E0A9010E94D61B20E030E082
:1024A00040E051E4181634F4C501B4010E945A1AF0
:1024B0009B01AC01C701B6010E94EB18A301920178
:1024C0000E945A1A20E034E244E759E40E94EB18D3
:1024D00027E73EEB4FE75FE30E945A1A0E947E1BFC
:1024E0000E944F1B28EE33E040E050E00E94281A83
:1024F000CA01B9010E948A1820E030E040E85FE399
:102500000E945A1A0E944F1B70938E0360938D0392
:1025100088A599A5AAA5BBA5861B970BA109B109FA
:10252000B7FFD9C187E993E00E949D030E94AD04E3
:102530004AE00E947B0A0E94160804E010E00E9414
:10254000AD044B015C018091610280935B0189E5E0
:10255000E82E81E0F82ED12CC12CF70171907F017B
:10256000C6010E94A919781621F0672DC6010E94A4
:10257000B119FFEFCF1ADF0A23E0C216D10469F7C1
:102580008DE794E00E949D03C1010E94F70A88E351
:1025900091E00E94BF0A8FE694E00E949D03609143
:1025A0006A0270E090E080E04AE00E947B0A88E3E3
:1025B00091E00E94BF0A81E694E00E949D03C5015C
:1025C000B4012CA13DA14EA15FA1621B730B840B32
:1025D000950B0E94CB0A88E391E00E94BF0A8DE42C
:1025E00094E00E949D038091370290913802A0915F
:1025F0003902B0913A02A5019401281B390B4A0B0C
:102600005B0BCA01B9014AE00E947B0A88E391E0B2
:102610000E94BF0A89E394E00E949D03C8010E94C2
:10262000F70A88E391E00E94BF0A87E294E00E94E3
:102630009D030E94FD0A0E94CB0A88E391E00E945C
:10264000BF0A8AE094E00E949D0361E881E00E9455
:102650000E0564E670E080E090E00E947A0460E895
:1026600081E00E940E0581E00E942905803809F46E
:1026700043C28FEA93E00E949D038EE891E00E949E
:10268000B80362E370E080E090E00E947A048BE49B
:1026900090E09093900380938F031CE4115009F411
:1026A0002EC230E020E050E040E069E070E088E5D4
:1026B00091E00E94B9048DEA93E00E949D038EE8A8
:1026C00091E00E94B80361E070E080E090E00E9439
:1026D0007A04E4CF1EE081111CE81067D7CB4601D5
:1026E0005701E894B7F82FEF3FEF4FE75FE7C501D9
:1026F000B4010E94DB1B81110DC02FEF3FEF4FE7AC
:102700005FE7C501B4010E94851818161CF48DE31B
:1027100091E090CC2FEF3FEF4FE75FE4C701B601A8
:102720000E94D61B18161CF481E491E083CC2FEF95
:102730003FEF4FE75FECC701B6010E94851887FDA8
:10274000F3CF20E030E0A901C701B6010E9485184F
:1027500087FF54C06DE28EE891E00E945003C701EC
:10276000B60190582AE037ED43EA5BE30E945A1A1B
:102770002B013C010E944F1B4B015C010E948A18F7
:102780009B01AC01C301B2010E94591A2B013C010B
:102790004AE0C501B4010E947B0A6EE28EE891E036
:1027A0000E94500320E030E040E251E4C301B20156
:1027B0000E94EB182B013C010E944F1B4B01B12CD6
:1027C000A12C4AE0C501B4010E947B0AC501B401F5
:1027D0000E948A189B01AC01C301B2010E94591AE0
:1027E00020E030E040E251E40E94EB180E944F1BD1
:1027F00090E080E04AE00E947B0A1ECCC701B6014F
:10280000B1CF86E593E00E949D030E94F61527E074
:1028100030E040E050E00E94BF194B015C014FEFF7
:10282000841A940AA40AB40A88E493E00E949D03DF
:10283000C501B4017727882799274AE00E947B0ABF
:102840008AE393E00E949D03912CE0913F02F0E027
:10285000E25FFE4F808153E0859FC0011124FC019F
:10286000E89DC001E99D900DF89D900D11240E94F6
:10287000F70A0E941608E0913F02F0E0E25FFE4F87
:102880008081F3E08F9FC0011124889DB001899D54
:10289000700D989D700D1124072E000C880B990B5C
:1028A0000E947A048FE293E00E949D03EA94E11073
:1028B00034CCF4CC85E193E00E949D031ACD112322
:1028C00009F413CD16CDD11010CD13CD30925B028B
:1028D00020925A0222CD81E00E942905182F0E94E1
:1028E00030068091660261E8813011F061E081E09C
:1028F0000E940E05109262022091630280915A029A
:1029000090915B0221117CC021E020936002209312
:10291000670220915C02209369022091610220935A
:102920006A022F5F2093610210926E02209166026C
:10293000211108C0CD9730F08CE390E090935B02BA
:1029400080935A02ACE5B1E09D012C553140809155
:102950005A0290915B022817390748F48D91E09153
:102960006C02F0916D02E20FF31F8083EDCF209196
:102970004602211101C004960E945006082F809142
:102980006802982F90619093680290914A0299236F
:1029900019F088618093680260E88DE00E940E055E
:1029A000011142C080914602811113C060916702FB
:1029B0000E940E056091680280E00E940E05609101
:1029C000690280E00E940E0560916A0280E00E9428
:1029D0000E05F12CE12C80915A0290915B02E816D1
:1029E000F90610F5E0916C02F0916D02EE0DFF1DFD
:1029F000608180E00E940E055FEFE51AF50AEBCFDB
:102A0000213029F420916B022F5F20936B022091DB
:102A10004602211101C004960E945006082F8091A1
:102A2000630280936E02ABCF612F81E00E940E059E
:102A3000011184CD80E197E290937F0380937E0320
:102A40000E94AD046B017C01E0E1CE0EE7E2DE1EE8
:102A5000E11CF11C809166028130D1F50E943006A4
:102A600063E881E00E940E0582E10E942905182F8B
:102A700083FD07C00E94AD046C157D058E059F0582
:102A800098F313FF37C0809180038823F1F0E09022
:102A90008D03F0908E030E94FD0A809180038823AD
:102AA000A1F08091810390918203A0918303B09162
:102AB00084038E199F09A109B10980938103909322
:102AC0008203A0938303B09384030E94300636CD23
:102AD00063E081E00E940E058FE30E942905182F14
:102AE00083FDCFCF0E94AD046C157D058E059F053B
:102AF00098F3C7CF01E0E9CF8BED93E0BCCD80E048
:102B000090E0892B09F424CA0E941A03882309F44F
:102B10001FCA0E9400001CCAEF920F931F93CF930D
:102B2000DF93E80134E047FD34E1042E000C550B3F
:102B300057FF03C0519541955109E32E022F242FD1
:102B4000AE010E944E16CE01DF91CF911F910F91E1
:102B5000EF9008958F929F92AF92BF92CF92DF92A3
:102B6000EF92FF92CF93DF93EC01688179818A81A4
:102B70009B81611571058105910521F464E279ED70
:102B80008BE597E02DE133EF41E050E00E94BF1963
:102B900049015A019B01AC01A7EAB1E40E94DE1988
:102BA0006B017C01ACEEB4EFA50194010E94EC191D
:102BB000C60ED71EE81EF91EF7FE06C081E0C81A31
:102BC000D108E10880E8F80AC882D982EA82FB824B
:102BD000C701B6019F77DF91CF91FF90EF90DF9013
:102BE000CF90BF90AF909F908F9008958F929F92BB
:102BF000AF92BF92CF92DF92EF92FF926091040169
:102C00007091050180910601909107016115710590
:102C10008105910521F464E279ED8BE597E02DE1E2
:102C200033EF41E050E00E94BF1949015A019B0176
:102C3000AC01A7EAB1E40E94DE196B017C01ACEEA5
:102C4000B4EFA50194010E94EC19C60ED71EE81E30
:102C5000F91EF7FE06C081E0C81AD108E10880E835
:102C6000F80AC0920401D0920501E0920601F092A8
:102C70000701C701B6019F77FF90EF90DF90CF90DB
:102C8000BF90AF909F908F900895609304017093D0
:102C9000050180930601909307010895A9E0B0E033
:102CA000E4E5F6E10C94F7196A01F22EB02E102F2C
:102CB000FBE3AF2EA01608F41BE31F5F012F27E0F4
:102CC000AE014F5F5F4F0E94AD17BC018981982F05
:102CD0009970913009F43FC09BE2E1FC04C09E2D45
:102CE0009170E0FC3AC05E2D5071E82FE87083FFD0
:102CF00046C084E0911101C083E0EF2DE81B8F15E1
:102D000008F0E0E0D6018E2F20E2552351F19923FF
:102D100029F0D6019C93C60101966C0196012D5FA6
:102D20003F4FE2FE24C08EE4D6018C9391E41196CD
:102D30009C93119712968C93D9018E2F90E281115A
:102D40001BC0E20FF32FF11D10828EEF9FEF29962B
:102D5000ECE00C94131A9DE2C6CF90E2C4CF2D9301
:102D600081508111FCCFCE0ED11CE0E0D0CF8EE699
:102D7000D6018C9391E6DBCF9D938150E0CF482F15
:102D8000447082FF3DC084E0911101C083E08F1543
:102D900010F4EF2DE81BD6018E2F20E2552309F108
:102DA000992329F0D6019C93C60101966C019601E6
:102DB0002D5F3F4FE2FE1BC089E4D6018C938EE469
:102DC00011968C93119786E412968C93D9018E2FCD
:102DD00090E2882309F4B5CF9D938150FACF2D93CB
:102DE00081508111FCCFCE0ED11CE0E0D9CF89E615
:102DF000D6018C938EE611968C93119786E6E4CFDC
:102E00009B0177FF02C030E020E0A1E0B0E091112B
:102E100002C0B0E0A0E0F9013196AE0FBF1F8B2CCD
:102E2000912CBB2009F461C05401EFEFAE1ABE0A29
:102E3000AA0DBB1DFA161B0619F014F04F2D4A1BE4
:102E4000511188C0E3FC59C07601A42FB0E2A11152
:102E50004FC0C40ED11C992309F45BC040E0D601D9
:102E60001196F60190836D01552309F448C0012F96
:102E7000060F9A81582F507184FF03C0913309F4D3
:102E8000015010160CF047C0093008F008E0EEE2DF
:102E9000FE2E5B01A01AB1088501919481949108DE
:102EA0002F3F320729F4D601FC92F60131966F01CB
:102EB0006217730794F1021713077CF5DB01A21B5D
:102EC000B30BAA24A394B12CAC0EBD1EAA0DBB1D3E
:102ED00011968C9121503109D6011196281539058A
:102EE000F4F0F60180836D01DBCFB12CA12CA0CFD3
:102EF000F701B1937F01A150AACF9111B0CFD601B4
:102F0000942F50E302C05D9391509111FCCFC40EF9
:102F1000D11C40E0ACCF01E0BACF80E3DBCF621739
:102F2000730731F4963388F4953311F4552369F01F
:102F3000F6018083FD01842F90E2811108C0A40F67
:102F4000B11D1C9290E080E002CF81E3F1CF91931C
:102F50008150F3CF911183CF8ACF283008F027E03A
:102F60003327DA01990F311D87FD916000966105C5
:102F7000710539F432602E5F3D9330E32A95E1F715
:102F800008959F3F30F080387105610509F03C5F7E
:102F90003C5F3D93913008F08068911DDF93CF93A3
:102FA0001F930F93FF92EF92192F987F9695E92F19
:102FB00096959695E90FFF27EE53FF4F99273327F4
:102FC000EE24FF24A701E70105900894079428F454
:102FD000360FE71EF81E491F511D660F771F881F09
:102FE000991F0694A1F70590079428F4E70EF81EA0
:102FF000491F561FC11D770F881F991F661F069412
:10300000A1F70590079428F4F80E491F561FC71F13
:10301000D11D880F991F661F771F0694A1F7059091
:10302000079420F4490F561FC71FD81F990F661F1A
:10303000771F881F0694A9F784911095177041F0A7
:10304000D695C79557954795F794E7941A95C1F784
:10305000E8E6F0E0689415901591359165919591A9
:1030600005907FE27395E118F10A430B560BC90BEB
:10307000D009C0F7E10CF11E431F561FC91FD01D18
:103080007EF4703311F48A95E6CFE894015030F065
:10309000080F0AF40027021708F4202F2395022FA7
:1030A0007A3328F079E37D932A95E9F710C07D9370
:1030B0002A9589F6069497956795379517951794ED
:1030C000E118F10A430B560BC90BD00998F0239570
:1030D0007E9173957A3308F070E37C932013B8F7F0
:1030E0007E9170617D9330F0839571E37D9370E301
:1030F0002A95E1F71124EF90FF900F911F91CF9146
:10310000DF91992787FD909508950E94C71808F4CC
:1031100081E00895E89409C097FB3EF4909580956E
:10312000709561957F4F8F4F9F4F9923A9F0F92F8D
:1031300096E9BB279395F695879577956795B7950B
:10314000F111F8CFFAF4BB0F11F460FF1BC06F5FF1
:103150007F4F8F4F9F4F16C0882311F096E911C003
:10316000772321F09EE8872F762F05C0662371F024
:1031700096E8862F70E060E02AF09A95660F771F38
:10318000881FDAF7880F9695879597F90895990F14
:103190000008550FAA0BE0E8FEEF16161706E80721
:1031A000F907C0F012161306E407F50798F0621B42
:1031B000730B840B950B39F40A2661F0232B242B17
:1031C000252B21F408950A2609F4A140A6958FEF36
:1031D000811D811D08950E94FE180C946F190E9494
:1031E000611938F00E94681920F0952311F00C94B1
:1031F00058190C945E1911240C94A3190E9480197B
:1032000070F3959FC1F3950F50E0551F629FF00139
:10321000729FBB27F00DB11D639FAA27F00DB11D52
:10322000AA1F649F6627B00DA11D661F829F2227DB
:10323000B00DA11D621F739FB00DA11D621F839F62
:10324000A00D611D221F749F3327A00D611D231F38
:10325000849F600D211D822F762F6A2F11249F5786
:1032600050409AF0F1F088234AF0EE0FFF1FBB1F89
:10327000661F771F881F91505040A9F79E3F510548
:1032800080F00C9458190C94A3195F3FE4F3983E16
:10329000D4F3869577956795B795F795E7959F5FF2
:1032A000C1F7FE2B880F911D9695879597F9089584
:1032B00097F99F6780E870E060E008959FEF80ECE9
:1032C000089500240A94161617061806090608958C
:1032D00000240A9412161306140605060895092EF2
:1032E0000394000C11F4882352F0BB0F40F4BF2B61
:1032F00011F460FF04C06F5F7F4F8F4F9F4F0895A1
:1033000057FD9058440F551F59F05F3F71F0479596
:10331000880F97FB991F61F09F3F79F0879508957B
:10332000121613061406551FF2CF4695F1DF08C09A
:10333000161617061806991FF1CF869571056105B7
:1033400008940895E894BB2766277727CB0197F95F
:103350000895F999FECF92BD81BDF89A992780B55D
:103360000895262FF999FECF1FBA92BD81BD20BDC9
:103370000FB6F894FA9AF99A0FBE01960895052EA1
:1033800097FB1EF400940E94D61957FD07D00E94A7
:10339000281A07FC03D04EF40C94D619509540958A
:1033A000309521953F4F4F4F5F4F089590958095F1
:1033B000709561957F4F8F4F9F4F08950E944A1AD5
:1033C000A59F900DB49F900DA49F800D911D112479
:1033D0000895B7FF0C94DE190E94DE19821B930B2F
:1033E00008952F923F924F925F926F927F928F92A9
:1033F0009F92AF92BF92CF92DF92EF92FF920F9384
:103400001F93CF93DF93CDB7DEB7CA1BDB0B0FB68D
:10341000F894DEBF0FBECDBF09942A88398848884A
:103420005F846E847D848C849B84AA84B984C884E0
:10343000DF80EE80FD800C811B81AA81B981CE0FD7
:10344000D11D0FB6F894DEBF0FBECDBFED010895BC
:10345000A1E21A2EAA1BBB1BFD010DC0AA1FBB1F98
:10346000EE1FFF1FA217B307E407F50720F0A21B0A
:10347000B30BE40BF50B661F771F881F991F1A9477
:1034800069F760957095809590959B01AC01BD01A1
:10349000CF010895A29FB001B39FC001A39F700DFB
:1034A000811D1124911DB29F700D811D1124911D4C
:1034B00008955058BB27AA270E94711A0C946F19BF
:1034C0000E94611938F00E94681920F039F49F3F7A
:1034D00019F426F40C945E190EF4E095E7FB0C94B5
:1034E0005819E92F0E94801958F3BA176207730719
:1034F0008407950720F079F4A6F50C94A2190EF430
:10350000E0950B2EBA2FA02D0B01B90190010C01F3
:10351000CA01A0011124FF27591B99F0593F50F40B
:10352000503E68F11A16F040A22F232F342F442763
:10353000585FF3CF469537952795A795F04053955B
:10354000C9F77EF41F16BA0B620B730B840BBAF02B
:103550009150A1F0FF0FBB1F661F771F881FC2F796
:103560000EC0BA0F621F731F841F48F487957795AA
:103570006795B795F7959E3F08F0B0CF9395880F64
:1035800008F09927EE0F9795879508950E94BE1B26
:1035900090F09F3748F4911116F40C94A31960E051
:1035A00070E080E89FE3089526F01B16611D711DF1
:1035B000811D0C94951B0C94B01B0E94F11A0C9465
:1035C0006F190E94681958F00E94611940F029F49F
:1035D0005F3F29F00C94581951110C94A3190C94C5
:1035E0005E190E94801968F39923B1F3552391F372
:1035F000951B550BBB27AA2762177307840738F062
:103600009F5F5F4F220F331F441FAA1FA9F335D0BE
:103610000E2E3AF0E0E832D091505040E695001C72
:10362000CAF72BD0FE2F29D0660F771F881FBB1F2C
:10363000261737074807AB07B0E809F0BB0B802D0A
:10364000BF01FF2793585F4F3AF09E3F510578F036
:103650000C9458190C94A3195F3FE4F3983ED4F3EB
:10366000869577956795B795F7959F5FC9F7880F0A
:10367000911D9695879597F90895E1E0660F771F5C
:10368000881FBB1F621773078407BA0720F0621BED
:10369000730B840BBA0BEE1F88F7E09508950E9418
:1036A000881988F09F5798F0B92F9927B751B0F033
:1036B000E1F0660F771F881F991F1AF0BA95C9F7B6
:1036C00014C0B13091F00E94A219B1E008950C9499
:1036D000A219672F782F8827B85F39F0B93FCCF34C
:1036E000869577956795B395D9F73EF49095809533
:1036F000709561957F4F8F4F9F4F08950E94BE1B1D
:1037000090F09F3748F4911116F00C94A31960E0E3
:1037100070E080E89FEB089526F41B16611D711D73
:10372000811D0C94951B0C94B01B882371F4772396
:1037300021F09850872B762F07C0662311F4992724
:103740000DC09051862B70E060E02AF09A95660FCC
:10375000771F881FDAF7880F9695879597F9089550
:103760009F3F31F0915020F4879577956795B795F5
:10377000880F911D9695879597F908950E9488194D
:10378000A0F0BEE7B91788F4BB279F3860F416167F
:10379000B11D672F782F8827985FF7CF869577958B
:1037A0006795B11D93959639C8F308950E94C7187F
:1037B00008F48FEF08950E94C718880B990B08959D
:1037C00097FB072E16F4009407D077FD09D00E94CE
:1037D000F41B07FC05D03EF4909581959F4F08950A
:1037E000709561957F4F0895AA1BBB1B51E107C0DF
:1037F000AA1FBB1FA617B70710F0A61BB70B881F81
:10380000991F5A95A9F780959095BC01CD0108950F
:10381000EE0FFF1F0590F491E02D09940F931F9375
:10382000CF93DF938230910510F482E090E0E09135
:103830009303F091940330E020E0B0E0A0E03097F3
:1038400099F42115310509F44AC0281B390B24309D
:103850003105D8F58A819B816115710589F1FB01DC
:1038600093838283FE0111C04081518102811381C3
:1038700048175907E0F04817590799F4109761F075
:1038800012960C93129713961C933296CF01DF91E8
:10389000CF911F910F910895009393031093940378
:1038A000F4CF2115310551F04217530738F0A90123
:1038B000DB019A01BD01DF01F801C1CFEF01F9CFB2
:1038C0009093940380939303CDCFFE01E20FF31FF7
:1038D000819391932250310939832883D7CF209146
:1038E000910330919203232B41F420910A013091EE
:1038F0000B013093920320939103209108013091A2
:1039000009012115310541F42DB73EB740910C0155
:1039100050910D01241B350BE0919103F09192031E
:10392000E217F307A0F42E1B3F0B2817390778F096
:10393000AC014E5F5F4F2417350748F04E0F5F1FF5
:103940005093920340939103819391939FCFF0E022
:10395000E0E09CCFCF93DF930097E9F0FC01329732
:1039600013821282A0919303B0919403ED0130E091
:1039700020E01097A1F420813181820F931F2091C4
:103980009103309192032817390709F061C0F09331
:103990009203E0939103DF91CF910895EA01CE174E
:1039A000DF07E8F54A815B819E0141155105B1F7BA
:1039B000E901FB83EA8349915991C40FD51FEC17A4
:1039C000FD0761F4808191810296840F951FE901C2
:1039D00099838883828193819B838A83F0E0E0E0EE
:1039E00012968D919C9113970097B9F52D913C916A
:1039F0001197CD010296820F931F20919103309170
:103A000092032817390739F6309751F5109294032D
:103A100010929303B0939203A0939103BCCFD383EE
:103A2000C28340815181840F951FC817D90761F463
:103A30004E5F5F4F88819981480F591F51834083A2
:103A40008A819B81938382832115310509F0B0CF50
:103A5000F0939403E09393039ECFFD01DC01C0CF6C
:103A600013821282D7CFB0E0A0E0E9E3FDE10C942D
:103A7000F3198C01009751F4CB010E940E1C8C01AC
:103A8000C801CDB7DEB7E0E10C940F1AFC01E60FD8
:103A9000F71F9C0122503109E217F30708F49DC07B
:103AA000D901CD91DC911197C617D70798F0C53091
:103AB000D10530F3CE0104978617970708F3C61B8C
:103AC000D70B2297C193D1936D937C93CF010E9422
:103AD000AA1CD6CF5B01AC1ABD0A4C018C0E9D1EF0
:103AE000A0919303B0919403512C412CF12CE12C23
:103AF000109731F580919103909192038815990563
:103B000009F05CC04616570608F058C080910801BD
:103B100090910901009741F48DB79EB740910C0137
:103B200050910D01841B950BE817F90708F055C05B
:103B3000F0939203E0939103F90171836083A0CF26
:103B40008D919C91119712966C90129713967C9080
:103B50001397A815B90559F56C0142E0C40ED11CA4
:103B6000CA14DB0420F1AC014A195B09DA01129690
:103B7000159780F06282738251834083D9016D93DF
:103B80007C93E114F10471F0D7011396FC93EE934A
:103B9000129776CF22968C0F9D1FF9019183808317
:103BA000F301EFCFF0939403E093930369CF4816AA
:103BB000590608F42C017D01D3019ACFCB010E9454
:103BC0000E1C7C01009749F0AE01B8010E94F01D67
:103BD000C8010E94AA1C870153CF10E000E050CF1B
:103BE000FB01DC0102C001900D9241505040D8F71A
:103BF0000895FB01DC0101900D920020E1F708958A
:103C0000AEE0B0E0E6E0FEE10C94FF190D891E89FC
:103C100086E08C831A8309838FEF9FE79E838D83D1
:103C2000AE01475E5F4F6F89788DCE0101960E948D
:103C3000231E2F813885020F131FF80110822E9644
:103C4000E4E00C941B1AABE0B0E0E9E2FEE10C9476
:103C5000F1197C013B018A01FC01178216828381E4
:103C600081FFC8C1CE0101965C01F7019381F30188
:103C700093FD859193FF81913F01882309F453C1FE
:103C8000853239F493FD859193FF81913F0185320F
:103C900029F4B70190E00E941320E7CF912C212C4A
:103CA000312CFFE1F31538F08B3211F190F48032B2
:103CB00009F1833229F137FC3CC020ED280F2A306E
:103CC00050F536FE20C08AE0989E200D1124922ED9
:103CD00006C08D3291F0803371F7689430F8F301AB
:103CE00093FD859193FF81913F018111DACF21C02E
:103CF000689431F8689432F8F2CF689433F8EFCFD3
:103D0000689434F8ECCFEAE02E9E200D1124222E88
:103D1000689435F8E4CF8E3229F436FC04C16894F7
:103D200036F8DDCF8C3619F4689437F8D8CF88365A
:103D3000B1F2982F9F7D95549330E0F08336A1F136
:103D40008337C1F1833509F063C02801F2E04F0EDB
:103D5000511CF801C080D180692D70E036FC02C092
:103D60006FEF7FEFC6010E94FD1F4C01689437F88A
:103D700082010AC00C5F1F4FFFE3F98388248394FC
:103D8000912C6501E89437F833FE2DC0522C811434
:103D9000910471F5552009F468CFB70180E290E0F5
:103DA0000E9413205A94F6CFF801808189830E5F18
:103DB0001F4FE4CF2801F2E04F0E511CF801C080E4
:103DC000D180692D70E036FC02C06FEF7FEFC60135
:103DD0000E9408204C018201D5CFB70180E290E01B
:103DE0000E9413202A942814190409F0B0F7CECFAA
:103DF000F60137FC859137FE81916F01B70190E0A4
:103E00000E94132051105A94F1E08F1A9108BFCFED
:103E1000843619F0893609F077C0F80137FE6BC097
:103E200060817181828193810C5F1F4FF32DFF763A
:103E30003F2E97FF09C090958095709561957F4FB3
:103E40008F4F9F4F689437F82AE030E0A5010E9419
:103E50004320C82ECA188C2C432C36FE0CC0E89484
:103E600040F8C91440F434FE05C032FC03C0F32D01
:103E7000FE7E4F2E892C44FE95C0FE01EC0DF11DF7
:103E80008081803309F087C0242D297E422E842D25
:103E90008870582E43FC95C040FE8FC09C2C821425
:103EA00018F42C0C922C981844FE91C0B70180E3B2
:103EB00090E00E94132042FE09C088E790E041FE96
:103EC00002C088E590E0B7010E941320C91408F4ED
:103ED0008AC0CA94D12C9FEFC91AD90ACA0CDB1C1C
:103EE000F60182916F01B70190E00E941320AC149B
:103EF000BD04B1F74FCF60817181072E000C880B94
:103F0000990B0E5F1F4F92CFD32CE894D4F82AE080
:103F100030E0853739F1232D297FD22E8F3601F1FC
:103F200048F48835A9F0F701868197812B96E2E164
:103F30000C940D1A803749F08837A9F7D4FE02C0D7
:103F40006894D2F820E130E00DC06894D4F8F6CF40
:103F500034FE03C0822F8660D82E20E132E002C0FA
:103F600028E030E0F801D7FE0FC0608171818281C6
:103F700093810C5F1F4FA5010E944320C82ECA18D1
:103F80003D2CE89437F867CF6081718190E080E044
:103F90000E5F1F4FF0CF42FC02C0839478CF839412
:103FA000839475CF842D867809F471CFF6CFB7014D
:103FB00080E290E00E94132083948214C0F3512C7D
:103FC00073CF522C5818821408F46ECFF8CF842D7A
:103FD000867809F47BCF8BE241FE80E247FC8DE2DC
:103FE000B70190E071CFB70180E390E00E94132009
:103FF0009A946CCF8FEF9FEF99CFFC0105906150A1
:1040000070400110D8F7809590958E0F9F1F0895EE
:10401000FC016150704001900110D8F78095909597
:104020008E0F9F1F08950F931F93CF93DF93182F29
:10403000092FEB018B8181FD09C01FEF0FEF812F4D
:10404000902FDF91CF911F910F91089582FF14C09F
:104050002E813F818C819D81281739073CF4E881AE
:10406000F981CF0101969983888310838E819F8186
:1040700001969F838E83E3CFE885F985812F09958B
:10408000892BA1F3DACFFA01AA27283051F1203188
:1040900081F1E8946F936E7F6E5F7F4F8F4F9F4FDC
:1040A000AF4FB1E03ED0B4E03CD0670F781F891F1E
:1040B0009A1FA11D680F791F8A1F911DA11D6A0FEC
:1040C000711D811D911DA11D20D009F468943F919F
:1040D0002AE0269F11243019305D3193DEF6CF019E
:1040E0000895462F4770405D4193B3E00FD0C9F764
:1040F000F6CF462F4F70405D4A3318F0495D31FDD1
:104100004052419302D0A9F7EACFB4E0A695979523
:10411000879577956795BA95C9F7009761057105F9
:1041200008959B01AC010A2E069457954795379543
:104130002795BA95C9F7620F731F841F951FA01D9D
:064140000895F894FFCF82
:10414600544300000100000000009503800000B702
:104156005E2C2F17180C0C0704003E1F10100809C0
:1041660005030101000000005003B002DD02B803A0
:104176000E03EC0200030D0A006E616E00696E66A6
:0E418600006F7666005C2125732F2573000004
:00000001FF
