:100000000C94F5060C941D070C941D070C941D0709
:100010000C941D070C941D070C941D070C941D07D0
:100020000C941D070C941D070C941D070C941D07C0
:100030000C941D070C941D070C941D070C941D07B0
:100040000C94992E0C941D070C94672E0C94412E41
:100050000C941D070C941D070C941D070C941D0790
:100060000C941D070C941D07617320646576696309
:10007000652E2057616974696E67207365726961C6
:100080006C20696E70757420666F7220736572697A
:10009000616C2D5246206272696467650A005E24B5
:1000A0005358313237322F373620636F6E666967A7
:1000B0007572656420003A20737461746520005E77
:1000C0002443524320003A20737461746520005E1B
:1000D0002443524320003A20737461746520005E0B
:1000E000244C6F5261206164647220005E2450725F
:1000F00065616D626C65204C656E6774683A2000BE
:100100005E2447657420507265616D626C65204C99
:10011000656E6774683A20737461746520005E24AC
:10012000506F7765723A20737461746520005E24A5
:10013000536574204C6F526120706F776572206434
:10014000426D20746F20005E245573652050415F1E
:10015000424F4F535420616D706C6966696572201F
:100160006C696E65005F3836383A20737461746567
:1001700020005E244368616E6E656C2043485F30EA
:10018000005E244368616E6E656C2043485F3100F9
:100190005E244368616E6E656C2043485F31385F52
:1001A0003836383A20737461746520005E245365D4
:1001B0007474696E67206D6F64653A20737461743E
:1001C0006520005E244C6F5261206D6F64652000D5
:1001D0002D2D3E2052535349206572726F720A00D2
:1001E0002D2D3E205253534920002D2D3E20525399
:1001F000534920002D2D3E2072657472790A00202B
:10020000444946532028444946533D3353494653B5
:1002100029203D20002D2D3E204368616E6E656CC7
:1002200020627573792E205761697420666F722081
:10023000002323230023232332004F4B32002D2D94
:100240003E20534946532F444946532064757261FA
:1002500074696F6E200020434144203D20002D2D05
:100260003E20657874656E646564207761697420EA
:10027000666F7220004F4B310A002D2D3E205349EE
:1002800046532F44494653206475726174696F6EFA
:1002900020002D2D3E204361727269657253656E98
:1002A0007365313A20646F2043414420666F7220A9
:1002B000444946533D39434144002D2D3E2052537D
:1002C0005349206572726F720A002D2D3E205253E1
:1002D000534920002D2D3E205253534920002D2DEF
:1002E0003E2072657472790A002D2D3E2077616977
:1002F00074206475726174696F6E20002D2D3E202C
:10030000666F756E64206275737920647572696EAC
:1003100067200052002D2D3E204368616E6E656C93
:1003200020627573792E205265747279204341449E
:1003300020756E74696C2066726565206368616EF5
:100340006E656C0A00232323004F4B310A002D2DCC
:100350003E20666F756E64206275737920647572D5
:10036000696E6720002A002D007C0023002D2D3EA1
:1003700020636F756E74696E6720666F7220002D42
:100380002D3E2044494653206475726174696F6E36
:1003900020002D2D3E204361727269657253656E97
:1003A0007365323A20646F2043414420666F7220A7
:1003B000444946533D39434144002D2D3E2072654A
:1003C0007472790A004368616E6E656C20627573A1
:1003D000792E205761697420666F72204D617854C0
:1003E0006F413D00232323002000203020002D2DCD
:1003F0003E204361727269657253656E7365333A6C
:1004000020646F2043414420666F72204D61785410
:100410006F613D0023230041434B20534E52206C1B
:100420006173742072637620706B743A20004143CC
:100430004B207061796C6F61643A200041434B201E
:100440006C656E6774683A200041434B206E756D91
:100450006265723A2000536F757263653A200044FA
:10046000657374696E6174696F6E3A20002323208E
:1004700041434B20746F2073656E643A0023232040
:1004800041434B2073657420616E642077726974F8
:1004900074656E20696E204649464F202323002351
:1004A00023206E6F7420656E6F75676820546F41EE
:1004B00020666F722041434B206174005061636B72
:1004C00065742073656E742C2073746174652000EC
:1004D0004C6F52612053656E7420772F4341442046
:1004E000696E20004C6F52612053656E7420696EF6
:1004F00020004C6F5261202841434B292053656EE8
:100500007420696E2000546F4120697320772F3466
:10051000422068656164657220005061796C6F618A
:10052000642073697A652069732000656E642D64A8
:100530006576696365207573657320656E636170A8
:1005400073756C61746564204C6F526157414E2025
:100550007061636B657420666F726D6174206F6E7D
:100560006C7920666F7220656E6372797074696F42
:100570006E0A00656E642D64657669636520757327
:100580006573206E6174697665204C6F52615741C6
:100590004E207061636B657420666F726D61740AC2
:1005A00000200030004D4844525B315D207C2044E7
:1005B0006576416464725B345D207C2046437472CE
:1005C0006C5B315D207C2046436E745B325D207C29
:1005D0002046506F72745B315D207C20456E6372E3
:1005E00079707465645061796C6F6164207C204D12
:1005F00049435B345D0A007472616E736D69747493
:100600006564204C6F526157414E2D6C696B6520BB
:100610007061636B65743A0A0063616C63756C6149
:100620007465204D49432077697468204E776B5379
:100630004B65790A0020003000656E637279707432
:100640006564207061796C6F61640A00456E637245
:10065000797074696E670A0020003000706C6169FF
:100660006E207061796C6F6164206865780A005053
:1006700061636B6574206E756D62657220005365F1
:100680006E64696E672E204C656E677468206973AE
:100690002000556E7265636F676E697A65642063CA
:1006A0006D640A005741524E494E473A2041455326
:1006B000204953204E4F57204F46460A004E415482
:1006C000495645204C4F524157414E20464F524DBE
:1006D0004154204F46460A005345542053594E4337
:1006E00020574F524420746F20307833343A202FF3
:1006F00040573334230A00534554204348414E4E5B
:10070000454C20746F2031383A202F404331382334
:100710000A0053455420544F204D4F444520313159
:100720003A202F404D3131230A00464F5220534585
:100730004E44494E4720544F2041204C4F52415780
:10074000414E2047572C20594F55204841564520AF
:10075000544F3A0A004E4154495645204C4F52419D
:1007600057414E20464F524D4154204F4E0A0049AA
:100770006E76616C696420636F6D6D616E642E20AE
:100780004F4E206F72204F46462061636365707440
:1007900065642E0A005E2453657474696E67204C8C
:1007A0006F5261206D6F64756C6520746F204F46C9
:1007B000460A005E2453657474696E6720706F7713
:1007C0006572204F4E3A20737461746520005E2478
:1007D00053657474696E67204C6F5261206D6F644D
:1007E000756C6520746F204F4E005E2453657474E1
:1007F000696E67204C6F5261206E6F646520616482
:1008000064723A20737461746520005E24536574C9
:10081000204C6F5261206E6F6465206164647220A9
:10082000746F2000414553204F46460A004145530E
:10083000204F4E0A005E2441434B2064697361627D
:100840006C65640A005E2441434B20656E61626CF6
:1008500065640A00496E76616C696420506F776543
:10086000722E204C2C20482C204D2C2078206F728A
:1008700020582061636365707465642E0A005E24ED
:1008800053657474696E6720506F7765723A207390
:100890007461746520005E24536574204C6F52614E
:1008A00020506F77657220746F200054696D653A2F
:1008B00020005E2453657474696E67204368616E1E
:1008C0006E656C3A20737461746520005E24536514
:1008D00074204C6F5261206368616E6E656C207489
:1008E0006F20005E2453656C6563746564206361EA
:1008F00072726965722053656E7365206D657468E8
:100900006F6420697320005E2443617272696572AE
:100910002053656E7365206D6574686F64206D7516
:10092000737420626520302C20312C2032206F72AD
:1009300020332E0A00232323004F4B002D2D3E2071
:1009400053494653206475726174696F6E20005379
:1009500065742073656E645F6361645F6E756D625C
:10096000657220746F20005E244C6F526120737991
:100970006E6320776F72643A20737461746520002F
:100980005E245365742073796E6320776F726420E0
:10099000746F20307800507265616D626C65204C18
:1009A000656E6774683A200047657420507265610F
:1009B0006D626C65204C656E6774683A2073746173
:1009C000746520005E244C6F5261206D6F64653A3F
:1009D00020737461746520005E24536574204C6F2D
:1009E0005261206D6F646520746F20004E6F206D22
:1009F0006F7265207468616E20323530420A005E85
:100A0000247365742053463A207374617465200022
:100A10005E247365742053463A20005E244261646C
:100A20002070696E0A005E244C6F636B65640A0077
:100A30005E24556E6C6F636B65640A0045494653CE
:100A4000204F46460A0045494653204F4E0A005261
:100A5000535349204F46460A0052535349204F4EA4
:100A60000A00536574204D535320746F200044696D
:100A70007361626C6520706572696F64696320736D
:100A8000656E640A0053657420696E7465722D701A
:100A900061636B65742074696D6520746F20005309
:100AA0006574204C6F5261206465737420616464C6
:100AB0007220464F522054484953204153434949DC
:100AC00020535452494E4720746F200053657420C0
:100AD0004C6F526120646573742061646472207489
:100AE0006F20005E2473657420706F7765722064D8
:100AF000426D3A20737461746520005E24736574DE
:100B000020706F7765722064426D3A20005E245237
:100B1000656D6F746520636F6E666967206C6F63C7
:100B20006B65640A005E24005E2450617273696E16
:100B30006720636F6D6D616E640A006E6578742066
:100B4000617420005061636B65742073656E742C52
:100B500020737461746520004C6F52612053656E80
:100B60007420696E2000546F4120772F3442206832
:100B7000656164657220697320005061796C6F61F2
:100B8000642073697A6520697320005061636B6526
:100B900074206E756D626572200053656E64696EB7
:100BA00067203A200074696D6520697320005263E4
:100BB000762073657269616C3A20000000000800BD
:100BC0000201000003040700000000000000005EB6
:100BD0002444656661756C742073796E6320776F49
:100BE00072643A203078005E242A2A2A2A2A2A2A85
:100BF0002A2A2A506F776572204F4E3A207374610B
:100C00007465200041546D6567613332385020644B
:100C1000657465637465640A004C6F526120696E87
:100C2000746572616374697665206465766963656D
:100C30000A0023230041434B20534E52206F66206D
:100C400072637620706B742061742067773A20009D
:100C500041434B207061796C6F61643A20004143DD
:100C60004B206C656E6774683A200041434B206EE0
:100C7000756D6265723A2000536F757263653A2034
:100C80000044657374696E6174696F6E3A20002365
:100C9000232041434B2072656365697665643A00A1
:100CA0005374617274696E67202767657441434BA2
:100CB00027006E6F2041434B007761697420666F97
:100CC000722041434B002323206E6F7420656E6FAA
:100CD00075676820546F4120617420002072656D33
:100CE00061696E696E6720546F412069732000202E
:100CF0006379636C6520656E6473206174200063A2
:100D000079636C6520626567696E73206174200089
:100D10002323206E6577206379636C6520666F728C
:100D200020546F4120232300535831323736204C52
:100D3000462F48462063616C6962726174696F6E08
:100D400000556E7265636F676E697A6564207472B0
:100D5000616E736365697665720053583132373658
:100D60002064657465637465642C207374617274A7
:100D7000696E670053583132373220646574656399
:100D80007465642C207374617274696E670000006E
:100D90000000250028002B00000000002400270090
:100DA0002A000404040404040404020202020202ED
:100DB000030303030303010204081020408001021F
:100DC000040810200102040810202A2A2055736903
:100DD0006E672073796E6320776F7264206F662070
:100DE0003078002E2E2E0000E32E11241FBECFEFF0
:100DF000D8E0DEBFCDBF14E0A0E0B1E0ECECFEE651
:100E000002C005900D92AC34B107D9F726E0ACE4EE
:100E1000B4E001C01D92AE3EB207E1F716E0C5EFA7
:100E2000D6E004C02197FE010E946934C43FD10777
:100E3000C9F70E94872F0C9464370C94000090E04F
:100E4000FC01EA54F24F24918E55924FFC0184919B
:100E5000882399F090E0880F991FFC01E856F24F23
:100E6000A591B491FC01E257F24F859194918FB70F
:100E7000F894EC91E22BEC938FBF0895AF92BF9260
:100E8000CF92DF92EF92FF920F931F93CF93DF9356
:100E90006C017B018B01040F151FEB015E01AE1885
:100EA000BF08C017D10759F06991D601ED91FC91A7
:100EB0000190F081E02DC6010995892B79F7C501D4
:100EC000DF91CF911F910F91FF90EF90DF90CF9026
:100ED000BF90AF900895FC01538D448D252F30E0D5
:100EE000842F90E0821B930B541710F0CF96089537
:100EF00001970895FC01918D828D981761F0A28D64
:100F0000AE0FBF2FB11D5D968C91928D9F5F9F7329
:100F1000928F90E008958FEF9FEF0895FC01918DDF
:100F2000828D981731F0828DE80FF11D858D90E04C
:100F300008958FEF9FEF0895FC01918D228D892FE9
:100F400090E0805C9F4F821B91098F7399270895D1
:100F500089EE94E00E949C0721E0892B09F420E0AF
:100F6000822F089580E090E0892B29F00E94A80745
:100F700081110C9400000895FC01A48DA80FB92FD5
:100F8000B11DA35ABF4F2C91848D90E001968F73B1
:100F90009927848FA689B7892C93A089B1898C91D0
:100FA000837080648C93938D848D981306C002881F
:100FB000F389E02D80818F7D80830895EF92FF92E9
:100FC0000F931F93CF93DF93EC0181E0888F9B8D6C
:100FD0008C8D98131AC0E889F989808185FF15C026
:100FE0009FB7F894EE89FF896083E889F989808149
:100FF0008370806480839FBF81E090E0DF91CF9118
:101000001F910F91FF90EF900895F62E0B8D10E039
:101010000F5F1F4F0F731127E02E8C8D8E110CC0A8
:101020000FB607FCFACFE889F989808185FFF5CFF3
:10103000CE010E94BC07F1CFEB8DEC0FFD2FF11D0F
:10104000E35AFF4FF0829FB7F8940B8FEA89FB8930
:1010500080818062CFCF0F931F93CF93DF938C015A
:10106000D0E0C0E0F801EC0FFD1F6491662341F071
:1010700089EE94E00E94DE07892B11F02196F2CFD1
:10108000CE01DF91CF911F910F910895CF93DF9300
:10109000EC01888D8823B9F0AA89BB89E889F98990
:1010A0008C9185FD03C0808186FD0DC00FB607FCC5
:1010B000F7CF8C9185FFF2CF808185FFEDCFCE01F8
:1010C0000E94BC07E9CFDF91CF91089590E0FC0129
:1010D000E554F44F2491FC01EA54F24F3491FC01A1
:1010E000EE55F24FE491EE23C9F0222339F023307C
:1010F00001F1A8F4213019F1223029F1F0E0EE0FCE
:10110000FF1FE257F24FA591B4918FB7F894EC917D
:10111000611126C030953E233C938FBF0895273040
:10112000A9F02830C9F0243049F7809180008F7DE4
:1011300003C0809180008F7780938000DFCF84B5DB
:101140008F7784BDDBCF84B58F7DFBCF8091B000DE
:101150008F778093B000D2CF8091B0008F7DF9CF90
:101160003E2BDACF3FB7F8948091E3049091E404EA
:10117000A091E504B091E60426B5A89B05C02F3FD9
:1011800019F00196A11DB11D3FBFBA2FA92F982FAD
:101190008827BC01CD01620F711D811D911D42E0A8
:1011A000660F771F881F991F4A95D1F708958F9270
:1011B0009F92AF92BF92CF92DF92EF92FF926B011C
:1011C0007C010E94B2084B015C01C114D104E1040E
:1011D000F104B9F00E94B208681979098A099B09DB
:1011E000683E73408105910580F321E0C21AD10861
:1011F000E108F10888EE880E83E0981EA11CB11C5E
:10120000E4CFFF90EF90DF90CF90BF90AF909F9092
:101210008F9008952FB7F8946091DF047091E004E7
:101220008091E1049091E2042FBF0895FB01AC018D
:10123000405F5F4FDC012D91CD0131911197232744
:101240002C9384179507B1F70895FC0120E030E056
:101250002F3029F09181392F331F3327331F91917C
:10126000DF011197990F930F9C932F5F203179F72E
:1012700008950F931F93CF93DF9300D000D0CDB785
:10128000DEB7FB01948536852785458549833A83FA
:101290002B839C83BE016B5F7F4F9E012F5F3F4F6F
:1012A000D9019D919D018D0101501109492F429550
:1012B0004F70A92FAF70B0E14B9FA0011124485B84
:1012C0005D4FA40FB52FB11D9C91D8019C9326179B
:1012D000370731F791E05BE1813039F0492F440F56
:1012E00097FD45278150942FF7CF898198279983BF
:1012F0008F0194E0DE011196A801FA018191AF01FE
:101300006D918627BF0161507109FB018083BD018A
:1013100061507109FB018083A217B30771F79150E7
:101320000C5F1F4F9111E6CF0F900F900F900F9011
:10133000DF91CF911F910F910895EEECF4E084813D
:101340009581948396819583978196838783808501
:10135000928590878287818593859187838787850A
:101360009685978795859687948595878487089530
:10137000CF932EEC34E0BC01605F7F4FDC01F901BC
:1013800040E0CD9150815C2750834F5F34964430CC
:10139000C1F72F5F3F4F04968617970779F7CF91D4
:1013A00008953F924F925F926F927F928F929F9299
:1013B000AF92BF92CF92DF92EF92FF920F931F9363
:1013C000CF93DF93CDB7DEB768970FB6F894DEBF43
:1013D0000FBECDBF8C012EECC22E24E0D22EAC016C
:1013E000405F5F4FC6017801FC01D70120E03D91CD
:1013F00030832F5F34962430D1F724E0E20EF11CC5
:101400000196E416F50681F7FB01DE011196CB018A
:1014100040965A2E6B2E21912D93E817F907D9F794
:10142000852D962D0E94B8094424439482EDA82E60
:1014300084E0B82E4E0159E1850E911C9BE1392EB6
:101440008EEC94E044E0DC01712CEC912E2F22957F
:101450002F70EF7050E1259F90011124285B3D4FC4
:10146000E20FF32FF11D20812C937394149624E046
:101470007212EBCF415001964111E5CF0E949D09B8
:10148000EEECF4E0CE014596BE016F5E7F4F9F010A
:10149000D9015C91DC015D93CD01452F440F57FDCF
:1014A00083C0DB014C932C5F3F4F6F5F7F4F8816EB
:1014B000990671F78E89398938272F89688D9A891D
:1014C00092279627432F492741934D895B8994277B
:1014D000952793839C898627842785278927878357
:1014E0002427292732273387AE16BF0659F6652DE4
:1014F000762D842D0E943909852D962D0E94B809DC
:101500004394BAE04B129CCF8EEC94E0DC0140E0B7
:10151000EC912E2F22952F70EF7050E1259F9001B6
:101520001124285B3D4FE20FF32FF11D20812C93F6
:101530004F5F1496443061F77A9401967110E6CFAC
:101540000E949D09652D762D8AE00E943909852D1E
:10155000962D0E94B809D801F60180E090819D93F4
:101560008F5F34968430D1F78FEFC81AD80A0C5F9A
:101570001F4F0E151F0579F768960FB6F894DEBF5A
:101580000FBECDBFDF91CF911F910F91FF90EF90D4
:10159000DF90CF90BF90AF909F908F907F906F9093
:1015A0005F904F903F90089543257BCF8EBD000004
:1015B0000DB407FEFDCF8EB508950F931F93CF9303
:1015C000DF93082F162FC6E8D5E060E08B810E94DC
:1015D0006608802F80680E94D60A812F0E94D60A52
:1015E00061E08B81DF91CF911F910F910C94660880
:1015F0001F93CF93DF93182FC6E8D5E060E08B816F
:101600000E946608812F0E94D60A80E00E94D60AB6
:10161000182F61E08B810E946608812FDF91CF91A6
:101620001F910895CF9381E00E94F80AC82F8091FE
:10163000C105813061F461E80E94DD0A6FEF82E14B
:101640000E94DD0A6C2F81E0CF910C94DD0A61E0ED
:1016500081E00E94DD0A6FEF8EE30E94DD0A6FEFEA
:101660008FE3EECF2F923F924F925F926F927F92D5
:101670008F929F92AF92BF92CF92DF92EF92FF92A2
:101680000F931F93CF93DF93CDB7DEB761970FB65C
:10169000F894DEBF0FBECDBF898B8091A705812C4A
:1016A00034E2932E34EFA32E37E4B32E873081F04B
:1016B000812C44E2942E44EFA42E48E4B42E8830CA
:1016C00039F4812C24E2922E24E7A22E28E4B22EB3
:1016D0001091A90581E00E94F80A8B830E940A09F3
:1016E0002091C105288B213009F0F5C061E881E027
:1016F0000E94DD0A81E090E002C0880F991F1A95D0
:10170000E2F7312C212C10E000E033E039839C011A
:10171000990F440B550B2C873D874E875F870E949E
:10172000120B0E940A090E940A099B01AC012C5964
:101730003F4F4F4F5F4F2C833D834E835F8367E85E
:1017400081E00E94DD0A0E94B208688779878A8753
:101750009B8782E10E94F80A1A82382F3470F32E98
:1017600082FD4EC00E940A092C813D814E815F811D
:10177000621773078407950708F042C00E94B208F9
:101780006B017C016C857D858E859F850E94DB3297
:101790009B01AC01C501B4010E9431329B01AC0137
:1017A00060E070E080E89FE30E9431322B013C0151
:1017B000C701B601288539854A855B85621B730B95
:1017C000840B950B0E94D9326B017C0120E034E23E
:1017D00044E759E4C301B2010E94C43320E030E081
:1017E00040E753E40E94AE319B01AC01C701B60152
:1017F0000E94BF3318169CF082E10E94F80AADCF18
:101800000E940A09F11025C08981815089838823AB
:1018100009F45EC08989811182CF198225C03A817D
:101820003111EACF8091860595E7F92E813011F4C8
:1018300083E6F82E8BE10E94F80A8F0D8093B005A5
:10184000280E311C87FD3A940F5F1F4F41E04A83F9
:10185000D3CF82E10E94F80A817059895150598B87
:1018600051112FC08983188AC101B8010E945534D3
:101870006093B0056B8181E00E94DD0A0E940A0935
:101880000E94120B4981442311F052E0588B888941
:1018900061960FB6F894DEBF0FBECDBFDF91CF913A
:1018A0001F910F91FF90EF90DF90CF90BF90AF907E
:1018B0009F908F907F906F905F904F903F902F9070
:1018C0000895882309F42BCF188A91E09983CCCF0F
:1018D00021E02983C9CF198232E0388BCBCFEF9238
:1018E000FF920F931F93CF93DF938091C10505E083
:1018F00010E0D0E0C0E0813041F535E0E32EF12C7E
:1019000010E000E080918605C5E7813009F4C3E668
:101910008BE10E94F80A8C0F8093B005080F111D0F
:1019200087FD1A9581E0E81AF10861F7C80165E0C2
:1019300070E00E9455346093B00580E0DF91CF9154
:101940001F910F91FF90EF90089581E10E94F80A96
:1019500090E0959587958093B005C80FD91F0150E9
:10196000110999F7CE01E3CFCF93DF93D091C10551
:10197000D13021F580918605CDE1882311F0D2E0A8
:10198000CEE18C2F0E94F80A90918605682F911164
:1019900013C062608C2F0E94DD0A8C2F0E94F80A0F
:1019A00090E002C095958795DA95E2F780FD13C027
:1019B00081E0DF91CF9108956460ECCF80E30E94D5
:1019C000F80A682F606180E30E94DD0A80E30E94CC
:1019D000F80A84FFEDCF81E08093BA0580E0E9CF7B
:1019E0008091C1058130B9F480E20E94F80A10921A
:1019F000B3058093B40581E20E94F80A2091B305F3
:101A00003091B405820F932F911D9093B40580936C
:101A1000B30580E0089585E20E94F80A1092B305AC
:101A20008093B40586E2E8CFCF93DF93D82FD062BE
:101A300081E00E94F80AC82F8091C10561E88130D9
:101A400011F061E081E00E94DD0A6D2F8BE00E94C1
:101A5000DD0A6C2F81E00E94DD0A80E0DF91CF91EA
:101A600008950F931F93CF93DF93D82F809186050E
:101A70001DE4811101C01AE581E00E94F80A082FD7
:101A80008091C10561E8813011F061E081E00E9440
:101A9000DD0ADD3409F454C00CF04DC0D83409F42B
:101AA00045C0DC34F1F1C0E08BE00E94140DD83762
:101AB00049F480E10E94140DCCE864E8812F0E9473
:101AC000DD0A0AC0D835C9F7C06867E8812F0E94CF
:101AD000DD0A82E10E94140D8091860581111FC0EC
:101AE0006C2F89E00E94DD0AC093AE0589E00E9458
:101AF000F80AC1E09091AE05981301C0C0E0602FD4
:101B000081E00E94DD0A64E670E080E090E00E94DF
:101B1000D7088C2FDF91CF911F910F910895C06747
:101B2000DFCF8BE00E94140DC3E0C7CF8BE00E9493
:101B3000140DC7E0C2CFD83519F0D83709F0B3CFAC
:101B4000CFE0B2CF1F93CF93DF93C82F809186054C
:101B5000DAE58111DDE481E00E94F80A182F809116
:101B6000C10561E8813011F061E081E00E94DD0A89
:101B7000C43131F488E5DF91CF911F910C94310D80
:101B8000CF30D0F564E88D2F0E94DD0A80E1CB30A4
:101B900008F48BE00E94140D8091A30590918605B6
:101BA000911124C0882301F1C250C0686C2F89E0D4
:101BB0000E94DD0AC093AE0589E00E94F80AC1E0E8
:101BC0009091AE05981301C0C0E0612F81E00E94A2
:101BD000DD0A64E670E080E090E00E94D7088C2F78
:101BE000DF91CF911F910895CF5FE0CF882311F04F
:101BF000C250C068C067DACFC2E0F1CF8F929F9227
:101C0000AF92BF92CF92DF92EF92FF92CF93DF938A
:101C10004B015C010E940A0960938A0570938B0551
:101C200080938C0590938D0581E00E94F80AC82F5F
:101C30008091C10561E8813011F061E081E00E948E
:101C4000DD0AB5018827992786E00E94DD0A9927D9
:101C50008B2D7A2D692D87E00E94DD0A682D88E0A2
:101C60000E94DD0A0E940A0960938E0570938F0519
:101C7000809390059093910564E670E080E090E099
:101C80000E94D70886E00E94F80AC82E87E00E94CA
:101C9000F80AD82FD12CDC2CCC24F12CE12CFE2CF2
:101CA000ED2CDC2CCC2488E00E94F80A2D2F30E0AB
:101CB000322F222790E0B0E0A0E0820F931FA11DF9
:101CC000B11D8C0D9D1DAE1DBF1DD1E0881699065E
:101CD000AA06BB0649F48092AA059092AB05A09291
:101CE000AC05B092AD05D0E06C2F81E00E94DD0A1A
:101CF00064E670E080E090E00E94D7088D2FDF91CD
:101D0000CF91FF90EF90DF90CF90BF90AF909F90DA
:101D10008F9008958091C105882381F08EE10E9403
:101D2000F80A90E024E0959587952A95E1F780934D
:101D3000A9058650873020F081E008958FEF08953F
:101D400080E008958091C105882321F18DE10E94F2
:101D5000F80A90918605682F91111AC064608DE190
:101D60000E94DD0A8DE10E94F80A9091860520E02C
:101D7000911101C022E090E002C0959587952A95C7
:101D8000E2F780FF09C081E08093B80580E0089504
:101D90006160E5CF8FEF089581E008958091C105DE
:101DA0008130D9F489E10E94F80A8093A405282F94
:101DB00030E087FF0DC03195219531093595279584
:101DC000359527952F7321952093AF0580E00895D1
:101DD0003595279535952795F7CF8FEF08958F92F5
:101DE0009F92AF92BF92CF92DF92EF92FF920F93AA
:101DF0001F93CF93DF938091C105CFEF813009F01E
:101E00005AC00E94CE0EC82F811155C08AE10E948F
:101E1000F80AD091AF05909186050091AA0510911E
:101E2000AB052091AC053091AD05C82ED12CF12C1D
:101E3000E12CD7FF53C0913009F44DC08BE890E0FE
:101E400070E060E00C3C1C4C274D310510F467E05D
:101E500070E0680F791F719561957109072E000C6C
:101E6000880B990B0E94DB324B015C01C701B60164
:101E70000E94DB329B01AC01C501B4010E94AE316E
:101E80006B017C016D2FDD0F770B880B990B0E9486
:101E9000DB3220E030E040E85EE30E94C4339B0187
:101EA000AC01C701B6010E94AE310E94A33270930B
:101EB000B2056093B1058C2FCC0F990BDF91CF91B8
:101EC0001F910F91FF90EF90DF90CF90BF90AF9058
:101ED0009F908F9008958DE990E0B2CF6BE870E00D
:101EE000913011F46DE970E00C3C1C4C274D31052C
:101EF00020F190E080E0680F791F7195619571097C
:101F0000072E000C880B990B0E94DB324B015C0101
:101F1000C701B6010E94DB3220E030E040E851E426
:101F20000E94C43320E030E040E751E40E943132A7
:101F30009B01AC01C501B401B6CF87E090E0DBCFD7
:101F4000CF93DF93C82F81E00E94F80AD82FC09367
:101F5000C6058091C1058130F9F461E80E94DD0A6F
:101F60006091C60582E20E94DD0A82E20E94F80AC0
:101F7000C1E09091C605981301C0C0E06D2F81E0CB
:101F80000E94DD0A6AEF70E080E090E00E94D708CE
:101F90008C2FDF91CF91089561E081E00E94DD0AEE
:101FA0006091C60582E30E94DD0A82E3DFCF809163
:101FB000B5059091B6052091A105211101C00496A7
:101FC0000C94A00FCF92DF92EF92FF92CF937C01FF
:101FD0000E940A099B01AC012E0D3F1D411D511DA0
:101FE00069017A018091C105813019F582E10E9471
:101FF000F80AC82FC4FD2CC00E940A096C157D0583
:102000008E059F0558F08091C10561E0813009F48B
:1020100061E881E00E94DD0A80E042C082E10E9426
:10202000F80AC82F61E070E080E090E00E94D708D5
:10203000E1CF8FE30E94F80A82FD20C00E940A09C6
:102040006C157D058E059F05A0F3DDCF81E028C0CE
:102050000E940A0960938A0570938B0580938C0512
:1020600090938D050E940A096C157D058E059F05CC
:1020700050F485E20E94F80A8823A1F380E00E94D0
:10208000F80A8093BB058091BB059091B70589172D
:10209000E9F28823D9F28091A105882309F4B3CF0E
:1020A000CF91FF90EF90DF90CF900895FC010190C9
:1020B0000020E9F73197AF01481B590BBC0189EEAD
:1020C00094E00C943E078F929F92AF92BF920F9331
:1020D0001F93CF93DF93CDB7DEB7A1970FB6F894D8
:1020E000DEBF0FBECDBF19A2423008F44AE08E0118
:1020F0000F5D1F4F842E912CB12CA12CA5019401B2
:102100000E947C31E62FB901CA01EA30F4F4E05DA7
:10211000D801EE938D01232B242B252B79F790E00A
:1021200080E0109719F0CD010E945610A1960FB6CD
:10213000F894DEBF0FBECDBFDF91CF911F910F91FD
:10214000BF90AF909F908F900895E95CE1CF0C9481
:102150006310AB01682F70E090E080E00C94A71052
:10216000CF92DF92EF92FF92CF93DF934A305105E7
:10217000F1F44AE097FF1BC06B017C016DE289EE30
:1021800094E00E94DE07EC0166277727CB016C19EB
:102190007D098E099F094AE00E9463108C0F9D1FE4
:1021A000DF91CF91FF90EF90DF90CF900895DF9176
:1021B000CF91FF90EF90DF90CF900C946310AB0124
:1021C000BC01990F880B990B0C94B01086E993E031
:1021D0000C945610CF93DF930E942B08EC010E94C1
:1021E000E6108C0F9D1FDF91CF9108951F93CF9321
:1021F000DF93C0E01AE068EC70E080E090E00E94BD
:10220000D70860E081E00E94DD0A60E881E00E947A
:10221000DD0A61E881E00E94DD0AC19FB00111245E
:102220006E5C7F4F072E000C880B990B0E94D7081D
:1022300081E00E94F80AD82F83EE9DE00E94EA1008
:10224000C0FD03C0C43159F0CF5FD138A1F681E0A1
:102250008093C10580E0DF91CF911F910895C0E088
:10226000F4CFCF93DF93C82F81E00E94F80AD82FD4
:102270008091C105811102C00E94F61061E881E0E1
:102280000E94DD0A6C2F89E30E94DD0A64E670E09B
:1022900080E090E00E94D70889E30E94F80AC81302
:1022A00011C0C0938705C0E06D2F81E00E94DD0A58
:1022B00064E670E080E090E00E94D7088C2FDF9108
:1022C000CF910895C1E0F0CFFF920F931F93CF936A
:1022D000DF938C0181E00E94F80AF82E8091C105FD
:1022E000D2E0811103C00E94F610D82F61E881E08E
:1022F0000E94DD0A8DE10E94F80AC82F90918605A0
:10230000911142C008301105C9F109301105C9F118
:10231000CF730E948A0E8091A9058B3011F4C160A1
:1023200002C08C30E1F36C2F8DE10E94DD0A64E67F
:1023300070E080E090E00E94D7088DE10E94F80AEA
:1023400090918605282F30E0911144C096E0359594
:1023500027959A95E1F70830110589F109301105A3
:10236000A9F1232B41F49091A9059B3009F057C0A6
:102370008095D82FD170D11157C024C0CF77C064B9
:10238000D2CFCF7BC068CFCFCF7008301105D1F34B
:102390000930110591F0C0670E948A0E8091A9054D
:1023A0008B50823008F0BFCF86E20E94F80A682F77
:1023B000686086E20E94DD0AB6CFC069B4CF2130E2
:1023C0003105C9F60093A705D0E02EC022303105B3
:1023D00091F6F8CF84E0359527958A95E1F7083096
:1023E000110599F009301105A9F02730310519F6CA
:1023F00086E20E94F80A9091A9059B3031F583FB93
:10240000DD27D0F981E0D827B6CF2830310509F093
:10241000B2CFD8CF2930310509F0ADCFD3CF9C3022
:1024200089F680FDCFCFD1E06F2D81E00E94DD0ADB
:1024300064E670E080E090E00E94D7088D2FDF9185
:10244000CF911F910F91FF9008959C3009F0BACF62
:1024500083FDB8CFE8CFEF92FF920F931F93CF93F6
:10246000DF93182F81E00E94F80A082F8091C105A0
:10247000DAEFD10F81111AC00E94F610C82F602F19
:1024800081E00E94DD0A64E670E080E090E00E9456
:10249000D708D73018F41093A905C0E08C2FDF912E
:1024A000CF911F910F91FF90EF90089561E881E027
:1024B0000E94DD0A8EE10E94F80AC82FD73008F08A
:1024C00053C0ED2FF0E0E959FD4E0C9469346E12C3
:1024D000B212B612B912BC12BF121E13CF76C0666A
:1024E0000E94A20E0E94A20E65E081E30E94DD0A16
:1024F0006CE087E30E94DD0AF12C80918605811152
:10250000ABC0C4606F2D8DE10E94DD0A6C2F8EE19F
:102510000E94DD0A64E670E080E090E00E94D70847
:10252000F0908605F1109FC08DE10E94F80AC82F37
:102530008EE10E94F80A282FD73008F0C9C0ED2F8D
:10254000F0E0E555FD4E90E034E0959587953A959D
:10255000E1F70C9469343E1348134D13511354138F
:1025600057136513CF77C067F12C2EC0CF78C068A2
:10257000FBCFCF79C069F8CFCF7AC06AF5CFCF7BD8
:10258000C06B8091C105882369F080918605811117
:102590004FC08DE10E94F80A8295869586958370DA
:1025A0008093A7058091A7058730F1F68091860575
:1025B000811147C08DE10E94F80AF82E6894F0F866
:1025C0006F2D8DE10E94DD0A8091C105882339F1CC
:1025D0008DE10E94F80A9091A905963049F09091FA
:1025E0008605682F911136C06B7F8DE10E94DD0A50
:1025F00080918605E12C811102C052E0E52E809188
:10260000A905863061F08DE10E94F80A90E002C0D1
:1026100095958795EA94E2F780FF1092B80563E0FC
:1026200081E30E94DD0A6AE087E30E94DD0A65CF4C
:102630008DE10E94F80A82958F70B2CFCF7CC06C7A
:10264000B1CF86E20E94F80A682F686086E20E9495
:10265000DD0A8ACF6E7FC9CF86E20E94F80A682F12
:10266000646086E251CF86E20E94F80AC82F8EE1AC
:102670000E94F80A2C2F43E0F42E5ECF069779F4DF
:1026800022FF0DC08091B805813049F4C0E0F7CE3B
:10269000079729F422FF03C0F9CF0897D9F3C2E0C6
:1026A000EECE0997E1F7F6CF0A97C9F7F3CF0B976C
:1026B000B1F722FFF4CF8C2F90E002C0959587955B
:1026C000FA94E2F780FFEBCFE1CF0C9741F7F1CF1F
:1026D000C1E0D5CECF93DF9381E00E94F80AD82FD6
:1026E0008091C105C2E0811103C00E94F610C82F7D
:1026F00061E881E00E94DD0A8DE10E94F80A909174
:102700008605682F91112EC06F7C68608DE10E9454
:10271000DD0A64E670E080E090E00E94D7088DE179
:102720000E94F80A20918605213009F023E090E00C
:1027300002C0959587952A95E2F7877099270197AA
:1027400009F4C0E081E08093A8056D2F0E94DD0AA6
:1027500064E670E080E090E00E94D7088C2FDF9163
:10276000CF910895617F6260D1CFCF93DF930E94B4
:10277000A910EC010E94E6108C0F9D1FDF91CF91F4
:1027800008951F93CF93DF93C82F81E00E94F80A2A
:10279000D82F8091C105811102C00E94F61061E816
:1027A00081E00E94DD0A1FEF1C0F1B3008F0A5C15D
:1027B000E12FF0E0E252FC4E0C946934E913F1137E
:1027C000141418142014241428142C143014341441
:1027D00038140E946A138CE00E942B1287E090E06C
:1027E00007C00E946A138CE00E942B1288E090E0E0
:1027F0000E9464118DE10E94F80A1B3008F058C055
:10280000E12FF0E0E75FFB4E90E0209186050C940D
:1028100069344F146C147C149F14B114C314E21463
:1028200001151315321551150E946A138AE0D4CF91
:102830000E946A138CE00E942B1289E090E0D8CFAE
:102840000E946A138AE0D0CF0E946A138BE0F3CF14
:102850000E946A1389E0C8CF0E946A1389E0EBCF17
:102860000E946A1388E0E7CF0E946A1387E0E3CFF3
:102870000E946A138CE00E942B1287E090E00E9475
:10288000641184E30E9431118AEC9DE00E942B08C0
:1028900060E170E0809187050E94B513ABCF2111F4
:1028A00009C0E3E095958795EA95E1F7019731F046
:1028B00011E037C095958795C997D1F78EE10E94B1
:1028C000F80A90E064E0959587956A95E1F711E044
:1028D0000C9739F510E025C0211108C053E09595FB
:1028E00087955A95E1F7099719F7E8CF9595879558
:1028F00081349105E9F6E2CF21111BC033E09595B3
:1029000087953A95E1F7019799F68EE10E94F80ACA
:1029100090E014E0959587951A95E1F711E00A97F4
:10292000C9F2809188050E943111112309F4E2C097
:10293000C1C095958795C99709F0BACFE6CF211107
:1029400009C0B3E095958795BA95E1F7419709F0ED
:10295000AFCFB4CF959587958934910509F0A8CF6D
:10296000ADCF211109C0F3E095958795FA95E1F770
:10297000099709F09DCFC9CF959587958134910529
:1029800009F096CFC2CF211116C073E095958795B7
:102990007A95E1F7419709F08BCF8EE10E94F80A12
:1029A00090E054E0959587955A95E1F711E00B97E3
:1029B00009F0B7CF8FCF959587958934910509F0A8
:1029C00077CFEBCF211116C043E0959587954A95B7
:1029D000E1F7099709F06CCF8EE10E94F80A90E0C8
:1029E00024E0959587952A95E1F711E0099709F07C
:1029F00098CF70CF959587958134910509F058CF80
:102A0000EBCF211109C013E0959587951A95E1F751
:102A1000419709F04DCFE0CF959587958934910581
:102A200009F046CFD9CF211116C0A3E0959587951F
:102A3000AA95E1F7419709F03BCF8EE10E94F80A91
:102A400090E0E4E095958795EA95E1F711E0089725
:102A500009F067CF3FCF959587958934910509F0A7
:102A600027CFEBCF211116C073E0959587957A9506
:102A7000E1F7419709F01CCF8EE10E94F80A90E03F
:102A800054E0959587955A95E1F711E0079709F07D
:102A900048CF20CF959587958934910509F008CFC7
:102AA000EBCF211117C043E0959587954A95E1F743
:102AB0000197A1F011E06D2F81E00E94DD0A64E62C
:102AC00070E080E090E00E94D708812FDF91CF91E5
:102AD0001F91089595958795C99761F78EE10E949A
:102AE000F80A90E024E0959587952A95E1F70C97F0
:102AF00009F710E0C0939A05DECF1FEFDCCF80917D
:102B0000DB06882309F471C00E940A09AB01BC01ED
:102B10008091E4069091E506A091E606B091E70663
:102B200084179507A607B70708F056C08093E006FC
:102B30009093E106A093E206B093E30640EA5CE8D6
:102B400060E070E04093DC065093DD066093DE06A3
:102B50007093DF0680589141A94CBF4F8093E406E3
:102B60009093E506A093E606B093E70680E19DE02A
:102B70000E94EA108FEF9CE00E942B086091E00613
:102B80007091E1068091E2069091E3064AE050E000
:102B90000E94A7108FEE9CE00E942B086091E40633
:102BA0007091E5068091E6069091E7064AE050E0D4
:102BB0000E94A7108CED9CE00E942B086091DC061F
:102BC0007091DD068091DE069091DF064AE050E0CC
:102BD0000E94B0100E94E6106091DC067091DD0644
:102BE0008091DE069091DF06089560EA7CE880E03F
:102BF00090E00895CF92DF92EF92FF92CF930E94E0
:102C00000A096B017C0120E1C20E27E2D21EE11C01
:102C1000F11C8091C105813019F50E94120B63E807
:102C200081E00E94DD0A82E10E94F80AC82F83FD3C
:102C300007C00E940A096C157D058E059F0598F353
:102C4000C3FF3FC08091DB0681111CC0C0E00E9421
:102C5000120B8C2FCF91FF90EF90DF90CF900895C3
:102C600063E081E00E94DD0A8FE30E94F80AC82F2A
:102C700083FDE6CF0E940A096C157D058E059F0530
:102C800098F3DECFE090E806F090E9060E947F1509
:102C90008091DB068823D1F28091DC069091DD06DD
:102CA000A091DE06B091DF068E199F09A109B10936
:102CB0008093DC069093DD06A093DE06B093DF06DA
:102CC000C5CFC1E0C4CFCF93DF9388E993E00E94E2
:102CD0005610EC010E94E6108C0F9D1FDF91CF91E2
:102CE00008950C9456100F931F93CF93DF9383ECAA
:102CF00091E00E942B086AE070E0809124010E941C
:102D0000A9100E946316809124010E94C113C82F4C
:102D10008CEA91E00E942B086AE070E08C2FCC0FC7
:102D2000990B0E94DF100E94631680912401883065
:102D300030F196E0909354048B3029F16091EA06CB
:102D40007091EB068091EC069091ED060E94FE0DCD
:102D5000C82F880FDD0B80912D02082F10E08630E0
:102D600008F4D2C081E891E00E942B086AE070E08C
:102D7000C80106970E94DF1085E691E00FC083E04E
:102D800080935404DBCF66E676E089ED90E00E9404
:102D9000FE0DC82F880FDD0B80E991E00E942B0803
:102DA0006AE070E0CE010E94DF100E94631681E0AD
:102DB0008093A30587E491E00E942B080E9463168C
:102DC0008EE291E00E942B086AE070E08EE00E94A3
:102DD000A9100E9463168EE00E94A20DC82F8EE1FA
:102DE00091E00E942B086AE070E08C2FCC0F990BC9
:102DF0000E94DF100E9463160E94F00CC82F80E032
:102E000091E00E942B086AE070E08C2F90E00E9415
:102E1000DF100E9463168CEE90E00E942B086091F8
:102E2000B3057091B40590E080E04AE00E94631021
:102E30000E946316C0912001C093B7058FED90E00A
:102E40000E942B086AE070E08C2F0E94A91086ED8A
:102E500090E00E942B086AE070E090E080E00E9421
:102E6000DF100E946316C091C105C13009F058C03F
:102E700080918605811151C08DE10E94F80A90E091
:102E800002C095958795CA95E2F780FD4EC01092D5
:102E9000BA058FEC90E00E942B086AE070E0809108
:102EA000BA050E94A91086EC90E00E942B086AE007
:102EB00070E090E080E00E94DF100E9463160E94A4
:102EC000B40CC82F8FEB90E00E942B086AE070E0F2
:102ED0008091BA050E94A91086EB90E00E942B0811
:102EE0006AE070E08C2F90E00E94DF100E94631671
:102EF0008EE990E00E942B0888E690E0DF91CF9168
:102F00001F910F910C942B0882E791E00E942B08EF
:102F10006AE070E0C80104962DCFC2E08EE1ADCF2B
:102F200080E30E94F80A84FFB2CF81E08093BA0563
:102F3000B0CFFF920F931F93CF93DF9300D000D0B9
:102F400000D01F92CDB7DEB7BC0127E0E9E9F3E07E
:102F5000CE010196DC0101900D922A95E1F7DC018A
:102F600030E020E009E211E0FB0140815181FA01EB
:102F7000E75DFE4FF080F3E2FF16E1F0F80101900B
:102F80000020E9F7EA52F1404E175F0798F4FC0180
:102F900001900020E9F73197E81BF90B2E173F0746
:102FA00048F4FD924F5F5F4FFB01518340832F5FD9
:102FB0003F4FDACF280F391FF90110820E940E31DE
:102FC00027960FB6F894DEBF0FBECDBFDF91CF912D
:102FD0001F910F91FF9008954F925F926F927F9291
:102FE0008F929F92AF92BF92CF92DF92EF92FF9219
:102FF0000F931F93CF93DF93082F1091A705C12C38
:1030000054E2D52E54EFE52E57E4F52E173081F01B
:10301000C12C64E2D62E64EFE62E68E4F62E18305A
:1030200039F4C12C44E2D42E44E7E42E48E4F42ED3
:103030007090A905C72DD0E061E070E0072C02C0B8
:10304000660F771F0A94E2F7072E000C880B990B86
:103050000E94DB329B01AC01C701B6010E943132F4
:103060009B01AC0160E070E080E89FE30E94313298
:103070006B017C016091B3057091B4056C5F7F4F6B
:1030800090E080E00E94D93220E030E048E850E44F
:103090000E94AE31A70196010E94C4334B015C012E
:1030A000173019F411E04CE0741210E0602F70E05A
:1030B000660F771F6C1B7D0B655F7F4F2091B805F6
:1030C0004BEF420390011124620F731F660F771FAD
:1030D000660F771F072E000C880B990B0E94DB32BE
:1030E0002B013C01812F90E0880F991FBE01681BC6
:1030F000790B660F771F660F771F072E000C880B62
:10310000990B0E94DB329B01AC01C301B2010E940A
:1031100031320E941A322B013C016091A80570E007
:103120006C5F7F4F072E000C880B990B0E94DB32DF
:10313000A30192010E94C4332B013C0120E030E046
:10314000A9010E94BF3320E030E040E051E41816AE
:1031500034F4C301B2010E94AE319B01AC01C7013E
:10316000B6010E94C433A50194010E94AE3120E053
:1031700034E244E759E40E94C43327E73EEB4FE7CB
:103180005FE30E94AE310E9416330E94AA3228EEFD
:1031900033E040E050E00E947C31CA01B9010E9456
:1031A000D93220E030E040E85FE30E94AE310E9477
:1031B000AA327093E9066093E806CB01DF91CF91C4
:1031C0001F910F91FF90EF90DF90CF90BF90AF9045
:1031D0009F908F907F906F905F904F900895BF92D7
:1031E000CF92DF92EF92FF920F931F93CF93DF93D3
:1031F000B82E8B014C3F5105B0F18BEF90E09093CE
:10320000B6058093B5058091DB06882389F1C091CE
:10321000B505D091B6058091A105811101C0249614
:103220000E947F156B017C018C2F0E94EC17C81A3D
:10323000D90AE108F108F7FE1BC086EC9CE00E9469
:103240002B080E940A094AE00E9463100E94E610BF
:1032500084E0DF91CF911F910F91FF90EF90DF906D
:10326000CF90BF9008955093B6054093B505CBCF4E
:1032700081E00E94F80AD82F0E94120B8091C105AC
:1032800061E8813011F061E081E00E94DD0A109276
:10329000BD058091BE05811178C0B092BB05B0928A
:1032A000C2058091B7058093C4058091BC058093C9
:1032B000C5058F5F8093BC051092C9058091C1053B
:1032C00081110CC08091B5059091B605CD9730F075
:1032D0008CE390E09093B6058093B505D801CD01BD
:1032E000801B910B2091B5053091B605821793078D
:1032F00048F42D91E091C705F091C805E80FF91F3A
:103300002083EDCF0E94D70FC82F8091C305982F3F
:1033100090619093C3059091A505992319F0886158
:103320008093C30560E88DE00E94DD0AC1113CC0B6
:103330008091A105811113C06091C2050E94DD0A30
:103340006091C30580E00E94DD0A6091C40580E0C1
:103350000E94DD0A6091C50580E00E94DD0A10E050
:1033600000E08091B5059091B60508171907E0F4C3
:10337000E091C705F091C805E00FF11F608180E082
:103380000E94DD0A0F5F1F4FECCF813029F480913E
:10339000C6058F5F8093C6050E94D70FC82F809106
:1033A000BE058093C905B1CF6D2F81E00E94DD0A73
:1033B0008C2FC1114ECFDF91CF911F910F91FF90B4
:1033C000EF90DF90CF90BF900C94FA153F924F9200
:1033D0005F926F927F928F929F92AF92BF92CF92A5
:1033E000DF92EF92FF920F931F93CF93DF938FEFB4
:1033F0000E94EC1720912101222309F4A5C06C0141
:10340000F12CE12C2C01370183E0769467945794DA
:1034100047948A95D1F7312C8EEE93E00E942B08C9
:103420004AE050E0C701B6010E94A7100E9463164F
:10343000C9E0D0E00E940A096093550470935604D5
:10344000809357049093580481E00E94320B082F18
:1034500010E00E940A096093500470935104809315
:103460005204909353040115110509F047C04AE036
:1034700050E00E94A7108AEE93E00E942B088091F2
:10348000B0056AE070E0082E000C990B0E94DF1076
:1034900088EE93E00E942B086091500470915104D3
:1034A000809152049091530480905504909056045A
:1034B000A0905704B0905804681979098A099B09AB
:1034C0004AE050E00E94A7100E94631680905504C5
:1034D00090905604A0905704B09058040E940A0996
:1034E000840C951CA61CB71CA5019401261B370B48
:1034F000480B590BCA01B9010E94D708219709F05E
:1035000099CF012B09F1339484EE93E00E942B08AC
:103510006AE070E0832D0E94A9100E94631685EC7A
:1035200093E00E942B084AE050E0C701B6010E94D8
:10353000A7100E946316C701B6010E94D7088AEB44
:1035400093E00E942B0868CFDF91CF911F910F91DC
:10355000FF90EF90DF90CF90BF90AF909F908F90B3
:103560007F906F905F904F903F900895CF938091A0
:1035700089050E941F0761E0809189050E94660805
:1035800064E670E080E090E00E94D708CFB7F8943E
:103590008091E804811124C0ECEAFDE08491E0EC24
:1035A000FDE09491E82FF0E0EE0FFF1FE856F24F98
:1035B000A591B491EC91E92321F461E08AE00E94A5
:1035C00066088AE00E941F078CB580618CBD8CB5AF
:1035D00080648CBD8DE00E941F078BE00E941F0756
:1035E0008091E8048F5F8093E804CFBF8CB58F7D16
:1035F0008CBD8CB58C7F81608CBD8DB581608DBD9F
:103600008CB5837F8CBD64E670E080E090E00E9422
:10361000D70882E40E94F80A823209F059C084E790
:103620009DE00E94EA101092860580918605813007
:1036300041F588E29DE00E94EA1060E089E00E9486
:10364000DD0A8BE30E94F80A682F60648BE30E9416
:10365000DD0A8BE30E94F80A85FDFBCF60E070E095
:1036600089ED90E00E94FE0D8BE30E94F80A682F1E
:1036700060648BE30E94DD0A8BE30E94F80A85FDFB
:10368000FBCF8BE10E94140D0E94F610C82F0E9400
:10369000B40C0E94F00C809188050E943111809139
:1036A000C105882329F089E30E94F80A80938705E1
:1036B00080918705809388050E940A09611571052C
:1036C0008105910511F00E9405318C2FCF9108954D
:1036D00082E40E94F80A823141F48AE59DE00E946A
:1036E000EA1081E080938605A0CF81E49DE00E94EE
:1036F000EA109BCFCF93EAECF5E088E0DF011D9262
:103700008A95E9F78AED95E09093D0058093CF05EF
:1037100068E08AE00E94DD0A63E28CE00E94DD0A34
:1037200060E08DE00E94DD0A8091A9058A5065E085
:10373000833008F068E08FE10E94DD0A60E085E2F6
:103740000E94DD0A8091C105813059F48FEF0E94FB
:10375000A00FC82F65E881E00E94DD0A8C2FCF9171
:1037600008950E94D70FC82F65E0F5CFCF92DF9262
:10377000EF92FF92CF93DF9391E09093A5050E9483
:10378000EF18882359F0C1E01092A5058C2FDF9126
:10379000CF91FF90EF90DF90CF9008950E947A1B19
:1037A0008111F1CF89EB9CE00E94EA1080E197E261
:1037B0000E94E20FC82F882309F4EDC00E94E61092
:1037C00080EA9CE00E94EA100E940A096B017C01D9
:1037D00020E1C20E27E2D21EE11CF11C8091C1053E
:1037E0008130B9F482E10E94F80A86FD08C00E9487
:1037F0000A096C157D058E059F05A0F3C0E061E800
:1038000081E00E94DD0AC11113C0C1E00E94120BC9
:10381000BBCF8FE30E94F80A82FD08C00E940A090C
:103820006C157D058E059F05A0F3C0E061E0E8CF33
:103830008091BB058093D20580E00E94F80A8093B6
:10384000D30580E00E94F80A8093D40580E00E94AE
:10385000F80A8093D50580E00E94F80A8093D60587
:10386000C091D705D091D80580E00E94F80A8883DE
:10387000C091D705D091D80580E00E94F80A8983CD
:103880008091D305803209F69091D2058091C405CC
:10389000C2E09813BBCF9091D4058091C2059813D4
:1038A000B4CF9091D5058091C5059813AECF809186
:1038B000D605823009F0A9CFE091D705F091D8055F
:1038C000C081C111A2CF8FE89CE00E94EA1081E87C
:1038D0009CE00E942B086AE070E08091D2050E9473
:1038E000B51388E79CE00E942B086AE070E08091A5
:1038F000D4050E94B5138BE69CE00E942B086AE079
:1039000070E08091D5050E94B5138EE59CE00E9481
:103910002B086AE070E08091D6050E94B51380E51F
:103920009CE00E942B08E091D705F091D8056AE051
:1039300070E080810E94B51385E39CE00E942B0813
:10394000E091D705F091D8052181822F90E027FFE3
:103950001DC0919581959109959587959595879528
:103960008F7381958093A2058091A2056AE070E033
:10397000082E000C990B0E94DF100E94E61082E3D3
:103980009CE00E94EA100E94E61040CF9595879532
:1039900095958795E7CF82EB9CE00E94EA10C3E003
:1039A000F3CE4F925F926F927F928F929F92AF92DF
:1039B000BF92CF92DF92EF92FF920F931F93CF931C
:1039C000DF9382E993E00E942B080E9463168091A6
:1039D0002101811111C0DF91CF911F910F91FF90B3
:1039E000EF90DF90CF90BF90AF909F908F907F909F
:1039F0006F905F904F90089582E0D82ED0E0C12C58
:103A000065C081E00E94320B082F10E001151105FE
:103A100081F085E693E00E942B088FEFE81AF80A00
:103A2000BB24B394C0C089E693E00E942B08B12C5C
:103A3000BAC0C15087E693E00E942B08B4C089E465
:103A400093E00E942B0810922201BFC0DF5F85E443
:103A500093E00E942B086AE070E08D2F0E94A9106D
:103A60000E94631685E193E00E942B080E940A09D8
:103A700060935504709356048093570490935804B0
:103A800010E000E081E00E94320B882309F4D9C0E5
:103A900083E193E00E942B080F5F1F4FF3CF8AEB67
:103AA00092E0DF91CF911F910F91FF90EF90DF9007
:103AB000CF90BF90AF909F908F907F906F905F90CE
:103AC0004F900C942B08C11186CFC12E8EEF8D0F15
:103AD000833008F4DD0C0E940A092B013C0140925E
:103AE0005504509256046092570470925804809185
:103AF00021010E94320BC82F0E940A094B015C0170
:103B00008092500490925104A0925204B0925304B7
:103B10008FE793E00E942B08C501B4016419750971
:103B2000860997094AE050E00E94A7100E94631698
:103B3000C1118CCFDD2309F482CF8DE693E00E9482
:103B40002B0880912101D89EC00111244C01092E1F
:103B5000000CAA08BB08C0E0892B39F00E94B630DF
:103B6000A50194010E944A31C62F6AE070E08C2FB3
:103B70000E94A9100E946316B12CF12CE12CBB20ED
:103B800009F43FCF809121010E94320B082F10E0F1
:103B90000115110509F447CF8BE693E00E942B082D
:103BA0008FEFE81AF80AC111EACF0E9463168EE47B
:103BB00093E00E942B086AE070E0C7010E94DF10CA
:103BC0000E946316012B09F081CF10915904112333
:103BD000A9F10E946F0C811162CF84ED92E00E94E6
:103BE0002B088091B0056AE070E0082E000C990B5C
:103BF0000E94DF100E946316CAE08091B005873AE8
:103C00000CF461CFCC2309F460CF61E070E080E078
:103C100090E00E94D7080E946F0C8AEC92E00E940C
:103C20002B088091B0056AE070E0082E000C990B1B
:103C30000E94DF100E946316C150DFCFC11046CF33
:103C4000CACE0E940A096093500470935104809375
:103C50005204909353040E9463168CEF92E00E94EA
:103C60002B086AE070E0C8010E94DF100E94631612
:103C700089EE92E00E942B086091500470915104EB
:103C80008091520490915304009155041091560470
:103C90002091570430915804601B710B820B930BD9
:103CA0004AE050E00E94A7100E9463168EED92E059
:103CB0000E942B080BCF2F923F924F925F926F92F0
:103CC0007F928F929F92AF92BF92CF92DF92EF92AC
:103CD000FF920F931F93CF93DF9382E992E00E94AC
:103CE0002B080E94631680912101811113C0DF917E
:103CF000CF911F910F91FF90EF90DF90CF90BF90E9
:103D0000AF909F908F907F906F905F904F903F907B
:103D10002F90089500E010E087E0882E912CA12CD0
:103D2000B12C93E0392E2224239472C00F5F81E3DB
:103D300092E00E942B086AE070E0802F0E94A91098
:103D40000E9463160E94B630A50194010E944A3178
:103D50006B017C013FEFC31AD30AE30AF30A85E142
:103D600092E00E942B086AE070E08C2D0E94A9105E
:103D70008FEF91E00E942B08D12CE0912401F0E01C
:103D8000EE5CFD4F8081839DC00111246AE070E0EC
:103D90009C012C9DC0012D9D900D3C9D900D1124EA
:103DA0000E94DF100E946316E0912401F0E0EE5CB7
:103DB000FD4F8081839DC00111248C9DB0018D9D9C
:103DC000700D9C9D700D1124072E000C880B990B13
:103DD0000E94D70884EF91E00E942B0819C080ED63
:103DE00091E0DF91CF911F910F91FF90EF90DF90C5
:103DF000CF90BF90AF909F908F907F906F905F908B
:103E00004F903F902F900C942B08C11170CF1D2F15
:103E10000E940A092B013C0140925504509256041D
:103E20006092570470925804809121010E94320BD5
:103E3000C82F0E940A096B017C01C0925004D092E5
:103E40005104E0925204F09253048AE792E00E94F7
:103E50002B08C701B60164197509860997094AE05C
:103E600050E00E94A7100E946316C1115FCF85E742
:103E700092E00E942B08209222010E94B630A501F8
:103E800094010E944A316B017C012FEFC21AD20AC1
:103E9000E20AF20A8EE592E00E942B086AE070E0E6
:103EA0008C2D0E94A91086E592E00E942B08E091DB
:103EB0002401F0E0E35CFD4F80816AE070E0C89E81
:103EC000C00111240E94DF100E946316E0912401BA
:103ED000F0E0E35CFD4F6081C69EB0011124072E27
:103EE000000C880B990B0E94D7080E940A092B012D
:103EF0003C014092550450925604609257047092CF
:103F00005804809121010E94320BC82FD0E00E94FA
:103F10000A096B017C01C0925004D0925104E092D6
:103F20005204F09253048EE392E00E942B08C701E2
:103F3000B60164197509860997094AE050E00E94A4
:103F4000A7100E9463168AE392E0209711F085E3A0
:103F500092E00E942B080E946316CD2B09F058CFE7
:103F6000D0915904DD23A9F10E946F0C811137CF44
:103F70008AEE91E00E942B088091B0056AE070E023
:103F8000082E000C990B0E94DF100E946316CAE0F5
:103F90008091B005873A0CF438CFCC2309F437CFA1
:103FA00061E070E080E090E00E94D7080E946F0C12
:103FB00080EE91E00E942B088091B0056AE070E0ED
:103FC000082E000C990B0E94DF100E946316C1504E
:103FD000DFCF11111DCF8BCE2F923F924F925F9268
:103FE0006F927F928F929F92AF92BF92CF92DF9209
:103FF000EF92FF920F931F93CF93DF93CDB7DEB76E
:10400000C156D1400FB6F894DEBF0FBECDBFCB5A1C
:10401000DE4F19821882C555D1401092CD041092FE
:10402000CC0489EE94E00E949C07892B09F448C0D7
:10403000CB5ADE4F19821882C555D14089EE94E0E3
:104040000E949C07892B31F1CB5ADE4F88819981E0
:10405000C555D14080359105ECF489EE94E00E947D
:104060007A07CB5ADE4F28813981C555D140F901F5
:10407000E75DFE4F80832F5F3F4FCB5ADE4F398382
:104080002883C555D14062E370E080E090E00E9453
:10409000D708D4CFCB5ADE4FE881F981C555D1403E
:1040A000E75DFE4F10828EEA9BE00E942B0889E2BA
:1040B00091E00E9471160E94631681E08093CD0406
:1040C0008091E704882309F416C3B090CD04B110A1
:1040D00012C38091CA049091CB04892B09F43AC190
:1040E0000E940A090091C6041091C7042091C804D7
:1040F0003091C904061717072807390708F02AC1A5
:1041000085EA9BE00E942B080E940A094AE050E0E1
:104110000E94A7100E9463168091C2049091C3046C
:10412000A091C404B091C504AC01BD014F5F5F4FC5
:104130006F4F7F4F4093C2045093C3046093C404F5
:104140007093C504BF93AF939F938F9380EA93E0DE
:104150009F938F9309E211E01F930F930E948C3479
:10416000D8010D900020E9F7CD018A5291402091AD
:10417000280130E0FC01E75DFE4F0FB6F894DEBF8A
:104180000FBECDBF4AE2821793071CF441930196FC
:10419000FACFCB5ADE4F99838883C555D140875DCE
:1041A0009E4FDC011C928AE99BE00E942B0889E269
:1041B00091E00E9471160E94631680912701813060
:1041C00011F40E945B1E80912701823011F40E943D
:1041D000D11C80912701833011F40E94E6198BE8ED
:1041E0009BE00E942B086AE070E08091BC050E9471
:1041F000A9100E9463168AE79BE00E942B0809E23F
:1042000011E0F80101900020E9F7BF016A52714006
:1042100090E080E04AE00E9463100E946316D8019B
:104220000D900020E9F78D010A5211408091C104E0
:10423000882309F4C2C080E0800F0E94EC178C0133
:1042400086E69BE00E942B08B80190E080E04AE0FF
:1042500050E00E94A7100E9463160E940A096B0199
:104260007C0149E251E0FA0101900020E9F7AF0139
:104270004A52514069E271E0809125010E94EF1895
:10428000182F88E59BE00E942B080E940A096C19F0
:104290007D098E099F094AE050E00E94A7100E9404
:1042A000631684E49BE00E942B086AE070E0812F93
:1042B00090E00E94DF100E9463168091BF049091ED
:1042C000C004892B09F482C0C090CA04D090CB04EA
:1042D000F12CE12CF1EDCF16F7E0DF06E104F1045B
:1042E0000CF46DC00E94B630A7019601205D3740E6
:1042F000410951090E944A316B017C0120EDC20E37
:1043000027E0D21EE11CF11CD092C004C092BF0471
:104310000E940A09EE24FF24C60ED71EE81EF91ECD
:10432000C092C604D092C704E092C804F092C904B7
:104330008BE39BE00E942B086091C6047091C70438
:104340008091C8049091C9044AE050E00E94A710EF
:104350000E9463168091240108EE13E0813011F46D
:1043600004EC19E00E947A1B8111C5C1C8010E94AA
:10437000E20F182F882309F4BEC10E940A096B01BD
:104380007C0130E1C30E37E2D31EE11CF11C8091A9
:10439000C105813009F04AC082E10E94F80A082F65
:1043A00086FF02C00C94282E0E940A096C157D0518
:1043B0008E059F0588F312E020C084E03DCFA0ED7C
:1043C000CA2EA7E0DA2EE12CF12C9ECF0E940A091A
:1043D0002091CA043091CB04620F731F811D911D7F
:1043E0006093C6047093C7048093C8049093C90473
:1043F0009FCF81E08093BD0513E061E881E00E94DA
:10440000DD0ABB2009F404C28091C105813009F0A6
:104410000EC160E08DE00E94DD0A8091A10581114E
:104420001AC00E94F80A8093CA0517C08FE30E9441
:10443000F80A82FF02C00C94362E0E940A096C15FD
:104440007D058E059F0590F312E00C943E2E109290
:10445000BD05B12EF9CF1092CA058091A105811139
:1044600026C10E94F80A8093CB05807F803109F431
:10447000E7C0803209F4E4C082E08093BD0513E018
:104480008091BD058150823008F435C10E94CE0E66
:104490000E94EF0E153009F4CBC181E08093CC046B
:1044A0000E94CE0E0E94EF0E0091B5051091B60548
:1044B0004091A9058091A80590E004962091A70558
:1044C000273009F096C22DE730E011271F924F9355
:1044D0009F938F933F932F938091B2058F938091F9
:1044E000B1058F938091AF05282F082E000C330B58
:1044F0003F938F931F930F938091CD051F928F93BE
:104500008091CC051F928F938091CB051F928F9342
:104510008091CA051F928F938AEA93E09F938F93AD
:10452000FBE5EF2EF4E0FF2EFF92EF920E948C3419
:10453000C7010E9471168091B2058F938091B105D9
:104540008F938091AF05282F082E000C330B3F93DB
:104550008F931F930F938091CD051F928F9380911E
:10456000CC051F928F938091CB051F928F938091E2
:10457000CA051F928F9385E094E09F938F93FF92DB
:10458000EF920E948C340FB6F894DEBF0FBECDBF01
:10459000C7010E9471164091A9058091A80590E07D
:1045A00004962091A705273009F42AC2283009F083
:1045B00029C22AEF30E01F924F939F938F933F932E
:1045C0002F938DE194E09F938F938BE594E09F93DD
:1045D0008F930E948C348BE594E00E947116E9E27F
:1045E000CE2EE1E0DE2E0FB6F894DEBF0FBECDBFBB
:1045F000F12CE12CE016F1060CF007C2E091CF059A
:10460000F091D005EE0DFF1D608189EE94E00E94CF
:10461000DE07E091CF05F091D005EE0DFF1D808102
:10462000D6018D936D01BFEFEB1AFB0AE3CF80E358
:104630000E94F80A867009F4F4CE8091BB05F3CE8F
:1046400080E00E94F80A8093CC0580E00E94F80A7E
:104650008093CD058091BD0581113AC083E10E9410
:10466000F80A8093CE059091C105913049F42091CC
:10467000A10590E0222311F19093B6058093B50532
:1046800010E000E08091B5059091B6050817190774
:10469000B8F4E090CF05F090D005E00EF11E80E078
:1046A0000E94F80AD7018C930F5F1F4FEBCF109237
:1046B000CB051092CC051092CD05CCCF0497DCCF62
:1046C0008091CB0583FFA0C081E08093A60515E013
:1046D0008091C105813021F460E08DE00E94DD0A07
:1046E0000E94120B112309F4CBCE133009F4C8CE6B
:1046F000153009F4C5CE8091CD04811106C080919A
:10470000CC04882311F40C94F52DCB5ADE4F19827A
:104710001882C555D140809129018F3209F014C704
:1047200080912A01803409F00FC788E29BE00E9443
:104730002B08CB5ADE4F88819981C555D14002960E
:10474000CB5ADE4F99838883C555D14085E29BE0E3
:104750000E942B0889E291E00E9471160E94631664
:104760008091CC04882379F0CB5ADE4FE881F9811F
:10477000C555D140E75DFE4F8081853521F08091A0
:104780005A04882321F08091230181110EC08DE00D
:104790009BE00E942B08CB5ADE4FE881F981C5557A
:1047A000D140E75DFE4F8AE28083CB5ADE4F88819D
:1047B0009981C555D140DC01A75DBE4FEC91E15414
:1047C000EA3108F0BEC60E2E000CFF0BE651FC4D80
:1047D0000C9469347629A12A592810251227A12A78
:1047E000A12AA12AA12AA12AA12A702AD427A12A72
:1047F000202A5529A12AEF26602736263027A12A0C
:104800002728A12AA12ACC261092A60510E060CF65
:104810008091BD05813009F05BCF8091BE059091FC
:10482000BF05891708F054CF8F5F8093BE0550CF26
:104830008091DB068823C9F00E947F156B017C0103
:1048400087E00E94EC17C81AD90AE108F108F7FEC0
:104850000CC08FE994E00E942B080E940A094AE0EC
:104860000E9463100E94E61046CF0E94120B8091B6
:10487000C10561E8813011F061E081E00E94DD0A4C
:1048800087E00E94A00F811136CF8091CC058093E4
:10489000D20580E28093D3058091CA058093D40528
:1048A0008091CD058093D50582E08093D605E09177
:1048B000D705F091D8058091BD0580830091D7057B
:1048C0001091D80589E10E94F80AF801818360E817
:1048D0008DE00E94DD0A6091D20580E00E94DD0A31
:1048E0006091D30580E00E94DD0A6091D40580E0EC
:1048F0000E94DD0A6091D50580E00E94DD0A60918A
:10490000D60580E00E94DD0AE091D705F091D80538
:10491000608180E00E94DD0AE091D705F091D80522
:10492000618180E00E94DD0A8DE794E00E94EA1038
:104930008DE694E00E94EA108FE594E00E942B0837
:104940006AE070E08091D2050E94B51386E594E09C
:104950000E942B086AE070E08091D4050E94B51394
:1049600089E494E00E942B086AE070E08091D5050C
:104970000E94B5138CE394E00E942B086AE070E07B
:104980008091D6050E94B5138EE294E00E942B0818
:10499000E091D705F091D8056AE070E080810E942F
:1049A000B51387E194E00E942B088091AF056AE07F
:1049B00070E0082E000C990B0E94DF100E94E61098
:1049C00084E194E00E94EA100E94E6101092BD0576
:1049D00064EF71E080E090E00E94D70880E197E208
:1049E0009093DA068093D9060E94FA15811183CE3E
:1049F00054CD283011F42AEF67CD24EF31E065CD96
:104A00002DE7D8CD24EF31E0D6CDF801E75DFE4F9C
:104A100010820E94631689EE94E00E9446086BCED5
:104A20009C012F5F3F4FF901E75DFE4F408142340B
:104A300099F512964C914D3479F50396CB5ADE4F89
:104A400099838883C555D140CE018B5A9E4F0E94D1
:104A500099176B01CB0101970E9728F00FEF1FEF0D
:104A6000312CF12C63C08BEF9AE00E942B086AE096
:104A700070E0C6010E94DF100E9463168C2D0E9418
:104A8000A20D182F83EE9AE00E942B086AE070E0D6
:104A9000812F110F990B46C2CB5ADE4F39832883E1
:104AA000C555D140CE018B5A9E4F0E949917CB5AC3
:104AB000DE4F28813981C555D1402F5F3F4FCB5AFA
:104AC000DE4F39832883C555D14077FF02C070E09F
:104AD00060E08B016F3F710519F014F00FEF10E0EB
:104AE00089E291E0FC0101900020E9F7CF018A52B0
:104AF00091408217930761F41093260100932501DA
:104B00008CEC9AE00E942B086AE070E0C8010AC2AF
:104B10008FE99AE00E942B086AE070E0C8010E94C9
:104B2000DF100E946316312CFF24F39489EE94E089
:104B30000E944608FF2011F40C94F52D8091CD04BD
:104B4000882311F40C94F52DCB5ADE4FE881F981BE
:104B5000C555D140E75DFE4FDF010D900020E9F71C
:104B600011979D012E1B3F0BC75ADE4F39832883B7
:104B7000C955D140C75ADE4FF880C955D1408EE79C
:104B800096E00E942B086AE070E0C75ADE4F8881E9
:104B9000C955D1400E94A9100E946316CB5ADE4F1E
:104BA00088819981C555D140875D9E4F0E947116BD
:104BB0000E9463168FE696E00E942B086AE070E080
:104BC0008091BC050E94A9100E946316C75ADE4F4F
:104BD00088809980C955D140992480914E04CB5A40
:104BE000DE4F68817981C555D140AE014F5F5F4F7F
:104BF0002A01675D7E4FA401882311F40C94122EC4
:104C0000CE010A960E9483348CE596E00E942B0820
:104C1000CB5ADE4FE880F980C555D140E40CF51C35
:104C2000CB5ADE4F88819981C555D140880D991D99
:104C3000970124193509281739070CF089C4D701C1
:104C400019968C91803120F48AE596E00E942B0819
:104C500060E170E0F70181850E94A91088E596E087
:104C60000E942B08FFEFEF1AFF0ADACF9C012F5F9B
:104C70003F4FCB5ADE4F39832883C555D140275D3E
:104C80003E4FD9012C91223509F075C021E030E06A
:104C90003093C0042093BF040296CB5ADE4F998311
:104CA0008883C555D140CE018B5A9E4F0E949917DB
:104CB0006B017C017093CB046093CA04672B09F4E9
:104CC0005FC085E89AE00E942B08C701B6018827DB
:104CD00099274AE00E9463100E9463160E940A0905
:104CE0002091CA043091CB04620F731F811D911D66
:104CF0006093C6047093C7048093C8049093C9045A
:104D00008091BF049091C004892B09F4A7CEC09074
:104D1000CA04D090CB04F12CE12CB1EDCB16B7E056
:104D2000DB06E104F1048CF10E94B630A701960184
:104D3000205D3740410951090E944A316B017C01D5
:104D4000E0EDCE0EE7E0DE1EE11CF11CD092C004C7
:104D5000C092BF040E940A09EE24FF24C60ED71E8B
:104D6000E81EF91EC092C604D092C704E092C8049F
:104D7000F092C90473CE1092C0041092BF0493CF76
:104D80008EE69AE00E942B08BBCF70EDC72E77E02D
:104D9000D72EE12CF12CDACF0196CB5ADE4F998336
:104DA0008883C555D140CE018B5A9E4F0E949917DA
:104DB0006A30710514F46AE070E08B016B3F710595
:104DC00014F00AEF10E00093280182E69AE00E94B6
:104DD0002B086AE070E0802F0E94A91035C111965F
:104DE0008C911197833509F039CE12968C911297D8
:104DF000833509F033CE13968C91893409F02ECE89
:104E0000F090590481E0F826F092590489E59AE07F
:104E1000F1104CC08FE49AE00E942B08312C0FEF68
:104E20001FEF84CE11968C911197893409F016CE1C
:104E300012968C911297863409F010CE13968C91AD
:104E4000833509F00BCEF090220181E0F826F09234
:104E5000220186E49AE0F11029C08CE39AE0DCCFCD
:104E600010912301112309F4F9CD0196CB5ADE4F9D
:104E700099838883C555D140CE018B5A9E4F0E949D
:104E80009917623D7440C1F480915A0491E08927DA
:104E900080935A04882369F080E39AE00E942B08EB
:104EA000809123018111DACD8BE19AE00E942B08D9
:104EB000D5CD86E29AE0F2CF115010932301F0CFC6
:104EC0009C012F5F3F4FF901E75DFE4F4081463463
:104ED00061F50296CB5ADE4F99838883C555D14040
:104EE000CE018B5A9E4F0E9499176B01CB010697FA
:104EF000079708F0B3CD80E19AE00E942B086AE0A2
:104F000070E0C6010E94DF100E9463168C2D0E9483
:104F10002B12182F8FEF99E00E942B086AE070E0A7
:104F2000812F90E00E94DF108FC0CB5ADE4F398373
:104F30002883C555D140CE018B5A9E4F0E949917A8
:104F40008B01CB5ADE4F28813981C555D14079017B
:104F50004FEFE41AF40ACB5ADE4FF982E882C555C6
:104F6000D1406B3F71057CF4F901E75DFE4F43E2F0
:104F7000DF01A21BB30BA952B140A017B10734F453
:104F800041833196F5CF8CEE99E090CFFB0177FF0E
:104F900002C0F0E0E0E0C701875D9E4FE80FF91F17
:104FA00010820FEF1FEFBFCD0196CB5ADE4F9983D2
:104FB0008883C555D140CE018B5A9E4F0E949917C8
:104FC0006B016C30710528F064E0C62ED12CE12C09
:104FD000F12CC092240188ED99E00E942B086AE030
:104FE00070E08C2D0E94A9100E946316809124010C
:104FF0000E94C113182F84EC99E00E942B086AE0EC
:1050000070E0812F110F990B0E94DF100E94631630
:105010000E94F00C182F88EA99E00E942B086AE0A1
:1050200070E0812F90E00E94DF100E94631686E9F5
:1050300099E00E942B086091B3057091B40590E04F
:1050400080E04AE00E9463100E94631607CD01963B
:10505000CB5ADE4F99838883C555D140CE018B5AF8
:105060009E4F0E949917CB016AE070E00E94553470
:1050700054E0660F771F5A95E1F78B01080F191F4F
:10508000C80101978F3F910510F002E110E080E820
:1050900099E00E942B0860E170E0C8010E94DF10D7
:1050A0000E946316802F0E943111182F87E699E025
:1050B000EBCC9C012F5F3F4FF901E75DFE4F408134
:1050C000413409F067C012964C911297443409F0AC
:1050D0007EC013962C9113972F3431F514962C9192
:1050E00014972E34C1F40596CB5ADE4F99838883EA
:1050F000C555D140CE018B5A9E4F0E9499178B0106
:105100006F3F710519F014F00FEF10E000932101CB
:105110008FE499E05CCE263439F415968C91863470
:1051200019F4109221019ACC0E940A094B015C01EA
:105130008092550490925604A0925704B09258045D
:10514000809154040E94320B182F0E940A096B01AF
:105150007C01C0925004D0925104E0925204F0922B
:1051600053048CE399E00E942B08C701B60168192B
:1051700079098A099B094AE050E00E94A7100E9421
:10518000631689E399E0112311F085E399E00E9409
:105190002B085ACF4335D9F40296CB5ADE4F998368
:1051A0008883C555D140CE018B5A9E4F0E949917D6
:1051B0008B016430710534F087E099E00E942B0880
:1051C00002E010E00093270183EE98E000CECB5A76
:1051D000DE4F39832883C555D140CE018B5A9E4F6F
:1051E0000E9499176B01CB0104970F9708F45AC0DE
:1051F00084E080932D02E0912D02E450E0932D0293
:1052000084E0E89FF0011124E65AFC4F80819181EF
:10521000A281B3818093EA069093EB06A093EC06FB
:10522000B093ED068CEC98E00E942B086AE070E0E9
:10523000C6010E94DF100E9463166091EA06709119
:10524000EB068091EC069091ED060E94FE0D182F62
:1052500082EB98E00E942B086AE070E0812F110F2A
:10526000990B0E94DF100E9463168BEA98E00E945F
:105270002B0860918E0570918F058091900590911B
:10528000910500918A0510918B0520918C05309134
:105290008D05601B710B820B930B4AE050E00E945E
:1052A000A710D2CEC0922D02A6CF11961C9184EBEE
:1052B000810F823048F0812F8F7E883429F084E579
:1052C00098E0183709F0F2CD86E998E00E942B08A3
:1052D000612F89EE94E00E94DE070E946316812F01
:1052E0000E94310D182F8EE798E0CECB9C012F5FE6
:1052F0003F4FF901E75DFE4F40814334E9F51296D7
:105300004C9112974B3409F04AC013962C91139785
:10531000233261F40496CB5ADE4F99838883C555B6
:10532000D1400FEF1FEF33243394FECB2F3459F4C9
:1053300014968C918E3439F481E080934F0485E487
:1053400098E00E942B08CB5ADE4FE881F981C555C1
:10535000D140E75DFE4F83818F3409F07FCB84819C
:10536000863409F07BCB8581863409F077CB1092A7
:105370004F0485E398E09ACD453489F412968C91D8
:10538000833569F4F0904E0481E0F826F0924E04E3
:105390008DE298E0F1108ACD84E298E03DCDCB5AC1
:1053A000DE4F39832883C555D140CE018B5A9E4F9D
:1053B0000E9499178B016F3F710509F034F416169E
:1053C00017062CF006E010E002C00FEF10E000938B
:1053D00020018BE098E00E942B086AE070E0802FAB
:1053E0000E94A9100E946316109120011093B70526
:1053F00081E00E94F80A082F8091C10561EC81309C
:1054000011F061E081E00E94DD0A612F83E30E94D8
:10541000DD0A60E084E30E94DD0A83E30E94F80A6B
:10542000F82E602F81E00E94DD0A01E010E08091FB
:10543000B7058F1102C010E000E08AEE97E062CB62
:1054400011968C9111978E3409F58EEC97E00E949D
:105450002B080E94B61A082F10E083EB97E00E94F9
:105460002B086AE070E0C8010E94DF100E946316FA
:10547000012B29F481E08093E7040E94731664EF06
:1054800071E080E090E00E94D708E8CA863429F5F0
:1054900012968C91863409F585E997E00E942B08D5
:1054A0009FB7F8948091E804882319F08150809385
:1054B000E8048091E804811103C08CB58F7B8CBD1A
:1054C0009FBF809189050E941F0760E08091890538
:1054D0000E9466081092E704C1CA8FE697E0E6CC06
:1054E00011968C91873509F0B9CAF090C10411E08A
:1054F000F126F092C104FF20B9F085E597E00E9403
:105500002B081093A10510934E048AE297E00E94A5
:105510002B0882E197E00E942B0887EF96E00E941B
:105520002B0888ED96E0C2CC8DEB96E00E942B080C
:1055300084EA96E00E942B081092A10510924E0476
:105540006DCC82E996E0B2CC0FEF1FEF312CF6CA9A
:105550000E9463168CE496E00E942B0889E396E093
:105560000E942B0820904C0420914D04C35ADE4F1A
:105570002883CD55D140C75ADE4F7880C955D140D8
:1055800072944FE07422C75ADE4F3881C955D1401A
:105590003F70A32E09F07394BB24B394AE01465F11
:1055A0005F4F6A017E0151E0E50EF51E66246394AB
:1055B0007B1408F461C0D7016C9211961C9211976C
:1055C00012961C92129713961C92139714961C9283
:1055D000149715961C921597E6E01696EC9316977D
:1055E000F3E01796FC93179722E018962C931897E0
:1055F00019966C9219971A962C921A97C35ADE4FE5
:105600003881CD55D1401B963C931B971C961C921C
:105610001C971D961C921D971E961C921E971F96F6
:10562000BC9260E071E0C7010E94D109B71479F023
:10563000F7019601205F3F4F9191D6018C91892708
:105640008D936D012A173B07B9F7B394B1CFA11021
:1056500002C030E1A32EF701D60191918C918927E8
:105660008D938E2F8E198A15C0F38FEF8A0D90E0DF
:105670000196C80ED91EE9CFCB5ADE4FE880F980DB
:10568000C555D140E40CF51CCB5ADE4F8881998179
:10569000C555D140880D991D970124193509281742
:1056A0003907BCF4F7018185803120F487E396E067
:1056B0000E942B0860E170E0D70119968C910E943E
:1056C000A91085E396E00E942B08BFEFEB1AFB0AB6
:1056D000DBCF0E94631680E48983E6E0EA8383E0FF
:1056E000682E6B8292E0792E7C82BB24B394BD82BB
:1056F0001E8220904C04A0904D042F82A886B9866B
:10570000C75ADE4FF881C955D140F75FC35ADE4F03
:10571000F883CD55D14089E196E00E942B086E01B7
:105720002FECC21A2EEFD20A80E1D601E82F1D928B
:10573000EA95E9F74E01FFED8F1AFEEF9F0AD401BB
:10574000E82F1D92EA95E9F79E012F5E3E4FC95A58
:10575000DE4F39832883C755D140D901E82F1D92E8
:10576000EA95E9F77E01F1E0EF0EFF1ED7011D92E9
:105770008A95E9F789E4CF5BDE4F8883C154D14035
:10578000CE5BDE4F1882C254D140CD5BDE4F188213
:10579000C354D140CC5BDE4F1882C454D140CB5BA4
:1057A000DE4F1882C554D140CA5BDE4F1882C65402
:1057B000D140B6E0C95BDE4FB883C754D140C85B67
:1057C000DE4F6882C854D140C75BDE4F7882C9542F
:1057D000D140C65BDE4FB882CA54D140C55BDE4FB4
:1057E0002882CB54D140C45BDE4FA882CC54D14038
:1057F000C35BDE4F1882CD54D140C25BDE4F1882AE
:10580000CE54D140C15BDE4F1882CF54D140C35A31
:10581000DE4FE881CD55D140C05BDE4FE883C055F7
:10582000D1406E2E62942FE06222EF702E2E09F08E
:10583000639460E171E0C6010E94D109D601BC9079
:10584000C6010E942509B7FE05C0F601878597E8C5
:1058500089278787F601D401C601409621912D93AF
:105860008E179F07D9F7D401BC90C4010E94250967
:10587000B7FE05C0F401878597E88927878760E12F
:1058800071E0CE018F5B9E4F0E94D109FE01EF5B5C
:10589000FE4FCF014096DE01AF5EBE4F21912D93AA
:1058A000E817F907D9F77724739452019701205F1D
:1058B0003F4FC05ADE4F39832883C056D1407614FB
:1058C000C8F5F501C25ADE4FF982E882CE55D140C3
:1058D000C5014096D70121912D938E179F07D9F7C7
:1058E00030E1A30EB11CBE016F5E7E4FC7010E9466
:1058F000160960E171E0C7010E94D109FE01EF5E67
:10590000FE4FC25ADE4FA881B981CE55D1408D914C
:10591000C25ADE4FB983A883CE55D1408193C05A75
:10592000DE4F28813981C056D140A217B30749F70D
:105930007394C5CF211072C0F501D701C5014096FF
:1059400021912D938E179F07D9F7B601C7010E94A9
:105950001609BE016F5E7E4FC7010E94160960E105
:1059600071E0C7010E94D109F7018081CF5ADE4F53
:105970008883C155D1408181CE5ADE4F8883C2557C
:10598000D1408281CD5ADE4F8883C355D140838177
:10599000CC5ADE4F8883C455D140FE01EF5AFE4FEA
:1059A000D201C35ADE4F2881CD55D140A20FB11D7F
:1059B000CF01049621912D93E817F907D9F7C75A1B
:1059C000DE4FF880C955D1403DE0F30E87EF95E0FA
:1059D0000E942B0885EA95E00E942B0862018F2C1B
:1059E000912CC60184199509881599056CF5560105
:1059F000D6018C91803120F483EA95E00E942B0837
:105A0000BFEFCB1ADB0A60E170E0F50180810E94F4
:105A1000A91081EA95E00E942B08E3CFF70180E00E
:105A200090E8821540F4D5012D915D012083281660
:105A300028F4108203C02812FACF90838F5F31962A
:105A4000803179F7B40182CF0E9463168091C1043E
:105A5000882309F4E4C083E795E00E942B08809135
:105A60004C0490914D04019690934D0480934C0406
:105A700084E18093C3058AE195E00E942B086AE0E7
:105A800070E08F2D0E94A9100E9463168091C104BE
:105A9000882309F4CCC080E08F0D0E94EC176C01C4
:105AA00086E095E00E942B08B60190E080E04AE095
:105AB00050E00E94A7100E9463160E940A094B0141
:105AC0005C0180912701813011F40E945B1E80915E
:105AD0002701823011F40E94D11C8091270183306C
