:100000000C94D5020C94FD020C94FD020C94FD029C
:100010000C94FD020C94FD020C94220D0C94FD0234
:100020000C94FD020C94FD020C94FD020C94FD0254
:100030000C94FD020C94FD020C94FD020C94FD0244
:100040000C94D80C0C94FD020C94A60C0C94800C0F
:100050000C94FD020C94FD020C94FD020C94FD0224
:100060000C94FD020C94FD024E414E494E495459E8
:10007000494E46CDCCCC3D0AD7233C17B7D1387773
:10008000CC2B329595E6241FB14F0A000020410089
:1000900000C84200401C4620BCBE4CCA1B0E5AAED3
:1000A000C59D7400407A10F35A00A0724E180900E2
:1000B00010A5D4E80000E87648170000E40B5402CD
:1000C0000000CA9A3B000000E1F505000080969808
:1000D00000000040420F000000A086010000001058
:1000E0002700000000E8030000000064000000009A
:1000F000000A00000000000100000000002C76D87B
:1001000088DC674F0823DFC1DFAE59E1B1B796E560
:10011000E3E453C63AE651997696E8E6C28426EBC4
:10012000898C9B62ED407C6FFCEFBC9C9F40F2BAD7
:10013000A56FA5F490055A2AF75C936B6CF9676D6F
:10014000C11BFCE0E40D47FEF520E6B500D0ED90C4
:100150002E0300943577050080841E080000204E91
:100160000A000000C80C333333330F986E1283112A
:1001700041EF8D2114893BE65516CFFEE6DB18D101
:10018000844B381BF77C1D901DA4BBE424203284D3
:10019000725E228100C9F124ECA1E53D2700000038
:1001A0000800020100000304070000000000000036
:1001B00000535831323736204C462F484620636171
:1001C0006C6962726174696F6E00556E7265636FFF
:1001D000676E697A6564207472616E7363656976AF
:1001E0006572005358313237362064657465637424
:1001F00065642C207374617274696E6700535831A2
:100200003237322064657465637465642C207374BE
:10021000617274696E6700536574696E672048493E
:100220004748206469676974616C204750532070A7
:100230006F7765722070696E3A20005358313237FB
:1002400032207375636365737366756C6C792063B4
:100250006F6E666967757265640A005365747469C8
:100260006E67206E6F646520616464723A207374F7
:10027000617465200053657474696E6720506F77F0
:1002800065723A20737461746520005365747469F3
:100290006E67204368616E6E656C3A20737461749A
:1002A00065200053657474696E67204D6F64653A0C
:1002B00020737461746520005573696E67207061E6
:1002C000636B65742073657175656E6365206E750B
:1002D0006D626572206F66200047657420626163FD
:1002E0006B2070726576696F757320737831323761
:1002F0003220636F6E6669670A0041546D656761FD
:10030000333238502064657465637465640A005341
:10031000696D706C65204C6F52612047505320739B
:10032000656E736F720A002D2D3E20525353492083
:100330006572726F720A002D2D3E20525353492070
:10034000002D2D3E2072657472790A0020444946C2
:10035000533D33534946533D20002D2D3E207761B8
:10036000697420666F72200023310A002332004F27
:100370004B32002D2D3E2043414420002043414478
:10038000203D20002D2D3E207761697420666F721C
:1003900020004F4B310A002D2D3E204341442000C8
:1003A0002D2D3E204353310A002323206E6F7420ED
:1003B000656E6F75676820546F412061742000433B
:1003C0006F756C64206E6F74207377697463682036
:1003D0004C6F5261206D6F64756C6520696E20737F
:1003E0006C656570206D6F64650A005375636365A5
:1003F000737366756C6C7920737769746368204CCD
:100400006F5261206D6F64756C6520696E20736C2E
:10041000656570206D6F64650A0053776974636861
:1004200020746F20706F77657220736176696E67D4
:10043000206D6F64650A0052656D61696E696E6753
:1004400020546F4120697320005061636B657420F4
:1004500073656E742C20737461746520004C6F5248
:10046000612053656E7420772F43414420696E20CC
:10047000004C6F52612053656E7420696E20004CF1
:100480006F526120706B742073657120004C6F5245
:100490006120706B742073697A6520005265616C0D
:1004A000207061796C6F61642073697A652069736B
:1004B000200053656E64696E6720004C6F6E67693B
:1004C0007475646520697320004C61746974756487
:1004D00065206973200046697820697320004E6F9B
:1004E000206669782C2074696D656F757420657855
:1004F00070697265642100536574696E67204849AC
:100500004748206469676974616C204750532070C4
:100510006F7765722070696E3A20002072656D6198
:10052000696E696E6720546F4120697320002063F3
:1005300079636C6520656E64732061742000637953
:10054000636C6520626567696E73206174200023A7
:1005500023206E6577206379636C6520666F722057
:10056000546F412023230000000000250028002BA9
:100570000000000000240027002A000404040404F2
:100580000404040202020202020303030303030140
:100590000204081020408001020408102001020417
:1005A0000810202E2E2E0000390D11241FBECFEF73
:1005B000D8E0DEBFCDBF11E0A0E0B1E0E4EFF8E4A9
:1005C00002C005900D92A837B107D9F724E0A8E73B
:1005D000B1E001C01D92A031B207E1F712E0C5ED14
:1005E000D2E004C02197FE010E94DF1FC43DD10765
:1005F000C9F70E94F00D0C9478240C940000CF925F
:10060000DF92EF92FF92CF93DF93EC016A017B01BF
:10061000E889F98982E08083C11481EED806E1047B
:10062000F104A1F060E079E08DE390E0A70196018C
:100630000E94FD1D215031094109510956954795E8
:1006400037952795211580E1380798F0E889F989D1
:10065000108260E874E88EE190E0A70196010E94A4
:10066000FD1D21503109410951095695479537958E
:100670002795EC85FD853083EE85FF852083188ED8
:10068000EC89FD8986E08083EA89FB89808180612D
:100690008083EA89FB89808188608083EA89FB897D
:1006A000808180688083EA89FB8980818F7D808357
:1006B000DF91CF91FF90EF90DF90CF90089590E081
:1006C000FC01E157FA4F249185589A4FFC0184911F
:1006D000882399F090E0880F991FFC01EF58FA4F9A
:1006E000A591B491FC01E959FA4F859194918FB786
:1006F000F894EC91E22BEC938FBF0895AF92BF92E8
:10070000CF92DF92EF92FF920F931F93CF93DF93DD
:100710006C017B018B01040F151FEB015E01AE180C
:10072000BF08C017D10759F06991D601ED91FC912E
:100730000190F081E02DC6010995892B79F7C5015B
:10074000DF91CF911F910F91FF90EF90DF90CF90AD
:10075000BF90AF900895FC01538D448D252F30E05C
:10076000842F90E0821B930B541710F0CF960895BE
:1007700001970895FC01918D828D981761F0A28DEB
:10078000AE0FBF2FB11D5D968C91928D9F5F9F73B1
:10079000928F90E008958FEF9FEF0895FC01918D67
:1007A000828D981731F0828DE80FF11D858D90E0D4
:1007B00008958FEF9FEF0895FC01918D228D892F71
:1007C00090E0805C9F4F821B91098F739927089559
:1007D0008EE593E00E94DC0321E0892B09F420E000
:1007E000822F089580E090E0892B29F00E94E80391
:1007F00081110C9400000895FC01A48DA80FB92F5D
:10080000B11DA35ABF4F2C91848D90E001968F7338
:100810009927848FA689B7892C93A089B1898C9157
:10082000837080648C93938D848D981306C00288A6
:10083000F389E02D80818F7D80830895EF92FF9270
:100840000F931F93CF93DF93EC0181E0888F9B8DF3
:100850008C8D98131AC0E889F989808185FF15C0AD
:100860009FB7F894EE89FF896083E889F9898081D0
:100870008370806480839FBF81E090E0DF91CF919F
:100880001F910F91FF90EF900895F62E0B8D10E0C1
:100890000F5F1F4F0F731127E02E8C8D8E110CC030
:1008A0000FB607FCFACFE889F989808185FFF5CF7B
:1008B000CE010E94FC03F1CFEB8DEC0FFD2FF11D5B
:1008C000E35AFF4FF0829FB7F8940B8FEA89FB89B8
:1008D00080818062CFCF0F931F93CF93DF938C01E2
:1008E000D0E0C0E0F801EC0FFD1F6491662341F0F9
:1008F0008EE593E00E941E04892B11F02196F2CF21
:10090000CE01DF91CF911F910F910895CF93DF9387
:10091000EC01888D8823B9F0AA89BB89E889F98917
:100920008C9185FD03C0808186FD0DC00FB607FC4C
:10093000F7CF8C9185FFF2CF808185FFEDCFCE017F
:100940000E94FC03E9CFDF91CF91089590E0FC0174
:10095000E356FE4F2491FC01E157FA4F3491FC011C
:10096000E558FA4FE491EE23C9F0222339F0233001
:1009700001F1A8F4213019F1223029F1F0E0EE0F55
:10098000FF1FE959FA4FA591B4918FB7F894EC91F4
:10099000611126C030953E233C938FBF08952730C8
:1009A000A9F02830C9F0243049F7809180008F7D6C
:1009B00003C0809180008F7780938000DFCF84B563
:1009C0008F7784BDDBCF84B58F7DFBCF8091B00066
:1009D0008F778093B000D2CF8091B0008F7DF9CF18
:1009E0003E2BDACF3FB7F89480917D0190917E0144
:1009F000A0917F01B091800126B5A89B05C02F3F33
:100A000019F00196A11DB11D3FBFBA2FA92F982F34
:100A10008827BC01CD01620F711D811D911D42E02F
:100A2000660F771F881F991F4A95D1F708958F92F7
:100A30009F92AF92BF92CF92DF92EF92FF926B01A3
:100A40007C010E94F2044B015C01C114D104E10459
:100A5000F104B9F00E94F204681979098A099B0926
:100A6000683E73408105910580F321E0C21AD108E8
:100A7000E108F10888EE880E83E0981EA11CB11CE5
:100A8000E4CFFF90EF90DF90CF90BF90AF909F901A
:100A90008F9008952FB7F8946091790170917A0141
:100AA00080917B0190917C012FBF089541155105E4
:100AB00029F4EAE7F0E080818F7780836A3071055E
:100AC000B9F0CB01880F991F880F991F807267704A
:100AD0006860682B88E10FB6F894A8958093600051
:100AE0000FBE60936000E0E6F0E080818064808368
:100AF000232BD9F483B7817F846083BFF89483B7B5
:100B0000816083BF85B7806685BF8F7D85BF789400
:100B1000889583B78E7F83BF7894452B29F4EAE7C5
:100B2000F0E0808180688083089583B7817F84604E
:100B300083BFF89483B7816083BF7894889583B727
:100B40008E7F83BF7894E9CF8EBD00000DB407FE81
:100B5000FDCF8EB508950F931F93CF93DF93082F8A
:100B6000162FC8EFD1E060E08B810E94A604802F91
:100B700080680E94A405812F0E94A40561E08B81FA
:100B8000DF91CF911F910F910C94A6041F93CF93E7
:100B9000DF93182FC8EFD1E060E08B810E94A6049C
:100BA000812F0E94A40580E00E94A405182F61E017
:100BB0008B810E94A604812FDF91CF911F91089510
:100BC000CF93DF93D82FD06281E00E94C605C82F53
:100BD0008091330261E8813011F061E081E00E9490
:100BE000AB056D2F8BE00E94AB056C2F81E00E945E
:100BF000AB0580E0DF91CF9108958F929F92AF92E5
:100C0000BF92CF92DF92EF92FF92CF93DF934B018F
:100C10005C010E944A056093FC017093FD01809382
:100C2000FE019093FF0181E00E94C605C82F8091CC
:100C3000330261E8813011F061E081E00E94AB0590
:100C4000B5018827992786E00E94AB0599278B2D4F
:100C50007A2D692D87E00E94AB05682D88E00E94FF
:100C6000AB050E944A0560930002709301028093D5
:100C700002029093030264E670E080E090E00E943C
:100C8000170586E00E94C605C82E87E00E94C605AB
:100C9000D82FD12CDC2CCC24F12CE12CFE2CED2CEB
:100CA000DC2CCC2488E00E94C6052D2F30E0322FAA
:100CB000222790E0B0E0A0E0820F931FA11DB11D9C
:100CC0008C0D9D1DAE1DBF1DD1E088169906AA068C
:100CD000BB0649F480921C0290921D02A0921E0253
:100CE000B0921F02D0E06C2F81E00E94AB0564E659
:100CF00070E080E090E00E9417058D2FDF91CF918A
:100D0000FF90EF90DF90CF90BF90AF909F908F902B
:100D1000089580913302882381F08EE10E94C605F8
:100D200090E024E0959587952A95E1F780931B0242
:100D30008650873020F081E008958FEF089580E09D
:100D4000089580913302882321F18DE10E94C60528
:100D50009091F801682F91111AC064608DE10E9492
:100D6000AB058DE10E94C6059091F80120E091113C
:100D700001C022E090E002C0959587952A95E2F7A0
:100D800080FF09C081E080932A0280E008956160BD
:100D9000E5CF8FEF089581E00895CF9381E00E9421
:100DA000C605C82F80913302813061F461E80E944A
:100DB000AB056FEF82E10E94AB056C2F81E0CF9114
:100DC0000C94AB0561E081E00E94AB056FEF8EE310
:100DD0000E94AB056FEF8FE3EECFCF93DF93C82F69
:100DE00081E00E94C605D82FC0933802809133025B
:100DF0008130F9F461E80E94AB056091380282E22B
:100E00000E94AB0582E20E94C605C1E090913802C3
:100E1000981301C0C0E06D2F81E00E94AB056AEF1E
:100E200070E080E090E00E9417058C2FDF91CF9159
:100E3000089561E081E00E94AB056091380282E391
:100E40000E94AB0582E3DFCF2F923F924F925F92D9
:100E50006F927F928F929F92AF92BF92CF92DF92CA
:100E6000EF92FF920F931F93CF93DF93CDB7DEB72F
:100E700061970FB6F894DEBF0FBECDBF898B80910E
:100E80001902812C34E2932E34EFA32E37E4B32ED3
:100E9000873081F0812C44E2942E44EFA42E48E464
:100EA000B42E883039F4812C24E2922E24E7A22E2D
:100EB00028E4B22E10911B0281E00E94C6058B83AC
:100EC0000E944A0520913302288B213009F0F5C099
:100ED00061E881E00E94AB0581E090E002C0880FEC
:100EE000991F1A95E2F7312C212C10E000E033E035
:100EF00039839C01990F440B550B2C873D874E87F6
:100F00005F870E94CD060E944A050E944A059B0108
:100F1000AC012C593F4F4F4F5F4F2C833D834E8385
:100F20005F8367E881E00E94AB050E94F204688756
:100F300079878A879B8782E10E94C6051A82382FAB
:100F40003470F32E82FD4EC00E944A052C813D81F3
:100F50004E815F81621773078407950708F042C0CE
:100F60000E94F2046B017C016C857D858E859F85D6
:100F70000E945E1C9B01AC01C501B4010E94B21E1F
:100F80009B01AC0160E070E080E89FE30E94B21E2C
:100F90002B013C01C701B601288539854A855B854F
:100FA000621B730B840B950B0E945C1C6B017C0114
:100FB00020E034E244E759E4C301B2010E94BD1CC1
:100FC00020E030E040E753E40E942F1E9B01AC017B
:100FD000C701B6010E94B21F18169CF082E10E9460
:100FE000C605ADCF0E944A05F11025C08981815008
:100FF0008983882309F45EC08989811182CF19828F
:1010000025C03A813111EACF8091F80195E7F92E98
:10101000813011F483E6F82E8BE10E94C6058F0D16
:1010200080932202280E311C87FD3A940F5F1F4FD8
:1010300041E04A83D3CF82E10E94C605817059897D
:101040005150598B51112FC08983188AC101B801A1
:101050000E94B71F609322026B8181E00E94AB0562
:101060000E944A050E94CD064981442311F052E0B6
:10107000588B888961960FB6F894DEBF0FBECDBF3E
:10108000DF91CF911F910F91FF90EF90DF90CF9064
:10109000BF90AF909F908F907F906F905F904F9098
:1010A0003F902F900895882309F42BCF188A91E060
:1010B0009983CCCF21E02983C9CF198232E0388BC4
:1010C000CBCFEF92FF920F931F93CF93DF9380913B
:1010D000330205E010E0D0E0C0E0813041F535E0BA
:1010E000E32EF12C10E000E08091F801C5E781309B
:1010F00009F4C3E68BE10E94C6058C0F809322029F
:10110000080F111D87FD1A9581E0E81AF10861F7B3
:10111000C80165E070E00E94B71F6093220280E082
:10112000DF91CF911F910F91FF90EF90089581E192
:101130000E94C60590E09595879580932202C80F7E
:10114000D91F0150110999F7CE01E3CFFC0101909D
:101150000020E9F73197AF01481B590BBC018EE520
:1011600093E00C947E038BE391E00C94A608CF935C
:10117000DF930E946B04EC010E94B3088C0F9D1F4B
:10118000DF91CF9108951F93CF93DF93C0E01AE0D2
:1011900068EC70E080E090E00E94170560E081E07C
:1011A0000E94AB0560E881E00E94AB0561E881E048
:1011B0000E94AB05C19FB00111246E5C7F4F072ECA
:1011C000000C880B990B0E94170581E00E94C60550
:1011D000D82F83EA95E00E94B708C0FD03C0C43150
:1011E00059F0CF5FD138A1F681E08093330280E0DF
:1011F000DF91CF911F910895C0E0F4CFCF93DF939B
:10120000C82F81E00E94C605D82F8091330281113A
:1012100002C00E94C30861E881E00E94AB056C2F08
:1012200089E30E94AB0564E670E080E090E00E94F4
:10123000170589E30E94C605C81311C0C093F901C0
:10124000C0E06D2F81E00E94AB0564E670E080E0B5
:1012500090E00E9417058C2FDF91CF910895C1E097
:10126000F0CFFF920F931F93CF93DF938C0181E018
:101270000E94C605F82E80913302D2E0811103C08E
:101280000E94C308D82F61E881E00E94AB058DE180
:101290000E94C605C82F9091F801911142C00830F4
:1012A0001105C9F109301105C9F1CF730E948906F2
:1012B00080911B028B3011F4C16002C08C30E1F3CD
:1012C0006C2F8DE10E94AB0564E670E080E090E059
:1012D0000E9417058DE10E94C6059091F801282F04
:1012E00030E0911144C096E0359527959A95E1F745
:1012F0000830110589F109301105A9F1232B41F4BA
:1013000090911B029B3009F057C08095D82FD17067
:10131000D11157C024C0CF77C064D2CFCF7BC06873
:10132000CFCFCF7008301105D1F30930110591F0FE
:10133000C0670E94890680911B028B50823008F0A2
:10134000BFCF86E20E94C605682F686086E20E94D1
:10135000AB05B6CFC069B4CF21303105C9F60093D3
:101360001902D0E02EC02230310591F6F8CF84E08A
:10137000359527958A95E1F70830110599F00930E0
:101380001105A9F02730310519F686E20E94C6053D
:1013900090911B029B3031F583FBDD27D0F981E072
:1013A000D827B6CF2830310509F0B2CFD8CF2930B1
:1013B000310509F0ADCFD3CF9C3089F680FDCFCF7A
:1013C000D1E06F2D81E00E94AB0564E670E080E023
:1013D00090E00E9417058D2FDF91CF911F910F9103
:1013E000FF9008959C3009F0BACF83FDB8CFE8CFC5
:1013F000FF920F931F93CF93DF93182F81E00E94EA
:10140000C605082F80913302811115C00E94C308C0
:10141000602F81E00E94AB0564E670E080E090E020
:101420000E94170510931B0280E0DF91CF911F915E
:101430000F91FF90089561E881E00E94AB058EE175
:101440000E94C605C82F1A30B1F040F4183069F078
:10145000193071F0CF77C067D0E034C01B3071F025
:101460001C30C1F7CF7CC06C1CC0CF78C068F4CFF3
:10147000CF79C069F1CFCF7AC06AEECFCF7BC06B96
:1014800080913302882369F08091F80181116BC04B
:101490008DE10E94C605829586958695837080931E
:1014A0001902809119028730B9F68091F8018111F3
:1014B00060C08DE10E94C605D82FD1606D2F8DE1EF
:1014C0000E94AB0580913302882339F18DE10E949F
:1014D000C60590911B02963049F09091F801682F53
:1014E000911150C06B7F8DE10E94AB058091F80196
:1014F000F12C811102C082E0F82E80911B0286300F
:1015000061F08DE10E94C60590E002C09595879537
:10151000FA94E2F780FF10922A0263E081E30E94CE
:10152000AB056AE087E30E94AB058091F801811169
:101530002BC0C4606D2F8DE10E94AB056C2F8EE136
:101540000E94AB0564E670E080E090E00E94170521
:101550008091F80181111FC08DE10E94C6058EE1C6
:101560000E94C60555CF8DE10E94C60582958F70F9
:1015700096CF86E20E94C605682F686086E20E94C8
:10158000AB056ACF6E7FAFCF86E20E94C605682F9B
:10159000646086E2D1CF86E2E0CFCF93DF9381E033
:1015A0000E94C605D82F80913302C2E0811103C08A
:1015B0000E94C308C82F61E881E00E94AB058DE15D
:1015C0000E94C6059091F801682F91112EC06F7C82
:1015D00068608DE10E94AB0564E670E080E090E019
:1015E0000E9417058DE10E94C6052091F801213067
:1015F00009F023E090E002C0959587952A95E2F7DF
:1016000087709927019709F4C0E081E080931A025E
:101610006D2F0E94AB0564E670E080E090E00E94D0
:1016200017058C2FDF91CF910895617F6260D1CF34
:101630008F929F92AF92BF920F931F93CF93DF939E
:10164000CDB7DEB7A1970FB6F894DEBF0FBECDBF02
:1016500019A2423008F44AE08E010F5D1F4F842E1C
:10166000912CB12CA12CA50194010E94FD1DE62F07
:10167000B901CA01EA30F4F4E05DD801EE938D01BE
:10168000232B242B252B79F790E080E0109719F07D
:10169000CD010E94A608A1960FB6F894DEBF0FBE3A
:1016A000CDBFDF91CF911F910F91BF90AF909F90D1
:1016B0008F900895E95CE1CFCF93DF930E94A60855
:1016C000EC010E94B3088C0F9D1FDF91CF9108950C
:1016D000CF92DF92EF92FF92CF93DF9397FF1BC0E1
:1016E0006B017C016DE28EE593E00E941E04EC012B
:1016F00066277727CB016C197D098E099F094AE07F
:101700000E94180B8C0F9D1FDF91CF91FF90EF90DF
:10171000DF90CF9008954AE0DF91CF91FF90EF9056
:10172000DF90CF900C94180BBC01990F880B990B8C
:101730000C94680B80914D03882309F46DC00E94BE
:101740004A05AB01BC018091560390915703A091CB
:101750005803B091590384179507A607B70708F0F7
:1017600052C08093520390935303A0935403B093B9
:10177000550340EA5CE860E070E040934E0350930C
:101780004F03609350037093510380589141A94CCB
:10179000BF4F8093560390935703A0935803B09381
:1017A00059038FE495E00E94B7088EE395E00E940C
:1017B0006B04609152037091530380915403909194
:1017C00055034AE00E94180B8EE295E00E946B04DC
:1017D000609156037091570380915803909159037B
:1017E0004AE00E94180B8BE195E00E946B04609127
:1017F0004E0370914F0380915003909151030E94CA
:10180000680B0E94B30860914E0370914F03809162
:10181000500390915103089560EA7CE880E090E0E5
:101820000895CF92DF92EF92FF920F931F93CF9381
:10183000DF93CDB7DEB7A1970FB6F894DEBF0FBE2A
:10184000CDBF7C01CB01BA01F70111821082138256
:101850001282158214828E010F5F1F4F25E047E030
:101860000E94E9176C01F70180819181C114D104B4
:1018700069F1F60101900020E9F731978F010C1909
:101880001D09009731F0F7012281338120173107BC
:1018900090F4B8016F5F7F4F0E940A21F701009713
:1018A00099F0918380831383028324813581232BD4
:1018B00011F4FC011082F70115830483B6018081C5
:1018C00091810E94D0210DC080819181009711F0FB
:1018D0000E948120F70111821082158214821382E6
:1018E0001282A1960FB6F894DEBF0FBECDBFDF9176
:1018F000CF911F910F91FF90EF90DF90CF900895BF
:101900001F920F920FB60F9211242F933F934F9374
:101910005F936F937F938F939F93AF93BF93EF9357
:10192000FF938EE593E00E94FC03FF91EF91BF913E
:10193000AF919F918F917F916F915F914F913F9167
:101940002F910F900FBE0F901F9018951F920F921E
:101950000FB60F9211242F938F939F93EF93FF93C2
:10196000E0916E03F0916F038081E0917403F09138
:10197000750382FD1BC09081809177038F5F8F7309
:1019800020917803821741F0E0917703F0E0E25A6A
:10199000FC4F958F80937703FF91EF919F918F91EB
:1019A0002F910F900FBE0F901F9018958081F4CF4C
:1019B0001F920F920FB60F9211242F933F938F9384
:1019C0009F93AF93BF938091790190917A01A091F9
:1019D0007B01B0917C013091780123E0230F2D37FA
:1019E00058F50196A11DB11D2093780180937901CE
:1019F00090937A01A0937B01B0937C0180917D014B
:101A000090917E01A0917F01B09180010196A11D6E
:101A1000B11D80937D0190937E01A0937F01B093CF
:101A20008001BF91AF919F918F913F912F910F9026
:101A30000FBE0F901F90189526E8230F0296A11D48
:101A4000B11DD2CF1F920F920FB60F9211248F9318
:101A50000FB6F894A895809160008861809360002B
:101A6000109260000FBE8F910F900FBE0F901F90CD
:101A70001895CF92DF92EF92FF920F931F93CF931F
:101A8000DF930EE513E0F8011382128288EE93E0F3
:101A9000A0E0B0E084839583A683B7838DE291E0D4
:101AA0009183808385EC90E09587848784EC90E037
:101AB0009787868780EC90E0918B808B81EC90E01B
:101AC000938B828B82EC90E0958B848B86EC90E0FC
:101AD000978B868B118E128E138E148EC8EFD1E0E9
:101AE0008AE08B8397E099A381E08AA39BA340E0DF
:101AF00050EC64EE70E04CA35DA36EA37FA31AAA22
:101B00001CAA1BAE9FE098A71EAA1FAA18AE92E1BE
:101B10009A831B8E1E8A8F8B188E89E08D8B1D8E6B
:101B200010924D030E944A05609352037093530331
:101B3000809354039093550320EAC22E2CE8D22EB2
:101B4000E12CF12CC0924E03D0924F03E09250034F
:101B5000F092510360587141894C9F4F6093560336
:101B60007093570380935803909359031F8E8CE40E
:101B700092E090933A0280933902909342028093CC
:101B8000410287E493E090934A028093490219AEA0
:101B900088AD80933B02CBEFD3E01E870D87188280
:101BA00019821A821B8288E58C831D821E821F8205
:101BB000188689871A8682E590E00E94E51F9C8737
:101BC0008B8786E990E090935D0380935C03DF91BF
:101BD000CF911F910F91FF90EF90DF90CF900895DC
:101BE000CF93DF93CDB7DEB7CA54D1090FB6F894BF
:101BF000DEBF0FBECDBF789484B5826084BD84B54E
:101C0000816084BD85B5826085BD85B5816085BDF7
:101C100080916E00816080936E00109281008091AF
:101C20008100826080938100809181008160809337
:101C30008100809180008160809380008091B1005C
:101C400084608093B1008091B00081608093B00087
:101C500080917A00846080937A0080917A0082601B
:101C600080937A0080917A00816080937A008091DD
:101C70007A00806880937A001092C10068EB7BE064
:101C800080E090E00E94170540E056E960E070E0D7
:101C90008EE593E00E94FF0280E00E945F0340E82F
:101CA00055E260E070E080910804909109040E9480
:101CB000FF028FE093E00E946B048AEF92E00E94A3
:101CC0006B048091FB010E945F0361E08091FB0146
:101CD0000E94A60464E670E080E090E00E94170590
:101CE0001FB7F89480918101811124C0E5E8F5E0E7
:101CF0008491E9E9F5E09491E82FF0E0EE0FFF1F01
:101D0000EF58FA4FA591B491EC91E92321F461E0E9
:101D10008AE00E94A6048AE00E945F038CB580617D
:101D20008CBD8CB580648CBD8DE00E945F038BE020
:101D30000E945F03809181018F5F809381011FBFAB
:101D40008CB58F7D8CBD8CB58C7F81608CBD8DB545
:101D500081608DBD8CB5837F8CBD64E670E080E0D2
:101D600090E00E94170582E40E94C605823209F0C5
:101D7000EBC08DEF91E00E94B7081092F8018091BE
:101D8000F801813041F581EB91E00E94B70860E0F5
:101D900089E00E94AB058BE30E94C605682F606452
:101DA0008BE30E94AB058BE30E94C60585FDFBCF4C
:101DB00060E070E089ED90E00E94FD058BE30E94F9
:101DC000C605682F60648BE30E94AB058BE30E941D
:101DD000C60585FDFBCF8BE10E94E0050E94C3088C
:101DE00000913302013009F0C3C08091F8011DE178
:101DF000882311F002E01EE1812F0E94C605909118
:101E0000F801682F9111B2C06260812F0E94AB056A
:101E1000812F0E94C60590E002C0959587950A958E
:101E2000E2F780FF03C081E080932C0280913302AF
:101E3000813009F0ABC080E20E94C60510922502F5
:101E40008093260281E20E94C605209125023091EE
:101E50002602820F932F911D9093260280932502D4
:101E60008091FA010E94FE0880913302882329F0B4
:101E700089E30E94C6058093F9018091F90180935E
:101E8000FA010E944A05611571058105910511F05D
:101E90000E94A21890E080E00E947E1D082F80938F
:101EA000830181E090E00E947E1D182F80938401C1
:101EB00082E090E00E947E1D80938501023109F04E
:101EC0006EC0143309F06BC089ED92E00E946B0480
:101ED0008091850180932E0288EB92E00E946B0432
:101EE00060912E0270E090E080E04AE00E94180BC2
:101EF0008DE391E00E945C0B81E00E94C605082FF3
:101F000080913302811102C00E94C30861E881E020
:101F10000E94AB050E94CD0A8CE00E94F80987E080
:101F200090E00E9431098DE10E94C6052091F801E0
:101F300090E021113FC023E0959587952A95E1F720
:101F40000197E1F111E047C082E40E94C6058231A9
:101F500041F483EE91E00E94B70881E08093F8019C
:101F60000ECF8AEC91E00E94B70809CF64604DCF94
:101F700080E30E94C605682F606180E30E94AB0584
:101F800080E30E94C60584FD4ECF50CF85E20E94BB
:101F9000C605109225028093260286E254CF82E184
:101FA0008093830184E38093840180912E02809347
:101FB0008501A2CF95958795C99721F68EE10E945C
:101FC000C60590E0B4E095958795BA95E1F711E0E4
:101FD0000C9709F410E08091FA010E94FE0811119B
:101FE00003C081E080930C02602F81E00E94AB056A
:101FF00064E670E080E090E00E94170583EA92E0DA
:102000000E946B04812F90E00E94940B8DE391E07D
:102010000E945C0B11E01093100210920F026CEC06
:102020007CE488ED90E00E94FD05082F8BE892E0AB
:102030000E946B04802F000F990B0E94940B8DE37C
:1020400091E00E945C0B109315028091F8011AE553
:1020500081111DE481E00E94C605082F80913302A2
:1020600061E8813011F061E081E00E94AB0564E835
:10207000812F0E94AB0580E10E94E0059091F8015C
:10208000809115029111D3C01CE8811101C01FE09D
:10209000612F89E00E94AB051093200289E00E9425
:1020A000C60511E090912002981301C010E0602F46
:1020B00081E00E94AB0564E670E080E090E00E9461
:1020C000170585E792E00E946B04812F90E00E9443
:1020D000940B8DE391E00E945C0B8FE080932902CA
:1020E00081E00E94C605182F8091330261EC813097
:1020F00011F061E081E00E94AB056FE083E30E9494
:10210000AB0560E084E30E94AB0583E30E94C60553
:10211000F82E612F81E00E94AB0501E010E0809174
:1021200029028F1102C010E000E08BE592E00E94CE
:102130006B04C8010E94940B8DE391E00E945C0B3C
:102140008BE392E00E946B0461E080E00E94A604B1
:1021500087E192E00E946B0490E080E00E94940B83
:102160008DE391E00E945C0B68EC70E080E090E011
:102170000E94170564EF71E080E090E00E9417056F
:10218000209125013091260140912701509128018D
:102190002B962CAF3DAF4EAF5FAF2B9780910401D4
:1021A000811115C061E00E94A60487EF94E00E94AF
:1021B0006B0490E080E00E94940B8DE391E00E941C
:1021C0005C0B68EC70E080E090E00E9417050E94D4
:1021D0004A056093F4017093F5018093F6019093A2
:1021E000F70113E00E944A05C090F401D090F50178
:1021F000E090F601F090F7016C197D098E099F09B6
:10220000693B784881059105B8F0809104018823E5
:1022100009F493C40E944A056093F4017093F50198
:102220008093F6019093F70110920401DBCF1EE03A
:1022300081111CE810672CCF80910804909109044B
:10224000DC01ED91FC910084F185E02D0995892B4D
:1022500099F38091080490910904DC01ED91FC91BF
:102260000284F385E02D0995843221F090910504D4
:10227000903510F0109205048D30F1F2E0910504D4
:1022800091E09E0F2091060430910704E20FF32F96
:10229000F11D909305048A3009F462C68083CCCF87
:1022A0008130910551F44FE150E04C0F5D1F460F16
:1022B000511DDA010C936F5F79C68230910519F4D4
:1022C0000093FF0373C68330910551F441E050E061
:1022D0004C0F5D1F470F511DDA010C937F5F66C6DF
:1022E0008430910509F062C6009304045FC6009132
:1022F000FF03CE014F960E94AB1820E030E048EC7F
:1023000052E40E94B21E4B015C010E94241F072E62
:10231000000C880B990B0E945E1C6B017C01AC01C8
:102320009B01C501B4010E942E1E20E030E048EC64
:1023300052E40E94BD1C20E030E040E752E40E94DD
:10234000B21EA70196010E942F1E0B7F033509F4D0
:1023500090586093FB037093FC038093FD0390936C
:10236000FE0300910404CE0101960E94AB1820E008
:1023700030E048EC52E40E94B21E4B015C010E9426
:10238000241F072E000C880B990B0E945E1C6B010A
:102390007C01AC019B01C501B4010E942E1E20E00E
:1023A00030E048EC52E40E94BD1C20E030E040E701
:1023B00052E40E94B21EA70196010E942F1E6B01DB
:1023C0007C010B7F033521F4F7FAF094F7F8F094D1
:1023D000C0920004D0920104E0920204F09203043F
:1023E00020E030E0A9016091FB037091FC03809133
:1023F000FD039091FE030E94571C882309F4F2CE3E
:1024000020E030E0A901C701B6010E94571C8823D3
:1024100009F4E8CE8091FF038E3419F0833509F07A
:10242000E1CE80910404853419F0873509F0DACEC5
:102430000E944A05C090F401D090F501E090F601A9
:10244000F090F7016C197D098E099F0960930001D6
:102450007093010180930201909303018091FB032B
:102460009091FC03A091FD03B091FE038093F001D5
:102470009093F101A093F201B093F30180910004D5
:1024800090910104A0910204B09103048093EC01A7
:102490009093ED01A093EE01B093EF01115009F07C
:1024A000A1CE60E080E00E94A604109204012B9669
:1024B0002CAD3DAD4EAD5FAD2B9720938801309391
:1024C000890140938A0150938B01112309F437C38A
:1024D0008EED94E00E946B048DE391E00E945C0B12
:1024E000809187018F93809186018F938EE391E095
:1024F0009F938F938CE891E09F938F930E94D721B5
:10250000282E0F900F900F900F900F900F908091AA
:1025100086019091870101969093870180938601AF
:1025200082EB94E00E946B048CE891E00E94A60884
:102530008DE391E00E945C0B8CE994E00E946B04B7
:10254000622D70E090E080E04AE00E94180B8DE37D
:1025500091E00E945C0B312C54E0250E311C80EA86
:1025600093E00E946B0480910D02882309F4F8C067
:10257000C0901002CC2009F4F3C0F3E0FF2ED12C60
:10258000A3E0BA2EE8E0EE2E0E944A056093040212
:1025900070930502809306029093070280910D02CA
:1025A0000E942407182F0E944A0560930802709326
:1025B000090280930A0290930B0287E993E00E943C
:1025C0006B04609108027091090280910A02909157
:1025D0000B02409004025090050260900602709039
:1025E000070264197509860997094AE00E94180BC9
:1025F0000E94B308111125C382E993E00E946B0485
:1026000080910E02882309F480C00E94531827E0AD
:1026100030E040E050E00E94941D2B013C01AFEF00
:102620004A1A5A0A6A0A7A0A84E893E00E946B04FA
:10263000C301B2017727882799274AE00E94180B27
:102640008CE793E00E946B04E0910C02F0E0E65E00
:10265000FE4F8081489EC00111240E94940B0E946D
:10266000B308E0910C02F0E0E65EFE4F6081469E0A
:10267000B0011124072E000C880B990B0E9417053E
:102680000E944A056093040270930502809306023B
:102690009093070280910D020E942407082F10E0FA
:1026A0000E944A05609308027093090280930A020F
:1026B00090930B0283E793E00E946B046091080201
:1026C0007091090280910A0290910B0240900402DD
:1026D0005090050260900602709007026419750917
:1026E000860997094AE00E94180B0E94B3088FE6FA
:1026F00093E00115110511F08CE693E00E946B0444
:102700000E94B308012B09F0EFC280910F028823C9
:1027100009F4F7C20E9461088111EAC218E00E9420
:10272000610887E393E00E946B0480912202082EE7
:10273000000C990B0E94940B0E94B308115061E0A9
:1027400070E080E090E00E94170580912202873AB5
:102750000CF4D3C21111E3CFFA94DC2CF11012CF98
:102760000E944A0523966CAF7DAF8EAF9FAF239733
:1027700082E180933502FCEF2F1631040CF4C4C2C1
:102780008BEF90E0909328028093270280914D0375
:10279000882309F4BEC2A0902702B090280280913D
:1027A0001302811103C024E0A20EB11C0E949A0BF7
:1027B00027966CAF7DAF8EAF9FAF27971091190210
:1027C000C12C64E2D62E64EFE62E67E4F62E1730B5
:1027D00081F0C12C74E2D72E74E7E72E78E4F72E4F
:1027E000183039F0C12C54E2D52E54EFE52E58E4C0
:1027F000F52E00911B02402F50E05EAF4DAF61E01F
:1028000070E0002E02C0660F771F0A94E2F7072ED1
:10281000000C880B990B0E945E1C9B01AC01C70148
:10282000B6010E94B21E9B01AC0160E070E080E83E
:102830009FE30E94B21E6B017C01609125027091A2
:1028400026026C5F7F4F90E080E00E945C1C20E0DD
:1028500030E048E850E40E942F1EA70196010E9434
:10286000BD1C2B013C01173019F411E00C3009F0AC
:1028700010E0B5017727660F771F8DAD9EAD681B01
:10288000790B655F7F4F20912A024BEF4203900145
:102890001124620F731F660F771F660F771F072EB5
:1028A000000C880B990B0E945E1C4B015C01812F70
:1028B00090E0880F991F6DAD7EAD681B790B660F98
:1028C000771F660F771F072E000C880B990B0E944D
:1028D0005E1C9B01AC01C501B4010E94B21E0E94A6
:1028E0009B1E4B015C0160911A0270E06C5F7F4F90
:1028F000072E000C880B990B0E945E1CA501940109
:102900000E94BD1C4B015C0120E030E0A9010E9447
:10291000B21F20E030E040E051E4181634F4C50165
:10292000B4010E942F1E9B01AC01C701B6010E9499
:10293000BD1CA30192010E942F1E20E034E244E757
:1029400059E40E94BD1C27E73EEB4FE75FE30E947E
:102950002F1E0E945A1F0E942B1F28EE33E040E0DA
:1029600050E00E94FD1DCA01B9010E945C1C20E0DC
:1029700030E040E85FE30E942F1E0E942B1F7093FF
:102980005B0360935A0327968CAD9DADAEADBFAD92
:102990002797861B970BA109B109B7FFBAC189EA2E
:1029A00093E00E946B040E944A054AE00E94180BC3
:1029B0000E94B30804E010E00E944A054B015C014C
:1029C00080912E028093850183E8E82E81E0F82E25
:1029D000D12CC12CF70171907F01C6010E947E1D90
:1029E000781621F0672DC6010E94861DFFEFCF1AD1
:1029F000DF0A23E0C216D10469F78DE894E00E9453
:102A00006B04C1010E94940B8DE391E00E945C0B6A
:102A10008FE794E00E946B046091370270E090E0D1
:102A200080E04AE00E94180B8DE391E00E945C0B6D
:102A300081E794E00E946B04C501B40123962CAD9C
:102A40003DAD4EAD5FAD2397621B730B840B950BB1
:102A50000E94680B8DE391E00E945C0B8DE594E091
:102A60000E946B048091040290910502A0910602DD
:102A7000B0910702A5019401281B390B4A0B5B0B8F
:102A8000CA01B9014AE00E94180B8DE391E00E944F
:102A90005C0B89E494E00E946B04C8010E94940BD3
:102AA0008DE391E00E945C0B87E394E00E946B044D
:102AB0000E949A0B0E94680B8DE391E00E945C0BD0
:102AC0008AE194E00E946B0461E881E00E94AB051A
:102AD00064E670E080E090E00E94170560E881E025
:102AE0000E94AB0581E00E94C605803809F422C22D
:102AF0008FEB93E00E946B048EE593E00E948604C6
:102B000062E370E080E090E00E94170586E990E0C3
:102B100090935D0380935C0307E910E00150110975
:102B200009F40BC230E020E050E040E069E070E0E2
:102B300082E891E00E945605F1CF11E0B2CC86ED1B
:102B400094E00E946B0460910001709101018091FA
:102B50000201909103010E94680B8DE391E00E94B5
:102B60005C0B4091F0015091F1016091F201709184
:102B7000F301CE014F960E94110C89EC94E00E9463
:102B80006B044BA15CA16F8D78A18EE593E00E9450
:102B90007E038DE391E00E945C0B4091EC0150912B
:102BA000ED016091EE017091EF01CE0101960E945E
:102BB000110C8BEB94E00E946B044D815E81698166
:102BC0007A818EE593E00E947E038DE391E00E947E
:102BD0005C0B809103018F93809102018F93809110
:102BE00001018F93809100018F938A818F93898156
:102BF0008F9388A18F938F8D8F93809187018F936F
:102C0000809186018F9389E591E09F938F938CE863
:102C100091E09F938F930E94D721282E89819A81DA
:102C20000FB6F894DEBF0FBECDBF009711F00E9423
:102C300081208F8D98A1009709F469CC0E94812092
:102C400066CC88E693E00E946B040E94531827E04C
:102C500030E040E050E00E94941D2B013C01BFEFAA
:102C60004B1A5B0A6B0A7B0A8AE593E00E946B04AD
:102C7000C301B2017727882799274AE00E94180BE1
:102C80008CE493E00E946B04512CE0910C02F0E084
:102C9000E15FFE4F80818B9DC0011124FC01E49D0A
:102CA000C001E59D900DF49D900D11240E94940BA0
:102CB0000E94B308E0910C02F0E0E15FFE4F8081DA
:102CC0008B9DC0011124849DB001859D700D949D44
:102CD000700D1124072E000C880B990B0E9417050C
:102CE00081E493E00E946B04EA94E1104DCC0DCD99
:102CF00087E293E00E946B0433CD112309F42CCDBD
:102D00002FCDD11029CD2CCD309228022092270230
:102D10003DCD81E00E94C605182F0E94CD0680910E
:102D2000330261E8813011F061E081E00E94AB057F
:102D300010922F0220913002809127029091280258
:102D400021117CC021E020932D0220933402209198
:102D500029022093360220912E02209337022F5F02
:102D600020932E0210923B0220913302211108C0C1
:102D7000CD9730F08CE390E0909328028093270267
:102D8000A8E8B1E09D012858314080912702909138
:102D900028022817390748F48D91E0913902F09103
:102DA0003A02E20FF31F8083EDCF2091130221112D
:102DB00001C004960E94ED06082F80913502982FDD
:102DC00090619093350290911702992319F08861D0
:102DD0008093350260E88DE00E94AB05011142C08E
:102DE00080911302811113C0609134020E94AB05DF
:102DF0006091350280E00E94AB056091360280E070
:102E00000E94AB056091370280E00E94AB05F12C77
:102E1000E12C8091270290912802E816F90610F51E
:102E2000E0913902F0913A02EE0DFF1D608180E0E1
:102E30000E94AB055FEFE51AF50AEBCF213029F4CC
:102E4000209138022F5F2093380220911302211124
:102E500001C004960E94ED06082F809130028093F5
:102E60003B02ABCF612F81E00E94AB050111A3CDE6
:102E700080E197E290934C0380934B030E944A05B4
:102E80006B017C01A0E1CA0EA7E2DA1EE11CF11C75
:102E9000809133028130D1F50E94CD0663E881E054
:102EA0000E94AB0582E10E94C605182F83FD07C072
:102EB0000E944A056C157D058E059F0598F313FF4A
:102EC00037C080914D038823F1F0E0905A03F090D1
:102ED0005B030E949A0B80914D038823A1F080919F
:102EE0004E0390914F03A0915003B09151038E195E
:102EF0009F09A109B10980934E0390934F03A093BA
:102F00005003B09351030E94CD0655CD63E081E09C
:102F10000E94AB058FE30E94C605182F83FDCFCF1B
:102F20000E944A056C157D058E059F0598F3C7CF55
:102F300001E0E9CF8BEE93E0DDCD62E370E080E06D
:102F400090E00E94170580E090E0892B09F426C9E3
:102F50000E94E803882309F421C90E9400001EC9C9
:102F60001082E0910604F09107048181873409F012
:102F700039C98281803519F08E3409F033C98381D3
:102F8000873409F02FC98481873409F02BC98581E2
:102F9000813409F027C92091050430E07F01B7E0B2
:102FA000EB0EF11C70E060E090E080E0A7014E1BAA
:102FB0005F0B421753070CF09AC9893091050CF04A
:102FC00096C9D7010D917D010C3209F069C90196AE
:102FD000EDCFEF920F931F93CF93DF93E80134E08F
:102FE00047FD34E1042E000C550B57FF03C05195EB
:102FF00041955109E32E022F242FAE010E94AF18F4
:10300000CE01DF91CF911F910F91EF9008958F9294
:103010009F92AF92BF92CF92DF92EF92FF92CF93A7
:10302000DF93EC01688179818A819B81611571054B
:103030008105910521F464E279ED8BE597E02DE1BE
:1030400033EF41E050E00E94941D49015A019B0179
:10305000AC01A7EAB1E40E94B31D6B017C01ACEEA8
:10306000B4EFA50194010E94C11DC60ED71EE81E33
:10307000F91EF7FE06C081E0C81AD108E10880E811
:10308000F80AC882D982EA82FB82C701B6019F771B
:10309000DF91CF91FF90EF90DF90CF90BF90AF90F6
:1030A0009F908F9008958F929F92AF92BF92CF92F0
:1030B000DF92EF92FF92609105017091060180917D
:1030C000070190910801611571058105910521F4B1
:1030D00064E279ED8BE597E02DE133EF41E050E0DC
:1030E0000E94941D49015A019B01AC01A7EAB1E479
:1030F0000E94B31D6B017C01ACEEB4EFA5019401FD
:103100000E94C11DC60ED71EE81EF91EF7FE06C09E
:1031100081E0C81AD108E10880E8F80AC0920501E8
:10312000D0920601E0920701F0920801C701B601B2
:103130009F77FF90EF90DF90CF90BF90AF909F90E0
:103140008F900895609305017093060180930701A5
:10315000909308010895662777270C940E1AA9E02A
:10316000B0E0E5EBF8E10C94CC1D6A01F22EB02E34
:10317000102FFBE3AF2EA01608F41BE31F5F012FF7
:1031800027E0AE014F5F5F4F0E945E1BBC0189814B
:10319000982F9970913009F43FC09BE2E1FC04C084
:1031A0009E2D9170E0FC3AC05E2D5071E82FE870C2
:1031B00083FF46C084E0911101C083E0EF2DE81B3E
:1031C0008F1508F0E0E0D6018E2F20E2552351F153
:1031D000992329F0D6019C93C60101966C019601B2
:1031E0002D5F3F4FE2FE24C08EE4D6018C9391E424
:1031F00011969C93119712968C93D9018E2F90E281
:1032000081111BC0E20FF32FF11D10828EEF9FEF93
:103210002996ECE00C94E81D9DE2C6CF90E2C4CF65
:103220002D9381508111FCCFCE0ED11CE0E0D0CF88
:103230008EE6D6018C9391E6DBCF9D938150E0CF53
:10324000482F447082FF3DC084E0911101C083E0AB
:103250008F1510F4EF2DE81BD6018E2F20E2552399
:1032600009F1992329F0D6019C93C60101966C01BE
:1032700096012D5F3F4FE2FE1BC089E4D6018C937F
:103280008EE411968C93119786E412968C93D90153
:103290008E2F90E2882309F4B5CF9D938150FACF09
:1032A0002D9381508111FCCFCE0ED11CE0E0D9CFFF
:1032B00089E6D6018C938EE611968C93119786E65B
:1032C000E4CF9B0177FF02C030E020E0A1E0B0E056
:1032D000911102C0B0E0A0E0F9013196AE0FBF1F1E
:1032E0008B2C912CBB2009F461C05401EFEFAE1A76
:1032F000BE0AAA0DBB1DFA161B0619F014F04F2DBD
:103300004A1B511188C0E3FC59C07601A42FB0E2DA
:10331000A1114FC0C40ED11C992309F45BC040E039
:10332000D6011196F60190836D01552309F448C02A
:10333000012F060F9A81582F507184FF03C09133DB
:1033400009F4015010160CF047C0093008F008E0ED
:10335000EEE2FE2E5B01A01AB108850191948194E2
:1033600091082F3F320729F4D601FC92F6013196DD
:103370006F016217730794F1021713077CF5DB01E5
:10338000A21BB30BAA24A394B12CAC0EBD1EAA0D94
:10339000BB1D11968C9121503109D601119628152B
:1033A0003905F4F0F60180836D01DBCFB12CA12C3F
:1033B000A0CFF701B1937F01A150AACF9111B0CF57
:1033C000D601942F50E302C05D9391509111FCCF30
:1033D000C40ED11C40E0ACCF01E0BACF80E3DBCF1C
:1033E0006217730731F4963388F4953311F455233B
:1033F00069F0F6018083FD01842F90E2811108C0FD
:10340000A40FB11D1C9290E080E002CF81E3F1CFC8
:1034100091938150F3CF911183CF8ACFB0E0A0E098
:10342000E4E1FAE10C94CC1D5C017B0161157105AE
:1034300019F0DB018D939C9385010F5F1F4FF50100
:10344000D0818D2F90E00E94361C6C01892BB9F53C
:10345000DD32B9F50F5F1F4FD5011196DC91C1E048
:103460005801F1E0AF1AB10843E050E060E770E0C6
:10347000C5010E943F1C892B69F5680182E0C80ED6
:10348000D11C45E050E06BE670E0C6010E943F1C95
:10349000892B21F4680197E0C90ED11CE114F104D5
:1034A00019F0D701CD92DC9260E070E080E89FEFE8
:1034B000C111FFC060E070E080E89FE7FAC05801EA
:1034C000BBCFDB3229F485010E5F1F4FF501D1819F
:1034D000C0E0C6CF43E050E068E670E0C5010E945E
:1034E0003F1C892BE9F0F80110E000E020E030E01B
:1034F000A9015F01B0ED8B2E8D0E89E08815C8F112
:103500009C2E689491F88C2F8870C2FF16C0811190
:1035100002C00F5F1F4F3196D501DC91C92DE9CF55
:10352000E114F10429F00E5F1F4FF70111830083AE
:1035300060E070E080EC9FE7BCC0882311F0015090
:103540001109A5E0B0E00E94B31D9B01AC01220F60
:10355000331F441F551F280D311D411D511D283992
:1035600099E93907490799E15907A8F2C6609C2EE5
:10357000D2CFAEEF8A1206C0C3FD3CC09C2E689429
:1035800093F8C9CFDF7DD534A9F580818D3239F428
:10359000C061DF011296818162E070E006C0DF0148
:1035A0008B32C1F3119661E070E080535D01A61A81
:1035B000B70A8A30F8F4E0E8CE16ECE0DE065CF4F8
:1035C000B601660F771F660F771FC60ED71ECC0C8D
:1035D000DD1CC80ED11C5D01FFEFAF1ABF0A8C9134
:1035E00080538A30A8F1C4FF03C0D194C194D1089C
:1035F0000C0D1D1DC1FF09C0E114F10431F081E083
:10360000A81AB108D701AD92BC92CA01B9010E94B3
:103610005C1CC370C33009F490584B015C0120E07E
:1036200030E0A9010E94571C882309F440C0CFE96B
:10363000D0E017FF05C0119501951109C7E8D0E04A
:103640006E01B8E1CB1AD10880E2E82EF12C0FC050
:10365000D501B1CFFE0125913591459154910E19B7
:103660001F09C501B4010E94BD1C4B015C01D501BD
:10367000C4010E151F0574F72497F594E794CC1632
:10368000DD06A9F78A2F880F8B2F881F8F3F49F0FF
:1036900020E030E0A901C501B4010E94571C81114E
:1036A00006C082E290E090930B0480930A04C50167
:1036B000B401CDB7DEB7ECE00C94E81D283008F07B
:1036C00027E03327DA01990F311D87FD91600096BD
:1036D0006105710539F432602E5F3D9330E32A9520
:1036E000E1F708959F3F30F080387105610509F0DA
:1036F0003C5F3C5F3D93913008F08068911DDF9303
:10370000CF931F930F93FF92EF92192F987F969567
:10371000E92F96959695E90FFF27E350FF4F9927DC
:103720003327EE24FF24A701E701059008940794AE
:1037300028F4360FE71EF81E491F511D660F771F2C
:10374000881F991F0694A1F70590079428F4E70EA7
:10375000F81E491F561FC11D770F881F991F661F2E
:103760000694A1F70590079428F4F80E491F561FF8
:10377000C71FD11D880F991F661F771F0694A1F7D9
:103780000590079420F4490F561FC71FD81F990FA3
:10379000661F771F881F0694A9F7849110951770EC
:1037A00041F0D695C79557954795F794E7941A95A4
:1037B000C1F7E3EAF0E068941590159135916591B1
:1037C000959105907FE27395E118F10A430B560B32
:1037D000C90BD009C0F7E10CF11E431F561FC91FCA
:1037E000D01D7EF4703311F48A95E6CFE894015031
:1037F00030F0080F0AF40027021708F4202F239551
:10380000022F7A3328F079E37D932A95E9F710C0E7
:103810007D932A9589F60694979567953795179520
:103820001794E118F10A430B560BC90BD00998F015
:1038300023957E9173957A3308F070E37C9320137F
:10384000B8F77E9170617D9330F0839571E37D933D
:1038500070E32A95E1F71124EF90FF900F911F91EB
:10386000CF91DF91992787FD9095089591110C9440
:103870002A1D803219F089508550C8F70895FB0140
:10388000DC014150504088F08D9181341CF08B3523
:103890000CF4805E659161341CF06B350CF4605E55
:1038A000861B611171F3990B0895881BFCCF0E9450
:1038B000991C08F481E00895E89409C097FB3EF450
:1038C00090958095709561957F4F8F4F9F4F99236D
:1038D000A9F0F92F96E9BB279395F69587957795EB
:1038E0006795B795F111F8CFFAF4BB0F11F460FFAB
:1038F0001BC06F5F7F4F8F4F9F4F16C0882311F003
:1039000096E911C0772321F09EE8872F762F05C016
:10391000662371F096E8862F70E060E02AF09A95B1
:10392000660F771F881FDAF7880F9695879597F9A6
:103930000895990F0008550FAA0BE0E8FEEF161640
:103940001706E807F907C0F012161306E407F50793
:1039500098F0621B730B840B950B39F40A2661F007
:10396000232B242B252B21F408950A2609F4A140AA
:10397000A6958FEF811D811D08950E94D01C0C9487
:10398000441D0E94361D38F00E943D1D20F09523F5
:1039900011F00C942D1D0C94331D11240C94781DE2
:1039A0000E94551D70F3959FC1F3950F50E0551F70
:1039B000629FF001729FBB27F00DB11D639FAA2784
:1039C000F00DB11DAA1F649F6627B00DA11D661FD3
:1039D000829F2227B00DA11D621F739FB00DA11DF4
:1039E000621F839FA00D611D221F749F3327A00DAE
:1039F000611D231F849F600D211D822F762F6A2F4A
:103A000011249F5750409AF0F1F088234AF0EE0FAE
:103A1000FF1FBB1F661F771F881F91505040A9F7DB
:103A20009E3F510580F00C942D1D0C94781D5F3F36
:103A3000E4F3983ED4F3869577956795B795F79517
:103A4000E7959F5FC1F7FE2B880F911D969587958F
:103A500097F9089599278827089597F99F6780E82F
:103A600070E060E008959FEF80EC089500240A94D0
:103A70001616170618060906089500240A94121649
:103A80001306140605060895092E0394000C11F47C
:103A9000882352F0BB0F40F4BF2B11F460FF04C029
:103AA0006F5F7F4F8F4F9F4F089557FD9058440F82
:103AB000551F59F05F3F71F04795880F97FB991F8D
:103AC00061F09F3F79F0879508951216130614064A
:103AD000551FF2CF4695F1DF08C0161617061806D7
:103AE000991FF1CF86957105610508940895E894B2
:103AF000BB2766277727CB0197F90895F999FECF61
:103B000092BD81BDF89A992780B50895262FF9991D
:103B1000FECF1FBA92BD81BD20BD0FB6F894FA9AB0
:103B2000F99A0FBE01960895052E97FB1EF4009496
:103B30000E94AB1D57FD07D00E94FD1D07FC03D05E
:103B40004EF40C94AB1D50954095309521953F4F08
:103B50004F4F5F4F089590958095709561957F4F79
:103B60008F4F9F4F08950E941F1EA59F900DB49FD9
:103B7000900DA49F800D911D11240895B7FF0C9402
:103B8000B31D0E94B31D821B930B08952F923F9289
:103B90004F925F926F927F928F929F92AF92BF925D
:103BA000CF92DF92EF92FF920F931F93CF93DF9309
:103BB000CDB7DEB7CA1BDB0B0FB6F894DEBF0FBE66
:103BC000CDBF09942A88398848885F846E847D84B3
:103BD0008C849B84AA84B984C884DF80EE80FD80B5
:103BE0000C811B81AA81B981CE0FD11D0FB6F8942B
:103BF000DEBF0FBECDBFED010895A1E21A2EAA1BB4
:103C0000BB1BFD010DC0AA1FBB1FEE1FFF1FA2178C
:103C1000B307E407F50720F0A21BB30BE40BF50B89
:103C2000661F771F881F991F1A9469F76095709512
:103C3000809590959B01AC01BD01CF010895A29F95
:103C4000B001B39FC001A39F700D811D1124911D70
:103C5000B29F700D811D1124911D08955058BB27EE
:103C6000AA270E94461E0C94441D0E94361D38F05F
:103C70000E943D1D20F039F49F3F19F426F40C9466
:103C8000331D0EF4E095E7FB0C942D1DE92F0E94E7
:103C9000551D58F3BA17620773078407950720F07C
:103CA00079F4A6F50C94771D0EF4E0950B2EBA2F3F
:103CB000A02D0B01B90190010C01CA01A001112432
:103CC000FF27591B99F0593F50F4503E68F11A16DE
:103CD000F040A22F232F342F4427585FF3CF46956F
:103CE00037952795A795F0405395C9F77EF41F1691
:103CF000BA0B620B730B840BBAF09150A1F0FF0F5B
:103D0000BB1F661F771F881FC2F70EC0BA0F621F46
:103D1000731F841F48F4879577956795B795F79536
:103D20009E3F08F0B0CF9395880F08F09927EE0FCB
:103D30009795879508950E949A1F90F09F3748F4B1
:103D4000911116F40C94781D60E070E080E89FE318
:103D5000089526F01B16611D711D811D0C94711FA5
:103D60000C948C1F0E94C61E0C94441D0E943D1D85
:103D700058F00E94361D40F029F45F3F29F00C9462
:103D80002D1D51110C94781D0C94331D0E94551D4E
:103D900068F39923B1F3552391F3951B550BBB277A
:103DA000AA2762177307840738F09F5F5F4F220FBF
:103DB000331F441FAA1FA9F335D00E2E3AF0E0E8B6
:103DC00032D091505040E695001CCAF72BD0FE2F00
:103DD00029D0660F771F881FBB1F26173707480794
:103DE000AB07B0E809F0BB0B802DBF01FF2793584C
:103DF0005F4F3AF09E3F510578F00C942D1D0C94C6
:103E0000781D5F3FE4F3983ED4F3869577956795E8
:103E1000B795F7959F5FC9F7880F911D9695879580
:103E200097F90895E1E0660F771F881FBB1F62179F
:103E300073078407BA0720F0621B730B840BBA0B5D
:103E4000EE1F88F7E09508950E942B1F6894B1112A
:103E50000C94781D08950E945D1D88F09F5798F07E
:103E6000B92F9927B751B0F0E1F0660F771F881F7F
:103E7000991F1AF0BA95C9F714C0B13091F00E9499
:103E8000771DB1E008950C94771D672F782F882750
:103E9000B85F39F0B93FCCF3869577956795B395C0
:103EA000D9F73EF490958095709561957F4F8F4F2F
:103EB0009F4F08950E949A1F90F09F3748F49111E8
:103EC00016F00C94781D60E070E080E89FEB089598
:103ED00026F41B16611D711D811D0C94711F0C941D
:103EE0008C1F882371F4772321F09850872B762F2D
:103EF00007C0662311F499270DC09051862B70E0FE
:103F000060E02AF09A95660F771F881FDAF7880F0E
:103F10009695879597F908959F3F31F0915020F439
:103F2000879577956795B795880F911D9695879595
:103F300097F908950E945D1DA0F0BEE7B91788F4B7
:103F4000BB279F3860F41616B11D672F782F88277E
:103F5000985FF7CF869577956795B11D93959639BC
:103F6000C8F308950E94991C08F48FEF089597FBF9
:103F7000072E16F4009407D077FD09D00E94CB1FBE
:103F800007FC05D03EF4909581959F4F089570955C
:103F900061957F4F0895AA1BBB1B51E107C0AA1F63
:103FA000BB1FA617B70710F0A61BB70B881F991FDA
:103FB0005A95A9F780959095BC01CD010895EE0F13
:103FC000FF1F0590F491E02D09940F931F93CF9359
:103FD000DF938230910510F482E090E0E0910E04CE
:103FE000F0910F0430E020E0B0E0A0E0309799F4C9
:103FF0002115310509F44AC0281B390B243031053D
:10400000D8F58A819B816115710589F1FB01938344
:104010008283FE0111C040815181028113814817C2
:104020005907E0F04817590799F4109761F0129674
:104030000C93129713961C933296CF01DF91CF9178
:104040001F910F91089500930E0410930F04F4CF65
:104050002115310551F04217530738F0A901DB0152
:104060009A01BD01DF01F801C1CFEF01F9CF9093B3
:104070000F0480930E04CDCFFE01E20FF31F819356
:1040800091932250310939832883D7CF20910C0492
:1040900030910D04232B41F420910B0130910C0140
:1040A00030930D0420930C042091090130910A01F2
:1040B0002115310541F42DB73EB740910D015091C6
:1040C0000E01241B350BE0910C04F0910D04E21756
:1040D000F307A0F42E1B3F0B2817390778F0AC012B
:1040E0004E5F5F4F2417350748F04E0F5F1F509308
:1040F0000D0440930C04819391939FCFF0E0E0E096
:104100009CCFCF93DF930097E9F0FC0132971382A5
:104110001282A0910E04B0910F04ED0130E020E076
:104120001097A1F420813181820F931F20910C04FC
:1041300030910D042817390709F061C0F0930D0480
:10414000E0930C04DF91CF910895EA01CE17DF07C9
:10415000E8F54A815B819E0141155105B1F7E901FE
:10416000FB83EA8349915991C40FD51FEC17FD07D2
:1041700061F4808191810296840F951FE9019983F2
:104180008883828193819B838A83F0E0E0E01296AA
:104190008D919C9113970097B9F52D913C911197B2
:1041A000CD010296820F931F20910C0430910D04D3
:1041B0002817390739F6309751F510920F041092ED
:1041C0000E04B0930D04A0930C04BCCFD383C28320
:1041D00040815181840F951FC817D90761F44E5F44
:1041E0005F4F88819981480F591F518340838A818D
:1041F0009B81938382832115310509F0B0CFF09321
:104200000F04E0930E049ECFFD01DC01C0CF1382AA
:104210001282D7CFB0E0A0E0E0E1F1E20C94C81D3B
:104220008C01009751F4CB010E94E51F8C01C8015D
:10423000CDB7DEB7E0E10C94E41DFC01E60FF71FFB
:104240009C0122503109E217F30708F49DC0D901FF
:10425000CD91DC911197C617D70798F0C530D105DD
:1042600030F3CE0104978617970708F3C61BD70BC8
:104270002297C193D1936D937C93CF010E948120AB
:10428000D6CF5B01AC1ABD0A4C018C0E9D1EA091CD
:104290000E04B0910F04512C412CF12CE12C1097FD
:1042A00031F580910C0490910D048815990509F061
:1042B0005CC04616570608F058C0809109019091DD
:1042C0000A01009741F48DB79EB740910D015091BE
:1042D0000E01841B950BE817F90708F055C0F09301
:1042E0000D04E0930C04F90171836083A0CF8D91DC
:1042F0009C91119712966C90129713967C9013973D
:10430000A815B90559F56C0142E0C40ED11CCA14B8
:10431000DB0420F1AC014A195B09DA01129615970A
:1043200080F06282738251834083D9016D937C93C4
:10433000E114F10471F0D7011396FC93EE931297F8
:1043400076CF22968C0F9D1FF90191838083F30114
:10435000EFCFF0930F04E0930E0469CF481659068F
:1043600008F42C017D01D3019ACFCB010E94E51FF7
:104370007C01009749F0AE01B8010E94C721C80135
:104380000E948120870153CF10E000E050CFFB0155
:10439000DC0102C001900D9241505040D8F70895C1
:1043A000FB01DC0101900D920020E1F70895AEE0E1
:1043B000B0E0EDEDF1E20C94D41D0D891E8986E08C
:1043C0008C831A8309838FEF9FE79E838D83AE01D1
:1043D000475E5F4F6F89788DCE0101960E94FA216A
:1043E0002F813885020F131FF80110822E96E4E00A
:1043F0000C94F01DABE0B0E0E0E0F2E20C94C61DDE
:104400007C013B018A01FC0117821682838181FFB6
:10441000C8C1CE0101965C01F7019381F30193FDC0
:10442000859193FF81913F01882309F453C185321F
:1044300039F493FD859193FF81913F01853229F4F1
:10444000B70190E00E94EA23E7CF912C212C312C78
:10445000FFE1F31538F08B3211F190F4803209F15D
:10446000833229F137FC3CC020ED280F2A3050F56B
:1044700036FE20C08AE0989E200D1124922E06C0A0
:104480008D3291F0803371F7689430F8F30193FD29
:10449000859193FF81913F018111DACF21C068940A
:1044A00031F8689432F8F2CF689433F8EFCF68941B
:1044B00034F8ECCFEAE02E9E200D1124222E6894D1
:1044C00035F8E4CF8E3229F436FC04C1689436F80E
:1044D000DDCF8C3619F4689437F8D8CF8836B1F22E
:1044E000982F9F7D95549330E0F08336A1F1833768
:1044F000C1F1833509F063C02801F2E04F0E511C71
:10450000F801C080D180692D70E036FC02C06FEFE9
:104510007FEFC6010E94D4234C01689437F88201D2
:104520000AC00C5F1F4FFFE3F98388248394912C0A
:104530006501E89437F833FE2DC0522C81149104A4
:1045400071F5552009F468CFB70180E290E00E9430
:10455000EA235A94F6CFF801808189830E5F1F4FBA
:10456000E4CF2801F2E04F0E511CF801C080D18049
:10457000692D70E036FC02C06FEF7FEFC6010E942C
:10458000DF234C018201D5CFB70180E290E00E9489
:10459000EA232A942814190409F0B0F7CECFF601C3
:1045A00037FC859137FE81916F01B70190E00E9441
:1045B000EA2351105A94F1E08F1A9108BFCF843644
:1045C00019F0893609F077C0F80137FE6BC06081B9
:1045D0007181828193810C5F1F4FF32DFF763F2EF7
:1045E00097FF09C090958095709561957F4F8F4F8B
:1045F0009F4F689437F82AE030E0A5010E941A2402
:10460000C82ECA188C2C432C36FE0CC0E89440F8F7
:10461000C91440F434FE05C032FC03C0F32DFE7E05
:104620004F2E892C44FE95C0FE01EC0DF11D8081BA
:10463000803309F087C0242D297E422E842D887076
:10464000582E43FC95C040FE8FC09C2C821418F459
:104650002C0C922C981844FE91C0B70180E390E096
:104660000E94EA2342FE09C088E790E041FE02C0B2
:1046700088E590E0B7010E94EA23C91408F48AC0D3
:10468000CA94D12C9FEFC91AD90ACA0CDB1CF601B7
:1046900082916F01B70190E00E94EA23AC14BD043F
:1046A000B1F74FCF60817181072E000C880B990BF9
:1046B0000E5F1F4F92CFD32CE894D4F82AE030E05D
:1046C000853739F1232D297FD22E8F3601F148F419
:1046D0008835A9F0F701868197812B96E2E10C9449
:1046E000E21D803749F08837A9F7D4FE02C06894EC
:1046F000D2F820E130E00DC06894D4F8F6CF34FE53
:1047000003C0822F8660D82E20E132E002C028E06C
:1047100030E0F801D7FE0FC0608171818281938102
:104720000C5F1F4FA5010E941A24C82ECA183D2CE9
:10473000E89437F867CF6081718190E080E00E5F88
:104740001F4FF0CF42FC02C0839478CF83948394B0
:1047500075CF842D867809F471CFF6CFB70180E24A
:1047600090E00E94EA2383948214C0F3512C73CF0B
:10477000522C5818821408F46ECFF8CF842D867806
:1047800009F47BCF8BE241FE80E247FC8DE2B7016A
:1047900090E071CFB70180E390E00E94EA239A9401
:1047A0006CCF8FEF9FEF99CFFC0105906150704067
:1047B0000110D8F7809590958E0F9F1F0895FC01EA
:1047C0006150704001900110D8F7809590958E0F40
:1047D0009F1F08950F931F93CF93DF93182F092FD7
:1047E000EB018B8181FD09C01FEF0FEF812F902F0F
:1047F000DF91CF911F910F91089582FF14C02E81F8
:104800003F818C819D81281739073CF4E881F9812B
:10481000CF0101969983888310838E819F810196B1
:104820009F838E83E3CFE885F985812F0995892BB6
:10483000A1F3DACFFA01AA27283051F1203181F112
:10484000E8946F936E7F6E5F7F4F8F4F9F4FAF4F98
:10485000B1E03ED0B4E03CD0670F781F891F9A1FAB
:10486000A11D680F791F8A1F911DA11D6A0F711D5F
:10487000811D911DA11D20D009F468943F912AE06B
:10488000269F11243019305D3193DEF6CF01089553
:10489000462F4770405D4193B3E00FD0C9F7F6CF84
:1048A000462F4F70405D4A3318F0495D31FD40524C
:1048B000419302D0A9F7EACFB4E0A69597958795E2
:1048C00077956795BA95C9F70097610571050895C1
:1048D0009B01AC010A2E069457954795379527956D
:1048E000BA95C9F7620F731F841F951FA01D089505
:0448F000F894FFCF6A
:1048F400FFFFFFFF01010000000000100480000022
:10490400B75E2C2F17180C0C0704003E1F1010085C
:10491400090503010105060708000000001E047EC6
:1049240003AB038604DC03BA03CE030D0A005C2147
:1049340042432F25642F4C41542F302F4C47542F82
:10494400302F4658542F2D31005C2142432F2564CB
:104954002F4C41542F25732F4C47542F25732F462A
:0849640058542F256C6400007B
:00000001FF
