:100000000C9484020C94AC020C94AC020C94AC02E0
:100010000C94AC020C94AC020C94390E0C94AC020F
:100020000C94AC020C94AC020C94AC020C94AC0298
:100030000C94AC020C94AC020C94AC020C94AC0288
:100040000C94EF0D0C94AC020C94BD0D0C94970D18
:100050000C94AC020C94AC020C94AC020C94AC0268
:100060000C94AC020C94AC0200407A10F35A00A03D
:10007000724E18090010A5D4E80000E87648170071
:1000800000E40B54020000CA9A3B000000E1F505B1
:10009000000080969800000040420F000000A086FB
:1000A00001000000102700000000E803000000002D
:1000B0006400000000000A000000000001000000D1
:1000C00000002C76D888DC674F0823DFC1DFAE59EB
:1000D000E1B1B796E5E3E453C63AE651997696E87E
:1000E000E6C28426EB898C9B62ED407C6FFCEFBC02
:1000F0009C9F40F2BAA56FA5F490055A2AF75C932D
:100100006B6CF9676DC11BFCE0E40D47FEF520E662
:10011000B500D0ED902E0300943577050080841E45
:10012000080000204E0A000000C80C333333330FA0
:10013000986E12831141EF8D2114893BE65516CF3D
:10014000FEE6DB18D1844B381BF77C1D901DA4BB49
:10015000E424203284725E228100C9F124ECA1E5FE
:100160003D2700000000250028002B0000000008AB
:10017000000201000003040700000000000000006E
:10018000535831323736204C462F48462063616C35
:100190006962726174696F6E0000000000240027BC
:1001A000002A00556E7265636F676E697A65642018
:1001B0007472616E7363656976657200535831328B
:1001C00037362064657465637465642C20737461CC
:1001D0007274696E67005358313237322064657427
:1001E00065637465642C207374617274696E670052
:1001F0005358313237322073756363657373667594
:100200006C6C7920636F6E666967757265640A004D
:1002100053657474696E67206E6F646520616464F1
:10022000723A207374617465200053657474696E4A
:100230006720506F7765723A20737461746520008F
:1002400053657474696E67204368616E6E656C3ABD
:10025000207374617465200053657474696E67203F
:100260004D6F64653A20737461746520005573693D
:100270006E67207061636B65742073657175656E60
:100280006365206E756D626572206F66200047653C
:1002900074206261636B2070726576696F7573207C
:1002A00073783132373220636F6E6669670A0041B6
:1002B000546D6567613332385020646574656374CA
:1002C00065640A0053696D706C65204C6F52612043
:1002D00074656D70657261747572652073656E7397
:1002E0006F720A002D2D3E205253534920657272C1
:1002F0006F720A002D2D3E205253534920002D2DA0
:100300003E2072657472790A0020444946533D3399
:10031000534946533D20002D2D3E207761697420BE
:10032000666F72200023310A002332004F4B3200E7
:100330002D2D3E20434144200020434144203D20B8
:10034000002D2D3E207761697420666F7220004F6A
:100350004B310A002D2D3E2043414420002D2D3EDF
:10036000204353310A002323206E6F7420656E6F83
:1003700075676820546F4120617420002E00436F20
:10038000756C64206E6F7420737769746368204C99
:100390006F5261206D6F64756C6520696E20736C9F
:1003A000656570206D6F64650A00537563636573DE
:1003B0007366756C6C7920737769746368204C6F11
:1003C0005261206D6F64756C6520696E20736C6579
:1003D0006570206D6F64650A0053776974636820E7
:1003E000746F20706F77657220736176696E672015
:1003F0006D6F64650A0052656D61696E696E672094
:10040000546F4120697320005061636B65742073E1
:10041000656E742C20737461746520004C6F52619A
:100420002053656E7420772F43414420696E20006D
:100430004C6F52612053656E7420696E20004C6FC2
:10044000526120706B742073657120004C6F526193
:1004500020706B742073697A6520005265616C208E
:100460007061796C6F61642073697A6520697320AB
:100470000053656E64696E67200054656D70206975
:100480007320002072656D61696E696E6720546F1C
:10049000412069732000206379636C6520656E6478
:1004A0007320617420006379636C652062656769FD
:1004B0006E7320617420002323206E65772063799A
:1004C000636C6520666F7220546F41202323002ED9
:1004D0002E2E000000000023002600290004040442
:1004E00004040404040202020202020303030303DD
:1004F00003010204081020408001020408102001BA
:10050000020408102000500E11241FBECFEFD8E0C7
:10051000DEBFCDBF11E0A0E0B1E0E2E3F5E402C050
:1005200005900D92A038B107D9F723E0A0E8B1E01B
:1005300001C01D92A93DB207E1F712E0C4E8D2E084
:1005400004C02197FE010E94FE1DC338D107C9F7E0
:100550000E94060F0C9497220C9400008F929F9299
:10056000AF92BF92CF92DF92EF92FF92CF93DF9341
:10057000A091C80330E081113A2F8091C90390E027
:10058000880F991FAC014D525B4FC090CE03D090A5
:10059000CF03E090D003F090D10360E070E0CB0196
:1005A000FA01C591D49128812A2323130FC04B014E
:1005B0005C012FEF821A920AA20AB20A6C157D051D
:1005C0008E059F0570F060E070E0CB01DF91CF9168
:1005D000FF90EF90DF90CF90BF90AF909F908F9063
:1005E0000895C501B401DCCFAF92BF92CF92DF92E4
:1005F000EF92FF920F931F93CF93DF936C017B01D8
:100600008B01040F151FEB015E01AE18BF08C01768
:10061000D10759F06991D601ED91FC910190F081DB
:10062000E02DC6010995892B79F7C501DF91CF919E
:100630001F910F91FF90EF90DF90CF90BF90AF9000
:100640000895FC01538D448D252F30E0842F90E0D8
:10065000821B930B541710F0CF96089501970895BD
:10066000FC01918D828D981761F0A28DAE0FBF2F86
:10067000B11D5D968C91928D9F5F9F73928F90E0DC
:1006800008958FEF9FEF0895FC01918D828D98174B
:1006900031F0828DE80FF11D858D90E008958FEF88
:1006A0009FEF0895FC01918D228D892F90E0805C51
:1006B0009F4F821B91098F739927089580EC91E0D9
:1006C0000E94520321E0892B09F420E0822F089533
:1006D00080E090E0892B29F00E945E0381110C9448
:1006E00000000895FC01A48DA80FB92FB11DA35AD5
:1006F000BF4F2C91848D90E001968F739927848F42
:10070000A689B7892C93A089B1898C918370806464
:100710008C93938D848D981306C00288F389E02D05
:1007200080818F7D80830895EF92FF920F931F93B6
:10073000CF93DF93EC0181E0888F9B8D8C8D981394
:100740001AC0E889F989808185FF15C09FB7F894A0
:10075000EE89FF896083E889F989808183708064EC
:1007600080839FBF81E090E0DF91CF911F910F9137
:10077000FF90EF900895F62E0B8D10E00F5F1F4F46
:100780000F731127E02E8C8D8E110CC00FB607FC55
:10079000FACFE889F989808185FFF5CFCE010E94E3
:1007A0007203F1CFEB8DEC0FFD2FF11DE35AFF4FDC
:1007B000F0829FB7F8940B8FEA89FB898081806271
:1007C000CFCF0F931F93CF93DF938C01D0E0C0E086
:1007D000F801EC0FFD1F6491662341F080EC91E07D
:1007E0000E949403892B11F02196F2CFCE01DF9164
:1007F000CF911F910F910895CF93DF93EC01888DD6
:100800008823B9F0AA89BB89E889F9898C9185FD8B
:1008100003C0808186FD0DC00FB607FCF7CF8C9119
:1008200085FFF2CF808185FFEDCFCE010E9472035C
:10083000E9CFDF91CF91089590E0FC01E459FE4F9C
:100840002491FC01EF50FB4F3491FC01E352FB4F2C
:10085000E491EE23C9F0222339F0233001F1A8F40A
:10086000213019F1223029F1F0E0EE0FFF1FEE598F
:10087000FE4FA591B4918FB7F894EC91611126C009
:1008800030953E233C938FBF08952730A9F0283040
:10089000C9F0243049F7809180008F7D03C080919A
:1008A00080008F7780938000DFCF84B58F7784BD01
:1008B000DBCF84B58F7DFBCF8091B0008F778093A5
:1008C000B000D2CF8091B0008F7DF9CF3E2BDACF30
:1008D000CF93DF9390E0FC01EF50FB4F24918352C4
:1008E0009B4FFC0184918823C9F090E0880F991FE9
:1008F000FC01E756FE4FA591B491FC01EE59FE4F65
:10090000C591D49161110DC09FB7F8948C91209539
:1009100082238C938881282328839FBFDF91CF91E6
:100920000895623051F49FB7F8943C91822F8095DE
:1009300083238C93E8812E2BEFCF8FB7F894EC9123
:100940002E2B2C938FBFEACF3FB7F894809185016F
:1009500090918601A0918701B091880126B5A89B4E
:1009600005C02F3F19F00196A11DB11D3FBFBA2F41
:10097000A92F982F8827BC01CD01620F711D811D01
:10098000911D42E0660F771F881F991F4A95D1F786
:1009900008958F929F92AF92BF92CF92DF92EF9283
:1009A000FF926B017C010E94A4044B015C01C11405
:1009B000D104E104F104B9F00E94A4046819790992
:1009C0008A099B09683E73408105910580F321E007
:1009D000C21AD108E108F10888EE880E83E0981E5B
:1009E000A11CB11CE4CFFF90EF90DF90CF90BF909F
:1009F000AF909F908F9008952FB7F89460918101E8
:100A00007091820180918301909184012FBF08959C
:100A1000CF92DF92EF92FF920F931F93CF93DF93CA
:100A2000CDB7DEB7C054D1400FB6F894DEBF0FBECD
:100A3000CDBF0E94FC040091CA031091CB0320910A
:100A4000CC033091CD036B017C01C01AD10AE20ABC
:100A5000F30A97018601003D17402105310590F406
:100A60008091D203C05CDE4F0FB6F894DEBF0FBE9C
:100A7000CDBFDF91CF911F910F91FF90EF90DF904D
:100A8000CF9008956093CA037093CB038093CC03F7
:100A90009093CD031092C5031092C4031092C30328
:100AA0001092C2031092C10361E08091C6030E94BC
:100AB0001C046AEF70E080E090E00E94C90461E0ED
:100AC0008091C6030E94680460E08091C6030E9482
:100AD0001C0464E170E080E090E00E94C904F89496
:100AE00061E08091C6030E941C048BE990E00197AD
:100AF000F1F762E08091C6030E94680483E290E00F
:100B00000197F1F780E00E94AE02672B682B692BFA
:100B100029F41092D203789480E0A4CF81E00E945F
:100B2000AE02672B682B692BA1F38E010F5F1F4F5D
:100B30006E018FEBC81A8EEFD80A780180E00E9410
:100B4000AE02F701608371838283938381E00E9408
:100B5000AE02F7016483758386839783F8E0EF0E16
:100B6000F11CEC14FD0451F7789430E020E0F8011A
:100B7000C080D180E280F380448155816681778195
:100B8000C114D104E104F10429F0411551056105B6
:100B9000710519F41092D203BFCFF90183E0F595E6
:100BA000E7958A95E1F7EF53FC4F8081880FC416D3
:100BB000D506E606F70610F180832F5F3F4F085FEA
:100BC0001F4F2832310599F64091C5032091C1038A
:100BD0008091C203280F3327331F8091C303280F4E
:100BE000311D8091C403820F932F911D99274817BF
:100BF000190681F681E08093D20334CF8160DCCF87
:100C00004115510529F4EAE7F0E080818F77808370
:100C10006A307105B9F0CB01880F991F880F991FB1
:100C2000807267706860682B88E10FB6F894A895A9
:100C3000809360000FBE60936000E0E6F0E080818A
:100C400080648083232BD9F483B7817F846083BF42
:100C5000F89483B7816083BF85B7806685BF8F7D39
:100C600085BF7894889583B78E7F83BF7894452B12
:100C700029F4EAE7F0E0808180688083089583B7F3
:100C8000817F846083BFF89483B7816083BF789449
:100C9000889583B78E7F83BF7894E9CF8EBD00009F
:100CA0000DB407FEFDCF8EB508950F931F93CF931C
:100CB000DF93082F162FCDE5D2E060E08B810E94F4
:100CC0001C04802F80680E944E06812F0E944E06D1
:100CD00061E08B81DF91CF911F910F910C941C04E7
:100CE0001F93CF93DF93182FCDE5D2E060E08B8187
:100CF0000E941C04812F0E944E0680E00E944E0636
:100D0000182F61E08B810E941C04812FDF91CF910D
:100D10001F910895CF93DF93D82FD06281E00E9476
:100D20007006C82F8091980261E8813011F061E06F
:100D300081E00E9455066D2F8BE00E9455066C2FB6
:100D400081E00E94550680E0DF91CF9108958F9257
:100D50009F92AF92BF92CF92DF92EF92FF92CF938A
:100D6000DF934B015C010E94FC046093610270936D
:100D70006202809363029093640281E00E94700695
:100D8000C82F8091980261E8813011F061E081E024
:100D90000E945506B5018827992786E00E945506CE
:100DA00099278B2D7A2D692D87E00E945506682D95
:100DB00088E00E9455060E94FC04609365027093CF
:100DC0006602809367029093680264E670E080E0B8
:100DD00090E00E94C90486E00E947006C82E87E059
:100DE0000E947006D82FD12CDC2CCC24F12CE12CC5
:100DF000FE2CED2CDC2CCC2488E00E9470062D2FDC
:100E000030E0322F222790E0B0E0A0E0820F931F65
:100E1000A11DB11D8C0D9D1DAE1DBF1DD1E08816FD
:100E20009906AA06BB0649F480928102909282023A
:100E3000A0928302B0928402D0E06C2F81E00E94E5
:100E4000550664E670E080E090E00E94C9048D2FB2
:100E5000DF91CF91FF90EF90DF90CF90BF90AF9058
:100E60009F908F90089580919802882381F08EE161
:100E70000E94700690E024E0959587952A95E1F709
:100E8000809380028650873020F081E008958FEFB4
:100E9000089580E0089580919802882321F18DE1E2
:100EA0000E94700690915D02682F91111AC06460D3
:100EB0008DE10E9455068DE10E94700690915D02C1
:100EC00020E0911101C022E090E002C09595879545
:100ED0002A95E2F780FF09C081E080938F0280E0CD
:100EE00008956160E5CF8FEF089581E00895CF9375
:100EF00081E00E947006C82F80919802813061F4D1
:100F000061E80E9455066FEF82E10E9455066C2F42
:100F100081E0CF910C94550661E081E00E94550676
:100F20006FEF8EE30E9455066FEF8FE3EECFCF9306
:100F3000DF93C82F81E00E947006D82FC0939D02D6
:100F4000809198028130F9F461E80E945506609121
:100F50009D0282E20E94550682E20E947006C1E074
:100F600090919D02981301C0C0E06D2F81E00E9416
:100F700055066AEF70E080E090E00E94C9048C2F73
:100F8000DF91CF91089561E081E00E945506609164
:100F90009D0282E30E94550682E3DFCF2F923F92AB
:100FA0004F925F926F927F928F929F92AF92BF9279
:100FB000CF92DF92EF92FF920F931F93CF93DF9325
:100FC000CDB7DEB761970FB6F894DEBF0FBECDBFC9
:100FD000898B80917E02812C34E2932E34EFA32EF4
:100FE00037E4B32E873081F0812C44E2942E44EF15
:100FF000A42E48E4B42E883039F4812C24E2922EB9
:1010000024E7A22E28E4B22E1091800281E00E94F3
:1010100070068B830E94FC0420919802288B21305B
:1010200009F0F5C061E881E00E94550681E090E09A
:1010300002C0880F991F1A95E2F7312C212C10E07D
:1010400000E033E039839C01990F440B550B2C874A
:101050003D874E875F870E9477070E94FC040E94AD
:10106000FC049B01AC012C593F4F4F4F5F4F2C8329
:101070003D834E835F8367E881E00E9455060E94AE
:10108000A404688779878A879B8782E10E9470061B
:101090001A82382F3470F32E82FD4EC00E94FC0459
:1010A0002C813D814E815F8162177307840795070C
:1010B00008F042C00E94A4046B017C016C857D8510
:1010C0008E859F850E94821A9B01AC01C501B401E7
:1010D0000E94D31C9B01AC0160E070E080E89FE3BC
:1010E0000E94D31C2B013C01C701B601288539851C
:1010F0004A855B85621B730B840B950B0E94801ADB
:101100006B017C0120E034E244E759E4C301B20101
:101110000E94E11A20E030E040E753E40E94501CB6
:101120009B01AC01C701B6010E94CC1D18169CF0B2
:1011300082E10E947006ADCF0E94FC04F11025C030
:10114000898181508983882309F45EC0898981114E
:1011500082CF198225C03A813111EACF80915D0298
:1011600095E7F92E813011F483E6F82E8BE10E9489
:1011700070068F0D80938702280E311C87FD3A94EC
:101180000F5F1F4F41E04A83D3CF82E10E94700678
:10119000817059895150598B51112FC08983188AF8
:1011A000C101B8010E94D61D609387026B8181E066
:1011B0000E9455060E94FC040E947707498144233F
:1011C00011F052E0588B888961960FB6F894DEBF13
:1011D0000FBECDBFDF91CF911F910F91FF90EF9088
:1011E000DF90CF90BF90AF909F908F907F906F9047
:1011F0005F904F903F902F900895882309F42BCF54
:10120000188A91E09983CCCF21E02983C9CF198234
:1012100032E0388BCBCFEF92FF920F931F93CF9397
:10122000DF938091980205E010E0D0E0C0E08130CB
:1012300041F535E0E32EF12C10E000E080915D02F5
:10124000C5E7813009F4C3E68BE10E9470068C0F7C
:1012500080938702080F111D87FD1A9581E0E81A17
:10126000F10861F7C80165E070E00E94D61D609347
:10127000870280E0DF91CF911F910F91FF90EF9057
:10128000089581E10E94700690E09595879580937E
:101290008702C80FD91F0150110999F7CE01E3CF7A
:1012A000FC0101900020E9F73197AF01481B590B71
:1012B000BC0180EC91E00C94F4028AE391E00C9480
:1012C0005009CF93DF930E94E103EC010E945D0976
:1012D0008C0F9D1FDF91CF9108951F93CF93DF93C4
:1012E000C0E01AE068EC70E080E090E00E94C90481
:1012F00060E081E00E94550660E881E00E945506AA
:1013000061E881E00E945506C19FB00111246E5C26
:101310007F4F072E000C880B990B0E94C90481E0B7
:101320000E947006D82F8FEC94E00E946109C0FDE6
:1013300003C0C43159F0CF5FD138A1F681E080936A
:10134000980280E0DF91CF911F910895C0E0F4CF23
:10135000CF93DF93C82F81E00E947006D82F809131
:101360009802811102C00E946D0961E881E00E942B
:1013700055066C2F89E30E94550664E670E080E014
:1013800090E00E94C90489E30E947006C81311C04E
:10139000C0935E02C0E06D2F81E00E94550664E6B6
:1013A00070E080E090E00E94C9048C2FDF91CF9123
:1013B0000895C1E0F0CFFF920F931F93CF93DF9377
:1013C0008C0181E00E947006F82E80919802D2E094
:1013D000811103C00E946D09D82F61E881E00E944D
:1013E00055068DE10E947006C82F90915D02911103
:1013F00042C008301105C9F109301105C9F1CF7398
:101400000E943307809180028B3011F4C16002C0CA
:101410008C30E1F36C2F8DE10E94550664E670E09C
:1014200080E090E00E94C9048DE10E9470069091D6
:101430005D02282F30E0911144C096E03595279544
:101440009A95E1F70830110589F109301105A9F1E4
:10145000232B41F4909180029B3009F057C0809576
:10146000D82FD170D11157C024C0CF77C064D2CF4C
:10147000CF7BC068CFCFCF7008301105D1F30930D2
:10148000110591F0C0670E943307809180028B5054
:10149000823008F0BFCF86E20E947006682F686035
:1014A00086E20E945506B6CFC069B4CF213031051F
:1014B000C9F600937E02D0E02EC02230310591F6AD
:1014C000F8CF84E0359527958A95E1F70830110526
:1014D00099F009301105A9F02730310519F686E297
:1014E0000E947006909180029B3031F583FBDD27CE
:1014F000D0F981E0D827B6CF2830310509F0B2CF36
:10150000D8CF2930310509F0ADCFD3CF9C3089F643
:1015100080FDCFCFD1E06F2D81E00E94550664E6BB
:1015200070E080E090E00E94C9048D2FDF91CF91A0
:101530001F910F91FF9008959C3009F0BACF83FD61
:10154000B8CFE8CFFF920F931F93CF93DF93182F5D
:1015500081E00E947006082F80919802811115C0C9
:101560000E946D09602F81E00E94550664E670E0DC
:1015700080E090E00E94C9041093800280E0DF9137
:10158000CF911F910F91FF90089561E881E00E9433
:1015900055068EE10E947006C82F1A30B1F040F453
:1015A000183069F0193071F0CF77C067D0E034C0DF
:1015B0001B3071F01C30C1F7CF7CC06C1CC0CF78E1
:1015C000C068F4CFCF79C069F1CFCF7AC06AEECFCF
:1015D000CF7BC06B80919802882369F080915D0277
:1015E00081116BC08DE10E9470068295869586956B
:1015F000837080937E0280917E028730B9F680915D
:101600005D02811160C08DE10E947006D82FD1600B
:101610006D2F8DE10E94550680919802882339F143
:101620008DE10E94700690918002963049F0909171
:101630005D02682F911150C06B7F8DE10E945506AD
:1016400080915D02F12C811102C082E0F82E809120
:101650008002863061F08DE10E94700690E002C049
:1016600095958795FA94E2F780FF10928F0263E0D8
:1016700081E30E9455066AE087E30E945506809147
:101680005D0281112BC0C4606D2F8DE10E94550653
:101690006C2F8EE10E94550664E670E080E090E0D9
:1016A0000E94C90480915D0281111FC08DE10E94DA
:1016B00070068EE10E94700655CF8DE10E94700683
:1016C00082958F7096CF86E20E947006682F6860C0
:1016D00086E20E9455066ACF6E7FAFCF86E20E94F7
:1016E0007006682F646086E2D1CF86E2E0CFCF93A8
:1016F000DF9381E00E947006D82F80919802C2E0AB
:10170000811103C00E946D09C82F61E881E00E9429
:1017100055068DE10E94700690915D02682F91112F
:101720002EC06F7C68608DE10E94550664E670E013
:1017300080E090E00E94C9048DE10E947006209133
:101740005D02213009F023E090E002C09595879575
:101750002A95E2F787709927019709F4C0E081E0A4
:1017600080937F026D2F0E94550664E670E080E052
:1017700090E00E94C9048C2FDF91CF910895617F82
:101780006260D1CF8F929F92AF92BF920F931F93BF
:10179000CF93DF93CDB7DEB7A1970FB6F894DEBF36
:1017A0000FBECDBF19A2423008F44AE08E010F5D92
:1017B0001F4F842E912CB12CA12CA50194010E94C5
:1017C0001E1CE62FB901CA01EA30F4F4E05DD8012D
:1017D000EE938D01232B242B252B79F790E080E0CD
:1017E000109719F0CD010E945009A1960FB6F894F8
:1017F000DEBF0FBECDBFDF91CF911F910F91BF9084
:10180000AF909F908F900895E95CE1CFCF93DF93E5
:101810000E945009EC010E945D098C0F9D1FDF9111
:10182000CF910895CF92DF92EF92FF92CF93DF9303
:1018300097FF1BC06B017C016DE280EC91E00E9480
:101840009403EC0166277727CB016C197D098E097B
:101850009F094AE00E94C20B8C0F9D1FDF91CF9120
:10186000FF90EF90DF90CF9008954AE0DF91CF9105
:10187000FF90EF90DF90CF900C94C20BBC01990FBA
:10188000880B990B0C94120C8091B203882309F4F5
:101890006DC00E94FC04AB01BC018091BB03909120
:1018A000BC03A091BD03B091BE0384179507A607A2
:1018B000B70708F052C08093B7039093B803A09382
:1018C000B903B093BA0340EA5CE860E070E040938B
:1018D000B3035093B4036093B5037093B603805879
:1018E0009141A94CBF4F8093BB039093BC03A0933D
:1018F000BD03B093BE0387EB94E00E94610986EAC2
:1019000094E00E94E1036091B7037091B803809165
:10191000B9039091BA034AE00E94C20B86E994E0B1
:101920000E94E1036091BB037091BC038091BD03F1
:101930009091BE034AE00E94C20B83E894E00E94AB
:10194000E1036091B3037091B4038091B50390916A
:10195000B6030E94120C0E945D096091B30370915E
:10196000B4038091B5039091B603089560EA7CE8D2
:1019700080E090E008954F925F926F927F928F92F5
:101980009F92AF92BF92CF92DF92EF92FF920F930E
:101990001F93CF936B017C01742EAC019B010E94BD
:1019A000D11D882399F08DE391E0CF911F910F9184
:1019B000FF90EF90DF90CF90BF90AF909F908F906F
:1019C0007F906F905F904F900C94500946015701A3
:1019D000E894B7F82FEF3FEF4FE75FE7C501B40199
:1019E0000E94D11D81110DC02FEF3FEF4FE75FE740
:1019F000C501B4010E947B1A18161CF481E491E021
:101A0000D4CF2FEF3FEF4FE75FE4C701B6010E944D
:101A1000CC1D18161CF485E491E0C7CF2FEF3FEFE3
:101A20004FE75FECC701B6010E947B1A87FDF3CF39
:101A300020E030E0A901C701B6010E947B1A10E046
:101A400000E087FF0AC06DE280EC91E00E94940301
:101A50008C01F7FAF094F7F8F094C0E060E070E0E1
:101A600080E09FE37C1641F020E030E040E251E46A
:101A70000E94D31CCF5FF6CFA70196010E94501C95
:101A80002B013C010E94451D4B015C014AE00E9474
:101A9000C20B7C01E00EF11ECC23C1F1C501B401E3
:101AA0000E94801A9B01AC01C301B2010E944F1C2D
:101AB0004B015C016EE280EC91E00E949403E80E21
:101AC000F91EC15018F120E030E040E251E4C501B8
:101AD000B4010E94E11A2B013C010E94451D4B01FB
:101AE000B12CA12C4AE0C501B4010E94C20BE80E42
:101AF000F91EC501B4010E94801A9B01AC01C3010B
:101B0000B2010E944F1C4B015C01DBCFC701CF919A
:101B10001F910F91FF90EF90DF90CF90BF90AF900B
:101B20009F908F907F906F905F904F9008951F923D
:101B30000F920FB60F9211242F933F934F935F9301
:101B40006F937F938F939F93AF93BF93EF93FF9385
:101B500080EC91E00E947203FF91EF91BF91AF91F1
:101B60009F918F917F916F915F914F913F912F91B5
:101B70000F900FBE0F901F9018951F920F920FB6E7
:101B80000F9211242F938F939F93EF93FF93E091E4
:101B9000D001F091D1018081E091D601F091D7017F
:101BA00082FD1BC090818091D9018F5F8F7320913E
:101BB000DA01821741F0E091D901F0E0E054FE4FE4
:101BC000958F8093D901FF91EF919F918F912F91E4
:101BD0000F900FBE0F901F9018958081F4CF1F9229
:101BE0000F920FB60F9211242F933F938F939F93D1
:101BF000AF93BF938091810190918201A091830165
:101C0000B09184013091800123E0230F2D3758F5E6
:101C10000196A11DB11D20938001809381019093B5
:101C20008201A0938301B0938401809185019091FA
:101C30008601A0918701B09188010196A11DB11D77
:101C40008093850190938601A0938701B0938801CA
:101C5000BF91AF919F918F913F912F910F900FBEA8
:101C60000F901F90189526E8230F0296A11DB11D15
:101C7000D2CF1F920F920FB60F9211248F930FB6EF
:101C8000F894A8958091600088618093600010921C
:101C900060000FBE8F910F900FBE0F901F90189590
:101CA0000F931F93CF93DF93E0ECF1E01382128246
:101CB00088EE93E0A0E0B0E084839583A683B783A9
:101CC0008CE291E09183808385EC90E09587848716
:101CD00084EC90E09787868780EC90E0918B808BF6
:101CE00081EC90E0938B828B82EC90E0958B848BDF
:101CF00086EC90E0978B868B118E128E138E148E4D
:101D0000CDE5D2E08AE08B8397E099A381E08AA3B6
:101D10009BA340E050EC64EE70E04CA35DA36EA387
:101D20007FA31AAA1CAA1BAE9FE098A71EAA1FAAEF
:101D300018AE92E19A831B8E1E8A8F8B188E89E0D3
:101D40008D8B1D8E1092B2030E94FC046093B7032A
:101D50007093B8038093B9039093BA0300EA1CE828
:101D600020E030E00093B3031093B4032093B50355
:101D70003093B60360587141894C9F4F6093BB0309
:101D80007093BC038093BD039093BE031F8E81EBC1
:101D900092E090939F0280939E029093A70280937B
:101DA000A6028CEA93E09093AF028093AE0219AE44
:101DB00088AD8093A002A1ECB3E08EE015968C93E1
:101DC000159786E116968C931697EFEFF4E0E49161
:101DD0001796EC931797EBEEF4E0E4911896EC93DA
:101DE000189740E85EE360E070E01D964D935D93C8
:101DF0006D937C9350978BE490E09093D403809301
:101E0000D303DF91CF911F910F910895CF93DF936B
:101E1000CDB7DEB7AF970FB6F894DEBF0FBECDBF1C
:101E2000789484B5826084BD84B5816084BD85B5B5
:101E3000826085BD85B5816085BD80916E008160C1
:101E400080936E0010928100809181008260809367
:101E50008100809181008160809381008091800069
:101E60008160809380008091B10084608093B10094
:101E70008091B00081608093B00080917A0084608E
:101E800080937A0080917A00826080937A008091BA
:101E90007A00816080937A0080917A0080688093D4
:101EA0007A001092C10060E08EE00E94680461E058
:101EB00089E00E94680468EB7BE080E090E00E948B
:101EC000C904E091D001F091D10182E08083E091DA
:101ED000CC01F091CD011082E091CE01F091CF01C3
:101EE00083E380831092D801E091D401F091D50171
:101EF00086E08083E091D201F091D30180818061FE
:101F00008083E091D201F091D30180818860808349
:101F1000E091D201F091D301808180688083E091CB
:101F2000D201F091D30180818F7D808384EC92E097
:101F30000E94E1038FEA92E00E94E10361E0809158
:101F400060020E94680461E0809160020E941C04AB
:101F500064E670E080E090E00E94C9041FB7F89446
:101F600080918901811127C0E7EEF4E08491EBEFC5
:101F7000F4E09491E82FF0E0EE0FFF1FE756FE4FDC
:101F8000A591B491EC91E92321F461E08AE00E94EB
:101F90001C0461E08AE00E9468048CB580618CBDFD
:101FA0008CB580648CBD61E08DE00E94680461E0C6
:101FB0008BE00E946804809189018F5F8093890182
:101FC0001FBF8CB58F7D8CBD8CB58C7F81608CBD27
:101FD0008DB581608DBD8CB5837F8CBD64E670E06E
:101FE00080E090E00E94C90482E40E947006823280
:101FF00009F0EBC086ED91E00E94610910925D024C
:1020000080915D02813041F580E891E00E94610994
:1020100060E089E00E9455068BE30E947006682FFD
:1020200060648BE30E9455068BE30E94700685FD79
:10203000FBCF60E070E089ED90E00E94A7068BE3A3
:102040000E947006682F60648BE30E9455068BE344
:102050000E94700685FDFBCF8BE10E948A060E94DC
:102060006D0900919802013009F0C3C080915D02B2
:102070001DE1882311F002E01EE1812F0E9470060D
:1020800090915D02682F9111B2C06260812F0E9411
:102090005506812F0E94700690E002C095958795A5
:1020A0000A95E2F780FF03C081E08093910280915E
:1020B0009802813009F0ABC080E20E947006109255
:1020C0008A0280938B0281E20E94700620918A022C
:1020D00030918B02820F932F911D90938B028093EE
:1020E0008A0280915F020E94A80980919802882349
:1020F00029F089E30E94700680935E0280915E025F
:1021000080935F020E94FC046115710581059105B1
:1021100011F00E943B1890E080E00E949F1B082F66
:1021200080938B0181E090E00E949F1B182F809389
:102130008C0182E090E00E949F1B80938D01023110
:1021400009F06EC0143309F06BC08EE892E00E9473
:10215000E10380918D01809393028DE692E00E94CD
:10216000E1036091930270E090E080E04AE00E9419
:10217000C20B8CE391E00E94060C81E00E94700685
:10218000082F80919802811102C00E946D0961E8B8
:1021900081E00E9455060E94770B8CE00E94A20A03
:1021A00087E090E00E94DB098DE10E94700620919B
:1021B0005D0290E021113FC043E0959587954A95D7
:1021C000E1F70197E1F111E047C082E40E94700657
:1021D000823141F48CEB91E00E94610981E08093AF
:1021E0005D020ECF83EA91E00E94610909CF64602D
:1021F0004DCF80E30E947006682F606180E30E94EB
:10220000550680E30E94700684FD4ECF50CF85E2D4
:102210000E94700610928A0280938B0286E254CF4D
:1022200082E180938B0184E380938C0180919302FF
:1022300080938D01A2CF95958795C99721F68EE160
:102240000E94700690E024E0959587952A95E1F725
:1022500011E00C9709F410E080915F020E94A80938
:10226000111103C081E080937102602F81E00E9410
:10227000550664E670E080E090E00E94C90488E5BD
:1022800092E00E94E103812F90E00E943E0C8CE3DB
:1022900091E00E94060C11E01093750210927402F6
:1022A0006CEC7CE488ED90E00E94A706082F80E4A7
:1022B00092E00E94E103802F000F990B0E943E0CD8
:1022C0008CE391E00E94060C10937A0280915D02EB
:1022D0001AE581111DE481E00E947006082F8091AB
:1022E000980261E8813011F061E081E00E945506BA
:1022F00064E8812F0E94550680E10E948A06909131
:102300005D0280917A029111A7C01CE8811101C081
:102310001FE0612F89E00E9455061093850289E035
:102320000E94700611E090918502981301C010E0A0
:10233000602F81E00E94550664E670E080E090E046
:102340000E94C9048AE292E00E94E103812F90E09A
:102350000E943E0C8CE391E00E94060C88E0809382
:102360008E0281E00E947006182F8091980261EC25
:10237000813011F061E081E00E94550668E083E35E
:102380000E94550660E084E30E94550683E30E94A4
:102390007006F82E612F81E00E94550601E010E0E2
:1023A00080918E028F1102C010E000E080E192E087
:1023B0000E94E103C8010E943E0C8CE391E00E9460
:1023C000060C80EF91E00E94E10364EF71E080E091
:1023D00090E00E94C9042091240130912501409190
:1023E0002601509127012CA73DA74EA75FA761E0CA
:1023F00089E00E941C0468EC70E080E090E00E949C
:10240000C90462E08091C6030E94680480E398EFEB
:10241000AFEFBFEF8093CA039093CB03A093CC039D
:10242000B093CD0360ED77E080E090E00E94C904B6
:102430000E940805882339F18091C7038B3089F009
:1024400020F08551823008F497C3C12CD12C10ECB8
:10245000E12E1FE7F12E0EC01EE081111CE810676F
:1024600058CF6091C30370E090E080E00E94801A32
:102470006B017C01A7019601C701B6010E94D11D25
:10248000882309F4A4C389E491E00E94060CC12CBE
:10249000D12CB0E8EB2EBFEBFB2E60E089E00E9470
:1024A0001C048AE794E00E94E10342E0C701B60100
:1024B0000E94BB0C8CE391E00E94060C2CA53DA56C
:1024C0004EA55FA520938E0130938F01409390011C
:1024D000509391018E010F5F1F4F22E044E0C7012E
:1024E000B6010E9482177C0110E000E0009799F08D
:1024F000DC010D900020E9F7BD01681B790B90E02D
:1025000080E00E94291F8C01009729F0FC011082B5
:10251000B7010E94EF1F1F930F9380E091E09F93FC
:102520008F9387E791E09F938F9322E931E03F9368
:102530002F930E94F61F7C01D82E0FB6F894DEBFB1
:102540000FBECDBF0115110519F0C8010E94A01ED4
:1025500081E794E00E94E10382E991E00E94500942
:102560008CE391E00E94060C8BE594E00E94E1036D
:102570006D2D70E090E080E04AE00E94C20B8CE399
:1025800091E00E94060CFF24170194E0290E311CF3
:102590008DE593E00E94E10380917202882309F4A3
:1025A000F8C0C0907502CC2009F4F3C0F3E0FF2E10
:1025B000D12CA3E0BA2EE8E0EE2E0E94FC0460933A
:1025C000690270936A0280936B0290936C0280910F
:1025D00072020E94CE07182F0E94FC0460936D02C5
:1025E00070936E0280936F029093700284E593E083
:1025F0000E94E10360916D0270916E0280916F0202
:10260000909170024090690250906A0260906B0253
:1026100070906C0264197509860997094AE00E9456
:10262000C20B0E945D091111DEC28FE493E00E948B
:10263000E10380917302882309F480C00E94EC17A3
:1026400027E030E040E050E00E94B51B2B013C0148
:10265000AFEF4A1A5A0A6A0A7A0A81E493E00E94A2
:10266000E103C301B2017727882799274AE00E9436
:10267000C20B89E393E00E94E103E0917102F0E074
:10268000E75EFE4F8081489EC00111240E943E0CEF
:102690000E945D09E0917102F0E0E75EFE4F60810B
:1026A000469EB0011124072E000C880B990B0E9446
:1026B000C9040E94FC046093690270936A028093CB
:1026C0006B0290936C02809172020E94CE07082FD9
:1026D00010E00E94FC0460936D0270936E02809380
:1026E0006F029093700280E393E00E94E103609197
:1026F0006D0270916E0280916F0290917002409015
:10270000690250906A0260906B0270906C026419CA
:102710007509860997094AE00E94C20B0E945D096B
:102720008CE293E00115110511F089E293E00E941B
:10273000E1030E945D09012B09F0A8C28091740297
:10274000882309F4B0C20E940B098111A3C218E0CA
:102750000E940B0984EF92E00E94E10380918702BE
:10276000082E000C990B0E943E0C0E945D0911502E
:1027700061E070E080E090E00E94C90480918702EF
:10278000873A0CF48CC21111E3CFFA94DC2CF110CF
:1027900012CF0E94FC046CA37DA38EA39FA382E1B1
:1027A00080939A02FCEF2F1631040CF47FC28BEF5A
:1027B00090E090938D0280938C028091B2038823E5
:1027C00009F479C2A0908C02B0908D0280917802B9
:1027D000811103C024E0A20EB11C0E94440C68A722
:1027E00079A78AA79BA710917E02C12C64E2D62EFE
:1027F00064EFE62E67E4F62E173081F0C12C74E208
:10280000D72E74E7E72E78E4F72E183039F0C12C74
:1028100054E2D52E54EFE52E58E4F52E00918002B7
:10282000402F50E05BA34AA361E070E0002E02C09D
:10283000660F771F0A94E2F7072E000C880B990B9E
:102840000E94821A9B01AC01C701B6010E94D31CF1
:102850009B01AC0160E070E080E89FE30E94D31C24
:102860006B017C0160918A0270918B026C5F7F4FDB
:1028700090E080E00E94801A20E030E048E850E4D8
:102880000E94501CA70196010E94E11A2B013C01F5
:10289000173019F411E00C3009F010E0B50177277A
:1028A000660F771F8AA19BA1681B790B655F7F4F1D
:1028B00020918F024BEF420390011124620F731F8E
:1028C000660F771F660F771F072E000C880B990B7A
:1028D0000E94821A4B015C01812F90E0880F991FA2
:1028E0006AA17BA1681B790B660F771F660F771FA4
:1028F000072E000C880B990B0E94821A9B01AC01D9
:10290000C501B4010E94D31C0E94BC1C4B015C0198
:1029100060917F0270E06C5F7F4F072E000C880B88
:10292000990B0E94821AA50194010E94E11A4B01A1
:102930005C0120E030E0A9010E94CC1D20E030E0E5
:1029400040E051E4181634F4C501B4010E94501C53
:102950009B01AC01C701B6010E94E11AA3019201DB
:102960000E94501C20E034E244E759E40E94E11A3E
:1029700027E73EEB4FE75FE30E94501C0E94741D67
:102980000E94451D28EE33E040E050E00E941E1CEE
:10299000CA01B9010E94801A20E030E040E85FE3FC
:1029A0000E94501C0E94451D7093C0036093BF039A
:1029B00088A599A5AAA5BBA5861B970BA109B10956
:1029C000B7FF79C186E693E00E94E1030E94FC0410
:1029D0004AE00E94C20B0E945D0904E010E00E94E0
:1029E000FC044B015C018091930280938D018BE884
:1029F000E82E81E0F82ED12CC12CF70171907F01D7
:102A0000C6010E949F1B781621F0672DC6010E9407
:102A1000A71BFFEFCF1ADF0A23E0C216D10469F724
:102A20008CE494E00E94E103C1010E943E0C8CE31F
:102A300091E00E94060C8EE394E00E94E103609115
:102A40009C0270E090E080E04AE00E94C20B8CE3C0
:102A500091E00E94060C80E394E00E94E103C5012E
:102A6000B4012CA13DA14EA15FA1621B730B840B8D
:102A7000950B0E94120C8CE391E00E94060C8CE1F5
:102A800094E00E94E1038091690290916A02A09112
:102A90006B02B0916C02A5019401281B390B4A0B03
:102AA0005B0BCA01B9014AE00E94C20B8CE391E0C2
:102AB0000E94060C88E094E00E94E103C8010E9495
:102AC0003E0C8CE391E00E94060C86EF93E00E949E
:102AD000E1030E94440C0E94120C8CE391E00E94DE
:102AE000060C89ED93E00E94E10361E881E00E9419
:102AF000550664E670E080E090E00E94C90460E85A
:102B000081E00E94550681E00E947006803809F439
:102B1000E3C18EE793E00E94E10380EC91E00E9424
:102B2000FC0362E370E080E090E00E94C9048BE463
:102B300090E09093D4038093D3030CE410E0015011
:102B4000110909F4CCC130E020E050E040E069E038
:102B500070E08AE891E00E9400068CE793E00E9412
:102B6000E10380EC91E00E94FC036AE070E080E009
:102B700090E00E94C904E3CF1091C303612F6F77E7
:102B800070E090E080E00E94821A20E030E040E8AF
:102B900053E40E94E11A6B017C016091C40370E070
:102BA00090E080E00E94821AA70196010E94501CCA
:102BB0002DEC3CEC4CEC5DE30E94E11A6B017C01D6
:102BC00017FF58CCF7FAF094F7F8F09453CC89E655
:102BD00091E00E94500942E0C701B6010E94BB0C7F
:102BE0000E945D095ACC85E293E00E94E1030E94B5
:102BF000EC1727E030E040E050E00E94B51B2B01CD
:102C00003C01BFEF4B1A5B0A6B0A7B0A87E193E03A
:102C10000E94E103C301B2017727882799274AE080
:102C20000E94C20B89E093E00E94E103512CE091E5
:102C30007102F0E0E25FFE4F80818B9DC0011124A4
:102C4000FC01E49DC001E59D900DF49D900D1124C3
:102C50000E943E0C0E945D09E0917102F0E0E25F8B
:102C6000FE4F80818B9DC0011124849DB001859D04
:102C7000700D949D700D1124072E000C880B990B7C
:102C80000E94C9048EEF92E00E94E103EA94E110F1
:102C900094CC54CD84EE92E00E94E1037ACD1123CE
:102CA00009F473CD76CDD11070CD73CD30928D02F5
:102CB00020928C0282CD81E00E947006182F0E9423
:102CC00077078091980261E8813011F061E081E03E
:102CD0000E945506109294022091950280918C02D8
:102CE00090918D0221117CC021E0209392022093CB
:102CF000990220918E0220939B02209193022093AF
:102D00009C022F5F209393021092A00220919802C0
:102D1000211108C0CD9730F08CE390E090938D02A4
:102D200080938C02AEE8B1E09D012E583140809135
:102D30008C0290918D022817390748F48D91E0910B
:102D40009E02F0919F02E20FF31F8083EDCF20914E
:102D50007802211101C004960E949707082F8091E4
:102D60009A02982F906190939A0290917C029923F5
:102D700019F0886180939A0260E88DE00E94550600
:102D8000011142C080917802811113C060919902B3
:102D90000E94550660919A0280E00E94550660915B
:102DA0009B0280E00E94550660919C0280E00E9498
:102DB0005506F12CE12C80918C0290918D02E81641
:102DC000F90610F5E0919E02F0919F02EE0DFF1DB5
:102DD000608180E00E9455065FEFE51AF50AEBCFAF
:102DE000213029F420919D022F5F20939D02209194
:102DF0007802211101C004960E949707082F809144
:102E000095028093A002ABCF612F81E00E9455060E
:102E10000111E4CD80E197E29093B1038093B00378
:102E20000E94FC046B017C01A0E1CA0EA7E2DA1E3D
:102E3000E11CF11C809198028130D1F50E94770746
:102E400063E881E00E94550682E10E947006182F17
:102E500083FD07C00E94FC046C157D058E059F054F
:102E600098F313FF37C08091B2038823F1F0E0900C
:102E7000BF03F090C0030E94440C8091B2038823EA
:102E8000A1F08091B3039091B403A091B503B091E8
:102E9000B6038E199F09A109B1098093B3039093DA
:102EA000B403A093B503B093B6030E94770796CD01
:102EB00063E081E00E9455068FE30E947006182FA0
:102EC00083FDCFCF0E94FC046C157D058E059F0508
:102ED00098F3C7CF01E0E9CF8AEA93E01CCE62E322
:102EE00070E080E090E00E94C90480E090E0892BCF
:102EF00009F47DCA0E945E03882309F478CA0E94FF
:102F0000000075CAEF920F931F93CF93DF93E801F0
:102F100034E047FD34E1042E000C550B57FF03C08D
:102F2000519541955109E32E022F242FAE010E94A5
:102F30004418CE01DF91CF911F910F91EF9008952A
:102F40008F929F92AF92BF92CF92DF92EF92FF92B9
:102F5000CF93DF93EC01688179818A819B81611530
:102F600071058105910521F464E279ED8BE597E027
:102F70002DE133EF41E050E00E94B51B49015A01B9
:102F80009B01AC01A7EAB1E40E94D41B6B017C0158
:102F9000ACEEB4EFA50194010E94E21BC60ED71E51
:102FA000E81EF91EF7FE06C081E0C81AD108E10844
:102FB00080E8F80AC882D982EA82FB82C701B6019A
:102FC0009F77DF91CF91FF90EF90DF90CF90BF90F0
:102FD000AF909F908F9008958F929F92AF92BF92E3
:102FE000CF92DF92EF92FF92609104017091050100
:102FF0008091060190910701611571058105910588
:1030000021F464E279ED8BE597E02DE133EF41E0C7
:1030100050E00E94B51B49015A019B01AC01A7EA8F
:10302000B1E40E94D41B6B017C01ACEEB4EFA501AE
:1030300094010E94E21BC60ED71EE81EF91EF7FE81
:1030400006C081E0C81AD108E10880E8F80AC092F9
:103050000401D0920501E0920601F0920701C70138
:10306000B6019F77FF90EF90DF90CF90BF90AF9029
:103070009F908F9008956093040170930501809351
:103080000601909307010895A9E0B0E0EAE4F8E1B1
:103090000C94ED1B6A01F22EB02E102FFBE3AF2E25
:1030A000A01608F41BE31F5F012F27E0AE014F5F5E
:1030B0005F4F0E94A319BC018981982F99709130AC
:1030C00009F43FC09BE2E1FC04C09E2D9170E0FC3E
:1030D0003AC05E2D5071E82FE87083FF46C084E04F
:1030E000911101C083E0EF2DE81B8F1508F0E0E09F
:1030F000D6018E2F20E2552351F1992329F0D601D4
:103100009C93C60101966C0196012D5F3F4FE2FE34
:1031100024C08EE4D6018C9391E411969C93119770
:1031200012968C93D9018E2F90E281111BC0E20F71
:10313000F32FF11D10828EEF9FEF2996ECE00C9497
:10314000091C9DE2C6CF90E2C4CF2D93815081111E
:10315000FCCFCE0ED11CE0E0D0CF8EE6D6018C9312
:1031600091E6DBCF9D938150E0CF482F447082FFE2
:103170003DC084E0911101C083E08F1510F4EF2D64
:10318000E81BD6018E2F20E2552309F1992329F05F
:10319000D6019C93C60101966C0196012D5F3F4FAD
:1031A000E2FE1BC089E4D6018C938EE411968C93C9
:1031B000119786E412968C93D9018E2F90E2882382
:1031C00009F4B5CF9D938150FACF2D938150811191
:1031D000FCCFCE0ED11CE0E0D9CF89E6D6018C938E
:1031E0008EE611968C93119786E6E4CF9B0177FFCC
:1031F00002C030E020E0A1E0B0E0911102C0B0E0F8
:10320000A0E0F9013196AE0FBF1F8B2C912CBB2093
:1032100009F461C05401EFEFAE1ABE0AAA0DBB1D3E
:10322000FA161B0619F014F04F2D4A1B511188C0D5
:10323000E3FC59C07601A42FB0E2A1114FC0C40E27
:10324000D11C992309F45BC040E0D6011196F60128
:1032500090836D01552309F448C0012F060F9A8110
:10326000582F507184FF03C0913309F40150101698
:103270000CF047C0093008F008E0EEE2FE2E5B01DA
:10328000A01AB10885019194819491082F3F3207CB
:1032900029F4D601FC92F60131966F01621773078B
:1032A00094F1021713077CF5DB01A21BB30BAA24D0
:1032B000A394B12CAC0EBD1EAA0DBB1D11968C9112
:1032C00021503109D601119628153905F4F0F6017F
:1032D00080836D01DBCFB12CA12CA0CFF701B1937E
:1032E0007F01A150AACF9111B0CFD601942F50E306
:1032F00002C05D9391509111FCCFC40ED11C40E0EF
:10330000ACCF01E0BACF80E3DBCF6217730731F4B3
:10331000963388F4953311F4552369F0F6018083D0
:10332000FD01842F90E2811108C0A40FB11D1C92F1
:1033300090E080E002CF81E3F1CF91938150F3CF11
:10334000911183CF8ACF283008F027E03327DA01A4
:10335000990F311D87FD916000966105710539F463
:1033600032602E5F3D9330E32A95E1F708959F3F49
:1033700030F080387105610509F03C5F3C5F3D939A
:10338000913008F08068911DDF93CF931F930F93C6
:10339000FF92EF92192F987F9695E92F9695969523
:1033A000E90FFF27EE53FF4F99273327EE24FF2421
:1033B000A701E70105900894079428F4360FE71E4B
:1033C000F81E491F511D660F771F881F991F06940D
:1033D000A1F70590079428F4E70EF81E491F561F21
:1033E000C11D770F881F991F661F0694A1F70590CE
:1033F000079428F4F80E491F561FC71FD11D880FC8
:10340000991F661F771F0694A1F70590079420F473
:10341000490F561FC71FD81F990F661F771F881F98
:103420000694A9F784911095177041F0D695C79529
:1034300057954795F794E7941A95C1F7E8E6F0E0B9
:1034400068941590159135916591959105907FE25D
:103450007395E118F10A430B560BC90BD009C0F75D
:10346000E10CF11E431F561FC91FD01D7EF470339F
:1034700011F48A95E6CFE894015030F0080F0AF471
:103480000027021708F4202F2395022F7A3328F003
:1034900079E37D932A95E9F710C07D932A9589F603
:1034A000069497956795379517951794E118F10A43
:1034B000430B560BC90BD00998F023957E91739559
:1034C0007A3308F070E37C932013B8F77E91706133
:1034D0007D9330F0839571E37D9370E32A95E1F756
:1034E0001124EF90FF900F911F91CF91DF919927B9
:1034F00087FD909508950E94BD1A08F481E0089513
:10350000E89409C097FB3EF490958095709561957D
:103510007F4F8F4F9F4F9923A9F0F92F96E9BB2733
:103520009395F695879577956795B795F111F8CFAF
:10353000FAF4BB0F11F460FF1BC06F5F7F4F8F4F1A
:103540009F4F16C0882311F096E911C0772321F010
:103550009EE8872F762F05C0662371F096E8862FA8
:1035600070E060E02AF09A95660F771F881FDAF7FF
:10357000880F9695879597F90895990F0008550F2C
:10358000AA0BE0E8FEEF16161706E807F907C0F0E9
:1035900012161306E407F50798F0621B730B840BF1
:1035A000950B39F40A2661F0232B242B252B21F4CB
:1035B00008950A2609F4A140A6958FEF811D811D6B
:1035C00008950E94F41A0C94651B0E94571B38F052
:1035D0000E945E1B20F0952311F00C944E1B0C945E
:1035E000541B11240C94991B0E94761B70F3959F19
:1035F000C1F3950F50E0551F629FF001729FBB27EA
:10360000F00DB11D639FAA27F00DB11DAA1F649F85
:103610006627B00DA11D661F829F2227B00DA11D38
:10362000621F739FB00DA11D621F839FA00D611DBE
:10363000221F749F3327A00D611D231F849F600DDF
:10364000211D822F762F6A2F11249F5750409AF008
:10365000F1F088234AF0EE0FFF1FBB1F661F771F94
:10366000881F91505040A9F79E3F510580F00C945F
:103670004E1B0C94991B5F3FE4F3983ED4F3869560
:1036800077956795B795F795E7959F5FC1F7FE2BFF
:10369000880F911D9695879597F9089597F99F67DB
:1036A00080E870E060E008959FEF80EC08950024CA
:1036B0000A941616170618060906089500240A9497
:1036C00012161306140605060895092E0394000C1D
:1036D00011F4882352F0BB0F40F4BF2B11F460FFAC
:1036E00004C06F5F7F4F8F4F9F4F089557FD9058D5
:1036F000440F551F59F05F3F71F04795880F97FBB6
:10370000991F61F09F3F79F087950895121613066F
:103710001406551FF2CF4695F1DF08C0161617069E
:103720001806991FF1CF86957105610508940895D3
:10373000E894BB2766277727CB0197F90895F99975
:10374000FECF92BD81BDF89A992780B50895262FA6
:10375000F999FECF1FBA92BD81BD20BD0FB6F89476
:10376000FA9AF99A0FBE01960895052E97FB1EF45A
:1037700000940E94CC1B57FD07D00E941E1C07FC22
:1037800003D04EF40C94CC1B509540953095219568
:103790003F4F4F4F5F4F089590958095709561957D
:1037A0007F4F8F4F9F4F08950E94401CA59F900D03
:1037B000B49F900DA49F800D911D11240895B7FF13
:1037C0000C94D41B0E94D41B821B930B08952F9240
:1037D0003F924F925F926F927F928F929F92AF92A1
:1037E000BF92CF92DF92EF92FF920F931F93CF93EE
:1037F000DF93CDB7DEB7CA1BDB0B0FB6F894DEBF85
:103800000FBECDBF09942A88398848885F846E84AA
:103810007D848C849B84AA84B984C884DF80EE80F4
:10382000FD800C811B81AA81B981CE0FD11D0FB6FD
:10383000F894DEBF0FBECDBFED010895A1E21A2EB0
:10384000AA1BBB1BFD010DC0AA1FBB1FEE1FFF1F44
:10385000A217B307E407F50720F0A21BB30BE40B94
:10386000F50B661F771F881F991F1A9469F76095DB
:103870007095809590959B01AC01BD01CF01089595
:10388000A29FB001B39FC001A39F700D811D1124A1
:10389000911DB29F700D811D1124911D08955058E6
:1038A000BB27AA270E94671C0C94651B0E94571B0C
:1038B00038F00E945E1B20F039F49F3F19F426F483
:1038C0000C94541B0EF4E095E7FB0C944E1BE92F6F
:1038D0000E94761B58F3BA1762077307840795078F
:1038E00020F079F4A6F50C94981B0EF4E0950B2EBD
:1038F000BA2FA02D0B01B90190010C01CA01A00142
:103900001124FF27591B99F0593F50F4503E68F19C
:103910001A16F040A22F232F342F4427585FF3CFDD
:10392000469537952795A795F0405395C9F77EF4AE
:103930001F16BA0B620B730B840BBAF09150A1F0F7
:10394000FF0FBB1F661F771F881FC2F70EC0BA0F7D
:10395000621F731F841F48F4879577956795B79505
:10396000F7959E3F08F0B0CF9395880F08F0992700
:10397000EE0F9795879508950E94B41D90F09F379C
:1039800048F4911116F40C94991B60E070E080E803
:103990009FE3089526F01B16611D711D811D0C9477
:1039A0008B1D0C94A61D0E94E71C0C94651B0E94A5
:1039B0005E1B58F00E94571B40F029F45F3F29F02E
:1039C0000C944E1B51110C94991B0C94541B0E9487
:1039D000761B68F39923B1F3552391F3951B550B8F
:1039E000BB27AA2762177307840738F09F5F5F4FD2
:1039F000220F331F441FAA1FA9F335D00E2E3AF011
:103A0000E0E832D091505040E695001CCAF72BD028
:103A1000FE2F29D0660F771F881FBB1F2617370779
:103A20004807AB07B0E809F0BB0B802DBF01FF27AB
:103A300093585F4F3AF09E3F510578F00C944E1B1F
:103A40000C94991B5F3FE4F3983ED4F386957795E9
:103A50006795B795F7959F5FC9F7880F911D969564
:103A6000879597F90895E1E0660F771F881FBB1FC0
:103A7000621773078407BA0720F0621B730B840B6D
:103A8000BA0BEE1F88F7E09508950E947E1B88F020
:103A90009F5798F0B92F9927B751B0F0E1F0660F12
:103AA000771F881F991F1AF0BA95C9F714C0B13053
:103AB00091F00E94981BB1E008950C94981B672F19
:103AC000782F8827B85F39F0B93FCCF38695779582
:103AD0006795B395D9F73EF490958095709561956B
:103AE0007F4F8F4F9F4F08950E94B41D90F09F37D6
:103AF00048F4911116F00C94991B60E070E080E896
:103B00009FEB089526F41B16611D711D811D0C94F9
:103B10008B1D0C94A61D882371F4772321F09850F7
:103B2000872B762F07C0662311F499270DC090517B
:103B3000862B70E060E02AF09A95660F771F881F49
:103B4000DAF7880F9695879597F908959F3F31F09A
:103B5000915020F4879577956795B795880F911DBB
:103B60009695879597F908950E947E1BA0F0BEE771
:103B7000B91788F4BB279F3860F41616B11D672F5C
:103B8000782F8827985FF7CF869577956795B11D31
:103B900093959639C8F308950E94BD1A08F48FEFE3
:103BA00008950E94BD1A880B990B089597FB072E64
:103BB00016F4009407D077FD09D00E94EA1D07FC97
:103BC00005D03EF4909581959F4F0895709561952D
:103BD0007F4F0895AA1BBB1B51E107C0AA1FBB1F43
:103BE000A617B70710F0A61BB70B881F991F5A9589
:103BF000A9F780959095BC01CD010895EE0FFF1FA8
:103C00000590F491E02D09940F931F93CF93DF93C8
:103C10008230910510F482E090E0E091D703F091BA
:103C2000D80330E020E0B0E0A0E0309799F421150F
:103C3000310509F44AC0281B390B24303105D8F569
:103C40008A819B816115710589F1FB0193838283D0
:103C5000FE0111C04081518102811381481759072B
:103C6000E0F04817590799F4109761F012960C93F9
:103C7000129713961C933296CF01DF91CF911F912B
:103C80000F9108950093D7031093D803F4CF211513
:103C9000310551F04217530738F0A901DB019A01B1
:103CA000BD01DF01F801C1CFEF01F9CF9093D80337
:103CB0008093D703CDCFFE01E20FF31F8193919341
:103CC0002250310939832883D7CF2091D5033091F1
:103CD000D603232B41F420910A0130910B0130933C
:103CE000D6032093D50320910801309109012115B5
:103CF000310541F42DB73EB740910C0150910D01B3
:103D0000241B350BE091D503F091D603E217F3079E
:103D1000A0F42E1B3F0B2817390778F0AC014E5F3B
:103D20005F4F2417350748F04E0F5F1F5093D6039F
:103D30004093D503819391939FCFF0E0E0E09CCF37
:103D4000CF93DF930097E9F0FC0132971382128240
:103D5000A091D703B091D803ED0130E020E0109797
:103D6000A1F420813181820F931F2091D5033091DE
:103D7000D6032817390709F061C0F093D603E09302
:103D8000D503DF91CF910895EA01CE17DF07E8F55B
:103D90004A815B819E0141155105B1F7E901FB8321
:103DA000EA8349915991C40FD51FEC17FD0761F4BF
:103DB000808191810296840F951FE9019983888300
:103DC000828193819B838A83F0E0E0E012968D915B
:103DD0009C9113970097B9F52D913C911197CD01C6
:103DE0000296820F931F2091D5033091D603281796
:103DF000390739F6309751F51092D8031092D7034E
:103E0000B093D603A093D503BCCFD383C2834081A4
:103E10005181840F951FC817D90761F44E5F5F4F1A
:103E200088819981480F591F518340838A819B81E2
:103E3000938382832115310509F0B0CFF093D80325
:103E4000E093D7039ECFFD01DC01C0CF1382128225
:103E5000D7CFB0E0A0E0EFE2FFE10C94E91B8C01CA
:103E6000009751F4CB010E94041E8C01C801CDB70C
:103E7000DEB7E0E10C94051CFC01E60FF71F9C0186
:103E800022503109E217F30708F49DC0D901CD9102
:103E9000DC911197C617D70798F0C530D10530F3DC
:103EA000CE0104978617970708F3C61BD70B2297F6
:103EB000C193D1936D937C93CF010E94A01ED6CF66
:103EC0005B01AC1ABD0A4C018C0E9D1EA091D7035C
:103ED000B091D803512C412CF12CE12C109731F5E5
:103EE0008091D5039091D6038815990509F05CC09F
:103EF0004616570608F058C08091080190910901B4
:103F0000009741F48DB79EB740910C0150910D017F
:103F1000841B950BE817F90708F055C0F093D603FA
:103F2000E093D503F90171836083A0CF8D919C91BB
:103F3000119712966C90129713967C901397A81570
:103F4000B90559F56C0142E0C40ED11CCA14DB045A
:103F500020F1AC014A195B09DA011296159780F03D
:103F60006282738251834083D9016D937C93E11403
:103F7000F10471F0D7011396FC93EE93129776CF6C
:103F800022968C0F9D1FF90191838083F301EFCF5F
:103F9000F093D803E093D70369CF4816590608F485
:103FA0002C017D01D3019ACFCB010E94041E7C011C
:103FB000009749F0AE01B8010E94E61FC8010E94B7
:103FC000A01E870153CF10E000E050CFFB01DC01C1
:103FD00002C001900D9241505040D8F70895FB0166
:103FE000DC0101900D920020E1F70895AEE0B0E011
:103FF000ECEFFFE10C94F51B0D891E8986E08C83A4
:104000001A8309838FEF9FE79E838D83AE01475EFE
:104010005F4F6F89788DCE0101960E9419202F8104
:104020003885020F131FF80110822E96E4E00C94DD
:10403000111CABE0B0E0EFE1F0E20C94E71B7C0177
:104040003B018A01FC0117821682838181FFC8C16E
:10405000CE0101965C01F7019381F30193FD8591F7
:1040600093FF81913F01882309F453C1853239F4CC
:1040700093FD859193FF81913F01853229F4B7012A
:1040800090E00E940922E7CF912C212C312CFFE1F6
:10409000F31538F08B3211F190F4803209F183324C
:1040A00029F137FC3CC020ED280F2A3050F536FEB0
:1040B00020C08AE0989E200D1124922E06C08D32D9
:1040C00091F0803371F7689430F8F30193FD859196
:1040D00093FF81913F018111DACF21C0689431F8BB
:1040E000689432F8F2CF689433F8EFCF689434F8DC
:1040F000ECCFEAE02E9E200D1124222E689435F894
:10410000E4CF8E3229F436FC04C1689436F8DDCF52
:104110008C3619F4689437F8D8CF8836B1F2982FD6
:104120009F7D95549330E0F08336A1F18337C1F140
:10413000833509F063C02801F2E04F0E511CF801ED
:10414000C080D180692D70E036FC02C06FEF7FEF38
:10415000C6010E94F3214C01689437F882010AC01D
:104160000C5F1F4FFFE3F98388248394912C650132
:10417000E89437F833FE2DC0522C8114910471F568
:10418000552009F468CFB70180E290E00E9409222F
:104190005A94F6CFF801808189830E5F1F4FE4CFD8
:1041A0002801F2E04F0E511CF801C080D180692D2A
:1041B00070E036FC02C06FEF7FEFC6010E94FE2167
:1041C0004C018201D5CFB70180E290E00E94092224
:1041D0002A942814190409F0B0F7CECFF60137FC61
:1041E000859137FE81916F01B70190E00E9409220D
:1041F00051105A94F1E08F1A9108BFCF843619F00C
:10420000893609F077C0F80137FE6BC06081718193
:10421000828193810C5F1F4FF32DFF763F2E97FF16
:1042200009C090958095709561957F4F8F4F9F4FF6
:10423000689437F82AE030E0A5010E943922C82EA0
:10424000CA188C2C432C36FE0CC0E89440F8C914D4
:1042500040F434FE05C032FC03C0F32DFE7E4F2E29
:10426000892C44FE95C0FE01EC0DF11D8081803348
:1042700009F087C0242D297E422E842D8870582E67
:1042800043FC95C040FE8FC09C2C821418F42C0C6B
:10429000922C981844FE91C0B70180E390E00E94F0
:1042A000092242FE09C088E790E041FE02C088E58D
:1042B00090E0B7010E940922C91408F48AC0CA9488
:1042C000D12C9FEFC91AD90ACA0CDB1CF6018291C6
:1042D0006F01B70190E00E940922AC14BD04B1F750
:1042E0004FCF60817181072E000C880B990B0E5FF8
:1042F0001F4F92CFD32CE894D4F82AE030E08537D2
:1043000039F1232D297FD22E8F3601F148F48835DB
:10431000A9F0F701868197812B96E2E10C94031CAA
:10432000803749F08837A9F7D4FE02C06894D2F8E4
:1043300020E130E00DC06894D4F8F6CF34FE03C01D
:10434000822F8660D82E20E132E002C028E030E0E3
:10435000F801D7FE0FC060817181828193810C5F6B
:104360001F4FA5010E943922C82ECA183D2CE8947F
:1043700037F867CF6081718190E080E00E5F1F4F5A
:10438000F0CF42FC02C0839478CF8394839475CF9E
:10439000842D867809F471CFF6CFB70180E290E0E2
:1043A0000E94092283948214C0F3512C73CF522CA3
:1043B0005818821408F46ECFF8CF842D867809F44B
:1043C0007BCF8BE241FE80E247FC8DE2B70190E0BB
:1043D00071CFB70180E390E00E9409229A946CCFDC
:1043E0008FEF9FEF99CFFC01059061507040011055
:1043F000D8F7809590958E0F9F1F0895FC0161500E
:10440000704001900110D8F7809590958E0F9F1FF6
:1044100008950F931F93CF93DF93182F092FEB016C
:104420008B8181FD09C01FEF0FEF812F902FDF914E
:10443000CF911F910F91089582FF14C02E813F816B
:104440008C819D81281739073CF4E881F981CF01DF
:1044500001969983888310838E819F8101969F8323
:104460008E83E3CFE885F985812F0995892BA1F308
:10447000DACFFA01AA27283051F1203181F1E894EE
:104480006F936E7F6E5F7F4F8F4F9F4FAF4FB1E047
:104490003ED0B4E03CD0670F781F891F9A1FA11D42
:1044A000680F791F8A1F911DA11D6A0F711D811D43
:1044B000911DA11D20D009F468943F912AE0269F08
:1044C00011243019305D3193DEF6CF010895462F67
:1044D0004770405D4193B3E00FD0C9F7F6CF462F48
:1044E0004F70405D4A3318F0495D31FD40524193B1
:1044F00002D0A9F7EACFB4E0A6959795879577956E
:104500006795BA95C9F700976105710508959B01F4
:10451000AC010A2E06945795479537952795BA957D
:10452000C9F7620F731F841F951FA01D0895F8948B
:02453000FFCFBB
:1045320054430000010000000000D903800000B7CE
:104542005E2C2F17180C0C0704003E1F10100809D0
:104552000503010105060708000000009403F402A8
:104562002103FC035203300344030D0A006E616E03
:1045720000696E66006F7666004661696C6564204C
:10458200746F20726561642066726F6D20444854B6
:104592002073656E736F72210054656D7065726170
:1045A200747572653A20005C2125732F2573000013
:00000001FF
