:020000040020DA
:10200000C07B00208D22200093C0200091C02000C2
:1020100091C0200091C0200091C02000000000006D
:1020200000000000000000000000000039D2200085
:1020300091C020000000000057D22000F5C0200011
:1020400007C120000DC1200013C1200019C12000CC
:1020500000000000FBC0200001C1200091C0200052
:1020600091C02000000000000000000000000000FF
:10207000000000000000000091C0200000000000EF
:10208000000000000000000091C0200091C020006E
:1020900091C0200091C0200091C0200091C020007C
:1020A00091C0200091C0200091C0200091C020006C
:1020B00091C0200091C0200091C0200091C020005C
:1020C00091C0200091C0200091C0200091C020004C
:1020D00091C020000000000000000000000000008F
:1020E00000000000000000000000000000000000F0
:1020F0000000000000000000553820006538200076
:1021000000000000000000000000000000000000CF
:1021100000000000000000000000000000000000BF
:1021200000000000000000000000000000000000AF
:10213000000000000000000000000000000000009F
:10214000000000000000000000000000000000008F
:10215000000000000000000000000000000000007F
:10216000000000000000000000000000000000006F
:10217000000000000000000000000000000000005F
:10218000000000000000000000000000000000004F
:10219000000000000000000000000000000000003F
:1021A000000000000000000000000000000000002F
:1021B000000000000000000000000000000000001F
:1021C000000000000000000000000000000000000F
:1021D00000000000000000000000000000000000FF
:1021E00000000000000000000000000000000000EF
:1021F00000000000000000000000000000000000DF
:1022000000000000000000000000000000000000CE
:1022100000000000000000000000000000000000BE
:1022200000000000000000000000000000000000AE
:10223000000000000000000000000000000000009E
:10224000000000000000000000000000000000008E
:10225000000000000000000000000000000000007E
:10226000000000000000000000000000000000006E
:1022700091C02000393720005D372000D92D200083
:10228000D5392000F928200091C0200008B5094B5D
:10229000FF221A600848094A4824E369121A0849CB
:1022A00098470848084AA369121A0021984700F085
:1022B0000DF8FEE7B4200D404040002029420020E8
:1022C0008CDF200030420020BC730020F7B500F006
:1022D00063FC00F01DFD00F079FC00F06DFA01F0E8
:1022E00067FB09F0E4FF00F00BFD00F0C7F80120E8
:1022F00009F0D2FE02F026FB00F03AFC002000F0CC
:1023000055FB012000F052FB4849002000F01AFC68
:1023100002F05EFC62B6042009F0BEFE444809F0FB
:1023200017FF444809F014FF00F0E8F9002002F01C
:10233000FDFC01F027FA00213F4802F08FFB02F07C
:1023400025F909F0D5FE00F06BFD00F087FD07F0E0
:1023500009FF0821684601F071FB9DF807309DF8E0
:102360000670364C43EA07276B4603CB206061605A
:10237000334801F029FD0025615D3248013501F047
:1023800023FD072D2D4EF7D12F4DF1792F4801F068
:102390001BFDEC6A4AF6CD310220A04739460320E6
:1023A000A0471A210120A047694608226B6B0B2029
:1023B0009847274801F008FD264B186809F0C8FE29
:1023C000254801F001FD254B186809F0C1FE24489D
:1023D00001F0FAFC234B186809F0BAFE224A336870
:1023E00013607368536007F0DFFB00211F4802F0A1
:1023F00035FB00211E4802F031FB1E4B01219B687A
:102400008120984709F022FF1B4809F015FF00F0D2
:10241000B5FB022009F040FE00F0B6FB02F0AAFA7C
:1024200010F0FF0FF8D101F057FAF5E78D4B2000BF
:1024300008DA200024DA200088400020B47300204D
:1024400049DA200067DA200038D920006DDA200050
:1024500073DA200090D920007ADA20009CD920007D
:1024600081DA2000C4D9200098690020284100208A
:10247000A840002050D82000F4D9200008B500F072
:10248000DDF8024B00221A7008BD00BFF65A00208A
:10249000024A13781843107000F0F4B8F65A00207E
:1024A000034A137823EA0000107000F0EBB800BF75
:1024B000F65A002020B1012805D1044B1878704746
:1024C000034B186870470020704700BFF75A002080
:1024D00020900D4010B5094A002013780133137085
:1024E000074B197802F092FABDE810400549002325
:1024F000054A0968054802F07FB800BFF75A002076
:10250000AA73002068420020D52420004042002009
:10251000812808B52AD0B0F5807F39D0802839D1FC
:1025200002F008FA1C4B1D4A18701368032123F0AF
:102530000803136052F8203C002023F0080342F8FF
:10254000203C52F81C3C23F0080342F81C3C52F893
:10255000183C43F0080342F8183C042200F0E6FB64
:10256000032200210E4800F083FB13E00D4B0E48C0
:102570001A6829B142F008021A600123036005E0DD
:1025800022F008021A600123C0F88030084608BD16
:10259000064B1960012008BDAA73002020940D404D
:1025A000B125200010940D4000E100E068420020B9
:1025B00008B50F4809F08FFEC8B108210C4809F092
:1025C00078FE0C4B196869B10B4B00221A700B4B4B
:1025D0001B6823B90A4A0B4802F00EF802E00948CA
:1025E00002F04CF8BDE80840074802F071BB08BD96
:1025F0006042002068420020F75A002020900D40E1
:10260000D52420004042002050D82000084A1368FA
:1026100023F00403136052F8203C43F0040342F813
:10262000203C044B00221A60034B01221A707047B1
:1026300020C40D4010C00D40F85A00200D4A0E492C
:10264000136823F0C003136052F8203C43F0C0032A
:1026500042F8203C094B00221A600B6823F010035B
:102660000B6051F8203C43F0100341F8203C044B30
:102670001A60704720A40D4020C40D4000A30D40F7
:1026800040C00D4000F0020202F0FF010B4B12B1FE
:10269000FF221A6000E0196000F0040202F0FF015E
:1026A000074B12B1FF221A6000E0196010F0010020
:1026B000044B1ABFFF221A601860704700A20D4039
:1026C00000A10D4040C00D40044B1868C0F3072026
:1026D000030904BF1030C0B2704700BF1C300D406A
:1026E000054B1868C0F3C21001289ABFC0F1020060
:1026F00040034FF40040704714300D402DE9F0477F
:1027000088B0FFF7E1FF174B48251C68AB68074608
:1027100098476B68804698470546FFF7E1FF0646F5
:1027200000F08EFA814600F097FA824600F044FAF3
:10273000B60A04F00103AD0AC4F340040690039303
:10274000CDF814A0CDF8109002940196009507F0F2
:102750000F03C7F307124146034801F035FB08B0E9
:10276000BDE8F0871C300D408FDA2000F8B500F08E
:1027700081F80F4B0024D3E900673A46B04238BFD6
:102780007A1C15460443C3E90045DFF828E0DEE97A
:102790000001821B61EB070312196B41CEE9002394
:1027A00002F020F818B1BDE8F84001F09FBFF8BD75
:1027B00030420020384200200D4B0E4AE0215A6082
:1027C0000D4A82F82310002207219A6019600B49F4
:1027D0000B6843F001030B60094B1A60042243F8B5
:1027E0000C2C012243F8082C0F22DA62704700BF3C
:1027F00010E000E047E8010000ED00E008200D4097
:102800000C000340034BD3E90023100A40EA0360A5
:10281000704700BF30420020034BD3E90023D00BA8
:1028200040EA4340704700BF38420020054B186023
:102830001C3B1A6842F001021A601A68D207FCD4E5
:10284000704700BF2800034010B5064C236823F0F2
:1028500001032360FFF78AFF236843F0010323602D
:1028600010BD00BF10E000E0014B1868704700BFCA
:102870006C420020074B084A196804331B68126831
:10288000120442EA0323054A0B43106843EA00603E
:10289000704700BF40500D4048500D404C500D4017
:1028A00010B50446104A1368DB07FCD572B6FFF773
:1028B000E1FF231A062BD8BFC41D0C4B220E1A6051
:1028C000C4F3074243F8042CC4F3072243F8082C4E
:1028D000E2B243F80C2C62B6054B4FF400321C6098
:1028E000044B1A6110BD00BF50500D404C500D40BC
:1028F0006C42002000E100E008B500F0D1FF074B7A
:1029000000221A60064B4FF40032C3F89021C3F83E
:102910009020BDE8084002F0D7B800BF6C4200200C
:1029200000E100E0064B1B681B075FBF054B186802
:1029300080F00800C0F3C00048BF0020704700BF0F
:1029400018C0004018D00040164A2C2303FB002377
:102950004FF6BF7270B5DC680546236C62649BB2AB
:1029600013F050020DD0104EA369DB0608D456F8C0
:1029700025301BB12068C0B29847F5E72368F3E71C
:1029800070BD13F4D06F0BD04FF440732363FF235B
:102990006360E36AE262E362236B43F00103236353
:1029A00070BD00BF60D820007042002001282DE9D2
:1029B000F74F064600F2B6802C2545435B4F7C1945
:1029C00094F92080B8F1000FC0F2AC8094F9229005
:1029D000B9F1000FC0F2A680554800F0D7FF554A64
:1029E0007B591168E5680B4313605168636894F97B
:1029F00021A00B4353609168A3685FFA89FB0B43E6
:102A000093600023C5F8C83F23690AEBC8021A6027
:102A100094F92330227D00939DF8003058461946E2
:102A2000019300F08DF9019B08221946584600F0E9
:102A30007DF9414A4FEA0939009959F8020001230A
:102A400003FA01F1014349F802104FEA083858F837
:102A5000020003FA0AF1014348F802105021A96369
:102A6000A96B94F9240041F4D061A9630221696340
:102A70004FF440712963A16900286962E169A96284
:102A80004FF07001E962154616DB94F92510A2F5A6
:102A9000A64241EAC0041C3A1460040362598B4008
:102AA000134363510022C9B2C0B200F03FF9234A78
:102AB000136843F4004313602C2303FB067393F95C
:102AC0002640002C1BDB93F927A05FFA84F85FFAFD
:102AD0008AF9012249464046240300F031F962593F
:102AE000012303FA0AF3134363510822494640467F
:102AF00000F01CF9114A136843F4804313602C233F
:102B000003FB0676F268136B43F00103136396F838
:102B100028300122590903F01F0302FA03F3084A7F
:102B200042F8213003B0BDE8F08F00BF60D820002C
:102B30002529200028200D4020940D4030D0004051
:102B400000E100E001289CBF014B43F820107047D2
:102B500070420020012808D8044B2C2202FB0030D0
:102B6000C3689A699206FCD41960704760D8200047
:102B7000014B00221A60704700500D40014B0822A3
:102B80001A60704700500D40024BA0221A6050227C
:102B90001A60704700500D40014B024A9A6070471E
:102BA00000ED00E000202000024B1868C0F38150C7
:102BB000704700BF04200D4008B5FFF7F5FF024B3A
:102BC00053F8200008BD00BFB8D8200038B5164D16
:102BD000164C2B68012223F040032B60236806214A
:102BE00023F040032360032000F0A0F82B680122AB
:102BF00023F080032B602368072123F080032360E8
:102C0000032000F093F80A4A0A4B0B491A600A683D
:102C10000A4B1340084A002BF9D113685901FCD420
:102C200013685B01FCD538BD20C40D4000C40D40C5
:102C30000101020000200D4004200D4000000101B0
:102C4000034B04481B6803F007031841704700BF9B
:102C500004200D400048E801034B04481B68C3F3FF
:102C600002231841704700BF04200D400048E801CE
:102C7000024B02EBC10243F8220070477842002069
:102C8000F8B507460E46094D002405EB411547FAF5
:102C900004F3DB07E1B204D555F824300BB130461C
:102CA00098470134082CF2D1F8BD00BF78420020CB
:102CB0002DE9F04780464FEA0837DFF8409007F1EA
:102CC000804505F5592500F0EBFDD5F8186457F857
:102CD00009304FEAC80A23FA0AF446EA0400E4B2CB
:102CE0004146C0B2F6B204FA0AF4FFF7C9FFC5F8CC
:102CF0001C6447F80940BDE8F08700BF18970D40F5
:102D000080220021014809F067B800BF7842002006
:102D1000034A044B1A60044B803A1A60704700BFA4
:102D200080400D40FC420020F8420020034B01EBA4
:102D3000C0011B6843F82120704700BFFC420020FF
:102D4000034B01EBC0011B6843F82120704700BF13
:102D5000F84200200E2870B50BD1154B154E1C689B
:102D600044F002051D60356825F03F0343F0010380
:102D70003360114E336823F0FF031A4311430143BC
:102D80000E4A316013681B06FCD50D4B0D4A1B68BB
:102D900012680E2803F0FC0343EA022308BF054A29
:102DA0001BB204BF1560024A184608BF146070BD0C
:102DB00034000144F486084008700D4000700D4056
:102DC0000C700D4010700D40024B1868B0FA80F086
:102DD0004009704700B7084010B5074B4FF4004258
:102DE000064CC3F89021C3F89020206818B101F078
:102DF0004DFE0023236010BD00E100E000430020F1
:102E0000064A136843F002031360536843F0020359
:102E10005360936843F002039360704748200D406D
:102E200007B50C4800F0B2FDFFF7EAFF0A4B1A683D
:102E300042F002021A6000220192019A0F2A02DC7B
:102E4000019A0132F8E71A6822F002021A6003B010
:102E50005DF804FBC92D200054200D40064A13687C
:102E600023F002031360536823F002035360936856
:102E700023F002039360704748200D40084B93F9FC
:102E80000020002A09DB074AED2111601160E321CF
:102E900011601A7862F07F021A700120704700BF3B
:102EA000FC5A0020388808400C4A13689907FCD463
:102EB0000A4B1B685B065FBF094BED221A601A6064
:102EC000084B1B6813B1064BEF221A60064A01201B
:102ED000137803F07F031370704700BF4C860840DF
:102EE000388808402C860840FC5A002038B5A0F1EC
:102EF0000B04E3B20F2B054613D80B4B1B6813F0E2
:102F00003F0302D0FFF7D0FF012304EB8404074AFC
:102F10000B3414600BB1FFF7B1FF054B68B21D70A5
:102F200038BD4FF0FF3038BD488608403C86084029
:102F30002742002010B50B4B1B68990603D1FFF701
:102F40009DFF012300E0002307490A68D207FCD552
:102F5000064A1468C4F300140BB1FFF7A5FF20461E
:102F600010BD00BF48860840648608404C86084073
:102F7000044B186800F02200A0F120035842584189
:102F8000704700BF4C860840024B186800F04000B4
:102F9000704700BF4C86084038B50C46002900F049
:102FA0008880102800F28780DFE800F0090F1A1CE3
:102FB00023394254596F738585787A7C7F003F4B63
:102FC0001B68003318BF012370E03D4B05221B68CE
:102FD00003F07F030B3B93FBF2F30B33DBB265E0B3
:102FE000384B00E0384B1A68043B1B6843EA022365
:102FF0005CE000230B60354B354A1B6803F001038E
:103000000B601268900644BF43F002030B60314B23
:103010001B78002B4BD00B6843F0040346E02E4B8B
:1030200000201B780860002B41D001230B6038BDC5
:103030002A4B2B491A680023D2B201EBC300007956
:10304000904203D8264A52F833302FE001330E2B3A
:10305000F3D127E0234B1B685BB2493B26E0224BB0
:103060001B68990603D1FFF709FF012300E0002345
:103070001E490A68D207FCD51D4A1568493D6DB244
:103080000BB1FFF711FF256011E01A4B93F90030E7
:103090000CE0194B1B7803F07F0307E00B2305E0DE
:1030A0001A2303E06FF0170300E0072323600020DA
:1030B00038BD022038BD012038BD00BF2C86084035
:1030C0003C860840CC850840D485084000860840EE
:1030D00024860840FB5A00202642002040860840F3
:1030E000C8D82000588608404886084064860840B2
:1030F00060860840FA5A0020F95A002038B5054683
:103100000C46134A13689B07FCD4124B93F900300A
:10311000002B01DBFFF7B2FE0F4BEE221A60691E97
:103120001A60A21C43F8102C2144022000F044FB3A
:10313000013C0A4924012143022000F04FFB0220F8
:1031400000F056FB022000F06BFB002038BD00BFF2
:103150004C860840FC5A00203888084002C001C054
:10316000F8B5214B93F90030002B0DDBFFF782FB04
:103170000546FFF783FE6FF00904641BFFF77AFB37
:10318000C442FBD4012600E00026184B1B7823B96B
:10319000174D2B68990604D405E0FFF7CBFE0028F5
:1031A000F6D10220F8BD134CE923236004272B68D5
:1031B0009A0707D4013F17F0FF0703D00620FFF757
:1031C00035FBF4E72B689B0704D4EE2323602360D0
:1031D000012403E02C6814F00204FBD10EB1FFF7C8
:1031E00063FE2046F8BD00BFFC5A002026420020A6
:1031F0004C86084038880840214B1870002834D08D
:10320000204A13681B03FCD51F4B1A6842F00202C8
:103210001A601A6842F001021A601A681A495007C7
:10322000FBD50A6822F001020A601968164A4907AC
:10323000FBD4116841F002011160116841F00101F5
:1032400011601A685207FCD5104A136823F0040372
:103250001360D2F8A83123F00403C2F8A8310C4B54
:103260004FF40052C3F890207047084A136843F0A7
:1032700004031360064B4FF400521A61704700BFFD
:10328000FB5A002004200D40048808408C8608402A
:1032900000E100E010B50C46072861D8DFE800F037
:1032A000040E181C233F455B012902D1FFF7E6FD00
:1032B0004BE0002958D1FFF7F7FD46E0A1F10B03E1
:1032C0000F2B51D8C8B2FFF711FE01303DD149E0B4
:1032D0008CB2E2B2254B02E08CB2254BE2B2240A5A
:1032E0001A605C6031E031F007033DD1214B11F0F1
:1032F000010F1A68C1F3800014BF42F0010222F0EE
:1033000001021A601C4B11F0020F1A6814BF42F040
:10331000200222F020021A60FFF76EFF15E031F064
:10332000010021D1154B197010BD01F118031F2B9D
:103330001AD813490D2351F83300DA00844206DC11
:103340000F4B13441A790F4B1A60002010BD13F174
:10335000FF33F0D2F9E7CCB20B4B49341C60F4E7F1
:10336000012010BD032010BD022010BDC8850840FB
:10337000D085084000860840248608402642002068
:10338000C8D8200040860840588608400B280DD138
:10339000082A0DD161B1074B074A083111F8010D18
:1033A00043F8040F9342F9D1002070470120704781
:1033B00002207047A4850840C485084070B52F4D91
:1033C0002B6813F0400308D02D4E3368DCB21B0687
:1033D00005D52C4BED221A601A60002070BD042C1C
:1033E000F7D9023C8C42F4DCE4B2032C21D0011961
:1033F0000139032000F0E8F9631E23491B0119433A
:10340000032000F0EBF9032000F0F2F9032000F0B4
:1034100007FA032000F010FA0028FAD131681B4B9C
:10342000493949B219703368194E18063370D0D52E
:1034300006E0336803703368437033688370EDE7E8
:1034400089B2042006F064FE3178032001F07F0188
:1034500006F05EFE0F4B1B7873B92B685A060BD52E
:10346000064B1B681B0603D50B4801F00FFB03E05E
:10347000044BED221A601A60204670BD4C8608404D
:10348000288808403888084002C0010CFA5A0020F9
:10349000F95A0020FB5A002050400020F8B5294F6F
:1034A0003D7815F001054BD1274B01241C605C6071
:1034B0009C60A3F59323A3F51473F8221A600922E4
:1034C000C3F89021152270331A6003F59B230B2259
:1034D00003F59E731A60A3F59B23A3F5F0734022B6
:1034E0001A601A687F2642F020021A60D52243F83B
:1034F0001C5CDE62DA61154B1878FFF7F7FC144BA1
:103500004FF480421E60134B02201A6100F07CF9D8
:103510001149022000F058F9032000F075F90E4916
:10352000032000F049F90D4B1878FFF765FE294696
:103530000B4801F093FA3B78204623433B70F8BDDB
:103540000020F8BDFC5A0020A8200D402742002092
:103550009486084000E100E028880840FB5A0020DB
:103560005040002038B503880446CBB140F20342F6
:10357000934203D000230380032038BD194B1878F1
:103580001A4628B11B7873B1174B1B7858060AD519
:10359000822908D1137843B1134B1A78520614D4F8
:1035A00040F203432380012038BD06F057FD06F0AA
:1035B000EBFC8021FFF702FF0028EDDD80B206F072
:1035C000C7FC0A4B1B699847E6E700221A70084BB4
:1035D0001D68FFF769FCFFF761FFAB06E0D0FFF75E
:1035E0004DFCDDE7FB5A0020FC5A0020C4D9200026
:1035F000488608400B282DE9F84F0E4610D1082ABE
:1036000040F0828000297FD0414B424A4E1E53F841
:10361000041D934206F8011FF9D10020BDE8F88F80
:103620000C286ED1042A6FD100296DD03A4B3B484B
:103630001A68DFF8F8C022F007021A600268DFF8A3
:10364000F0A042F008020260DAF80040DCF8001056
:103650001A68DFF8E0E022F07002314F1A60DEF8FD
:1036600000203D68E4B2090244EA056401F47F41A8
:103670001204214302F47F020A432A490024D1F8AC
:1036800000805FFA88F544EA02081A68A94622F029
:10369000070242F001021A60026842F0080202606A
:1036A000DAF80000DCF800201D68C0B225F07005D3
:1036B00045F010051D60DEF800303D68120240EA5A
:1036C000056002F47F421B04024303F47F031343AB
:1036D0000A6844EA030A5FFA82FBFFF7CBF8B8EB0B
:1036E0000A0869EB0B094FEAC93105460E4A002367
:1036F0004FEAC83041EA584108F0D2F8281A306041
:103700008BE70120BDE8F88F0220BDE8F88F00BFED
:10371000C8850840A88508401088084004880840EB
:10372000208808401C8808400048E80118880840A4
:10373000148808402488084008B5054B1B7813B945
:10374000044801F0A3F9044B00221A6008BD00BF31
:10375000FB5A00205040002034880840064B0748A0
:103760001A68042A1FBF06490A7842F040020A700C
:1037700000221A6001F08AB92C88084050400020CD
:10378000FC5A002010B5094C40220021204608F0C8
:1037900023FB074B01221A605C60064B4FF480420A
:1037A0005A604FF400425A6010BD00BF0040002034
:1037B00004F00F4000E100E003289EBF014B000130
:1037C000195070470040002003289EBF024B03EBB6
:1037D00000104160704700BF0040002003289EBFDA
:1037E000024B03EB00108160704700BF00400020D7
:1037F000032806D8034901220B6802FA00F0184397
:103800000860704728F00F40032806D803490122BA
:103810000B6802FA00F018430860704720F00F4070
:10382000032806D8034901220B6802FA00F0184366
:103830000860704714F00F4003289FBF044B03EB50
:103840000010806800F0070088BF0020704700BFAC
:1038500000400020024B4FF0FF321A60704700BF5B
:1038600004F50F40014B01221A6070474CF00F40E5
:10387000094A1368084913F4801FFAD1074B1A68E4
:1038800022F480321A600A68D203FCD41A6842F427
:1038900000321A60704700BF04200D4000200D4028
:1038A00010B50B4B1A681C4612F0030F0ED00949D5
:1038B0000B68084A13F0806FFAD113685B01FCD5DE
:1038C000FEF7C2FFFFF7D4FF0023236010BD00BF47
:1038D00058200D4004200D4038B5264B1C6814F0CC
:1038E0003F0413D1244D55F8243023B1984768B1D3
:1038F0000134052CF7D1214D2B783BB1FEF7B4FFF5
:103900000446FEF7B7FF201A092801D830BF38BD9A
:10391000002CFBD01A4B1B481A6822F400321A60A4
:103920000268184912F4801FFAD11A6842F48032F2
:103930001A600B68DB03FCD5FEF79CFF201A0928F0
:1039400003D8BDE83840FFF793BF63280E4C02D977
:103950002B78022B00D00123236001F04DF820B119
:10396000FFF786FF0023236038BDFEF77DFF0028A8
:10397000CCD1F5E74886084004430020FD5A0020DA
:1039800000200D4004200D4058200D400749002321
:1039900051F82320824207D01AB9044A42F8230082
:1039A00070470133052BF3D1704700BF044300205B
:1039B000054B00221A60054A136943F004031361A2
:1039C000034B02221A70704758200D4000ED00E0B2
:1039D000FD5A002010B5074B4FF48032064CC3F857
:1039E0009021C3F89020206818B101F04FF800230F
:1039F000236010BD00E100E01843002070B50E4CBC
:103A0000054626784EB9C0213046FFF7A3F80D21B0
:103A10003046FFF79FF801232370E9B20020FFF73B
:103A200099F80A2D05D1C0210020FFF793F8002353
:103A30002370284670BD00BFFE5A002030B5184BD9
:103A40001A78431E22B101F520112731154A1FE0D3
:103A5000154A1278122AF6D1144A12784B2AF2D15A
:103A60004A0802F12814B4F1281F04D014F8015DAB
:103A700003F8015FF7E701F5201127310023104417
:103A8000934204DA11F80149C4540133F8E730BD18
:103A9000914204D011F8010903F8010FF8E730BD95
:103AA0002B002800270028002A00280029002800D1
:103AB00001490020FFF746B8213D20002DE9F84FCD
:103AC000038805463BB1B3F5A57F13D000230380DF
:103AD0000320BDE8F88F724A1380724A1380724A3D
:103AE0001380724B01221A704FF4A5732B800120B2
:103AF000BDE8F88F82294FF0010040F0CE806C4B7A
:103B0000694E18706648338801888B4200F0B68091
:103B10000DD30022144640F2235840F21459DFF826
:103B2000A4E1644F4FF0C00A4FF0DB0B3BE0DFF83D
:103B300094E140F21558F4465E4F00244FF0C0095E
:103B40001EF803204FF0DB0ADB2A1FBFE2550134C9
:103B5000A4B2002208BF012201339BB2994265D969
:103B6000444501D1002461E0002AE9D01CF803207B
:103B7000DD2A02D104F807A003E0DC2A03D104F80F
:103B800007900134A4B20022E6E74C451FD86AB979
:103B90001EF803C0BCF1DB0F17D004F807C00134D6
:103BA000A4B201339BB24345EFD911E01EF80320C4
:103BB000DD2A02D104F807B003E0DC2A03D104F8BF
:103BC00007A00134A4B20022EBE70122E9E70024B8
:103BD00040F21458DFF8ECE0364F00234FF0C009F4
:103BE0004FF0DB0A1FFA83FC61451FD94445B9D861
:103BF0006AB11EF80320DD2A02D104F807A003E011
:103C0000DC2A0ED104F807900134A4B209E01EF8B2
:103C100003C0BCF1DB0F06D004F807C00134A4B226
:103C200002E0002200E001220133DBE740F22453EE
:103C3000013189B2994204BF00230380194B18BF98
:103C40000180028819888A4225D0174640F2245CF8
:103C5000DFF870E03B4699421DD01EF80370C02F7C
:103C600005D103801448328000F010FF07E00133D3
:103C70009BB263454FF00007EDD1EBE700240F4BFB
:103C80001C80002C3FF430AF0D4B1B6803B19847EC
:103C900004F04AF928E73280F1E7BDE8F88F00BF69
:103CA000025400200054002004540020FF5A002039
:103CB000AF730020A0690020604000208C690020C4
:103CC0001C430020005B0020014B1860704700BFC0
:103CD0001C43002070B5C02008F04AFA0E4D0F4E6C
:103CE00000242A88A3B29A4210D9A05DC02804D12A
:103CF000DB2008F03DFADC2004E0DB2802D108F0EC
:103D000037FADD2008F034FA0134EAE7C02008F081
:103D10002FFA002070BD00BF8C690020A069002030
:103D200038B5234B1A781C46022A06D0032A12D132
:103D3000C02804BF01221A7038E000F12402D2B278
:103D4000012A06D903221A701A4B1A881A4B1A80B4
:103D50002CE0012302E0DB2801D10223237040F292
:103D60002455154B1A88511C89B2A94208BF00215D
:103D7000198012491B880D880F49AB4205D10323D6
:103D800023700C4B1B880B8010E00D4BC0289854FF
:103D90000CD1084B1888824207D08542094808BFD9
:103DA0001A8000F073FE012038BD0A80002038BD63
:103DB000FF5A002002540020005400200454002028
:103DC000005B0020604000200FB407B504AA52F841
:103DD000041B0448019200F035F803B05DF804EBD1
:103DE00004B07047704000201FB51446074A8DE8A4
:103DF0000300029221461A4602A8CDF80CD000F02A
:103E000021F8009B00221A7004B010BDF7C12000F9
:103E100070B505460C46102C07D92B6810220849AE
:103E20006868984750B9103CF5E734B12B682246D2
:103E300068680349BDE870401847204670BD00BF60
:103E4000BBDB20002DE9F04F064615468FB00691EA
:103E50004FF0000B069B1B78CBB1069C274617F84A
:103E6000013B1BB1252B14D03C46F7E7069BA34230
:103E70000DD0069B0699C3EB040842463368706870
:103E80009847002840F01F832378C34423B958463D
:103E900034E3069BA342ECD16378002BF7D039467C
:103EA0000024084610F8013B0A462B2B11D006D8F7
:103EB000202B11D0232B12D144F0080416E02D2B17
:103EC00004D0302B0BD144F010040FE044F0010477
:103ED0000CE044F0060409E044F0020406E0A3F11B
:103EE0003107082F11D84FF0000801E00146D8E74C
:103EF0000A4611F8013BA3F13000092813D80A2221
:103F000002FB0838A8F13008F2E72A2B09D12B6808
:103F10000246002B05F10405B8BF44F001049846A1
:103F200001E04FF0000813782E2B1AD15178531C62
:103F3000A1F1300009280ED8194600270A780B464F
:103F4000A2F13000092801F101010DD80A2303FB79
:103F50000727303FF2E72A2904D12F68931C043544
:103F600002E013464FF0FF371A786C2A09D15A78CD
:103F70006C2A02D144F080040AE0013344F060046A
:103F80000BE0682A09D15A78682A03D144F020044A
:103F9000023302E0013344F040041A78642A3CD032
:103FA0001FD8462A48D00DD8252A5AD003D8002A2F
:103FB0003FF46DAF57E0412A4AD0452A53D144F42B
:103FC000424450E0582A31D004D8472A4BD144F417
:103FD000A13448E0612A38D0632A44D144F4A06473
:103FE00041E06E2A3AD007D8662A22D027D3672A22
:103FF00028D0692A11D036E0732A2CD006D86F2A2F
:1040000011D0702A2FD144F440742CE0752A07D0C7
:10401000782A28D144F4C85425E044F4245422E0FA
:1040200044F410641FE044F488541CE044F4B244A7
:1040300019E044F4007416E044F4844413E044F4BA
:10404000024410E044F481340DE044F4C1340AE049
:1040500044F4E13407E044F4806404E044F4E064B0
:1040600001E044F4C0640133069304F4E063B3F563
:10407000806F00F08F8113D8B3F5807F27D0B3F520
:10408000407F7FF4E7AEAE4B14F4804FAD4A18BFCB
:104090001A460DF133032868002104351F46B5E1A7
:1040A000B3F5C06F08D0B3F5E06F00F02282B3F52E
:1040B000A06F7FF4CFAEF2E133680122A2497068AD
:1040C0009847002840F0FF810BF1010BC2E6002F5A
:1040D000ACBF24F01004012714F40053079304F03C
:1040E000E0032ED0402B12D005D8ABB1202B21D12C
:1040F00095F900200DE0602B0ED0802B1AD10735EA
:1041000025F0070303F10805D3E9002307E0B5F91B
:104110000020D317043502E02A680435D317002A9B
:1041200073F1000108DA524263EB4303CDE9002347
:10413000012304E000220023CDE90023002305939E
:1041400029E0402B13D004D8BBB1202B1DD12A78F5
:104150000EE0602B11D0802B17D1073525F0070317
:1041600003F10805D3E90023CDE900230BE02A88F9
:104170000023CDE90023043505E02B680022194611
:10418000CDE900120435079BD9E7002305930022EF
:104190000023CDE9002304F4C053B3F5805F0CD0B5
:1041A000B3F5C05F33D0B3F5006F4FD1DDE9002325
:1041B0000DF13609CDE9022304E0DDE900230DF11C
:1041C000360915E0DDE9022313433AD0DDE90201A7
:1041D0000A22002307F064FBDDE90201303209F80E
:1041E000012D00230A2207F05BFBCDE90201E9E77C
:1041F00052EA030125D002F00701303109F8011D10
:10420000D10841EA4371D8080A460346F0E74C4B0F
:1042100014F4804F0DF136094A4918BF1946DDE9FB
:10422000002352EA03000CD002F00F00085C4FEAB2
:10423000131E09F8010D100940EA03700246734687
:10424000EFE70DF13603C9EB030302E00DF1360988
:1042500000230293029B41F60802BB4238BFFF1ABB
:1042600041F2080302EA040228BF00279A4202D161
:10427000002F08BF012741F60801029B8A4203EB89
:1042800007000DD1DDE90023134309D02F4A30493F
:1042900014F4804F4FF0020A0CBF0B46134602E0A5
:1042A0004FF0000A5346079A9AB1059A52B904F0A2
:1042B0000602022A0AD0062A264A04BF4FF0010A43
:1042C000134606E04FF0010A234B02E0234B4FF068
:1042D000010A0AEB000290458CBFC2EB08084FF0C0
:1042E000000814F0010200920DD1E10602D5474406
:1042F000904608E0414630460593FFF789FD059B4F
:10430000002840F0E080BAF1000F07D03468524630
:1043100019467068A047002840F0D580029B03EB47
:104320000B04BB46BBF1100F33681BD910220C499C
:1043300070689847002840F0C680ABF1100BF1E799
:1043400086DB200097DB2000B9DB2000ABDB200000
:10435000A8DB2000B0DB2000AEDB2000DADC200090
:10436000CBDB2000BBF1000F06D05A4665497068D0
:104370009847002840F0A7803368029A4946706841
:1043800054449847002840F09E80009B3C44002BFA
:1043900039D032E0D5F800900435B9F1000F0AD0D9
:1043A000CA469AF800300AF101020BB19246F8E7CA
:1043B000C9EB0A0A03E0DFF850914FF0060A002F1C
:1043C00002DBBA4528BFBA46D0458CBFCAEB080805
:1043D0004FF0000814F0010705D141463046FFF7C1
:1043E00017FD00286FD133685246494670689847D8
:1043F000002868D10AEB0B042FB141463046FFF785
:1044000007FD00285FD108EB040B23E550EA010EFD
:104410000ED000F00F0E12F80EE04FEA111C03F858
:1044200001ED4FEA101E4EEA017E70466146EDE74F
:10443000FF1A02BF3022012703F8012C07F10307FE
:1044400008BF03F1FF337822B84503F8012C4FF081
:10445000300203F8022C88BFC7EB08084FF0230294
:1044600098BF4FF0000814F00104A3F1030903F80A
:10447000032C04D141463046FFF7CAFC18BB336811
:104480003A46494670689847E8B95F4424B14146C6
:104490003046FFF7BDFCB0B908EB070BDAE4B8F122
:1044A000010F2B688CBF08F1FF384FF0000814F0A3
:1044B000010405F104058DF8203008D1414630464D
:1044C000FFF7A6FC10B14FF0FF3017E0C34433688C
:1044D000012208A9706898470028F4D108F1010763
:1044E0002CB141463046FFF793FC0028EBD1BB448A
:1044F000B0E42B680435C3F800B0ABE40FB0BDE8FE
:10450000F08F00BFCBDB2000B2DB2000F8B50388C2
:10451000064615462BB14A2B15D0002303800320F5
:10452000F8BD174807F0E8FE04462CB1A168201D2D
:1045300007F08DFE2468F8E7124B01221A704A2317
:1045400033800120F8BD8829FBD10D4807F0D4FE47
:104550000446002CF3D0231D9D420ED1214608486D
:1045600007F0D4FE084B62691F681A60A2691D46F5
:104570000AB1E06990472F60E1E72468E9E700BFEE
:1045800020430020246000202C43002010B5064B5F
:10459000002406481C7007F0ACFE2146BDE8104020
:1045A000034800F05BBA00BF2460002020430020D5
:1045B0007840002070B50446E3610B4B049D1B78E6
:1045C0006561A26143B1094D094B2E68201D2B6026
:1045D00007F03DFE2E6000E0A1602146BDE870407E
:1045E000044807F0A6BE00BF246000202C43002032
:1045F000784000202043002013B5034C2468009429
:10460000FFF7D8FF02B010BD2C43002070B5094B56
:1046100005461B783BB1084C084B266804302360E4
:1046200007F01EFE26602946BDE87040044807F0EA
:1046300080BE00BF246000202C4300207840002072
:104640002043002070B5094B05461B783BB1084C50
:10465000084B26680430236007F00BFE26602946CD
:10466000BDE87040044807F064BE00BF246000202D
:104670002C430020784000202043002010B5084B38
:1046800004461B781BB1043000F0B4F801E0C360AD
:1046900003612146BDE81040024807F037BE00BF65
:1046A000246000202043002010B50E4C236813B96D
:1046B0000D4A136010BDFEF7A5F8216891E80C00C3
:1046C0001A44131A8A6842B192E812002144091A66
:1046D0008B4228BF0B469268F5E71844024B1860DE
:1046E00010BD00BF2443002028430020014800F0F3
:1046F000CDB900BF884000202DE9F8430388054666
:1047000033B1592B0BD0002303800320BDE8F8837D
:10471000234A136059232B800120BDE8F8838729A1
:1047200024D08229F6D11E4F4FF00008B9463C68CC
:104730000026002CEED0204607F0CDFD98B1224691
:104740008821E06800F062F958B9E060A3680EB112
:10475000B36001E0C9F80030C4F80880FFF7A4FF97
:10476000E5E7FFF7C3FF2646A468E2E70C4900200F
:104770000B681BB90028CDD00B60CBE7DC68A242E8
:1047800002D19B680120F4E700B10B609968002911
:10479000C0D0C86882420ABF89680B469960F5E7B5
:1047A0002443002010B50446FFF7A0FFE3680B4A3E
:1047B0004BB113683BB1A34203D1094A1268DA60D6
:1047C00007E09B68F6E7064B1B68E360136814601C
:1047D000A360BDE81040FFF767BF00BF244300207F
:1047E0002C430020024B1868003018BF012070478E
:1047F0002443002010B50B4A04461368834206D1B7
:104800008368136008E09A68944203D01346002B33
:10481000F9D103E0A2689A60FFF746FF0023A36086
:10482000E36010BD2443002010B50446FDF7F4FFFB
:1048300094E80C001344C01A024B98428CBF00202D
:10484000012010BDFEFFFF7F38B5836804460D468A
:104850009BB10A4804600220A07304F10C00984741
:104860000238012801D9832D05D121462046BDE813
:10487000384000F005B80123A37338BD2C43002055
:104880002DE9F8431C4A0446156889462B46904694
:104890001A4E3768A34204D00BB11B68FAE7BDE893
:1048A000F88334B3A37BABB10023A37345B1A54216
:1048B00004D022468721284607F0F3FC2D68F5E74F
:1048C000A3683BB14C4505D034602A46832104F1EE
:1048D0000C009847D8F800309C4203D12268064B60
:1048E00005E0134623B11A689442FAD122681A608F
:1048F0003760BDE8F88300BF304300202C43002020
:10490000002370B51D46094A01261370084A146831
:1049100054B1E37B33B1A673E573002282212046B4
:10492000FFF792FF2468F3E770BD00BF2760002007
:1049300030430020024B1878421C1A70704700BFA9
:1049400028600020064B8A221A70064A0023137042
:10495000054A1370054A1360054A1360704700BF8B
:1049600028600020256000202660002030430020C1
:104970002C4300202DE9F0411A4D2B780BB1FFF7A5
:10498000BFFF194C22783AB3184E0C213378184FD8
:104990005943781817F8018001334768806803F09D
:1049A0001F03013A3370227068B9124B1E689EB122
:1049B0002B780BB1FFF7A4FF30463A46414607F08B
:1049C00070FC3668F3E7B8F1810F04BF01238373ED
:1049D0003A46414607F065FC2B7820781844BDE83C
:1049E000F08100BF276000202660002025600020A5
:1049F0003443002030430020024A034B10781B78D8
:104A0000184470472660002027600020F0B50B4E48
:104A10003378202B0FD00A4C0C252478094F1C44E6
:104A200004F01F046C4301333D19A86039556A60D6
:104A300033700020F0BD0120F0BD00BF26600020D3
:104A4000256000203443002038B5034C256807F06A
:104A500028FC256038BD00BF2C43002030B40A4C30
:104A60000A4625682B4683420CD00BB11B68FAE737
:104A700040B101210560817320608381812130BCB8
:104A8000FFF7E2BF30BC70473043002038B1837B72
:104A9000013B012B9FBF024A0123C3731370704770
:104AA00027600020024610B5064853600468029B48
:104AB00011609360026014B90846FDF7F1FE002012
:104AC00010BD00BFB444002010B5084C206858B198
:104AD00000232360816843689847236823B1BDE8B9
:104AE00010401868FDF7DCBE10BD00BFB4440020C4
:104AF00070B505880446672D09D0792D30D0002D7A
:104B000034D1FFF717FF1C4B18701C4B1D601B4D59
:104B10002E461B4807F09CFC431C01D167231DE077
:104B20000A28164A07D02B687E2BF2DC5A1C32600A
:104B3000144AD054EDE713680025591C1160114A3E
:104B40002846D5540C4B1978FFF760FF0E4B2A46C8
:104B500085211868FFF75AFF20B97923238009E0DF
:104B6000852907D1054B00221A60D0E70023038076
:104B7000032070BD012070BDB0730020C044002030
:104B8000B8440020AA6000202C4300200D2810B556
:104B9000014615D00B4C23782BB90B4807F045FC88
:104BA00048B9012306E00A2805D1074807F03DFC73
:104BB00008B1002323700548FFF768FF012010BDEE
:104BC000002010BDA9600020B844002098400020BB
:104BD00008B505490548802207F020FCBDE80840DB
:104BE00000210348FFF73ABF29600020B8440020A5
:104BF000984000202DE9F04106880546772E31D0F7
:104C00007E2E40D0002E4ED12B4CFFF793FE266017
:104C100026462A4B2A4FDFF8B0801870236857F8D1
:104C200023204AB1002108F8031093688020984798
:104C3000336801333360F1E7224A1370772320E0B1
:104C4000214AD256002A12DB1B4A13680133136033
:104C5000194B1C4A1B6812789A42F1DC1B4B1B68EB
:104C6000002BEBD0194A00231360134AEFE7144AD4
:104C7000002052F82320114B1978FFF7C7FE30B9F6
:104C80007E232B8014E00D4B1B788B4210D10A4BF6
:104C90000D491A688B5C03F07F038B540B4A136831
:104CA00001331360D0E7002303800320BDE8F081C7
:104CB0000120BDE8F08100BFC4440020B173002092
:104CC000404000202A610020AB730020C84400202F
:104CD00010B40A4B0A491A780023934203DA51F8B8
:104CE0002340A04208D107490748CA5C62F07F020E
:104CF000CA5410BCFFF7CABE0133EEE72A61002098
:104D000040400020AB730020A8400020054A1368F3
:104D100043F004031360044B1B68906943EA0020CE
:104D200080B2704700700D4014700D4010B5184AE5
:104D3000136823F00C031360164B01221A601A68E3
:104D4000012AFCD1144B08221A60E322C3F8142272
:104D500003F505731946114A1368DB07FCD5104C9F
:104D6000102000232268013802F0010243EA020306
:104D70004FEA43039BB2F5D1002BF1D0094A180A40
:104D800003F0FE0310601360EF230B6010BD00BF43
:104D900000700D40A8200D4024860840648608401D
:104DA0009C86084014700D402DE9FF47224C234D8E
:104DB00004F108030FCB8DE80F002B786F4694F8B1
:104DC0000780BBB11E493A22A2710A88D21A92B258
:104DD0000A80A2F128010812207103F12800204462
:104DE000C3F1040361712C3A011D184406F090FFD1
:104DF00000232B70134807F07FFA0646DFF840A027
:104E00009EB1D6F80490B9F1000F09D0BAF800307D
:104E10002A782C3B22449BB2383241463846C84758
:104E2000304607F0A2FA0646EAE7054B2E701E80D0
:104E300004B0BDE8F08700BFA06900204D610020EC
:104E40008C690020CC440020F8B52C4B2C4C1B79ED
:104E500004F11806E371237E04F10805FF2B08D145
:104E600095E80F0086E80F003146284600F0BCFAAE
:104E70001BE02F46B646234A3B4603CB73451060E2
:104E800051601F4602F10802F6D196E80F0085E84E
:104E90000F001C4B1C4D03F110062A461868596878
:104EA000083303C2B3421546F7D1184D2B78BBB176
:104EB00017493A22A2710A88D21A92B20A80A2F144
:104EC00028010812207103F128002044C3F10403D3
:104ED00061712C3A011D184406F01AFF00232B7053
:104EE0002B7881222833E518E25400236B706B8005
:104EF00007F030FBC0436880F8BD00BF2068002089
:104F0000A069002006540020B86900204D610020EF
:104F10008C69002038B504460B480D4607F0ECF9C3
:104F200050B10379A34204D143799D4206D0FF2BAF
:104F300004D007F01AFAF3E7012038BD8368002B8C
:104F4000FAD09847002038BDD044002001460148DF
:104F500007F0EFB9D04400202DE9F74F474D8246C6
:104F60002B7889469346464C43B12833E35C3A2B71
:104F70000BD1444A002313802B707CE0A3793A2B99
:104F800003D194F92830002BF3DA3F4E04F0F4FB00
:104F900037463E4A06F1100E334603CB7345106088
:104FA00051601E4602F10802F6D1364EDFF8D0807D
:104FB0003388414630339BB2B3F5A06F88BF4FF4BE
:104FC000A063338032882B78D21A04EB4300303A46
:104FD0003030019306F09CFE6022019B227000227B
:104FE000627062803A2213B188F8282001E088F8C4
:104FF0000620274A224B1279E271228972B95A8916
:1050000062B99A8952B9DA8942B91A8A32B95A8A86
:1050100022B99A8A12B9DB8A002BAAD01D4B0FCB7A
:1050200087E80F00194B1B78FF2B05D1BAF1040F4D
:105030009FD1B9F1020F9CD11449164800F0D4F960
:105040002F78584607F12803E21804F803A082F8E5
:10505000019007F088FA33882C37283BE0511A1268
:1050600063712B78227128331C440023638007F07E
:1050700071FAC043608003B0BDE8F08F4D6100203D
:10508000A06900208C690020B86900200654002027
:1050900020680020A86900202DE9F0411E460F4637
:1050A0001B4905460C4660230B7000234B704B8058
:1050B0003A238B71174B90461B7900F1100ECB7180
:1050C000331D1A120A714B7101F118021346286838
:1050D0006968083503C375451A46F7D10E492C3661
:1050E000A1F1100000F080F90C4B1B782833E51873
:1050F000E75400236B8085F8018007F02BFAC0434A
:10510000074B68801E80BDE8F04102F01FBF00BF62
:10511000A069002020680020B86900204D610020AF
:105120008C69002008B50448FFF710FFBDE808406F
:105130000248FFF70BBF00BFB8400020C44000206A
:105140002DE9F341154D009104460E4690461F4649
:105150000195034620220321114807F089F901280F
:105160002B4616D12A6804F11001107020462A68D7
:10517000023250F8044B884242F8044BF9D11868C7
:10518000089B86744361099B80F8138007778361CD
:1051900000E0002002B0BDE8F08100BFD84400204C
:1051A0001C690020F8B507460B4B0C4D03F1600657
:1051B0002B602C68B4420BD2237833B1A27C3946E1
:1051C000D208A01C06F0FCFC20B120342C60F0E7D3
:1051D0000020F8BD0120F8BD1C690020D844002043
:1051E00013B5084C80230093019403462022032129
:1051F000054807F03DF908B9206800E0002002B03A
:1052000010BD00BFDC4400203868002030B548F2F3
:10521000FE040C4B0C4A03F16001136013688B42CF
:105220000CD21D783DB1451C02D09D7C854202D137
:105230005D88A54203D020331360EFE700231846B2
:1052400030BD00BF38680020DC44002037B5104D69
:1052500080230093044603460195122205210D4840
:1052600007F006F901282B460ED12A6804F1100137
:10527000107020462A68023250F8044B884242F8E7
:10528000044BF9D1186800E0002003B030BD00BF26
:10529000D4440020BC680020F7B5214C8023009343
:1052A000054603460E4617460194202203211D4859
:1052B00007F0DEF8012830D12A46236805F11001F5
:1052C00018702368023352F8040B8A4243F8040B27
:1052D000F9D12068C77416B90123037505E00023CE
:1052E00003753146183006F0D5FF23680E480121BA
:1052F000997402234370FF2200230270438083804D
:10530000C38003818372C17202736B7B4373EB8929
:10531000C381FFF79BFF206800E0002003B0F0BDD1
:10532000DC440020386800201654002013B5084CD7
:10533000802300930194034612220521054807F0BB
:1053400097F808B9206800E0002002B010BD00BF47
:10535000D4440020BC68002038B50546C8B10D48CB
:10536000022200244270FF230122C2724480848002
:10537000C4800481847203730370EB7B43732B8AB4
:10538000C381FFF7D3FF044A106008B107F094F817
:105390002C7038BD16540020D444002070B50F4C3A
:1053A0000F4B2646236003F160052068A8420ED209
:1053B000037843B1037D33B91830FFF735FA10B1E4
:1053C0003068FFF7C9FF236820332360EDE700F062
:1053D000E7FABDE87040034806F042BFDC44002015
:1053E000386800207C6900202DE9F84F48F2FE0360
:1053F0000A8805469A420F4623D00A78FF2A20D011
:105400001C490024A04689469B461B4A0A6002F1BB
:10541000600AD9F80060564517D233786BB1B37C77
:10542000012B0AD173885B4507D0B11C384607F0C1
:1054300050F880459CBF344680462036C9F800604D
:10544000E7E70120FFF7E2FE04464CB92C806C80B0
:10545000AC80EC802C816C81AC81EC81BDE8F88F54
:10546000A31C123453F8042BA34245F8042BF9D1A2
:10547000BDE8F88FDC4400203868002070B5094E84
:10548000B0684508FFF742FC0446FFF73FFC2402E2
:10549000B268A4B22044B0FBF2F302FB130028442C
:1054A00070BD00BF2068002073B52F4C01F0A4FA36
:1054B00000F092F8602200212C4806F08DFC0021BB
:1054C000F822204606F088FC294B20221A70294B2E
:1054D00018221A704FF4A0632360274B40262671D0
:1054E000A360FFF7CBFF42F21073236148F2FE0383
:1054F000314640F2FF260025E06025751F4C2A4604
:10550000238065802B46A580E58020460195009587
:10551000FFF716FE20461A4906F0D2FF294601225F
:105520002046FFF7B9FE4FF480732046E3812680C2
:105530006580A580E58025816581A581FFF786FED0
:105540004FF40073204626806580A580E580258184
:105550006581A581E381FFF779FE0A480C2102B03D
:10556000BDE8704006F073BE206800201C69002072
:105570001969002018690020C0270900165400206E
:10558000986900207C6900202DE9F84305460F4802
:105590000F46904606F0B0FE0446DFF8389094B10E
:1055A000012D04D80A4806F0D9FE034601E0D9F8D7
:1055B00000304246394628466668B047204606F025
:1055C000D4FE0446EBE7BDE8F88300BFAC480020FA
:1055D000244500202045002008B50B4806F0C8FEF1
:1055E0000A4806F086FE0A4B0A49186804F0C2FB16
:1055F000094806F0BDFE094806F07BFEBDE80840FC
:10560000074806F076BE00BFF0400020A845002005
:10561000EC40002019C52000D04000202445002087
:10562000AC48002008B540B1044B4168186807F049
:1056300097FEBDE8084006F0A2BF08BDEC40002080
:10564000014806F059BE00BFA845002008B506F085
:1056500098FF38B1044B0146186807F06EFE003021
:1056600018BF012008BD00BFEC4000202DE9F0412B
:105670008046FFF7E5FF002704463E469CB194F8BC
:105680002450AF420AD8EA0804F10801404606F067
:1056900097FA18B9802D08D02F462646204606F0E6
:1056A00037FF0446EAE76EB13446084806F024FEA8
:1056B000844207D02146054806F028FE21460348CB
:1056C00006F044FE2046BDE8F08100BFA84500205A
:1056D00038B5044600283ED04368002B3BD0014635
:1056E0001D4806F013FE6368586806F005FE05467F
:1056F00030B143689C4207D0284606F036FEF6E7F4
:1057000004F1080002F0A6FD63682946586806F017
:10571000FDFD6368586806F0EFFD28B963685968B5
:105720000E4B186804F0DAFB21460D4806F044FEE3
:1057300029460C4806F040FE0B4A20461368013B00
:105740001360FFF76FFF04F108010246BDE838401F
:105750000320FFF719BF38BDA8450020EC4000200A
:10576000F0400020FC4000202045002010B50446F9
:1057700080B1406870B106F0BFFD20B14068FFF70E
:10578000A7FF6068F7E7044B2146BDE810401868A2
:1057900004F0A4BB10BD00BFEC4000202DE9F84F81
:1057A000074610468946904606F0EBFE834610B940
:1057B0000020BDE8F88F3846FFF758FF044660B177
:1057C000FFF730FF014628B11022404606F0F8F9F5
:1057D000002856D02046FFF77BFF2B4B1A689A46CD
:1057E000102AE5D0294E5946306807F0A6FD054637
:1057F00068B9034604225946306804F0EBFA0546BE
:105800000028D5D000236860036006F072FD2048B0
:1058100006F0BEFD04460028CAD001461D4806F029
:1058200095FD1D4806F0B4FD20B92146184806F044
:10583000C3FDBDE744600146686806F07AFDDAF80A
:1058400000306560013329463068CAF8003004F042
:105850005BFB3B4604F1080507F110062A46186871
:105860005968083303C2B3421546F7D1002384F8C0
:105870002490A361E3612362424639460220FFF788
:1058800083FE2046BDE8F88F20450020EC40002034
:10589000F0400020A8450020FC40002038B5054617
:1058A0000D4806F029FD0446A0B1AC420ED12146B8
:1058B000094806F02BFD2146084806F07DFD221D13
:1058C0001146BDE838400120FFF75EBE204606F0D5
:1058D0004CFDE8E738BD00BF24450020D040002043
:1058E00038B50546084806F007FD044648B11022C1
:1058F0002946201D06F064F918B1204606F035FD52
:10590000F3E7204638BD00BF24450020F8B5054622
:105910000F46FFF7E5FF044640B9134806F038FD8F
:105920000446F0B10146114806F010FD2B46261D35
:1059300005F1100E324618685968083303C27345E2
:105940001646F7D137B1394604F1140006F0A2FC2F
:10595000002300E0012323772A4629460020FFF791
:1059600013FE2046F8BD00BFD04000202445002093
:1059700038B50A4806F0C0FC044600255CB1251D78
:10598000284601F06DF808B1437C23B9204606F0A3
:10599000ECFC0446F2E7284638BD00BF2445002051
:1059A00010B50A4806F0A8FC044670B1237F43B93D
:1059B00004F11400FEF738FF18B12046FFF76EFF20
:1059C000EFE7204606F0D1FCEEE710BD24450020AD
:1059D00037B5124B124D1C782B796A79C4EB03232F
:1059E00013449BB2ADF80630BDF8063020221844AF
:1059F00005F1080180B206F091FDBDF8062004F122
:105A0000280192B2294406F089FD10B140BA80B253
:105A100001E04FF6FF7003B030BD00BF4D610020C4
:105A2000A0690020F8B52C4F2C4D97F800E02C4CC5
:105A30000EF1280C0CEB05035E780220F6002070B6
:105A400007360021864242DB0CEB0003EA18EB5CD0
:105A5000012B05D002D3632B06D014E0013033E0D4
:105A60005278023210442FE001B1207003F002FEA0
:105A7000B8B13B782278283313441D446B78134423
:105A80000233237025E003F0C003802B04D0C02B29
:105A900009D0402B15D102E051B1207008E001B1CE
:105AA00020700120F8BD01B120702B7EFF2BF8D0B3
:105AB0000EEB0002283202210420FFF74DFA0220EB
:105AC000F8BD537802331844C0B20121BAE701B1DE
:105AD00020700020F8BD00BF4D610020A0690020AB
:105AE00053610020F0B5C578124A0D44EDB2D5706F
:105AF00083780F0A3B44DBB2937044789F42547022
:105B00000678167005D9601CC0B2507008B901360D
:105B10001670C9B28D420CDA0133DBB205499370BD
:105B20003BB94B780133DBB24B7013B90B780133BF
:105B30000B70F0BD9469002010B5094C0146236834
:105B400003F11400FFF7CEFF064A23681178197598
:105B5000517859759178D2789975DA7510BD00BF72
:105B6000C46E00209469002008B5FFF79DFCFFF784
:105B7000D9FA01F0E9F8002319460F4A22F8131068
:105B80000133082BFAD1002319460C481A18303378
:105B9000B3F5F07F82F82510F8D1094B4FF48062FD
:105BA0001A800023194607481A182033B3F5A07F3E
:105BB0001182F9D108BD00BFB0700020C86E00206E
:105BC00026540020C4700020F8B5104E3578DDB1A1
:105BD0000F4F05F127033C88A34202DB00233B80E3
:105BE00011E00C4BA4F12802521B5919184606F07B
:105BF0008FF8641BA4B23C80283C221200F8242CAD
:105C000000F8234C00233370F8BD00BF4D61002025
:105C10008C690020C8690020074A002332F813105D
:105C2000814204D1044A002122F813107047013345
:105C3000082BF3D1704700BFB0700020064A002344
:105C400032F8131019B9044A22F8130070470133CF
:105C5000082BF5D1704700BFB070002004282DE953
:105C6000F74FA14E00F06B82A049A14DA14FA24A6F
:105C700003283C680D6015608A4615D194F82530DC
:105C800003F00F03032B08D1A38B002B40F0648695
:105C90009A4B08221A7000F054BD022B40F05C862B
:105CA000002305F8073CABE302287AD1944A00238D
:105CB0001370944A33801380934AD3780133DBB254
:105CC000D37063B993780133DBB293703BB95378E7
:105CD0000133DBB2537013B913780133137094F8A6
:105CE000253003F0FD02052A0DD194F8263001334A
:105CF000DBB2782B84F8263040F02E86002384F81F
:105D0000253000F029BE002B00F02686A28B7B48B0
:105D1000002A3DD094F82620511E84F82610002A2F
:105D200040F01A8694F82720082A04D0591E012929
:105D30000AD8052A08D1002384F82530802303706F
:105D400002F054FA00F00BBD042A9CBF03219140DD
:105D500003F00F0394BFC9B230210132013B84F834
:105D6000261084F82720072B00F2F685DFE813F0D1
:105D7000440308000A00AF04F405AF04F405AF04BF
:105D800000223AE30423037002F030FA00F014BD5D
:105D900003F00F03032B40F0DF850823037000F0AE
:105DA000D0BC052811D1594B1B681B8A002B00F071
:105DB000D3850C3D1560534A002313803B6033802C
:105DC0004E4B08220D601A70B7E115F83C3C3C3D83
:105DD00003F0F003602B40F0BF852A796B79120243
:105DE0003188D018884200F3B785283313443380B4
:105DF0002B7AFF2B00F0B085454BAA1D404F454C38
:105E00001A6000223A702270AA799846B2B901232A
:105E10002370FFF707FE012800F09E8503D30228B8
:105E200000F096850AE03B7803F128022A44C8F87E
:105E300000205278083303EBC2033B703648FFF76B
:105E4000CFF910B1DFF8CC90AEE03348FFF76EFA2F
:105E50000028F7D12A7E304BFF2AA3F118035FD028
:105E600048F2FE00198B81425AD01989814257D0DD
:105E700079B9598969B9998959B9D98949B91B8AAF
:105E80003BB9698A254B21B9998A11B9DB8A002B64
:105E900046D0298B214B79B9598B69B9998B59B95E
:105EA000D98B49B9198C39B9598C29B9998C19B937
:105EB000DB8CB3F5807F33D03388B3F5A06F04D982
:105EC0004FF4A0620021022005E0EB79012B06D8F7
:105ED000002211460320FFF73FF800F039BD0F4ABA
:105EE000013BD37100F034BD8C690020C06E0020EE
:105EF000DC690020C46E002090690020B46E002090
:105F00004D610020C07000204F610020BC6E002059
:105F1000B86E00204E610020B8690020A069002002
:105F200048F2FE032989994240F01685298B9F4B40
:105F300081B9598B71B9998B61B9D98B51B9198CC8
:105F400041B9598C31B9998C21B9DB8CB3F5807F7B
:105F500000F00285FF2A00F0FF849548FFF722F940
:105F60000246002840F0F8840221D4E024D9BBF195
:105F70003A0F74D02BD9BBF13B0F00F0ED84BBF18D
:105F80003C0F68D123789A073AD5590663D443F079
:105F9000400389F80030FFF745FD012800F0DC845C
:105FA00031D3022800F0D484D8F8000090F800B073
:105FB000BBF12B0FDAD132E0BBF1060F00F01081FC
:105FC000BBF1110F6AD0BBF1000F44D104E0BBF16B
:105FD0002C0F00F0C1843EE02378D9073BD443F076
:105FE000010389F80030FFF71DFD012800F0B4849B
:105FF000D7D23B786F4A03F128012944116008E0A9
:1060000043F00203C5E73B7803F128012944C8F8AF
:1060100000104978083303EBC1033B70C4E72378D1
:1060200003F0040202F0FF01AAB943F0040389F867
:1060300000303B7803F128002844C27812B103F104
:106040002A020AE05B4A4178106008335A4A03EB9F
:10605000C1031370A8E7421B012104203BE706F0AF
:1060600079FA4FF6FF73984240F076843B782833F4
:10607000E85C01F045FF3B782833EA18E85C51788A
:10608000FEF748FF012801BF00234B4A33801370FD
:106090003388002B00F0608400F05ABCFFF794FDB9
:1060A000EB8D85F806B073B9B5F82A80B8F1000F0A
:1060B00000F05284414F424D3C4B2F60B3F8289082
:1060C00007F5A0770BE006F04BFA4FF6FF73984206
:1060D00040F04284E8E7238A2BB920342C602C68F6
:1060E000BC42F8D315E09845F7D1638A0BB14B4514
:1060F000F3D123682BB963681BB9A3680BB9E368B4
:106100005BB1102221462F4805F05AFD0028E4D14A
:1061100003E0002204210120DDE633882A49303BD8
:10612000338000230B6029490220294A087029493D
:10613000CAF800200A60284A138002F057F8264B5C
:106140001A88002A00F0088402F13003174C9BB231
:106150003380283B19126371194B08321B6852BAFD
:106160002171197DA2850022E2851A8AE1712285BA
:106170005A8A11216285A17104F118050FCB85E8B7
:106180000F00294604F10800FFF72EF9134B04F124
:106190003C021A6006F0E4F9C04380B208B1E08521
:1061A000D0E34FF6FF73E385CCE300BFA069002086
:1061B000B8690020B86E00204D610020C470002036
:1061C000BC6E0020A8690020C46E0020B46E0020C0
:1061D000D069002090690020C0700020C06E0020AF
:1061E000FFF7F2FC85F806B006F0B7F94FF6FF733B
:1061F0009842AF4C40F0B083B4F82A90B9F1000F48
:1062000000F0AA83B4F828B0BBF1000F00F0A4831B
:10621000A84C04F5F07394F82580B8F1000F0FD066
:10622000228A4A450CD1628A5A4509D11022214658
:10623000A148019305F0C4FC019B002800F0F68002
:1062400030349C42E7D195F8353003F03F03022B00
:1062500008D19A4A002332F81310494550D001332F
:10626000082BF8D195F83520914B520700F1748333
:10627000142283F835203C223280502283F83420C7
:1062800093F8332093F8314093F82F0083F82F20B0
:1062900093F8322093F82E1093F8307083F82E2064
:1062A000013093F82D2083F82D4093F82C40C0B294
:1062B00083F8321083F8312083F82C7083F8304053
:1062C00083F8330060B90131C9B283F8321039B9AB
:1062D0000132D2B283F8312012B9621C83F8302027
:1062E0002B8D6A8D744C2A856B8504F1100594E81A
:1062F0000F0085E80F0029462046FFF775F80CE3EC
:10630000002422466B4B93F8251021B9694B3024A9
:1063100004FB023413E0072909D13CB193F82600AD
:1063200094F82610884288BF1C4600E01C460132C3
:106330000A2A03F13003E6D1002C00F00D83604BF4
:1063400000271C60032384F8263084F824300423BB
:1063500084F82330584B84F822700FCB84E80F0068
:10636000584B01201A7884F8250022765A78A083A9
:1063700062769A78DB78A276E37695F82C3084F80A
:106380002770237595F82D30A4F81090637595F853
:106390002E30A4F812B0A37595F82F30E375FFF7EF
:1063A000CBFB95F8343003F0F002502A24D91A09B7
:1063B0003B46053A9200E91891F83C00E0B101280B
:1063C00001D1013316E002280FD191F83D000428D5
:1063D0000BD191F83E2091F83F3043EA0223402B45
:1063E00028BF4023E383238406E0E91891F83D1099
:1063F00011B10B449342DEDB10222D4B83F8352084
:106400002B4B93F8352042F0020283F8352002220C
:1064100083F83C20042283F83D20002283F83E20AC
:10642000402283F83F20328060223AE2244B95F8E4
:1064300035101C60244B11F0040F1870994603D0DE
:1064400084F825002022DAE1338808F00F08A3F150
:106450002802174BB8F1020F93F834304FEA1313A8
:10646000A2EB83039BB2338003D101F03F02122AD7
:1064700005E0B8F1010F03D101F03F02022A25D057
:106480000BB98B0722D0AA8DA38A9A4204D1084B5C
:10649000DA8DE38A9A4219D0880740F1FB81B8F17E
:1064A000010FA9D0B8F1020F40F0F481A8E700BFB6
:1064B000A0690020C86E0020A8690020B0700020EC
:1064C000C46E00204F610020B46E0020C9064DD577
:1064D000A18B00294AD004F11800FFF703FBAF4B52
:1064E00095F8301093F800E0AD4A8E453ED192F811
:1064F00031105878884239D192F832C09978614584
:1065000034D192F83320DB7893422FD1E37694F89C
:10651000273084F818E06076A176F3B994F8243037
:1065200094F8262094F822109B1AA3EBD103DBB237
:1065300058B200281944BCBF5B4258B294F82330CB
:10654000C9B2A3EB93031A18D3B284F8233003EB38
:10655000D10384F8221084F82430012389F8003014
:1065600094F8243084F826300023A38394F825205F
:1065700002F00F03013B072B00F2EE81DFE813F07E
:10658000080025008200430165017F018A01350171
:1065900099F80020834BD2070FD5032284F82520D9
:1065A000308840221A700022A283002800F0C680A2
:1065B00042221A70FFF7C0FAC0E095F8353003F0B8
:1065C0003F03022B40F0C88116E799F80030DB0743
:1065D0004DD595F8353003F03F03122B47D1704B62
:1065E00093F8343003F0F002502A24D91B09053BFC
:1065F0009B000022A91891F83C00E0B1012801D1CC
:10660000013216E002280FD191F83D0004280BD189
:1066100091F83E2091F83F3043EA0223402B28BFF7
:106620004023E383238406E0A91891F83D1011B1BB
:106630000A449A42DEDB032384F8253095F82C3097
:106640000120237595F82D30637595F82E30A375CC
:1066500095F82F30E375FFF76FFA4223524A89F815
:1066600000300023A38333803B70138069E0202334
:1066700089F8003001F0BAFD4C4B00221B6883F80A
:106680002520EFE595F83530D80725D5D10623D458
:10669000A38B002B40F060813088013080B2FFF77F
:1066A0004BFA99F8003043F0100289F80020328844
:1066B0001AB13C4A43F01203137001F097FD012315
:1066C000A383082384F82530002384F8273011227F
:1066D000334B83F83520E0E09B0610D56B8FDAF85A
:1066E00000005BBA9BB2034495F83A7095F83B10F2
:1066F000CAF80030338841EA07215B1A33803088BA
:1067000048B1D70607D499F8003043F0020389F85E
:106710000030FFF711FA95F8362095F8373003EB83
:106720000223228C9BB2934202D8002B18BF1A4638
:1067300099F80030E283990700F00E811A4B00228D
:106740001A8001F053FD174B1A78174B02F0200006
:1067500000F0FF0128B100221A8084F825201422BD
:10676000B6E702F0100000F0FF0540B119800123E8
:10677000A383042384F8253084F82710A7E7198819
:10678000B9B1D20748BFA583A28B8AB9E28B9142E7
:1067900088BF1A801B88A3830BE000BF9469002088
:1067A000A0690020B46E0020C0700020C46E0020DC
:1067B0001A80002384F827306D4B1B68CAF800301C
:1067C0006C4B1B882BB1A38B1BB13C33338018223D
:1067D00007E0694B1B789F0740F1BE803C23338064
:1067E0001022664B83F8352059E099F80030DD0718
:1067F00040F1B280002384F825305F4B10221A70DC
:1068000001F0F4FCA8E0308808B1FFF795F995F89D
:10681000353013F001030FD099F80030D80745BF89
:10682000072384F825300623002346BF84F826304A
:10683000A38384F8253016E099F80020D1071BD5F2
:10684000052284F82520A38386E0308808B1FFF76D
:1068500073F995F83530DA070ED5072384F825301B
:10686000002384F826300120FFF766F9102389F809
:10687000003001F0BBFC0DE033885BB96CE099F8A7
:106880000030DB0768D5072384F82530002384F81F
:10689000263061E0102385F835303C233380374BB8
:1068A000502283F83420237D344D85F83030637DC9
:1068B00005F1180785F83130A37D85F83230E37D86
:1068C00085F83330237E85F82C30637E85F82D30B3
:1068D000A37E85F82E30E37E85F82F30238A2B8522
:1068E000638A6B8594E80F0087E80F00394605F14D
:1068F0000800FEF779FD94F8253003F0100303F04B
:10690000FF022BB1002385F8373085F8363004E0DC
:10691000402385F8362085F83730184C0623A371BC
:10692000174B1B79E3713388283B1A1263710023DC
:10693000227184F83B3084F83A30238705F00DFE4D
:10694000C04320870D4B60221A7000225A705A8073
:10695000094B00221A7007E00A4A002313700A4A02
:1069600033801370044A137003B0BDE8F08F00BF8A
:1069700090690020C0700020B46E0020A069002043
:10698000206800204D6100204E6100200E4B1B68E6
:106990002BB10E4AD21A9142A8BF114604E0B1F5BC
:1069A0009B6FA8BF4FF49B6100290BDD084A83420F
:1069B000118007D08AB201460BB9064800E018469C
:1069C00005F030B9704700BF90690020B46E002018
:1069D000C0700020DC69002010B5044640B102F010
:1069E000A7FF044B2146BDE81040186803F076BAB3
:1069F00010BD00BF0841002008B503F04DFC034B5B
:106A000003491868BDE8084003F0B4B90841002004
:106A1000D969200070B504460C481E469DF8102028
:106A2000059B006803F0D6F9054668B120462B4661
:106A300004F1100250F8041B904243F8041BF9D1F2
:106A40006E74284602F074FF284670BD084100208D
:106A5000024B0146186806F083BC00BF08410020C5
:106A600070B50C4D0646286803F098F9044666B9DF
:106A7000002070BD10223146204605F0A1F838B143
:106A80002146286806F03EFC0446002CF2D1EFE7D0
:106A9000204670BD08410020024B0146186806F0F0
:106AA0004CBC00BF0841002070B5054610200E46C2
:106AB00003F048FB0849044606F07FFC58B932460B
:106AC0002946204603F086FB324629462046BDE88B
:106AD000704002F003BF70BD60DC20002DE9F04F74
:106AE0008D4C85B0E3798D4FFF2BDFF8549240F049
:106AF0000B813B78E21892F83020FF2A00F00481E5
:106B0000234493F82920002A40F0FE80844B254638
:106B10009846844E1A60DFF82CA21422327038781E
:106B200032782C30B9F8003002449A4259DAA3186E
:106B30005978002900F0E880A25C012A47D12A890F
:106B4000C8F800307AB96A896AB9AA895AB9EA8953
:106B50004AB92A8A3AB96A8A2AB9AA8A1AB9E28A41
:106B6000002A00F0D18053F8020F02AA596803C22C
:106B70006D48FFF775FF0246CAF8000040B90523CB
:106B80000190009302A902236748FFF743FF1EE02C
:106B9000FFF75EFF8346002800F0B680D8F80000BB
:106BA00008225946023005F00BF850B1012202A923
:106BB000584606F0DDFB002800F0A680DAF8003029
:106BC00003E0DAF800305A7C0AB902225A743B78A2
:106BD00032782C33134423445B7802EBC3023270C7
:106BE0009DE720440430FEF7FBFA504B4A4D1860F5
:106BF0009846002800F088802B8973B96B8963B9A7
:106C0000AB8953B9EB8943B92B8A33B96B8A23B962
:106C1000AB8A13B9EB8A002B76D0434D2846FEF79A
:106C2000DFFA2E4600286FD140F2FF23228BA5F118
:106C3000080E9A4205F1100C19D16B8ABBB9AB8AC8
:106C4000ABB9EB8A9BB92B8B8BB96B8BB3F5807F80
:106C50000DD12B7FFF2B0AD195E80F008CE80F0098
:106C60003B78734430330FCB85E80F0011E0304D93
:106C70002846FEF7B5FAD8F80030834244D196E8AA
:106C80000F0085E80F003B78234430330FCB86E8B4
:106C90000F0060222270282262713A22A271FF2224
:106CA000E2718822002384F82820D8F800203B7065
:106CB00063706380237184F829301E4EE02384F8CA
:106CC0002C30931C1232354618685968083303C5B6
:106CD00093422E46F7D1184902230A6884F84030BF
:106CE000C4F8422084F841304A68144B5A600022AC
:106CF000C4F84A209A81628505F02CFCC0435023D9
:106D00006085A9F8003003E00023A9F800303B704B
:106D100005B0BDE8F08F00BFA06900204D610020E4
:106D2000B448002054610020A8690020B848002021
:106D3000B8690020D069002098690020E26900202D
:106D40008C690020B04800200148FEF7FFB800BF62
:106D50001C4100200C4AB82303FB00220023F0B59D
:106D600053821E461A4640F24C550849CC18A77863
:106D700027B15F5C874204BFA67001327133AB421A
:106D8000F4D11046F0BD00BFD8480020606100205B
:106D900008B5064801F090F8054B01221A70FD2154
:106DA00000225A709970DA7008BD00BFE56F2000AC
:106DB0005661002030B513780546087A83F0020347
:106DC00098421DD1487A5378984219D1887A93789D
:106DD000984215D1C87AD378984211D1087B13799B
:106DE00098420DD1487B5379984209D1887B937999
:106DF000984205D1C87BD379984201D103201BE08A
:106E00000B890F4C6BB94B89B3F57F4F09D18B8937
:106E1000FE2B06D12368CA89022023F8022B2360A7
:106E20000AE0226801F1080303CB083242F8080C9B
:106E300042F8041C01202260A840C0B230BD00BF4F
:106E4000C448002010B50E4C0220A17903F060F96F
:106E5000A379112B01D0062B05D1218D638D994289
:106E6000A8BF194606E03A2B03D1218D49BA89B251
:106E700000E000210120BDE8104003F049B900BF47
:106E8000A069002010B5084C01462378012B08D1D9
:106E90000822A01C04F094FE00280CBF204600200D
:106EA00010BD002010BD00BF5661002008B501468E
:106EB000102003F03BF9044B00219B6803489847DE
:106EC000BDE80840FBF760BEE4D92000D16E200089
:106ED00010B50C4611462046FFF7E6FD044B1B6833
:106EE00013B19B6820469847024B1C6010BD00BF41
:106EF000D4480020D0480020124AF8B505460023A7
:106F0000712000FB0324A678B6B9617003F02AF85B
:106F100026460D4F0D4A3B7806F8035BC01A1568EC
:106F2000A0701D4403F01EF83A782946821A3046B4
:106F300004F078FEA078F8BD01330C2BE1D14FF0BE
:106F4000FF30F8BD60610020AC660020C84800201A
:106F50002DE9F84315090F2D0646984602F00F0457
:106F600003D00F2C35D045B103E00F2C2FD11024C6
:106F700025462A46304604F055FE2A190F2A274690
:106F800005DCC2F110020021701904F025FFBCB12C
:106F9000DFF84C80C7F11000D8F80090224649462F
:106FA000304404F03FFE022C05D10A2D9FBFFF2381
:106FB000F372FE2333734C44C8F80040BDE8F883F5
:106FC00065B141463046BDE8F84305F079BA102571
:106FD000CFE71024002DCCD12746D9E7BDE8F883B0
:106FE000C44800202DE9F04F934E944D87B0002304
:106FF00033702B70044603F031F802F0C5FF904A5D
:10700000904B126818600296009501930AB1FFF741
:1070100019FF0CB98C4900E0214604A806F0C8F914
:107020008A4BDFF830A21A8803933E2A019B40F274
:107030001382D3F80080864E08F102033360009B70
:107040000AF118001F780023023708F80730FFF70D
:1070500019FF20B90AF10800FFF714FF20B108F169
:1070600003033360802400E004469AF801209AF874
:107070000010130943EA0113DBB2980840EA8313B6
:107080005BB212F00F0FDDB201F00F000DD17149AC
:10709000498851B910B912F0F00F21D06C4A136829
:1070A00003F8015B136070251BE0694978B912F0A1
:1070B000F00F0CD1086823F03F031A43664B0270AF
:1070C0001B88033020F8023C6825086009E0614A0B
:1070D0000B681068186003F8045B0B60602500E023
:1070E00078255C4B99469979594B112908BF45F091
:1070F000040515F0040F02BF1A6802F8011B1A609C
:1071000099F80720402A06D0FF2A07D0012A08D183
:1071100045F0010509E045F0020506E045F00305EC
:1071200003E0196801F8012B1960B9F80820494BF0
:1071300082B95A8972B99A8962B9DA8952B91A8AB6
:1071400042B95A8A32B99A8A22B9DB8A13B944F011
:10715000400013E04148FFF795FE414B186078B1BD
:10716000427818F807303D4943EA021308F807301F
:107170003C4A0420FFF71EFE60F03F00C4B229E045
:1071800048F2FE03B9F8082032499A420CD14B8BE1
:1071900053B98B8B43B9CB8B33B9324A08310420B6
:1071A000FFF708FE2043E9E7294BDFF8B0C01A6873
:1071B000994696460CF1100B634603CB5B45CEF81F
:1071C0000000CEF804109C460EF1080EF4D11032E7
:1071D000C9F80020DFF87CB0DFF874909BF8183015
:1071E000FF2B40F08D809BF8192044F0080E022AF6
:1071F0005FFA8EFE38D1BBF81A30ABBBBBF81C303F
:1072000093BBBBF81E307BBBBBF8203063BBBBF825
:1072100022304BBBBBF8243033BB9BF826301BBB62
:10722000D9F800309BF8272044F00B0003F8012B1D
:10723000C4B2C9F80030A2E055610020AC6600205D
:10724000D4480020C848002060DC20008C69002061
:10725000C4480020A0690020A2690020A86900207D
:10726000BC480020986900209C4B598BA1BB998B8E
:1072700091BBD98BB1B9198CA1B9598C91B993F83B
:10728000241079B9D9F8001044F00A00C4B20846B5
:1072900000F8012B33F8252F043121F8032C9B78BB
:1072A000837016E08D4BD98BB1B9198CA1B993F8C5
:1072B000221089B9D9F8001044F00900C4B2084678
:1072C00000F8012B53F8232F063141F8052C1B79C8
:1072D0000371C9F8001052E0D9F80020804F14461D
:1072E00007F1100C3B4603CB6345206061601F46ED
:1072F00004F10804F6D11032C9F8002074463EE0CB
:107300000BF11800FFF7BEFD764B186068B118F856
:107310000710437844F004040B43E4B208F8073044
:1073200004AA0BF11801002011E048F2FE03BBF89B
:1073300018209A4210D1BBF81A306BB9BBF81C3038
:1073400053B9BBF81E303BB904AA0BF11801FFF783
:1073500031FD2043C4B212E0D9F80020DFF880E10B
:1073600017460EF1100C734603CB63453860796005
:107370009E4607F10807F6D15B4B10321A60029A5D
:1073800056482823137083795749112B59D1028D00
:10739000130A43EA02234FF2B0029BB223F00F0715
:1073A000BFB297421AD1B0F82AE04FEA1E2242EA51
:1073B0000E2222F00F0292B2BA420FD13268F323AA
:1073C0001370038D02321F0A438D1B0A03EB071350
:1073D00003F5AA6302F8013C326029E0BAF82A00FA
:1073E0003E4A000280B2B0F5704F09D13368F120F7
:1073F0001870108DA3F80100528D120ADA700CE09B
:1074000003F47F43B3F5704F0AD13368F22018704C
:10741000108D000A5870528D5A800433336007E093
:107420000B68F0201870906A053343F8040C0B6069
:107430002E4B1A880B6823F8022B029A0B6030231C
:107440001370019B1A68009B1B78D55413445C7021
:107450000B689B1A009A19E01A6841231370009B6D
:107460000AF128051C78631CDBB21344524603CA98
:10747000AA4218605960924603F10803F6D1009BB6
:1074800029341C70029B029A1B782833137004A9BC
:10749000102002F04BFE164B164E1B68984730EA40
:1074A000200028BF1520029A0099039B14781B889E
:1074B0000D78C0F17D071A1B791B8A42DFF838A0CE
:1074C00040F3BC80C0F1780B93FBFBF402F07AFB35
:1074D0000138844212DB0020C1E000BFA069002017
:1074E000B8690020BC480020C4480020CE690020B4
:1074F000B8D920008C690020AC660020DFF87891B4
:107500000023C9F80030019B9AF80050D3F800809E
:107510002A46414608F1040004F0FAFB3388514A38
:107520001B0A63F03F0388F800303388043588F87D
:1075300001301388EDB2591C118088F803301A0A03
:10754000494B7C1B1978494B24F00704484F1944D8
:1075500088F8022008EB0500224602938AF80050C2
:107560003C6004F05FFB281980B202F0F1FC02F0ED
:107570002FFB029B04461D460028ACD00DF11008DD
:107580004046FFF793FC204602F05AFB204602F0EB
:1075900041FBD9F80030012B9DD0043B012B9AD937
:1075A000314B2BF007001C783B68B3461C44052385
:1075B0008AF80030BA462F4BA4B21A683388386074
:1075C0001B0A63F01F03137033885370BBF800303D
:1075D0009C4243D2019A1B1B1068E20802713A6870
:1075E00029199342B8BFCAF80030009B3E681B7847
:1075F00032461844029304F015FB029B981980B29E
:1076000002F0A6FC02F0E4FA064600283FF463AF5D
:107610004046FFF74BFC304602F012FB304602F0CA
:10762000F9FADAF800301C44D9F80030A4B2012B82
:107630003FF451AF043B012BC8D84CE7019B0B49E9
:1076400018682144284404F0EDFA30882844001BCF
:1076500080B202F07DFC04A8FFF728FC012007B0EF
:10766000BDE8F08F4855002055610020A06900203A
:10767000CC480020C8480020D04800202DE9F04721
:10768000074688461546002A4CD0414E0024B04695
:10769000338ABB4216D1738AA3B10F2002F052FD88
:1076A0000146304605F089FE60B15FFA84FA29464A
:1076B0005046FFF721FC002829DA0027DFF8D49094
:1076C0003E460FE00134022C06F1B806E0D14FF03F
:1076D000FF30BDE8F087A64209D10136022E09F13C
:1076E000B8090ED039F8063C002BF6D0F3E748462F
:1076F00004F0F1FD0028F0D0F0B2FFF72BFB0744B7
:10770000EBE7002FE3DD29465046FFF7F5FB0028A5
:10771000DDDDB82303FB04839A8A1044988260B2AB
:10772000BDE8F0871B4E4FF0FF3436F8063C63B3DC
:10773000304604F0D0FD10B1E8B2FFF70BFB611C3E
:1077400003D136F8063C03B96CB20135022D06F1BF
:10775000B806EAD1621C15D0B8256543DFF8309031
:107760000F2009EB0506A6F81280378202F0EAFC2A
:107770000146304605F01CFE05F118004021484442
:1077800004F097FD2046BDE8F087631CDDD1DBE700
:10779000D8480020F04800202DE9F04F0F2087B096
:1077A000DFF8F482AE4C02F0CDFC002602F04EFD74
:1077B00088F80060267002F0E7FBAA4DA246286018
:1077C000042002F0ADFCA84B2A6800B2186057787C
:1077D0001378CDF8008047EA032703F0F803C02BA5
:1077E00002D0E02B1BD03DE09478D0789AF800309E
:1077F000C7F30A0704333246394640EA04208AF8C0
:107800000030FFF73BFFB0F1FF3F804600F0718290
:10781000964CB82303FB00440126223425E092F85D
:1078200004B09478D0789AF80020C7F30A0705329C
:107830008AF8002039465A4640EA0420FFF71EFF26
:10784000B0F1FF3F804600F054828849B82202FB25
:107850000012958A4FF00109BD4234BF0025012571
:107860003446D1E1B0463746814C28689AF800107A
:10787000425C02F0E003602B40F0A9818D1C0144C2
:1078800091F801907B4B4FFA89FB0544BBF1000F47
:107890001D60BCBF01351D6012F0100F02F0080121
:1078A0002FD1D1B9196831F8010FA4F801008978F6
:1078B000E170196811F8040B1960830803F00F01D7
:1078C00041F060012170617803F0300343EA8013D6
:1078D00001F00F010B4363702EE01868602105462C
:1078E000217015F8011B03304FEA910E0EF0300E97
:1078F00001F00F014EEA0101617029881860618072
:107900001AE001F0FF0591B919680878C0F3830007
:1079100040F06000207011F801EB65804FEA9E0096
:1079200000F0300040EA8E106070196004E06023BF
:10793000237000236370638002F0040303F0FF01EF
:1079400001912BB94B490B6813F8010BA0710B6027
:1079500012F003020BBF474A474B13689B5C09BFF9
:1079600013F8011BE3711360E17119F0400FC9F3C3
:10797000011230D0BBF1000FBDBF3A499AF8003078
:1079800009680025BEBF5B189D782D0922B904F156
:1079900008058AB9114612E0384B1978012905D13A
:1079A0005978A9420CBF1D46002500E00025344B44
:1079B0001D60002DEBD122E1314B19680231314BB2
:1079C0000F209A5C0391029202F0BCFB029A0346DC
:1079D0000399284609E02C4B0F209D5C02F0B2FB76
:1079E0002A462A49034604F10800FFF7B1FA09F0D4
:1079F000080109F0030201F0FF0509F00403A1B139
:107A0000002B67D1224B1B88ADF81430531E012B7D
:107A100006D818490B6813F8010B8DF815000B6098
:107A20001C4900238A5C05A950E0002B46D0BBF11D
:107A3000000FBDBF0B499AF8003009682B46B8BF4C
:107A40005B180E49B8BF9D780878B8BF05F00F03E2
:107A5000012823D14D789D420CBF0D4600251EE024
:107A6000AC660020C8480020C0480020D84800204C
:107A7000A0690020C44800200EDC200056610020D0
:107A8000BC48002027DC200012DC200016DC20008F
:107A90000CDC200018DC2000556100200025964BEE
:107AA0001D60002D00F0AB80944B102013F8029065
:107AB00002F048FB4A460346A91C07E0904B102001
:107AC0009D5C02F03FFB2A4603468E4904F11800F4
:107AD000FFF73EFA009B009A18788B4900F12803C3
