:100000000C9477030C949F030C949F030C949F0310
:100010000C949F030C949F030C94740F0C949F03F7
:100020000C949F030C949F030C949F030C949F03C8
:100030000C949F030C949F030C949F030C949F03B8
:100040000C942A0F0C949F030C94F80E0C94D20E6F
:100050000C949F030C949F030C949F030C949F0398
:100060000C949F030C949F0300407A10F35A00A055
:10007000724E18090010A5D4E80000E87648170071
:1000800000E40B54020000CA9A3B000000E1F505B1
:10009000000080969800000040420F000000A086FB
:1000A00001000000102700000000E803000000002D
:1000B0006400000000000A000000000001000000D1
:1000C00000002C76D888DC674F0823DFC1DFAE59EB
:1000D000E1B1B796E5E3E453C63AE651997696E87E
:1000E000E6C28426EB898C9B62ED407C6FFCEFBC02
:1000F0009C9F40F2BAA56FA5F490055A2AF75C932D
:100100006B6CF9676DC11BFCE0E40D47FEF520E662
:10011000B500D0ED902E0300943577050080841E45
:10012000080000204E0A000000C80C333333330FA0
:10013000986E12831141EF8D2114893BE65516CF3D
:10014000FEE6DB18D1844B381BF77C1D901DA4BB49
:10015000E424203284725E228100C9F124ECA1E5FE
:100160003D2700000000250028002B0000000008AB
:10017000000201000003040700000000000000006E
:10018000535831323736204C462F48462063616C35
:100190006962726174696F6E0000000000240027BC
:1001A000002A000102040810204080010204081007
:1001B00020010204081020040404040404040402BE
:1001C0000202020202030303030303556E72656316
:1001D0006F676E697A6564207472616E73636569B6
:1001E0007665720053583132373620646574656322
:1001F0007465642C207374617274696E670053585F
:10020000313237322064657465637465642C207301
:1002100074617274696E67005358313237322073DB
:1002200075636365737366756C6C7920636F6E6656
:100230006967757265640A005365742073796E632B
:1002400020776F726420746F20307833343A2073D3
:1002500074617465200053657474696E67206E6FF5
:10026000646520616464723A20737461746520006F
:1002700053657474696E6720506F7765723A2073A6
:1002800074617465200053657420667265717565CC
:100290006E637920746F203836382E314D487A3AA3
:1002A00020737461746520003A2073746174652052
:1002B0000053657420534620746F20005365747496
:1002C000696E67204D6F64653A20737461746520B0
:1002D000005573696E672069646C6520706572698A
:1002E0006F64206F6620005573696E67206E6F64BF
:1002F000652061646472206F662000466F726365DA
:100300006420746F207573652064656661756C7414
:1003100020706172616D65746572730A005573694E
:100320006E67207061636B65742073657175656EAF
:100330006365206E756D626572206F66200047658B
:1003400074206261636B2070726576696F757320CB
:1003500073783132373220636F6E6669670A004105
:10036000546D656761333238502064657465637419
:1003700065640A004C6F52612074656D706572612E
:10038000747572652073656E736F722C2065787456
:10039000656E6465642076657273696F6E0A0052DB
:1003A000656164696E6720004142434445464748A1
:1003B000494A4B4C4D4E4F50515253545556575835
:1003C000595A6162636465666768696A6B6C6D6ED1
:1003D0006F707172737475767778797A30313233E1
:1003E0003435363738392B2F002D2D3E20525353BC
:1003F00049206572726F720A002D2D3E20525353B0
:100400004920002D2D3E2072657472790A00204427
:100410004946533D33534946533D20002D2D3E2040
:100420007761697420666F72200023310A002332DD
:10043000004F4B32002D2D3E2043414420002043ED
:100440004144203D20002D2D3E20776169742066B7
:100450006F7220004F4B310A002D2D3E2043414446
:1004600020002D2D3E204353310A002323206E6FA0
:100470007420656E6F75676820546F412061742029
:10048000002E00436F756C64206E6F742073776963
:10049000746368204C6F5261206D6F64756C6520C9
:1004A000696E20736C656570206D6F64650A00531A
:1004B00075636365737366756C6C792073776974A3
:1004C0006368204C6F5261206D6F64756C652069A4
:1004D0006E20736C656570206D6F64650A005377DC
:1004E0006974636820746F20706F77657220736120
:1004F00076696E67206D6F64650A005061636B6595
:10050000742073656E742C20737461746520004CC4
:100510006F52612053656E7420772F4341442069E8
:100520006E20004C6F52612053656E7420696E20FE
:10053000004C6F526120706B742073657120004C09
:100540006F526120706B742073697A652000656E4C
:10055000642D6465766963652075736573206E61CB
:1005600074697665204C6F526157414E207061630B
:100570006B657420666F726D61740A005B626173F3
:10058000653634204C6F526157414E2048454144F6
:1005900045522B4349504845522B4D49435D3A0043
:1005A000200030004D4844525B315D207C20446582
:1005B00076416464725B345D207C20464374726CC7
:1005C0005B315D207C2046436E745B325D207C2075
:1005D00046506F72745B315D207C20456E6372798A
:1005E000707465645061796C6F6164207C204D4942
:1005F000435B345D0A007472616E736D6974746577
:1006000064204C6F526157414E2D6C696B652070B0
:1006100061636B65743A0A0063616C63756C617445
:1006200065204D49432077697468204E776B534BA2
:1006300065790A0020003000656E63727970746518
:1006400064207061796C6F61640A00456E63727931
:100650007074696E670A0020003000706C61696E0A
:10066000207061796C6F6164206865780A0052655A
:10067000616C207061796C6F61642073697A6520A8
:100680006973200053656E64696E6720004D656173
:100690006E2074656D7020697320002072656D6135
:1006A000696E696E6720546F412069732000206372
:1006B00079636C6520656E647320617420006379D2
:1006C000636C6520626567696E7320617420002326
:1006D00023206E6577206379636C6520666F7220D6
:1006E000546F41202323002E2E2E00008B0F112447
:1006F0001FBECFEFD8E0DEBFCDBF12E0A0E0B1E07B
:10070000E0E7F0E502C005900D92AE36B107D9F7EB
:1007100024E0AEE6B2E001C01D92A93EB207E1F7C7
:1007200013E0C7E7D3E004C02197FE010E948923AC
:10073000C637D107C9F70E9421100C9436280C94B3
:100740000000AF92BF92CF92DF92EF92FF920F9391
:100750001F93CF93DF936C017B018B01040F151F57
:10076000EB015E01AE18BF08C017D10759F06991BF
:10077000D601ED91FC910190F081E02DC601099523
:10078000892B79F7C501DF91CF911F910F91FF90D0
:10079000EF90DF90CF90BF90AF900895FC01538D04
:1007A000448D252F30E0842F90E0821B930B54174B
:1007B00010F0CF96089501970895FC01918D828DD8
:1007C000981761F0A28DAE0FBF2FB11D5D968C9171
:1007D000928D9F5F9F73928F90E008958FEF9FEFB0
:1007E0000895FC01918D828D981731F0828DE80F6C
:1007F000F11D858D90E008958FEF9FEF0895FC0126
:10080000918D228D892F90E0805C9F4F821B9109F2
:100810008F739927089582EE92E00E94FF0321E0F2
:10082000892B09F420E0822F089580E090E0892B45
:1008300029F00E940B0481110C9400000895FC0122
:10084000A48DA80FB92FB11DA35ABF4F2C91848D31
:1008500090E001968F739927848FA689B7892C938E
:10086000A089B1898C91837080648C93938D848DE1
:10087000981306C00288F389E02D80818F7D8083E4
:100880000895EF92FF920F931F93CF93DF93EC01A4
:1008900081E0888F9B8D8C8D98131AC0E889F98927
:1008A000808185FF15C09FB7F894EE89FF8960832A
:1008B000E889F98980818370806480839FBF81E0AB
:1008C00090E0DF91CF911F910F91FF90EF900895ED
:1008D000F62E0B8D10E00F5F1F4F0F731127E02EC8
:1008E0008C8D8E110CC00FB607FCFACFE889F98900
:1008F000808185FFF5CFCE010E941F04F1CFEB8DE3
:10090000EC0FFD2FF11DE35AFF4FF0829FB7F894D3
:100910000B8FEA89FB8980818062CFCF0F931F9371
:10092000CF93DF938C01D0E0C0E0F801EC0FFD1F06
:100930006491662341F082EE92E00E944104892B8B
:1009400011F02196F2CFCE01DF91CF911F910F913F
:100950000895CF93DF93EC01888D8823B9F0AA899D
:10096000BB89E889F9898C9185FD03C0808186FD6A
:100970000DC00FB607FCF7CF8C9185FFF2CF8081B9
:1009800085FFEDCFCE010E941F04E9CFDF91CF910B
:10099000089590E0FC01E459FE4F2491FC01ED55CF
:1009A000FE4F3491FC01E954FE4FE491EE23C9F06F
:1009B000222339F0233001F1A8F4213019F122303B
:1009C00029F1F0E0EE0FFF1FEE59FE4FA591B49113
:1009D0008FB7F894EC91611126C030953E233C937B
:1009E0008FBF08952730A9F02830C9F0243049F787
:1009F000809180008F7D03C0809180008F778093ED
:100A00008000DFCF84B58F7784BDDBCF84B58F7D49
:100A1000FBCF8091B0008F778093B000D2CF8091D0
:100A2000B0008F7DF9CF3E2BDACFCF93DF9390E0EC
:100A3000FC01ED55FE4F249189549E4FFC01849199
:100A40008823D1F090E0880F991FFC01E756FE4FF4
:100A5000A591B491FC01EE59FE4FC591D49161115D
:100A60000EC09FB7F8948C91E22FE0958E238C9363
:100A70002881E223E8839FBFDF91CF9108958FB74C
:100A8000F894EC91E22BEC938FBFF6CF3FB7F8943C
:100A90008091830290918402A0918502B091860298
:100AA00026B5A89B05C02F3F19F00196A11DB11DC9
:100AB0003FBFBA2FA92F982F8827BC01CD01620F05
:100AC000711D811D911D42E0660F771F881F991FC0
:100AD0004A95D1F708958F929F92AF92BF92CF928D
:100AE000DF92EF92FF926B017C010E9446054B0161
:100AF0005C01C114D104E104F104B9F00E9446057F
:100B0000681979098A099B09683E73408105910536
:100B100080F321E0C21AD108E108F10888EE880EBE
:100B200083E0981EA11CB11CE4CFFF90EF90DF90F2
:100B3000CF90BF90AF909F908F9008952FB7F8946B
:100B400060917F0270918002809181029091820277
:100B50002FBF08954115510529F4EAE7F0E080819F
:100B60008F7780836A307105B9F0CB01880F991FA8
:100B7000880F991F807267706860682B88E10FB6D4
:100B8000F894A895809360000FBE60936000E0E643
:100B9000F0E0808180648083232BD9F483B7817F48
:100BA000846083BFF89483B7816083BF85B7806614
:100BB00085BF8F7D85BF7894889583B78E7F83BFEF
:100BC0007894452B29F4EAE7F0E0808180688083FF
:100BD000089583B7817F846083BFF89483B7816071
:100BE00083BF7894889583B78E7F83BF7894E9CF4D
:100BF000DC01FB018081869586958C93208180E1C4
:100C0000289F900111242073818182958F70280F75
:100C100011962C931197218184E0289F9001112433
:100C20002C7382818295869586958370280F129603
:100C30002C93129782818F7313968C930895FB01E6
:100C4000AC01405F5F4FDC012D91CD0131911197D7
:100C500023272C9384179507B1F70895FC0120E012
:100C600030E02F3029F09181392F331F3327331F84
:100C70009191DF011197990F930F9C932F5F203172
:100C800079F708950F931F93CF93DF9300D000D08F
:100C9000CDB7DEB7FB019485368527854585498329
:100CA0003A832B839C83BE016B5F7F4F9E012F5F36
:100CB0003F4FD9019D919D018D0101501109492F8F
:100CC00042954F70A92FAF70B0E14B9FA001112446
:100CD000425D5E4FA40FB52FB11D9C91D8019C932E
:100CE0002617370731F791E05BE1813039F0492F62
:100CF000440F97FD45278150942FF7CF898198277E
:100D000099838F0194E0DE011196A801FA01819187
:100D1000AF016D918627BF0161507109FB0180838E
:100D2000BD0161507109FB018083A217B30771F700
:100D300091500C5F1F4F9111E6CF0F900F900F90C5
:100D40000F90DF91CF911F910F910895EEE6F2E0A1
:100D500084819581948396819583978196838783F7
:100D60008085928590878287818593859187838707
:100D700087859685978795859687948595878487B7
:100D80000895CF932EE632E0BC01605F7F4FDC0117
:100D9000F90140E0CD9150815C2750834F5F34963C
:100DA0004430C1F72F5F3F4F04968617970779F7B6
:100DB000CF9108953F924F925F926F927F928F9260
:100DC0009F92AF92BF92CF92DF92EF92FF920F93DA
:100DD0001F93CF93DF93CDB7DEB768970FB6F89424
:100DE000DEBF0FBECDBF8C012EE6C22E22E0D22E7A
:100DF000AC01405F5F4FC6017801FC01D70120E0E4
:100E00003D9130832F5F34962430D1F724E0E20EF9
:100E1000F11C0196E416F50681F7FB01DE0111963F
:100E2000CB0140965A2E6B2E21912D93E817F9078E
:100E3000D9F7852D962D0E94C1064424439482E75C
:100E4000A82E82E0B82E4E0159E1850E911C9BE13F
:100E5000392E8EE692E044E0DC01712CEC912E2FCD
:100E600022952F70EF7050E1259F90011124225D93
:100E70003E4FE20FF32FF11D20812C9373941496B3
:100E800024E07212EBCF415001964111E5CF0E9450
:100E9000A606EEE6F2E0CE014596BE016F5E7F4FFC
:100EA0009F01D9015C91DC015D93CD01452F440F79
:100EB00057FD83C0DB014C932C5F3F4F6F5F7F4F2B
:100EC0008816990671F78E89398938272F89688D98
:100ED0009A8992279627432F492741934D895B8909
:100EE0009427952793839C8986278427852789279C
:100EF00087832427292732273387AE16BF0659F662
:100F0000652D762D842D0E944206852D962D0E94FA
:100F1000C1064394BAE04B129CCF8EE692E0DC010E
:100F200040E0EC912E2F22952F70EF7050E1259F1D
:100F300090011124225D3E4FE20FF32FF11D20811D
:100F40002C934F5F1496443061F77A940196711098
:100F5000E6CF0E94A606652D762D8AE00E94420605
:100F6000852D962D0E94C106D801F60180E0908162
:100F70009D938F5F34968430D1F78FEFC81AD80ACB
:100F80000C5F1F4F0E151F0579F768960FB6F89482
:100F9000DEBF0FBECDBFDF91CF911F910F91FF90AC
:100FA000EF90DF90CF90BF90AF909F908F907F9009
:100FB0006F905F904F903F90089543257BCF8EBDFB
:100FC00000000DB407FEFDCF8EB508950F931F935B
:100FD000CF93DF93082F162FCFE7D3E060E08B810C
:100FE0000E94C904802F80680E94DF07812F0E9421
:100FF000DF0761E08B81DF91CF911F910F910C94FE
:10100000C9041F93CF93DF93182FCFE7D3E060E09D
:101010008B810E94C904812F0E94DF0780E00E941B
:10102000DF07182F61E08B810E94C904812FDF91B7
:10103000CF911F910895CF93DF93D82FD06281E095
:101040000E940108C82F8091BA0361E8813011F035
:1010500061E081E00E94E6076D2F8BE00E94E607C9
:101060006C2F81E00E94E60780E0DF91CF91089528
:101070008F929F92AF92BF92CF92DF92EF92FF92A8
:10108000CF93DF934B015C010E949E056093830325
:1010900070938403809385039093860381E00E947C
:1010A0000108C82F8091BA0361E8813011F061E036
:1010B00081E00E94E60769ED86E00E94E607992735
:1010C0008B2D7A2D692D87E00E94E607682D88E038
:1010D0000E94E6070E949E05609387037093880331
:1010E0008093890390938A0364E670E080E090E047
:1010F0000E946B0586E00E940108C82E87E00E94CE
:101100000108D82FD12CDC2CCC24F12CE12CFE2C86
:10111000ED2CDC2CCC2488E00E9401082D2F30E03F
:10112000322F222790E0B0E0A0E0820F931FA11D94
:10113000B11D8C0D9D1DAE1DBF1DD1E088169906F9
:10114000AA06BB0649F48092A3039092A403A0923E
:10115000A503B092A603D0E06C2F81E00E94E607C1
:1011600064E670E080E090E00E946B058D2FDF91D7
:10117000CF91FF90EF90DF90CF90BF90AF909F9076
:101180008F9008958091BA03882321F18DE10E9408
:10119000010890917F03682F91111AC064608DE15E
:1011A0000E94E6078DE10E94010890917F0320E0F4
:1011B000911101C022E090E002C0959587952A9593
:1011C000E2F780FF09C081E08093B10380E00895D9
:1011D0006160E5CF8FEF089581E008958091BA03B3
:1011E000882381F08EE10E94010890E024E095952B
:1011F00087952A95E1F78093A2038650873020F0E7
:1012000081E008958FEF089580E00895CF9381E005
:101210000E940108C82F8091BA03813061F461E80F
:101220000E94E6076FEF82E10E94E6076C2F81E0E3
:10123000CF910C94E60761E081E00E94E6076FEF32
:101240008EE30E94E6076FEF8FE3EECFCF93DF933D
:10125000C82F81E00E940108D82FC093BF0380915E
:10126000BA038130F9F461E80E94E6076091BF0398
:1012700082E20E94E60782E20E940108C1E09091AA
:10128000BF03981301C0C0E06D2F81E00E94E60704
:101290006AEF70E080E090E00E946B058C2FDF9198
:1012A000CF91089561E081E00E94E6076091BF035D
:1012B00082E30E94E60782E3DFCF2F923F924F92B4
:1012C0005F926F927F928F929F92AF92BF92CF92D6
:1012D000DF92EF92FF920F931F93CF93DF93CDB7DF
:1012E000DEB761970FB6F894DEBF0FBECDBF898B16
:1012F0008091A003812C34E2932E34EFA32E37E4A7
:10130000B32E873081F0812C44E2942E44EFA42E3A
:1013100048E4B42E883039F4812C24E2922E24E75C
:10132000A22E28E4B22E1091A20381E00E940108AF
:101330008B830E949E052091BA03288B213009F0EF
:10134000F5C061E881E00E94E60781E090E002C01C
:10135000880F991F1A95E2F7312C212C10E000E03C
:1013600033E039839C01990F440B550B2C873D8743
:101370004E875F870E9406090E949E050E949E0577
:101380009B01AC012C593F4F4F4F5F4F2C833D8346
:101390004E835F8367E881E00E94E6070E9446056E
:1013A000688779878A879B8782E10E9401081A8271
:1013B000382F3470F32E82FD4EC00E949E052C8182
:1013C0003D814E815F81621773078407950708F09E
:1013D00042C00E9446056B017C016C857D858E852F
:1013E0009F850E9421209B01AC01C501B4010E9490
:1013F00072229B01AC0160E070E080E89FE30E94F4
:1014000072222B013C01C701B601288539854A8526
:101410005B85621B730B840B950B0E941F206B0175
:101420007C0120E034E244E759E4C301B2010E94A8
:10143000802020E030E040E753E40E94EF219B0150
:10144000AC01C701B6010E946B2318169CF082E123
:101450000E940108ADCF0E949E05F11025C0898130
:1014600081508983882309F45EC08989811182CFE4
:10147000198225C03A813111EACF80917F0395E727
:10148000F92E813011F483E6F82E8BE10E940108D9
:101490008F0D8093A903280E311C87FD3A940F5FAE
:1014A0001F4F41E04A83D3CF82E10E94010881703F
:1014B00059895150598B51112FC08983188AC10104
:1014C000B8010E9475236093A9036B8181E00E949B
:1014D000E6070E949E050E9406094981442311F0F7
:1014E00052E0588B888961960FB6F894DEBF0FBE24
:1014F000CDBFDF91CF911F910F91FF90EF90DF90C3
:10150000CF90BF90AF909F908F907F906F905F90A3
:101510004F903F902F900895882309F42BCF188A7D
:1015200091E09983CCCF21E02983C9CF198232E0A1
:10153000388BCBCFEF92FF920F931F93CF93DF9314
:101540008091BA0305E010E0D0E0C0E0813041F5C1
:1015500035E0E32EF12C10E000E080917F03C5E739
:10156000813009F4C3E68BE10E9401088C0F80935F
:10157000A903080F111D87FD1A9581E0E81AF108EB
:1015800061F7C80165E070E00E9475236093A903CC
:1015900080E0DF91CF911F910F91FF90EF90089520
:1015A00081E10E94010890E0959587958093A903B9
:1015B000C80FD91F0150110999F7CE01E3CFFF924F
:1015C0000F931F93CF93DF930BED12E0D0E0C0E0B9
:1015D000F801F1908F01CE010E943E21F81621F012
:1015E0006F2DCE010E9446212196C730D10581F78B
:1015F0008BED92E0DF91CF911F910F91FF900895B5
:10160000FC0101900020E9F73197AF01481B590B0D
:10161000BC0182EE92E00C94A10386E592E00C946A
:10162000000BCF93DF930E948E04EC010E940D0B00
:101630008C0F9D1FDF91CF9108951F93CF93DF9360
:10164000C0E01AE068EC70E080E090E00E946B057A
:1016500060E081E00E94E60760E881E00E94E60722
:1016600061E881E00E94E607C19FB00111246E5C31
:101670007F4F072E000C880B990B0E946B0581E0B1
:101680000E940108D82F87EE96E00E94110BC0FD42
:1016900003C0C43159F0CF5FD138A1F681E0809307
:1016A000BA0380E0DF91CF911F910895C0E0F4CF9D
:1016B000CF93DF93C82F81E00E940108D82F80913B
:1016C000BA03811102C00E941D0B61E881E00E94F3
:1016D000E6076C2F89E30E94E60764E670E080E08D
:1016E00090E00E946B0589E30E940108C81311C0B5
:1016F000C0938003C0E06D2F81E00E94E60764E69E
:1017000070E080E090E00E946B058C2FDF91CF911C
:101710000895C1E0F0CFEF92FF920F931F93CF9304
:10172000DF93182F81E00E940108082F8091BA03EF
:10173000DAEFD10F81111AC00E941D0BC82F602F44
:1017400081E00E94E60764E670E080E090E00E949D
:101750006B05D73018F41093A203C0E08C2FDF91F3
:10176000CF911F910F91FF90EF90089561E881E074
:101770000E94E6078EE10E940108C82FD73008F0CA
:1017800053C0ED2FF0E0E953F44F0C948923CE0BB6
:10179000120C160C190C1C0C1F0C7E0CCF76C0669C
:1017A0000E94C2080E94C20865E081E30E94E60729
:1017B0006CE087E30E94E607F12C80917F038111A2
:1017C000ABC0C4606F2D8DE10E94E6076C2F8EE1E7
:1017D0000E94E60764E670E080E090E00E946B05FE
:1017E000F0907F03F1109FC08DE10E940108C82F87
:1017F0008EE10E940108282FD73008F0C9C0ED2FD4
:10180000F0E0E55FF34F90E034E0959587953A95E9
:10181000E1F70C9489239E0CA80CAD0CB10CB40C10
:10182000B70CC50CCF77C067F12C2EC0CF78C0683D
:10183000FBCFCF79C069F8CFCF7AC06AF5CFCF7B25
:10184000C06B8091BA03882369F080917F03811176
:101850004FC08DE10E940108829586958695837020
:101860008093A0038091A0038730F1F680917F03DD
:10187000811147C08DE10E940108F82E6894F0F8AC
:101880006F2D8DE10E94E6078091BA03882339F11C
:101890008DE10E9401089091A203963049F0909149
:1018A0007F03682F911136C06B7F8DE10E94E607A0
:1018B00080917F03E12C811102C052E0E52E8091DE
:1018C000A203863061F08DE10E94010890E002C021
:1018D00095958795EA94E2F780FF1092B10363E053
:1018E00081E30E94E6076AE087E30E94E60765CF8E
:1018F0008DE10E94010882958F70B2CFCF7CC06CC1
:10190000B1CF86E20E940108682F686086E20E94DB
:10191000E6078ACF6E7FC9CF86E20E940108682F52
:10192000646086E251CF86E20E940108C82F8EE1F2
:101930000E9401082C2F43E0F42E5ECF069779F425
:1019400022FF0DC08091B103813049F4C0E0F7CE91
:10195000079729F422FF03C0F9CF0897D9F3C2E013
:10196000EECE0997E1F7F6CF0A97C9F7F3CF0B97B9
:10197000B1F722FFF4CF8C2F90E002C095958795A8
:10198000FA94E2F780FFEBCFE1CF0C9741F7F1CF6C
:10199000C1E0D5CEFF920F931F93CF93DF938C01BD
:1019A00081E00E940108F82E8091BA03D2E08111F3
:1019B00003C00E941D0BD82F61E881E00E94E6075A
:1019C0008DE10E940108C82F90917F03911142C0C0
:1019D00008301105C9F109301105C9F1CF730E9412
:1019E000EE088091A2038B3011F4C16002C08C30EC
:1019F000E1F36C2F8DE10E94E60764E670E080E081
:101A000090E00E946B058DE10E94010890917F0398
:101A1000282F30E0911144C096E0359527959A958E
:101A2000E1F70830110589F109301105A9F1232BDF
:101A300041F49091A2039B3009F057C08095D82FB4
:101A4000D170D11157C024C0CF77C064D2CFCF7B23
:101A5000C068CFCFCF7008301105D1F30930110520
:101A600091F0C0670E94EE088091A2038B508230F3
:101A700008F0BFCF86E20E940108682F686086E206
:101A80000E94E607B6CFC069B4CF21303105C9F650
:101A90000093A003D0E02EC02230310591F6F8CF9C
:101AA00084E0359527958A95E1F70830110599F07E
:101AB00009301105A9F02730310519F686E20E9498
:101AC00001089091A2039B3031F583FBDD27D0F90B
:101AD00081E0D827B6CF2830310509F0B2CFD8CF72
:101AE0002930310509F0ADCFD3CF9C3089F680FD88
:101AF000CFCFD1E06F2D81E00E94E60764E670E071
:101B000080E090E00E946B058D2FDF91CF911F91B7
:101B10000F91FF9008959C3009F0BACF83FDB8CFA4
:101B2000E8CFCF93DF9381E00E940108D82F809106
:101B3000BA03C2E0811103C00E941D0BC82F61E8E7
:101B400081E00E94E6078DE10E94010890917F03E9
:101B5000682F91112EC06F7C68608DE10E94E607AE
:101B600064E670E080E090E00E946B058DE10E94E9
:101B7000010820917F03213009F023E090E002C0AA
:101B8000959587952A95E2F787709927019709F42B
:101B9000C0E081E08093A1036D2F0E94E60764E618
:101BA00070E080E090E00E946B058C2FDF91CF9178
:101BB0000895617F6260D1CF8F929F92AF92BF9262
:101BC0000F931F93CF93DF93CDB7DEB7A1970FB6D7
:101BD000F894DEBF0FBECDBF19A2423008F44AE030
:101BE0008E010F5D1F4F842E912CB12CA12CA501CD
:101BF00094010E94BD21E62FB901CA01EA30F4F434
:101C0000E05DD801EE938D01232B242B252B79F752
:101C100090E080E0109719F0CD010E94000BA19692
:101C20000FB6F894DEBF0FBECDBFDF91CF911F91ED
:101C30000F91BF90AF909F908F900895E95CE1CF96
:101C4000462F682F70E090E080E00C94DC0DCF937D
:101C5000DF930E94000BEC010E940D0B8C0F9D1F67
:101C6000DF91CF910895CF92DF92EF92FF92CF93C1
:101C7000DF9397FF1BC06B017C016DE282EE92E067
:101C80000E944104EC0166277727CB016C197D097E
:101C90008E099F094AE00E94DC0D8C0F9D1FDF9189
:101CA000CF91FF90EF90DF90CF9008954AE0DF91C1
:101CB000CF91FF90EF90DF90CF900C94DC0DBC01A2
:101CC000990F880B990B0C94330E0E949E05AB0163
:101CD000BC018091DD049091DE04A091DF04B091FD
:101CE000E00484179507A607B70708F052C0809351
:101CF000D9049093DA04A093DB04B093DC0440EAA7
:101D00005CE860E070E04093D5045093D6046093A3
:101D1000D7047093D80480589141A94CBF4F809349
:101D2000DD049093DE04A093DF04B093E0048FEC15
:101D300096E00E94110B8EEB96E00E948E0460915B
:101D4000D9047091DA048091DB049091DC044AE0BC
:101D50000E94DC0D8EEA96E00E948E046091DD0404
:101D60007091DE048091DF049091E0044AE00E94CB
:101D7000DC0D8BE996E00E948E046091D504709191
:101D8000D6048091D7049091D8040E94330E0E940B
:101D90000D0B6091D5047091D6048091D704909179
:101DA000D80408951F920F920FB60F9211242F930B
:101DB0003F934F935F936F937F938F939F93AF93D3
:101DC000BF93EF93FF9382EE92E00E941F04FF9176
:101DD000EF91BF91AF919F918F917F916F915F91A3
:101DE0004F913F912F910F900FBE0F901F9018951C
:101DF0001F920F920FB60F9211242F938F939F93E0
:101E0000EF93FF93E091F202F091F3028081E09171
:101E1000F802F091F90282FD1BC090818091FB02D3
:101E20008F5F8F732091FC02821741F0E091FB02DB
:101E3000F0E0EE51FD4F958F8093FB02FF91EF9103
:101E40009F918F912F910F900FBE0F901F9018951B
:101E50008081F4CF1F920F920FB60F9211242F930F
:101E60003F938F939F93AF93BF9380917F02909105
:101E70008002A0918102B091820230917E0223E023
:101E8000230F2D3758F50196A11DB11D20937E0219
:101E900080937F0290938002A0938102B09382028C
:101EA0008091830290918402A0918502B091860274
:101EB0000196A11DB11D8093830290938402A0938B
:101EC0008502B0938602BF91AF919F918F913F9110
:101ED0002F910F900FBE0F901F90189526E8230F9B
:101EE0000296A11DB11DD2CF1F920F920FB60F9275
:101EF00011248F930FB6F894A895809160008861A3
:101F000080936000109260000FBE8F910F900FBE03
:101F10000F901F9018950F931F93CF93DF93E2EECE
:101F2000F2E01382128288EE93E0A0E0B0E08483B6
:101F30009583A683B78388E492E09183808385ECC0
:101F400090E09587848784EC90E09787868780EC83
:101F500090E0918B808B81EC90E0938B828B82EC74
:101F600090E0958B848B86EC90E0978B868B118E1E
:101F7000128E138E148ECFE7D3E08AE08B8397E026
:101F800099A381E08AA39BA340E050EC64EE70E04B
:101F90004CA35DA36EA37FA31AAA1CAA1BAE9FE04D
:101FA00098A71EAA1FAA18AE92E19A831B8E1E8ABA
:101FB0008F8B188E89E08D8B1D8E1092D4040E9419
:101FC0009E056093D9047093DA048093DB049093A8
:101FD000DC0400EA1CE820E030E00093D504109314
:101FE000D6042093D7043093D80460587141894CAB
:101FF0009F4F6093DD047093DE048093DF04909321
:10200000E0041F8E83ED93E09093C1038093C0039F
:102010009093C9038093C8038EEC94E09093D1030E
:102020008093D00319AE88AD8093C20381EE90E017
:102030009093E4048093E304DF91CF911F910F917B
:102040000895CF93DF93CDB7DEB7CA5BD1090FB642
:10205000F894DEBF0FBECDBF789484B5826084BD96
:1020600084B5816084BD85B5826085BD85B581609C
:1020700085BD80916E00816080936E00109281001A
:1020800080918100826080938100809181008160D5
:102090008093810080918000816080938000809196
:1020A000B10084608093B1008091B0008160809322
:1020B000B00080917A00846080937A0080917A00E9
:1020C000826080937A0080917A00816080937A00A8
:1020D00080917A00806880937A001092C10060E05D
:1020E0008EE00E94150561E089E00E94150568EB0D
:1020F0007BE080E090E00E946B05E091F202F091BD
:10210000F30282E08083E091EE02F091EF02108210
:10211000E091F002F091F10283E380831092FA02E1
:10212000E091F602F091F70286E08083E091F402FC
:10213000F091F502808180618083E091F402F0915A
:10214000F502808188608083E091F402F091F502CD
:10215000808180688083E091F402F091F5028081B3
:102160008F7D808384E793E00E948E048FE593E067
:102170000E948E0461E0809182030E94150561E057
:10218000809182030E94C90464E670E080E090E0E0
:102190000E946B051FB7F89480918702811127C0B8
:1021A000E1ECF1E08491EDEAF1E09491E82FF0E0C8
:1021B000EE0FFF1FE756FE4FA591B491EC91E92376
:1021C00021F461E08AE00E94C90461E08AE00E9493
:1021D00015058CB580618CBD8CB580648CBD61E0CB
:1021E0008DE00E94150561E08BE00E94150580914D
:1021F00087028F5F809387021FBF8CB58F7D8CBD58
:102200008CB58C7F81608CBD8DB581608DBD8CB5AA
:10221000837F8CBD64E670E080E090E00E946B05F7
:1022200082E40E940108823209F020C18EEF91E021
:102230000E94110B10927F0380917F03813041F542
:1022400080E891E00E94110B60E089E00E94E607BF
:102250008BE30E940108682F60648BE30E94E6070D
:102260008BE30E94010885FDFBCF60E070E089ED03
:1022700090E00E9438088BE30E940108682F606498
:102280008BE30E94E6078BE30E94010885FDFBCFEC
:102290008BE10E941B080E941D0B0091BA030130C4
:1022A00009F0F8C080917F031DE1882311F002E05E
:1022B0001EE1812F0E94010890917F03682F9111E8
:1022C000E7C06260812F0E94E607812F0E9401080B
:1022D00090E002C0959587950A95E2F780FF03C0CC
:1022E00081E08093B3038091BA03813009F0E0C0AC
:1022F00080E20E9401081092AC038093AD0381E25A
:102300000E9401082091AC033091AD03820F932FFE
:10231000911D9093AD038093AC03809181030E9443
:10232000580B8091BA03882329F089E30E940108A1
:102330008093800380918003809381030E949E0597
:10234000611571058105910511F00E94DA1DBBED43
:10235000EB2EB2E0FB2E10E000E0C8010E943E210F
:10236000D7018D937D010F5F1F4F07301105A9F72E
:102370000091DB02023109F0A4C01091DC02153398
:1023800009F09FC08EE393E00E948E048091DD02ED
:102390008093B5038DE193E00E948E046AE070E0C3
:1023A0008091B5030E94200E88E592E00E94270EDE
:1023B0008BEF92E00E948E040093DB021093DC020C
:1023C0008091B5038093DD0286E08093DE028EE18A
:1023D00090E09093E0028093DF021092E1020E946D
:1023E000DF0A87EE92E00E948E046AE070E086E0E9
:1023F0000E94200E88E592E00E94270E81ED92E077
:102400000E948E044AE06EE170E080E090E00E945D
:10241000DC0D88E592E00E94270E81E00E94010811
:10242000082F8091BA03811102C00E941D0B61E840
:1024300081E00E94E6070E94910D8CE00E948B0BC8
:1024400087E090E00E94CA0C8DE10E940108209173
:102450007F0390E021114BC0A3E095958795AA9545
:10246000E1F7019709F448C011E053C082E40E94EB
:102470000108823141F484EE91E00E94110B81E069
:1024800080937F03D9CE8BEC91E00E94110BD4CEC8
:10249000646018CF80E30E940108682F606180E3C8
:1024A0000E94E60780E30E94010884FD19CF1BCF3C
:1024B00085E20E9401081092AC038093AD0386E28E
:1024C0001FCF82E18093DB0285E38093DC02809161
:1024D000B5038093DD0286E08093DE028EE190E01A
:1024E0009093E0028093DF021092E10296CF9595DF
:1024F0008795C99709F0B8CF8EE10E94010890E056
:10250000E4E095958795EA95E1F711E00C9709F4D9
:1025100010E0809181030E94580B111103C081E0EB
:1025200080939303602F81E00E94E60764E670E0E9
:1025300080E090E00E946B058CEB92E00E948E049C
:10254000812F90E00E945F0E88E592E00E94270EA6
:1025500011E010939703109296038CE00E948B0B6E
:10256000082F81EB92E00E948E048CE090E00E94A4
:102570005F0E88EA92E00E948E04802F90E00E9415
:102580005F0E88E592E00E94270E66E676E089ED10
:1025900090E00E943808082F86E892E00E948E049E
:1025A000802F000F990B0E945F0E88E592E00E9439
:1025B000270E10939C0380917F031AE581111DE47F
:1025C00081E00E940108082F8091BA0361E8813000
:1025D00011F061E081E00E94E60764E8812F0E942B
:1025E000E60780E10E941B0890917F0380919C0385
:1025F0009111D2C11CE8811101C01FE0612F89E057
:102600000E94E6071093A70389E00E94010811E0E9
:102610009091A703981301C010E0602F81E00E9401
:10262000E60764E670E080E090E00E946B0580E7DA
:1026300092E00E948E04812F90E00E945F0E88E558
:1026400092E00E94270E86E08093B00381E00E9412
:102650000108182F8091BA0361EC813011F061E01C
:1026600081E00E94E60766E083E30E94E60760E0FF
:1026700084E30E94E60783E30E940108F82E612F9D
:1026800081E00E94E60701E010E08091B0038F1125
:1026900002C010E000E086E592E00E948E04C801CE
:1026A0000E945F0E88E592E00E94270E84E30E945C
:1026B000580B182F88E392E00E948E04812F110F8F
:1026C000990B0E945F0E88E592E00E94270E88E138
:1026D00092E00E948E0464EF71E080E090E00E943E
:1026E0006B05FE01EF57FF4FCB55DF4FF983E883B2
:1026F000C55AD0401E01F1E52F0E311C21E830E013
:102700002C0F3D1F205F3F4FC954DF4F3983288373
:10271000C75BD040A101405F5F4FC754DF4F598373
:102720004883C95BD040CE018F589F4FC955DF4FBA
:1027300099838883C75AD040ADB7BEB7CF54DF4F17
:10274000B983A883C15BD04061E089E00E94C904DD
:1027500068EC70E080E090E00E946B0565E0E62E9A
:10276000F12C812C912C540170E4C72EC0927C0076
:1027700080917A00806480937A0080917A00B82FEB
:10278000B074C755DF4FB883C95AD04086FDF5CF26
:102790006091780000917900102F062F8FE993E067
:1027A0000E948E04C8010E945F0E0E940D0BB801AA
:1027B000110F880B990B0E94212023E333E343E799
:1027C0005FE30E94802020E030E44CE955E40E9461
:1027D000802020E030E040E85AE30E94802020E0A2
:1027E00030E04AEF53E40E94EE2120E030E040E286
:1027F00051E40E9472229B01AC01C501B4010E9408
:10280000EF214B015C0164E670E080E090E00E9403
:102810006B05E1E0EE1AF10809F0A8CF60E089E06D
:102820000E94C9048DE896E00E948E0420E030E00A
:1028300040EA50E4C501B4010E9472222B013C0120
:10284000AC019B010E947023882309F4AAC089E58A
:1028500092E00E94000B88E592E00E94270E9E0104
:102860002F5F3F4F5901890122E044E0C301B201CB
:102870000E94211D7C0110E000E0009799F0DC012E
:102880000D900020E9F7BD01681B790B90E080E016
:102890000E94C8248C01009729F0FC011082B70126
:1028A0000E948E251F930F9380E291E09F938F9358
:1028B00085E692E09F938F938BE892E09F938F93AE
:1028C0000E949525C355DF4F99838883CD5AD04008
:1028D0002DB73EB7285F3F4F0FB6F8943EBF0FBEEF
:1028E0002DBF0115110519F0C8010E943F2484E88D
:1028F00096E00E948E048BE892E00E94000B88E52F
:1029000092E00E94270E8EE696E00E948E046AE016
:1029100070E0C355DF4F8881CD5AD0400E94200E11
:1029200088E592E00E94270EC355DF4F888099808A
:10293000CD5AD040992484E18093BC038BE892E087
:102940000E94000B88E592E00E94270E8BE596E03E
:102950000E948E045BE8E52E52E0F52EC7018B58ED
:102960009240881599050CF0AEC08701D7018C9173
:10297000803120F489E596E00E948E04BFEFEB1AC7
:10298000FB0A60E170E0F80180810E94200E87E57B
:1029900096E00E948E04E2CF1EE081111CE81067D1
:1029A0002DCE53014201E894B7F82FEF3FEF4FE7E8
:1029B0005FE7C501B4010E94702381110DC02FEFA4
:1029C0003FEF4FE75FE7C501B4010E941A201816D8
:1029D0001CF48DE592E03DCF2FEF3FEF4FE75FE432
:1029E000C301B2010E946B2318161CF481E692E029
:1029F00030CF2FEF3FEF4FE75FECC301B2010E94F2
:102A00001A2087FDF3CF20E030E0A901C301B20115
:102A10000E941A2087FF54C06DE282EE92E00E946D
:102A20004104C301B20190582AE037ED43EA5BE369
:102A30000E94EF216B017C010E94E4224B015C01AA
:102A40000E941F209B01AC01C701B6010E94EE212C
:102A50006B017C014AE0C501B4010E94DC0D6EE20D
:102A600082EE92E00E94410420E030E040E251E436
:102A7000C701B6010E9480206B017C010E94E42204
:102A80004B01B12CA12C4AE0C501B4010E94DC0D20
:102A9000C501B4010E941F209B01AC01C701B60112
:102AA0000E94EE2120E030E040E251E40E948020CC
:102AB0000E94E42290E080E04AE00E94DC0DCBCE50
:102AC000C301B201B1CF88E592E00E94270E8BE4EA
:102AD00096E00E948E0488E396E00E948E04609047
:102AE000890250908A02C355DF4FC880CD5AD0402A
:102AF000C2944FE0C422C355DF4FF881CD5AD04075
:102B0000FF70EF2E09F0C394FF24F3940BE812E05A
:102B10007724739421E2D22E36E2432ECF14E0F1D3
:102B200079821A821B821C821D821E82DF8227E12B
:102B3000288779864A866B865C861D861E861F8658
:102B4000F88A60E071E0C5010E94DA06FC1479F0B1
:102B5000F5019801205F3F4F9191D8018C91892711
:102B60008D938D01A217B307B9F7F394D7CFE11076
:102B700002C090E1E92EF501D80191918C9189274D
:102B80008D938E2F8A198E15C0F38FEF8E0D90E0E6
:102B90000196080F191FE9CF8BE8E82E82E0F82E86
:102BA000C7018B58924088159905BCF48701F7013D
:102BB0008081803120F486E396E00E948E04FFEF4E
:102BC000EF1AFF0A60E170E0D8018C910E94200E9C
:102BD00084E396E00E948E04E3CF88E592E00E94B1
:102BE000270E80E4898381E28A8387E18B8381E0F9
:102BF0008C8396E29D831E820091890210918A0245
:102C00000F8318878987DE011A96EBE8F2E0CF017F
:102C10008B589240881599051CF481918D93F7CFBC
:102C2000C355DF4FC880CD5AD040B9E0CB0E88E104
:102C300096E00E948E0480E1CB55DF4FE881F98158
:102C4000C55AD040282F11922A95E9F7C955DF4F70
:102C5000A881B981C75AD040E82F1D92EA95E9F7BB
:102C60007E01F1E6EF0EF11CD701E82F1D92EA95E7
:102C7000E9F7D1011D928A95E9F789E4CF56DF4F34
:102C80008883C159D040CE56DF4F1882C259D040F8
:102C9000CD56DF4F1882C359D040CC56DF4F188233
:102CA000C459D040CB56DF4F1882C559D040CA56C0
:102CB000DF4F1882C659D04081E2C956DF4F888362
:102CC000C759D04087E1C856DF4F8883C859D040E4
:102CD00081E0C756DF4F8883C959D04086E2C65687
:102CE000DF4F8883CA59D040C556DF4F0883CB5980
:102CF000D040C456DF4F1883CC59D040C356DF4F65
:102D00001882CD59D040C256DF4F1882CE59D040DC
:102D1000C156DF4F1882CF59D040C056DF4FC8820E
:102D2000C05AD0405C2C52940FE05022BC2DBF7092
:102D30007B2E09F0539460E171E0CE018F579F4FD5
:102D40000E94DA06CF57DF4F1881C158D040CE011C
:102D50008F579F4F0E942E0617FF0CC0C057DF4FA2
:102D60008881C059D04097E88927C057DF4F8883B2
:102D7000C059D040FE01EF57FF4FDE01AF58BF4FA3
:102D800081918D93C954DF4F28813981C75BD04031
:102D90002E173F07A9F7E2961FADE297CE018F5895
:102DA0009F4F0E942E0617FF0CC0C058DF4F88812E
:102DB000C058D04097E88927C058DF4F8883C05853
:102DC000D04060E171E0CE018F569F4F0E94DA063D
:102DD000FE01EF56FF4FCF014096D70121912D9371
:102DE0008E179F07D9F7662463948501651428F52B
:102DF000F8014101C8014096D10121912D93E817B6
:102E0000F907D9F7005F1F4FB701C1010E941F06E4
:102E100060E171E0C1010E94DA06F701D4018D91F1
:102E20004D018193C754DF4F28813981C95BD04060
:102E3000A217B30799F76394D9CF711079C0F8013D
:102E4000D101C801409621912D938E179F07D9F784
:102E5000BE016F577F4FC1010E941F06B701C1011C
:102E60000E941F0660E171E0C1010E94DA06D101F3
:102E70008C91CF55DF4F8883C15AD04011968C91E9
:102E80001197CE55DF4F8883C25AD04012968C914D
:102E90001297CD55DF4F8883C35AD04013968C913B
:102EA000CC55DF4F8883C45AD040FE01EF55FF4F09
:102EB000D501AC0DB11DCF01049621912D93E817DA
:102EC000F907D9F7C355DF4FB881CD5AD040B35F6A
:102ED000C355DF4FB883CD5AD04086EF95E00E94AE
:102EE0008E0484EA95E00E948E048501C355DF4F6D
:102EF000E881CD5AD0404E2E512CC8018A199B0929
:102F0000841595050CF044C0D801CD908D01BFE02B
:102F1000BC1520F082EA95E00E948E0460E170E02A
:102F20008C2D0E94200E80EA95E00E948E04E5CF51
:102F3000F10180E8C755DF4F3881C95AD0403715B5
:102F400068F4D8019D918D019083C755DF4F28818A
:102F5000C95AD040721650F4108208C0C755DF4FCE
:102F6000B881C95AD0407B12F0CF8083C755DF4F5C
:102F70003881C95AD0403F5FC755DF4F3883C95A9F
:102F8000D04031963031B1F6BE016F587F4F63CFDC
:102F900088E592E00E94270EA201B5018BE892E03D
:102FA0000E948525E3E0F0E092012E5F3F4FC901CA
:102FB000BF010E947523A901481B590BCA01BF011B
:102FC0000E947523660F771F660F771F6F5F7F4F15
:102FD0008DB79EB7861B970B0FB6F8949EBF0FBE9A
:102FE0008DBFADB7BEB711965D011BE8612E12E033
:102FF000712E10E000E0912C812CF201E557FD4F7D
:10300000C755DF4FF983E883C95AD0406101F4E026
:10301000CF0ED11CC755DF4F28813981C95AD04006
:103020006216730629F1D3012D913D01C401019669
:10303000F701E80DF91D208383309105B9F4B7013C
:10304000C1010E94F805D101C501800F911FED91CA
:10305000F0E0E855FC4F2491FC012193CF01CA1602
:10306000DB06A9F70C5F1F4F90E080E04C01D2CF48
:103070008114910499F1F701E80DF91DCF018E1922
:103080009F09039714F41192F9CFB701C1010E946F
:10309000F805C501800F911FD101ED91F0E0E855D1
:1030A000FC4F2491FC012193CF019D01221933098A
:1030B0008216930694F7C80101968401080F191F20
:1030C000F501E00FF11F2DE3A801481B590B433018
:1030D000510524F40F5F1F4F2193F6CFF501E00F48
:1030E000F11F10828CE795E00E948E04C5010E94BA
:1030F000000B88E592E00E94270E8EE495E00E9486
:103100008E0481E080939A038091890290918A02D3
:10311000019690938A028093890282E694E00E944D
:103120008E0480919403882309F4F5C0709097036E
:10313000772009F4F0C0F3E0FF2EC12CA3E06A2E43
:10314000E8E0EE2E0E949E0560938B0370938C0343
:1031500080938D0390938E03809194030E945D0968
:10316000182F0E949E0560938F03709390038093A5
:1031700091039093920389E594E00E948E046091FC
:103180008F037091900380919103909192038090AE
:103190008B0390908C03A0908D03B0908E036819E0
:1031A00079098A099B094AE00E94DC0D0E940D0BF7
:1031B0001111AAC284E594E00E948E0480919503C7
:1031C000882309F47DC00E948B1D27E030E040E099
:1031D00050E00E9454214B015C01FFEF8F1A9F0ABF
:1031E000AF0ABF0A86E494E00E948E046AE070E0B1
:1031F000882D0E94200E8EE394E00E948E04E091C0
:103200009303F0E0E75CFD4F8081889EC0011124AC
:103210000E945F0E0E940D0BE0919303F0E0E75CCB
:10322000FD4F6081869EB0011124072E000C880B93
:10323000990B0E946B050E949E0560938B0370930F
:103240008C0380938D0390938E03809194030E944E
:103250005D09082F10E00E949E0560938F03709314
:103260009003809391039093920385E394E00E94EE
:103270008E0460918F0370919003809191039091DF
:10328000920380908B0390908C03A0908D03B0905C
:103290008E03681979098A099B094AE00E94DC0DAE
:1032A0000E940D0B81E394E00115110511F08EE2EF
:1032B00094E00E948E040E940D0B012B09F074C251
:1032C00080919603882309F47CC20E949A0A811196
:1032D0006FC218E00E949A0A89EF93E00E948E0460
:1032E0008091A903082E000C990B0E945F0E0E948A
:1032F0000D0B115061E070E080E090E00E946B05E2
:103300008091A903873A0CF458C21111E3CFFA94C3
:10331000C72CF11015CF0E949E05C755DF4F68835B
:1033200079838A839B83C95AD040C355DF4F588124
:10333000CD5AD0405C3F08F447C28BEF90E09093A9
:10334000AF038093AE038091D404882309F441C273
:10335000A090AE03B090AF0380919A03811103C097
:1033600084E0A80EB11C0E94650ECD54DF4F688327
:1033700079838A839B83C35BD0401091A003C12CC7
:1033800064E2D62E64EFE62E67E4F62E173081F065
:10339000C12C74E2D72E74E7E72E78E4F72E1830AC
:1033A00039F0C12C54E2D52E54EFE52E58E4F52E19
:1033B0000091A203602E712C61E070E0002E02C02B
:1033C000660F771F0A94E2F7072E000C880B990B03
:1033D0000E9421209B01AC01C701B6010E9472220C
:1033E0009B01AC0160E070E080E89FE30E947222E4
:1033F0006B017C016091AC037091AD036C5F7F4FFA
:1034000090E080E00E941F2020E030E048E850E497
:103410000E94EF21A70196010E948020C355DF4F33
:10342000688379838A839B83CD5AD040173019F4FF
:1034300011E00C3009F010E0B5017727660F771F17
:1034400066197709655F7F4F2091B1034BEF420307
:1034500090011124620F731F660F771F660F771F8D
:10346000072E000C880B990B0E9421204B015C0158
:10347000812F90E0880F991FB301681B790B660FAD
:10348000771F660F771F072E000C880B990B0E9481
:1034900021209B01AC01C501B4010E9472220E944F
:1034A0005B224B015C016091A10370E06C5F7F4F78
:1034B000072E000C880B990B0E942120A501940176
:1034C0000E9480204B015C0120E030E0A9010E94B5
:1034D0006B2320E030E040E051E4181634F4C501DD
:1034E000B4010E94EF219B01AC01C701B6010E940B
:1034F0008020C355DF4F288139814A815B81CD5AB5
:10350000D0400E94EF2120E034E244E759E40E94D9
:10351000802027E73EEB4FE75FE30E94EF210E9408
:1035200013230E94E42228EE33E040E050E00E94A2
:10353000BD21CA01B9010E941F2020E030E040E80F
:103540005FE30E94EF210E94E4227093E204609303
:10355000E104CD54DF4F88819981AA81BB81C35B8F
:10356000D040861B970BA109B109B7FF32C18BE68A
:1035700094E00E948E040E949E054AE00E94DC0DA9
:103580000E940D0B84E0F82E0E949E054B015C0109
:1035900010929A038091B5038093DD020E94DF0AA6
:1035A0008FE395E00E948E04C2010E945F0E88E5C1
:1035B00092E00E94270E81E395E00E948E046AE06B
:1035C00070E08091BE030E94200E88E592E00E9488
:1035D000270E83E295E00E948E04C501B401C75511
:1035E000DF4F288139814A815B81C95AD040621BF3
:1035F000730B840B950B0E94330E88E592E00E94BA
:10360000270E8FE095E00E948E0480918B039091AD
:103610008C03A0918D03B0918E03A5019401281B0A
:10362000390B4A0B5B0BCA01B9014AE00E94DC0D61
:1036300088E592E00E94270E8BEF94E00E948E04B2
:103640008F2D90E00E945F0E88E592E00E94270E89
:103650008EED94E00E948E0461E881E00E94E6070E
:1036600064E670E080E090E00E946B0560E881E035
:103670000E94E60781E00E940108803809F4BDC17C
:1036800083E894E00E948E0482EE92E00E94A904F6
:1036900062E370E080E090E00E946B050E948B1D69
:1036A00022E030E040E050E00E9454218B019C0178
:1036B0000E5F1F4F2F4F3F4F0F511F4F1093E404CA
:1036C0000093E304F12CE12CE016F10608F098C118
:1036D00030E020E050E040E069E070E088E892E00F
:1036E0000E94AA0581E894E00E948E0482EE92E096
:1036F0000E94A9046AE070E080E090E00E946B05FF
:103700003FEFE31AF30AE0CF8AE294E00E948E04CE
:103710000E948B1D27E030E040E050E00E945421E1
:103720004B015C012FEF821A920AA20AB20A8CE1C5
:1037300094E00E948E046AE070E0882D0E94200EC2
:103740008EE094E00E948E04912CE0919303F0E0CF
:10375000E25DFD4F8081869DC0011124AC01489D32
:10376000C001499D900D589D900D11240E945F0E3F
:103770000E940D0BE0919303F0E0E25DFD4F80812C
:10378000869DC0011124889DB001899D700D989D72
:10379000700D1124072E000C880B990B0E946B05ED
:1037A00083E094E00E948E04EA94E110CBCC88CDB3
:1037B00089EE93E00E948E04AECD112309F4A7CDCB
:1037C000AACDC110A4CDA7CD5092AF034092AE03B5
:1037D000BACD81E00E940108E82E0E94060980917E
:1037E000BA0361E8813011F061E081E00E94E607F0
:1037F0001092B6038091B7032091AE033091AF03CE
:1038000081117CC081E08093B4038093BB038091DD
:10381000B0038093BD039091B5039093BE039F5F67
:103820009093B5031092C2038091BA03811109C02D
:103830002D33310530F08CE390E09093AF0380930B
:10384000AE03ABE8B2E09D012B5832408091AE034D
:103850009091AF032817390748F48D91E091C00388
:10386000F091C103E20FF31F8083EDCF20919A0303
:10387000211101C004960E942609F82E8091BC03F4
:10388000982F90619093BC0390919E03992319F017
:1038900088618093BC0360E88DE00E94E607F11028
:1038A00043C080919A03811113C06091BB030E94B1
:1038B000E6076091BC0380E00E94E6076091BD03CB
:1038C00080E00E94E6076091BE0380E00E94E60768
:1038D00010E000E08091AE039091AF030817190744
:1038E00018F5E091C003F091C103E00FF11F608172
:1038F00080E00E94E6070F5F1F4FECCF813029F474
:103900008091BF038F5F8093BF0380919A038111E1
:1039100002C02C5F3F4F822F0E942609F82E809113
:10392000B7038093C203AACF6E2D81E00E94E60701
:10393000F1102ACE80E197E29093D3048093D204D1
:103940000E949E054B015C0150E1850E57E2951ED9
:10395000A11CB11C8091BA038130D1F50E940609E7
:1039600063E881E00E94E60782E10E940108182FC7
:1039700083FD07C00E949E05681579058A059B0591
:1039800098F313FF37C08091D4048823F1F000919D
:10399000E1041091E2040E94650E8091D404882312
:1039A000A1F08091D5049091D604A091D704B09154
:1039B000D804801B910BA109B1098093D504909381
:1039C000D604A093D704B093D8040E940609DCCD96
:1039D00063E081E00E94E6078FE30E940108182F50
:1039E00083FDCFCF0E949E05681579058A059B054A
:1039F00098F3C7CFFF24F394E8CF8FEA94E042CE48
:103A000062E370E080E090E00E946B05CF54DF4FEE
:103A100048815981C15BD0400FB6F8945EBF0FBE9C
:103A20004DBF80E090E0892B11F40C949C130E9410
:103A30000B04882311F40C9493130E9400000C943F
:103A40009313EF920F931F93CF93DF93E80134E02A
:103A500047FD34E1042E000C550B57FF03C0519570
:103A600041955109E32E022F242FAE010E94E31D40
:103A7000CE01DF91CF911F910F91EF9008958F921A
:103A80009F92AF92BF92CF92DF92EF92FF92CF932D
:103A9000DF93EC01688179818A819B8161157105D1
:103AA0008105910521F464E279ED8BE597E02DE144
:103AB00033EF41E050E00E94542149015A019B013B
:103AC000AC01A7EAB1E40E9473216B017C01ACEE6A
:103AD000B4EFA50194010E948121C60ED71EE81EF5
:103AE000F91EF7FE06C081E0C81AD108E10880E897
:103AF000F80AC882D982EA82FB82C701B6019F77A1
:103B0000DF91CF91FF90EF90DF90CF90BF90AF907B
:103B10009F908F9008958F929F92AF92BF92CF9275
:103B2000DF92EF92FF9260912401709125018091C4
:103B3000260190912701611571058105910521F4F8
:103B400064E279ED8BE597E02DE133EF41E050E061
:103B50000E94542149015A019B01AC01A7EAB1E43A
:103B60000E9473216B017C01ACEEB4EFA5019401BE
:103B70000E948121C60ED71EE81EF91EF7FE06C060
:103B800081E0C81AD108E10880E8F80AC09224014F
:103B9000D0922501E0922601F0922701C701B601DB
:103BA0009F77FF90EF90DF90CF90BF90AF909F9066
:103BB0008F900895609324017093250180932601CE
:103BC000909327010895A9E0B0E0E9EEFDE10C949F
:103BD0008C216A01F22EB02E102FFBE3AF2EA0161F
:103BE00008F41BE31F5F012F27E0AE014F5F5F4F1B
:103BF0000E94421FBC018981982F9970913009F46D
:103C00003FC09BE2E1FC04C09E2D9170E0FC3AC0F5
:103C10005E2D5071E82FE87083FF46C084E091115B
:103C200001C083E0EF2DE81B8F1508F0E0E0D6011E
:103C30008E2F20E2552351F1992329F0D6019C9330
:103C4000C60101966C0196012D5F3F4FE2FE24C034
:103C50008EE4D6018C9391E411969C931197129661
:103C60008C93D9018E2F90E281111BC0E20FF32FAC
:103C7000F11D10828EEF9FEF2996ECE00C94A821A5
:103C80009DE2C6CF90E2C4CF2D9381508111FCCF2D
:103C9000CE0ED11CE0E0D0CF8EE6D6018C9391E61B
:103CA000DBCF9D938150E0CF482F447082FF3DC011
:103CB00084E0911101C083E08F1510F4EF2DE81B13
:103CC000D6018E2F20E2552309F1992329F0D60140
:103CD0009C93C60101966C0196012D5F3F4FE2FE59
:103CE0001BC089E4D6018C938EE411968C931197B6
:103CF00086E412968C93D9018E2F90E2882309F4E2
:103D0000B5CF9D938150FACF2D9381508111FCCF77
:103D1000CE0ED11CE0E0D9CF89E6D6018C938EE699
:103D200011968C93119786E6E4CF9B0177FF02C032
:103D300030E020E0A1E0B0E0911102C0B0E0A0E0EE
:103D4000F9013196AE0FBF1F8B2C912CBB2009F4CB
:103D500061C05401EFEFAE1ABE0AAA0DBB1DFA16E0
:103D60001B0619F014F04F2D4A1B511188C0E3FCBB
:103D700059C07601A42FB0E2A1114FC0C40ED11CCE
:103D8000992309F45BC040E0D6011196F6019083B7
:103D90006D01552309F448C0012F060F9A81582F51
:103DA000507184FF03C0913309F4015010160CF0D8
:103DB00047C0093008F008E0EEE2FE2E5B01A01AD1
:103DC000B10885019194819491082F3F320729F41D
:103DD000D601FC92F60131966F016217730794F1D8
:103DE000021713077CF5DB01A21BB30BAA24A394D3
:103DF000B12CAC0EBD1EAA0DBB1D11968C9121508D
:103E00003109D601119628153905F4F0F6018083A1
:103E10006D01DBCFB12CA12CA0CFF701B1937F01B5
:103E2000A150AACF9111B0CFD601942F50E302C078
:103E30005D9391509111FCCFC40ED11C40E0ACCFEA
:103E400001E0BACF80E3DBCF6217730731F496331A
:103E500088F4953311F4552369F0F6018083FD0150
:103E6000842F90E2811108C0A40FB11D1C9290E034
:103E700080E002CF81E3F1CF91938150F3CF911194
:103E800083CF8ACF283008F027E03327DA01990F53
:103E9000311D87FD916000966105710539F432602E
:103EA0002E5F3D9330E32A95E1F708959F3F30F070
:103EB00080387105610509F03C5F3C5F3D939130AE
:103EC00008F08068911DDF93CF931F930F93FF92AB
:103ED000EF92192F987F9695E92F96959695E90F71
:103EE000FF27EE53FF4F99273327EE24FF24A70126
:103EF000E70105900894079428F4360FE71EF81E92
:103F0000491F511D660F771F881F991F0694A1F73F
:103F10000590079428F4E70EF81E491F561FC11D8F
:103F2000770F881F991F661F0694A1F705900794C5
:103F300028F4F80E491F561FC71FD11D880F991F5F
:103F4000661F771F0694A1F70590079420F4490F88
:103F5000561FC71FD81F990F661F771F881F06940B
:103F6000A9F784911095177041F0D695C79557958C
:103F70004795F794E7941A95C1F7E8E6F0E068945E
:103F80001590159135916591959105907FE2739506
:103F9000E118F10A430B560BC90BD009C0F7E10C2D
:103FA000F11E431F561FC91FD01D7EF4703311F43C
:103FB0008A95E6CFE894015030F0080F0AF4002704
:103FC000021708F4202F2395022F7A3328F079E383
:103FD0007D932A95E9F710C07D932A9589F606947A
:103FE00097956795379517951794E118F10A430B44
:103FF000560BC90BD00998F023957E9173957A33AF
:1040000008F070E37C932013B8F77E9170617D9384
:1040100030F0839571E37D9370E32A95E1F71124E5
:10402000EF90FF900F911F91CF91DF91992787FD1E
:10403000909508950E945C2008F481E00895E8942A
:1040400009C097FB3EF490958095709561957F4FE0
:104050008F4F9F4F9923A9F0F92F96E9BB2793958E
:10406000F695879577956795B795F111F8CFFAF49E
:10407000BB0F11F460FF1BC06F5F7F4F8F4F9F4FCF
:1040800016C0882311F096E911C0772321F09EE82D
:10409000872F762F05C0662371F096E8862F70E093
:1040A00060E02AF09A95660F771F881FDAF7880F6D
:1040B0009695879597F90895990F0008550FAA0BC3
:1040C000E0E8FEEF16161706E807F907C0F012162B
:1040D0001306E407F50798F0621B730B840B950B2E
:1040E00039F40A2661F0232B242B252B21F4089583
:1040F0000A2609F4A140A6958FEF811D811D089520
:104100000E9493200C9404210E94F62038F00E9413
:10411000FD2020F0952311F00C94ED200C94F32059
:1041200011240C9438210E94152170F3959FC1F33E
:10413000950F50E0551F629FF001729FBB27F00D55
:10414000B11D639FAA27F00DB11DAA1F649F6627AA
:10415000B00DA11D661F829F2227B00DA11D621FF9
:10416000739FB00DA11D621F839FA00D611D221FB3
:10417000749F3327A00D611D231F849F600D211D97
:10418000822F762F6A2F11249F5750409AF0F1F01A
:1041900088234AF0EE0FFF1FBB1F661F771F881F83
:1041A00091505040A9F79E3F510580F00C94ED20AE
:1041B0000C9438215F3FE4F3983ED4F386957795CD
:1041C0006795B795F795E7959F5FC1F7FE2B880F29
:1041D000911D9695879597F9089597F99F6780E8BF
:1041E00070E060E008959FEF80EC089500240A9449
:1041F0001616170618060906089500240A941216C2
:104200001306140605060895092E0394000C11F4F4
:10421000882352F0BB0F40F4BF2B11F460FF04C0A1
:104220006F5F7F4F8F4F9F4F089557FD9058440FFA
:10423000551F59F05F3F71F04795880F97FB991F05
:1042400061F09F3F79F087950895121613061406C2
:10425000551FF2CF4695F1DF08C01616170618064F
:10426000991FF1CF86957105610508940895E8942A
:10427000BB2766277727CB0197F90895F999FECFD9
:1042800092BD81BDF89A992780B50895262FF99996
:10429000FECF1FBA92BD81BD20BD0FB6F894FA9A29
:1042A000F99A0FBE01960895052E97FB1EF400940F
:1042B0000E946B2157FD07D00E94BD2107FC03D04F
:1042C0004EF40C946B2150954095309521953F4FBD
:1042D0004F4F5F4F089590958095709561957F4FF2
:1042E0008F4F9F4F08950E94DF21A59F900DB49F8F
:1042F000900DA49F800D911D11240895B7FF0C947B
:1043000073210E947321821B930B08952F923F9279
:104310004F925F926F927F928F929F92AF92BF92D5
:10432000CF92DF92EF92FF920F931F93CF93DF9381
:10433000CDB7DEB7CA1BDB0B0FB6F894DEBF0FBEDE
:10434000CDBF09942A88398848885F846E847D842B
:104350008C849B84AA84B984C884DF80EE80FD802D
:104360000C811B81AA81B981CE0FD11D0FB6F894A3
:10437000DEBF0FBECDBFED010895A1E21A2EAA1B2C
:10438000BB1BFD010DC0AA1FBB1FEE1FFF1FA21705
:10439000B307E407F50720F0A21BB30BE40BF50B02
:1043A000661F771F881F991F1A9469F7609570958B
:1043B000809590959B01AC01BD01CF010895A29F0E
:1043C000B001B39FC001A39F700D811D1124911DE9
:1043D000B29F700D811D1124911D08955058BB2767
:1043E000AA270E9406220C9404210E94F62038F08D
:1043F0000E94FD2020F039F49F3F19F426F40C941C
:10440000F3200EF4E095E7FB0C94ED20E92F0E94D9
:10441000152158F3BA17620773078407950720F030
:1044200079F4A6F50C9437210EF4E0950B2EBA2FF3
:10443000A02D0B01B90190010C01CA01A0011124AA
:10444000FF27591B99F0593F50F4503E68F11A1656
:10445000F040A22F232F342F4427585FF3CF4695E7
:1044600037952795A795F0405395C9F77EF41F1609
:10447000BA0B620B730B840BBAF09150A1F0FF0FD3
:10448000BB1F661F771F881FC2F70EC0BA0F621FBF
:10449000731F841F48F4879577956795B795F795AF
:1044A0009E3F08F0B0CF9395880F08F09927EE0F44
:1044B0009795879508950E94532390F09F3748F46D
:1044C000911116F40C94382160E070E080E89FE3CD
:1044D000089526F01B16611D711D811D0C942A2361
:1044E0000C9445230E9486220C9404210E94FD20F6
:1044F00058F00E94F62040F029F45F3F29F00C9418
:10450000ED2051110C9438210C94F3200E941521B8
:1045100068F39923B1F3552391F3951B550BBB27F2
:10452000AA2762177307840738F09F5F5F4F220F37
:10453000331F441FAA1FA9F335D00E2E3AF0E0E82E
:1045400032D091505040E695001CCAF72BD0FE2F78
:1045500029D0660F771F881FBB1F2617370748070C
:10456000AB07B0E809F0BB0B802DBF01FF279358C4
:104570005F4F3AF09E3F510578F00C94ED200C947B
:1045800038215F3FE4F3983ED4F38695779567959D
:10459000B795F7959F5FC9F7880F911D96958795F9
:1045A00097F90895E1E0660F771F881FBB1F621718
:1045B00073078407BA0720F0621B730B840BBA0BD6
:1045C000EE1F88F7E09508950E941D2188F09F57FF
:1045D00098F0B92F9927B751B0F0E1F0660F771F27
:1045E000881F991F1AF0BA95C9F714C0B13091F01D
:1045F0000E943721B1E008950C943721672F782F5E
:104600008827B85F39F0B93FCCF3869577956795E1
:10461000B395D9F73EF490958095709561957F4F4D
:104620008F4F9F4F08950E94532390F09F3748F477
:10463000911116F00C94382160E070E080E89FEB57
:10464000089526F41B16611D711D811D0C942A23EB
:104650000C944523882371F4772321F09850872BFD
:10466000762F07C0662311F499270DC09051862B31
:1046700070E060E02AF09A95660F771F881FDAF7DE
:10468000880F9695879597F908959F3F31F091503F
:1046900020F4879577956795B795880F911D969526
:1046A000879597F908950E941D21A0F0BEE7B917DC
:1046B00088F4BB279F3860F41616B11D672F782F3A
:1046C0008827985FF7CF869577956795B11D939565
:1046D0009639C8F308950E945C2008F48FEF08957E
:1046E0000E945C20880B990B089597FB072E16F407
:1046F000009407D077FD09D00E948F2307FC05D0D6
:104700003EF4909581959F4F0895709561957F4FE8
:104710000895EE0FFF1F0590F491E02D0994AA1B58
:10472000BB1B51E107C0AA1FBB1FA617B70710F09C
:10473000A61BB70B881F991F5A95A9F780959095CE
:10474000BC01CD0108950F931F93CF93DF93823067
:10475000910510F482E090E0E091E704F091E80424
:1047600030E020E0B0E0A0E0309799F42115310569
:1047700009F44AC0281B390B24303105D8F58A8149
:104780009B816115710589F1FB0193838283FE0191
:1047900011C0408151810281138148175907E0F00F
:1047A0004817590799F4109761F012960C931297D5
:1047B00013961C933296CF01DF91CF911F910F91E9
:1047C00008950093E7041093E804F4CF2115310510
:1047D00051F04217530738F0A901DB019A01BD01DE
:1047E000DF01F801C1CFEF01F9CF9093E804809386
:1047F000E704CDCFFE01E20FF31F81939193225086
:10480000310939832883D7CF2091E5043091E6041C
:10481000232B41F420912A0130912B013093E6049F
:104820002093E504209128013091290121153105BB
:1048300041F42DB73EB740912C0150912D01241B1E
:10484000350BE091E504F091E604E217F307A0F4DC
:104850002E1B3F0B2817390778F0AC014E5F5F4FD6
:104860002417350748F04E0F5F1F5093E60440931E
:10487000E504819391939FCFF0E0E0E09CCFCF934C
:10488000DF930097E9F0FC01329713821282A09126
:10489000E704B091E804ED0130E020E01097A1F4C6
:1048A00020813181820F931F2091E5043091E6042D
:1048B0002817390709F061C0F093E604E093E50496
:1048C000DF91CF910895EA01CE17DF07E8F54A811D
:1048D0005B819E0141155105B1F7E901FB83EA8334
:1048E00049915991C40FD51FEC17FD0761F48081E0
:1048F00091810296840F951FE901998388838281B3
:1049000093819B838A83F0E0E0E012968D919C91E5
:1049100013970097B9F52D913C911197CD0102960F
:10492000820F931F2091E5043091E6042817390780
:1049300039F6309751F51092E8041092E704B093DD
:10494000E604A093E504BCCFD383C28340815181A8
:10495000840F951FC817D90761F44E5F5F4F888198
:104960009981480F591F518340838A819B8193838A
:1049700082832115310509F0B0CFF093E804E0936C
:10498000E7049ECFFD01DC01C0CF13821282D7CF96
:10499000B0E0A0E0EEECF4E20C9488218C010097EA
:1049A00051F4CB010E94A3238C01C801CDB7DEB71F
:1049B000E0E10C94A421FC01E60FF71F9C012250BA
:1049C0003109E217F30708F49DC0D901CD91DC91BC
:1049D0001197C617D70798F0C530D10530F3CE012F
:1049E00004978617970708F3C61BD70B2297C19326
:1049F000D1936D937C93CF010E943F24D6CF5B016E
:104A0000AC1ABD0A4C018C0E9D1EA091E704B0911A
:104A1000E804512C412CF12CE12C109731F58091B8
:104A2000E5049091E6048815990509F05CC04616E6
:104A3000570608F058C080912801909129010097ED
:104A400041F48DB79EB740912C0150912D01841BEC
:104A5000950BE817F90708F055C0F093E604E093CA
:104A6000E504F90171836083A0CF8D919C9111972A
:104A700012966C90129713967C901397A815B9050F
:104A800059F56C0142E0C40ED11CCA14DB0420F1BC
:104A9000AC014A195B09DA011296159780F062821F
:104AA000738251834083D9016D937C93E114F104A7
:104AB00071F0D7011396FC93EE93129776CF22965E
:104AC0008C0F9D1FF90191838083F301EFCFF09349
:104AD000E804E093E70469CF4816590608F42C016E
:104AE0007D01D3019ACFCB010E94A3237C010097C3
:104AF00049F0AE01B8010E948525C8010E943F24FB
:104B0000870153CF10E000E050CFFB01DC0102C071
:104B100001900D9241505040D8F70895FB01DC01FF
:104B200001900D920020E1F70895AEE0B0E0EBE9CE
:104B3000F5E20C9494210D891E8986E08C831A83FA
:104B400009838FEF9FE79E838D83AE01475E5F4FA2
:104B50006F89788DCE0101960E94B8252F81388506
:104B6000020F131FF80110822E96E4E00C94B0217E
:104B7000ABE0B0E0EEEBF5E20C9486217C013B016A
:104B80008A01FC0117821682838181FFC8C1CE0190
:104B900001965C01F7019381F30193FD859193FFE9
:104BA00081913F01882309F453C1853239F493FD83
:104BB000859193FF81913F01853229F4B70190E0FF
:104BC0000E94A827E7CF912C212C312CFFE1F3156F
:104BD00038F08B3211F190F4803209F1833229F1EF
:104BE00037FC3CC020ED280F2A3050F536FE20C09F
:104BF0008AE0989E200D1124922E06C08D3291F0ED
:104C0000803371F7689430F8F30193FD859193FF39
:104C100081913F018111DACF21C0689431F8689405
:104C200032F8F2CF689433F8EFCF689434F8ECCFD1
:104C3000EAE02E9E200D1124222E689435F8E4CF50
:104C40008E3229F436FC04C1689436F8DDCF8C36F8
:104C500019F4689437F8D8CF8836B1F2982F9F7D31
:104C600095549330E0F08336A1F18337C1F1833559
:104C700009F063C02801F2E04F0E511CF801C0801A
:104C8000D180692D70E036FC02C06FEF7FEFC60166
:104C90000E9492274C01689437F882010AC00C5F89
:104CA0001F4FFFE3F98388248394912C6501E894D6
:104CB00037F833FE2DC0522C8114910471F5552024
:104CC00009F468CFB70180E290E00E94A8275A94C7
:104CD000F6CFF801808189830E5F1F4FE4CF280152
:104CE000F2E04F0E511CF801C080D180692D70E0B8
:104CF00036FC02C06FEF7FEFC6010E949D274C017A
:104D00008201D5CFB70180E290E00E94A8272A94C3
:104D10002814190409F0B0F7CECFF60137FC8591BD
:104D200037FE81916F01B70190E00E94A8275110D2
:104D30005A94F1E08F1A9108BFCF843619F0893662
:104D400009F077C0F80137FE6BC060817181828104
:104D500093810C5F1F4FF32DFF763F2E97FF09C005
:104D600090958095709561957F4F8F4F9F4F689478
:104D700037F82AE030E0A5010E94D827C82ECA18CB
:104D80008C2C432C36FE0CC0E89440F8C91440F437
:104D900034FE05C032FC03C0F32DFE7E4F2E892C5D
:104DA00044FE95C0FE01EC0DF11D8081803309F0B9
:104DB00087C0242D297E422E842D8870582E43FCD6
:104DC00095C040FE8FC09C2C821418F42C0C922CA1
:104DD000981844FE91C0B70180E390E00E94A82794
:104DE00042FE09C088E790E041FE02C088E590E0FD
:104DF000B7010E94A827C91408F48AC0CA94D12C0C
:104E00009FEFC91AD90ACA0CDB1CF60182916F0107
:104E1000B70190E00E94A827AC14BD04B1F74FCFB2
:104E200060817181072E000C880B990B0E5F1F4F5C
:104E300092CFD32CE894D4F82AE030E0853739F1CA
:104E4000232D297FD22E8F3601F148F48835A9F021
:104E5000F701868197812B96E2E10C94A22180379D
:104E600049F08837A9F7D4FE02C06894D2F820E14F
:104E700030E00DC06894D4F8F6CF34FE03C0822F22
:104E80008660D82E20E132E002C028E030E0F80150
:104E9000D7FE0FC060817181828193810C5F1F4FAB
:104EA000A5010E94D827C82ECA183D2CE89437F8CF
:104EB00067CF6081718190E080E00E5F1F4FF0CF7F
:104EC00042FC02C0839478CF8394839475CF842D61
:104ED000867809F471CFF6CFB70180E290E00E94A6
:104EE000A82783948214C0F3512C73CF522C5818E6
:104EF000821408F46ECFF8CF842D867809F47BCF26
:104F00008BE241FE80E247FC8DE2B70190E071CF79
:104F1000B70180E390E00E94A8279A946CCF8FEFAE
:104F20009FEF99CFFC010590615070400110D8F7B8
:104F3000809590958E0F9F1F0895FC0161507040E1
:104F400001900110D8F7809590958E0F9F1F0895BE
:104F50000F931F93CF93DF93182F092FEB018B81B2
:104F600081FD09C01FEF0FEF812F902FDF91CF91AF
:104F70001F910F91089582FF14C02E813F818C8173
:104F80009D81281739073CF4E881F981CF0101960A
:104F90009983888310838E819F8101969F838E835E
:104FA000E3CFE885F985812F0995892BA1F3DACF25
:104FB000FA01AA27283051F1203181F1E8946F934A
:104FC0006E7F6E5F7F4F8F4F9F4FAF4FB1E03ED0F0
:104FD000B4E03CD0670F781F891F9A1FA11D680F8E
:104FE000791F8A1F911DA11D6A0F711D811D911DC1
:104FF000A11D20D009F468943F912AE0269F112436
:105000003019305D3193DEF6CF010895462F477099
:10501000405D4193B3E00FD0C9F7F6CF462F4F70F4
:10502000405D4A3318F0495D31FD4052419302D052
:10503000A9F7EACFB4E0A6959795879577956795F8
:10504000BA95C9F700976105710508959B01AC01F8
:105050000A2E06945795479537952795BA95C9F71F
:10506000620F731F841F951FA01D0895F894FFCF32
:105070000540AC07B09E0C60650D50CF00F01C0DD4
:105080000110FF0060BA0AE00F0A606B0A508F013E
:1050900054430000010000000000E9048000637C2C
:1050A000777BF26B6FC53001672BFED7AB76CA8278
:1050B000C97DFA5947F0ADD4A2AF9CA472C0B7FD28
:1050C0009326363FF7CC34A5E5F171D8311504C7E6
:1050D00023C31896059A071280E2EB27B27509835D
:1050E0002C1A1B6E5AA0523BD6B329E32F8453D1FE
:1050F00000ED20FCB15B6ACBBE394A4C58CFD0EFF3
:10510000AAFB434D338545F9027F503C9FA851A32C
:10511000408F929D38F5BCB6DA2110FFF3D2CD0C4A
:1051200013EC5F974417C4A77E3D645D19736081DB
:105130004FDC222A908846EEB814DE5E0BDBE032AC
:105140003A0A4906245CC2D3AC629195E479E7C877
:10515000376D8DD54EA96C56F4EA657AAE08BA78EB
:10516000252E1CA6B4C6E8DD741F4BBD8B8A703E8D
:10517000B5664803F60E613557B986C11D9EE1F844
:10518000981169D98E949B1E87E9CE5528DF8CA192
:10519000890DBFE6426841992D0FB054BB1600B788
:1051A0005E2C2F17180C0C0704003E1F1010080966
:1051B00005030101000000004104A103CE03A9047E
:1051C000FF03DD03F1030D0A006E616E00696E6678
:0E51D000006F7666005C2125732F25730000AA
:107E0000112484B714BE81FFF0D085E080938100F7
:107E100082E08093C00088E18093C10086E0809377
:107E2000C20080E18093C4008EE0C9D0259A86E02C
:107E300020E33CEF91E0309385002093840096BBD3
:107E4000B09BFECF1D9AA8958150A9F7CC24DD24C4
:107E500088248394B5E0AB2EA1E19A2EF3E0BF2EE7
:107E6000A2D0813461F49FD0082FAFD0023811F036
:107E7000013811F484E001C083E08DD089C08234E0
:107E800011F484E103C0853419F485E0A6D080C0E4
:107E9000853579F488D0E82EFF2485D0082F10E0AE
:107EA000102F00270E291F29000F111F8ED06801E7
:107EB0006FC0863521F484E090D080E0DECF843638
:107EC00009F040C070D06FD0082F6DD080E0C81688
:107ED00080E7D80618F4F601B7BEE895C0E0D1E017
:107EE00062D089930C17E1F7F0E0CF16F0E7DF06D8
:107EF00018F0F601B7BEE89568D007B600FCFDCFD4
:107F0000A601A0E0B1E02C9130E011968C91119780
:107F100090E0982F8827822B932B1296FA010C0160
:107F200087BEE89511244E5F5F4FF1E0A038BF0790
:107F300051F7F601A7BEE89507B600FCFDCF97BE46
:107F4000E89526C08437B1F42ED02DD0F82E2BD052
:107F50003CD0F601EF2C8F010F5F1F4F84911BD097
:107F6000EA94F801C1F70894C11CD11CFA94CF0C13
:107F7000D11C0EC0853739F428D08EE10CD085E9AC
:107F80000AD08FE07ACF813511F488E018D01DD067
:107F900080E101D065CF982F8091C00085FFFCCF94
:107FA0009093C60008958091C00087FFFCCF809118
:107FB000C00084FD01C0A8958091C6000895E0E648
:107FC000F0E098E1908380830895EDDF803219F02E
:107FD00088E0F5DFFFCF84E1DECF1F93182FE3DFCA
:107FE0001150E9F7F2DF1F91089580E0E8DFEE27F6
:047FF000FF270994CA
:027FFE00040479
:0400000300007E007B
:00000001FF
