:100000000C944A010C9472010C9472010C94530AE2
:100010000C94530A0C94530A0C945D0A0C947201CC
:100020000C9472010C9472010C9472010C94720184
:100030000C9472010C9472010C9472010C94720174
:100040000C94EE080C9472010C94BC080C94960865
:100050000C9472010C9472010C9472010C94720154
:100060000C9438090C947201000000080002010091
:100070000003040700000000000000005358313264
:100080003736204C462F48462063616C69627261A6
:1000900074696F6E00556E7265636F676E697A651D
:1000A00064207472616E736365697665720053587B
:1000B000313237362064657465637465642C20734F
:1000C00074617274696E670053583132373220643C
:1000D000657465637465642C207374617274696EF1
:1000E0006700616464723A202020200053573A2050
:1000F0002020202020004865616465723A2020009D
:10010000506F7765723A202020004368616E6E65FB
:100110006C3A200042573A202020202020005346ED
:100120003A2020202020200043523A202020202066
:1001300020004F4E3A202020202020002D2D3E2050
:1001400052535349206572726F720A002D2D3E2062
:100150005253534920002D2D3E2072657472790A46
:100160000020444946533D33534946533D20002D1A
:100170002D3E207761697420666F72200023310A5A
:10018000002332004F4B32002D2D3E2043414420AE
:100190000020434144203D20002D2D3E2077616901
:1001A0007420666F7220004F4B310A002D2D3E20C7
:1001B00043414420002D2D3E204353310A00232388
:1001C000206E6F7420656E6F75676820546F4120D4
:1001D0006174200054696D65323A200054696D6580
:1001E000313A20005365713A2020200053656E7427
:1001F0003A202020200053656E64696E67205061AC
:10020000636B6574002072656D61696E696E67204D
:10021000546F412069732000206379636C65206509
:100220006E647320617420006379636C652062657D
:1002300067696E7320617420002323206E65772028
:100240006379636C6520666F7220546F41202323AD
:100250000000000000250028002B00000000002402
:100260000027002A00040404040404040402020217
:1002700002020203030303030301020408102040E7
:10028000800102040810200102040810202E2E2EE6
:100290000000740A11241FBECFEFD8E0DEBFCDBF2F
:1002A00011E0A0E0B1E0EEEEF2E302C005900D92A5
:1002B000A83FB107D9F725E0A8EFB1E001C01D9232
:1002C000AC33B207E1F711E0CAE4D1E004C02197F2
:1002D000FE010E949716C934D107C9F70E94040B8A
:1002E0000C9475190C94000090E0FC01E758FD4F48
:1002F00024918B599D4FFC018491882399F090E0C3
:10030000880F991FFC01E55AFD4FA591B491FC019E
:10031000EF5AFD4F859194918FB7F894EC91E22BB1
:10032000EC938FBF0895AF92BF92CF92DF92EF927E
:10033000FF920F931F93CF93DF936C017B018B018F
:10034000040F151FEB015E01AE18BF08C017D107DF
:1003500059F06991D601ED91FC910190F081E02D69
:10036000C6010995892B79F7C501DF91CF911F91BE
:100370000F91FF90EF90DF90CF90BF90AF900895D6
:10038000FC01538D448D252F30E0842F90E0821B9B
:10039000930B541710F0CF96089501970895FC0120
:1003A000918D828D981761F0A28DAE0FBF2FB11D78
:1003B0005D968C91928D9F5F9F73928F90E00895D0
:1003C0008FEF9FEF0895FC01918D828D981731F08A
:1003D000828DE80FF11D858D90E008958FEF9FEFDE
:1003E0000895FC01918D228D892F90E0805C9F4FB4
:1003F000821B91098F73992708958BE393E00E94E4
:10040000F10121E0892B09F420E0822F089580E09A
:1004100090E0892B29F00E94FD0181110C940000CD
:100420000895FC01A48DA80FB92FB11DA35ABF4F89
:100430002C91848D90E001968F739927848FA689E3
:10044000B7892C93A089B1898C91837080648C9337
:10045000938D848D981306C00288F389E02D8081E6
:100460008F7D80830895EF92FF920F931F93CF9318
:10047000DF93EC0181E0888F9B8D8C8D98131AC0DF
:10048000E889F989808185FF15C09FB7F894EE89C6
:10049000FF896083E889F989808183708064808323
:1004A0009FBF81E090E0DF91CF911F910F91FF906E
:1004B000EF900895F62E0B8D10E00F5F1F4F0F7316
:1004C0001127E02E8C8D8E110CC00FB607FCFACFD1
:1004D000E889F989808185FFF5CFCE010E9411025C
:1004E000F1CFEB8DEC0FFD2FF11DE35AFF4FF082A2
:1004F0009FB7F8940B8FEA89FB8980818062CFCF08
:100500000F931F93CF93DF938C01D0E0C0E0F801ED
:10051000EC0FFD1F6491662341F08BE393E00E9492
:100520003302892B11F02196F2CFCE01DF91CF91CA
:100530001F910F910895CF93DF93EC01888D88234D
:10054000B9F0AA89BB89E889F9898C9185FD03C036
:10055000808186FD0DC00FB607FCF7CF8C9185FF1B
:10056000F2CF808185FFEDCFCE010E941102E9CF4D
:10057000DF91CF91089590E0FC01E859FF4F24915D
:10058000FC01E758FD4F3491FC01EB59FD4FE4911C
:10059000EE23C9F0222339F0233001F1A8F42130F1
:1005A00019F1223029F1F0E0EE0FFF1FEF5AFD4F55
:1005B000A591B4918FB7F894EC91611126C0309554
:1005C0003E233C938FBF08952730A9F02830C9F00F
:1005D000243049F7809180008F7D03C08091800096
:1005E0008F7780938000DFCF84B58F7784BDDBCF9A
:1005F00084B58F7DFBCF8091B0008F778093B00062
:10060000D2CF8091B0008F7DF9CF3E2BDACF3FB7AC
:10061000F89480916A0290916B02A0916C02B09163
:100620006D0226B5A89B05C02F3F19F00196A11DAC
:10063000B11D3FBFBA2FA92F982F8827BC01CD012C
:10064000620F711D811D911D42E0660F771F881F8B
:10065000991F4A95D1F708958F929F92AF92BF92BA
:10066000CF92DF92EF92FF926B017C010E94070311
:100670004B015C01C114D104E104F104B9F00E9402
:100680000703681979098A099B09683E7340810547
:10069000910580F321E0C21AD108E108F10888EE43
:1006A000880E83E0981EA11CB11CE4CFFF90EF9050
:1006B000DF90CF90BF90AF909F908F9008952FB70D
:1006C000F89460916602709167028091680290913F
:1006D00069022FBF089585ED8093BC008091BC0016
:1006E00084FDFCCF10923F02089520911B02260F3B
:1006F0003327331F21323105ECF420913F02FC01F6
:1007000090E080E0243069F082E00895A0911B021F
:100710002191AC0145505E4FA40FB52FB11D2C9314
:100720000196861798F380911B02680F60931B0255
:1007300080E0089581E0089508958FEF9FEF089578
:100740008FEF9FEF08958091FA0190E09195819548
:1007500091090895CF93DF93CB01EA01642F0E94A2
:100760007503CE01DF91CF910895CF93DF931F9250
:10077000CDB7DEB7698361E0CE0101960E947503B3
:1007800081E090E00F90DF91CF91089590E080E0BC
:1007900008958EBD00000DB407FEFDCF8EB50895FF
:1007A0000F931F93CF93DF93082F162FC8EDD3E03D
:1007B00060E08B810E94BB02802F80680E94C90389
:1007C000812F0E94C90361E08B81DF91CF911F913E
:1007D0000F910C94BB021F93CF93DF93182FC8ED9A
:1007E000D3E060E08B810E94BB02812F0E94C9038D
:1007F00080E00E94C903182F61E08B810E94BB0238
:10080000812FDF91CF911F91089580911304813042
:10081000B9F480E20E94EB03109205048093060471
:1008200081E20E94EB032091050430910604820FBF
:10083000932F911D909306048093050480E0089502
:1008400085E20E94EB03109205048093060486E281
:10085000E8CFCF93DF93D82FD06281E00E94EB03E3
:10086000C82F8091130461E8813011F061E081E0CC
:100870000E94D0036D2F8BE00E94D0036C2F81E08B
:100880000E94D00380E0DF91CF9108958F929F92D4
:10089000AF92BF92CF92DF92EF92FF92CF93DF930E
:1008A0004B015C010E945F036093DC037093DD03E6
:1008B0008093DE039093DF0381E00E94EB03C82F57
:1008C0008091130461E8813011F061E081E00E94C1
:1008D000D003B5018827992786E00E94D003992785
:1008E0008B2D7A2D692D87E00E94D003682D88E03A
:1008F0000E94D0030E945F036093E0037093E103C2
:100900008093E2039093E30364E670E080E090E07C
:100910000E942C0386E00E94EB03C82E87E00E9411
:10092000EB03D82FD12CDC2CCC24F12CE12CFE2C89
:10093000ED2CDC2CCC2488E00E94EB032D2F30E042
:10094000322F222790E0B0E0A0E0820F931FA11D7C
:10095000B11D8C0D9D1DAE1DBF1DD1E088169906E1
:10096000AA06BB0649F48092FC039092FD03A09274
:10097000FE03B092FF03D0E06C2F81E00E94D00311
:1009800064E670E080E090E00E942C038D2FDF9100
:10099000CF91FF90EF90DF90CF90BF90AF909F905E
:1009A0008F900895809113049FEF8823F9F0809130
:1009B000D803811112C08DE10E94EB0382958695C8
:1009C000869583708093F9039091D80391110BC0A1
:1009D0008750833058F091E009C08DE10E94EB030D
:1009E00082958F70EFCF90E08A30A8F7892F089515
:1009F00080911304882381F08EE10E94EB0390E044
:100A000024E0959587952A95E1F78093FB0386501E
:100A1000873020F081E008958FEF089580E00895F9
:100A200080911304882321F18DE10E94EB039091C2
:100A3000D803682F91111AC064608DE10E94D00321
:100A40008DE10E94EB039091D80320E0911101C049
:100A500022E090E002C0959587952A95E2F780FF05
:100A600009C081E080930A0480E008956160E5CFC9
:100A70008FEF089581E00895CF9381E00E94EB030A
:100A8000C82F80911304813061F461E80E94D00383
:100A90006FEF82E10E94D0036C2F81E0CF910C9424
:100AA000D00361E081E00E94D0036FEF8EE30E94EB
:100AB000D0036FEF8FE3EECFCF93DF93C82F81E0AA
:100AC0000E94EB03D82FC093180480911304813047
:100AD000F9F461E80E94D0036091180482E20E9458
:100AE000D00382E20E94EB03C1E0909118049813B6
:100AF00001C0C0E06D2F81E00E94D0036AEF70E07A
:100B000080E090E00E942C038C2FDF91CF9108951C
:100B100061E081E00E94D0036091180482E30E94AA
:100B2000D00382E3DFCF2F923F924F925F926F927A
:100B30007F928F929F92AF92BF92CF92DF92EF926D
:100B4000FF920F931F93CF93DF93CDB7DEB76197DB
:100B50000FB6F894DEBF0FBECDBF898B8091F9032D
:100B6000812C34E2932E34EFA32E37E4B32E87305A
:100B700081F0812C44E2942E44EFA42E48E4B42E5C
:100B8000883039F4812C24E2922E24E7A22E28E426
:100B9000B22E1091FB0381E00E94EB038B830E9435
:100BA0005F0320911304288B213009F0F5C061E820
:100BB00081E00E94D00381E090E002C0880F991F7D
:100BC0001A95E2F7312C212C10E000E033E0398354
:100BD0009C01990F440B550B2C873D874E875F87EF
:100BE0000E943C050E945F030E945F039B01AC01D1
:100BF0002C593F4F4F4F5F4F2C833D834E835F8374
:100C000067E881E00E94D0030E9407036887798724
:100C10008A879B8782E10E94EB031A82382F347007
:100C2000F32E82FD4EC00E945F032C813D814E81D8
:100C30005F81621773078407950708F042C00E941E
:100C400007036B017C016C857D858E859F850E94E5
:100C5000F5149B01AC01C501B4010E9452149B0123
:100C6000AC0160E070E080E89FE30E9452142B0129
:100C70003C01C701B601288539854A855B85621B21
:100C8000730B840B950B0E94F3146B017C0120E025
:100C900034E244E759E4C301B2010E94DE1520E0CA
:100CA00030E040E753E40E94CF139B01AC01C70141
:100CB000B6010E94D91518169CF082E10E94EB0340
:100CC000ADCF0E945F03F11025C0898181508983D7
:100CD000882309F45EC08989811182CF198225C0D9
:100CE0003A813111EACF8091D80395E7F92E81300E
:100CF00011F483E6F82E8BE10E94EB038F0D8093B5
:100D00000204280E311C87FD3A940F5F1F4F41E00B
:100D10004A83D3CF82E10E94EB03817059895150FD
:100D2000598B51112FC08983188AC101B8010E94C3
:100D30006F16609302046B8181E00E94D0030E94D1
:100D40005F030E943C054981442311F052E0588B17
:100D5000888961960FB6F894DEBF0FBECDBFDF91D4
:100D6000CF911F910F91FF90EF90DF90CF90BF90A8
:100D7000AF909F908F907F906F905F904F903F903B
:100D80002F900895882309F42BCF188A91E0998336
:100D9000CCCF21E02983C9CF198232E0388BCBCF69
:100DA000EF92FF920F931F93CF93DF9380911304E1
:100DB00005E010E0D0E0C0E0813041F535E0E32E01
:100DC000F12C10E000E08091D803C5E7813009F4F0
:100DD000C3E68BE10E94EB038C0F80930204080FA3
:100DE000111D87FD1A9581E0E81AF10861F7C80125
:100DF00065E070E00E946F166093020480E0DF916E
:100E0000CF911F910F91FF90EF90089581E10E9483
:100E1000EB0390E09595879580930204C80FD91F46
:100E20000150110999F7CE01E3CFFC010190002098
:100E3000E9F73197AF01481B590BBC018BE393E0F5
:100E40000C94930185EF91E00C941507CF93DF93F9
:100E50000E948002EC010E9422078C0F9D1FDF91EF
:100E6000CF9108951F93CF93DF93C0E01AE068EC11
:100E700070E080E090E00E942C0360E081E00E943E
:100E8000D00360E881E00E94D00361E881E00E9425
:100E9000D003C19FB00111246E5C7F4F072E000C60
:100EA000880B990B0E942C0381E00E94EB03D82F42
:100EB0008DE892E00E942607C0FD03C0C43159F0BE
:100EC000CF5FD138A1F681E08093130480E0DF91F9
:100ED000CF911F910895C0E0F4CFCF93DF93C82F37
:100EE00081E00E94EB03D82F80911304811102C08E
:100EF0000E94320761E881E00E94D0036C2F89E3F1
:100F00000E94D00364E670E080E090E00E942C0331
:100F100089E30E94EB03C81311C0C093D903C0E05A
:100F20006D2F81E00E94D00364E670E080E090E0E5
:100F30000E942C038C2FDF91CF910895C1E0F0CF58
:100F40008F929F92AF92BF920F931F93CF93DF9395
:100F5000CDB7DEB7A1970FB6F894DEBF0FBECDBFF9
:100F600019A2423008F44AE08E010F5D1F4F842E13
:100F7000912CB12CA12CA50194010E949D13E62F68
:100F8000B901CA01EA30F4F4E05DD801EE938D01B5
:100F9000232B242B252B79F790E080E0109719F074
:100FA000CD010E941507A1960FB6F894DEBF0FBEC3
:100FB000CDBFDF91CF911F910F91BF90AF909F90C8
:100FC0008F900895E95CE1CFCF93DF930E941507DE
:100FD000EC010E9422078C0F9D1FDF91CF91089595
:100FE000682F70E090E080E04AE00C94A007CF9278
:100FF000DF92EF92FF92CF93DF9397FF1BC06B01BD
:101000007C016DE28BE393E00E943302EC016627E2
:101010007727CB016C197D098E099F094AE00E9450
:10102000A0078C0F9D1FDF91CF91FF90EF90DF9075
:10103000CF9008954AE0DF91CF91FF90EF90DF903D
:10104000CF900C94A007BC01990F880B990B0C94BE
:10105000F7070E945F03AB01BC01809136059091B8
:101060003705A0913805B091390584179507A60773
:10107000B70708F052C08093320590933305A093D0
:101080003405B093350540EA5CE860E070E04093D9
:101090002E0550932F0560933005709331058058CD
:1010A0009141A94CBF4F8093360590933705A0938B
:1010B0003805B093390589E392E00E94260788E25B
:1010C00092E00E9480026091320570913305809118
:1010D0003405909135054AE00E94A00788E192E02E
:1010E0000E94800260913605709137058091380525
:1010F000909139054AE00E94A00785E092E00E94A5
:10110000800260912E0570912F058091300590919D
:1011100031050E94F7070E94220760912E05709109
:101120002F05809130059091310508951F920F92FF
:101130000FB60F9211242F933F934F935F936F93AA
:101140007F938F939F93AF93BF93EF93FF938BE323
:1011500093E00E941102FF91EF91BF91AF919F9197
:101160008F917F916F915F914F913F912F910F9050
:101170000FBE0F901F9018951F920F920FB60F92EF
:1011800011242F938F939F93EF93FF93E0914B0341
:10119000F0914C038081E0915103F091520382FD64
:1011A0001BC09081809154038F5F8F7320915503F2
:1011B000821741F0E0915403F0E0E55CFC4F958F1D
:1011C00080935403FF91EF919F918F912F910F90F6
:1011D0000FBE0F901F9018958081F4CF1F920F9231
:1011E0000FB60F9211242F933F938F939F93AF933A
:1011F000BF938091660290916702A0916802B091BE
:1012000069023091650223E0230F2D3758F50196CE
:10121000A11DB11D20936502809366029093670221
:10122000A0936802B093690280916A0290916B0268
:10123000A0916C02B0916D020196A11DB11D809329
:101240006A0290936B02A0936C02B0936D02BF91FF
:10125000AF919F918F913F912F910F900FBE0F9063
:101260001F90189526E8230F0296A11DB11DD2CF1D
:101270001F920F920FB60F9211242F933F934F930B
:101280005F936F937F938F939F93AF93BF93EF93EE
:10129000FF938091B900887F803609F44AC0F0F549
:1012A000883209F4A5C018F5803109F499C0B8F462
:1012B000882309F4F5C0883009F492C0FF91EF91BA
:1012C000BF91AF919F918F917F916F915F914F915E
:1012D0003F912F910F900FBE0F901F90189588315E
:1012E00009F486C0803251F780933E0214C08034E6
:1012F00009F49BC040F48033B9F38833F9F6809346
:101300003E0285ECAEC0803509F483C0883509F40F
:1013100094C0883499F60E946B03D0CF883909F4C1
:101320008AC038F5883729F050F4883611F08037B4
:1013300029F683E080933F0210923D0255C0883821
:1013400009F479C0803919F0803809F0B7CF80915D
:101350003D02803208F06FC0E0913D0281E08E0FC7
:1013600080933D028091BB00F0E0E35EFD4F8083FF
:101370003BC0803B39F0D0F4803A09F477C0883A1A
:1013800009F09CCF84E080933F0210921C021092DF
:101390001B02F0E0E0E0099580911B0281110FC073
:1013A00081E080931B021092FB0109C0803C09F48C
:1013B000A8CF883C09F4A5CF883B09F07FCFE09106
:1013C0001C0281E08E0F80931C02F0E0E550FE4F7E
:1013D00080818093BB0090911C0280911B0229C0E8
:1013E000809164028093BB0085EC8093BC0066CF43
:1013F0009091630280916202981758F5E091630220
:1014000081E08E0F80936302F0E0EE5BFD4F808100
:10141000E9CFE091630281E08E0F809363028091B7
:10142000BB00F0E0EE5BFD4F808390916302809102
:1014300062029817C8F285E8D8CFE091630281E094
:101440008E0F809363028091BB00F0E0EE5BFD4F56
:1014500080838091410281115ECF81E080934002C0
:1014600084EA8093BC0010923F0228CF85EC8093E1
:10147000BC0010923F0280913D02803230F4E09136
:101480003D02F0E0E35EFD4F108260913D0270E0AE
:101490008DE192E0F0E0E0E0099510923D020ECF80
:1014A00010923E0238CF1F920F920FB60F92112466
:1014B0000F900FBE0F901F9018951F920F920FB6AE
:1014C0000F9211248F930FB6F894A8958091600025
:1014D000886180936000109260000FBE8F910F9022
:1014E0000FBE0F901F9018950F931F93CF93DF930C
:1014F000EBE3F3E01382128288EE93E0A0E0B0E029
:1015000084839583A683B78387EE91E0918380835C
:1015100085EC90E09587848784EC90E097878687B8
:1015200080EC90E0918B808B81EC90E0938B828BB0
:1015300082EC90E0958B848B86EC90E0978B868B89
:10154000118E128E138E148EC8EDD3E08AE08B8339
:1015500097E099A381E08AA39BA340E050EC64EE5E
:1015600070E04CA35DA36EA37FA31AAA1CAA1BAEB6
:101570009FE098A71EAA1FAA18AE92E19A831B8E1D
:101580001E8A8F8B188E89E08D8B1D8E10922D05F3
:101590000E945F0360933205709333058093340596
:1015A0009093350500EA1CE820E030E000932E051A
:1015B00010932F0520933005309331056058714109
:1015C000894C9F4F6093360570933705809338059B
:1015D000909339051F8E8CE294E090931A048093C7
:1015E0001904909322048093210487E295E090935C
:1015F0002A048093290419AE88AD80931B04DF91DF
:10160000CF911F910F910895CF93DF93CDB7DEB7A0
:10161000C35DD1090FB6F894DEBF0FBECDBF78947D
:1016200084B5826084BD84B5816084BD85B58260E7
:1016300085BD85B5816085BD80916E008160809398
:101640006E00109281008091810082608093810001
:101650008091810081608093810080918000816011
:10166000809380008091B10084608093B10080916C
:10167000B00081608093B00080917A008460809394
:101680007A0080917A00826080937A0080917A005B
:10169000816080937A0080917A00806880937A00DC
:1016A0001092C100E0914B03F0914C0382E08083E3
:1016B000E0914703F09148031082E0914903F091D3
:1016C0004A0383E3808310925303E0914F03F09128
:1016D000500386E08083E0914D03F0914E038081BA
:1016E00080618083E0914D03F0914E03808188609A
:1016F0008083E0914D03F0914E0380818068808368
:10170000E0914D03F0914E0380818F7D8083EFE661
:10171000EE2EE2E0FE2EF3E8CF2EF2E0DF2E8091F7
:10172000DB030E94740161E08091DB030E94BB0235
:1017300064E670E080E090E00E942C03BFB6F8946D
:1017400080916E02811122C0F7018491F60194917B
:10175000E82FF0E0EE0FFF1FE55AFD4FA591B49181
:101760008C91982321F461E08AE00E94BB028AE018
:101770000E9474018CB580618CBD8CB580648CBD79
:101780008DE00E9474018BE00E94740180916E02D2
:101790008F5F80936E02BFBE8CB58F7D8CBD8CB584
:1017A0008C7F81608CBD8DB581608DBD8CB5837F54
:1017B0008CBD64E670E080E090E00E942C0382E43F
:1017C0000E94EB03823209F00AC488EC90E00E9488
:1017D00026071092D8038091D803813041F58CE719
:1017E00090E00E94260760E089E00E94D0038BE32E
:1017F0000E94EB03682F60648BE30E94D0038BE3AD
:101800000E94EB0385FDFBCF60E070E089ED90E086
:101810000E9446048BE30E94EB03682F60648BE315
:101820000E94D0038BE30E94EB0385FDFBCF8BE18D
:101830000E9429040E943207982EA0901304F1E020
:10184000AF12E1C38091D8036DE1B62E882321F059
:1018500042E0A42E5EE1B52E8B2D0E94EB03909109
:10186000D803682F9111CDC362608B2D0E94D003E5
:101870008B2D0E94EB0390E002C095958795AA946A
:10188000E2F780FF03C081E080930C040E9405040E
:101890008091DA030E946D0780911304882329F058
:1018A00089E30E94EB038093D9038091D90380934D
:1018B000DA030E945F03611571058105910511F03E
:1018C0000E94621391102BCF82E391E00E9480026C
:1018D00090E080E00E94230887EF91E00E94E407F7
:1018E00088E291E00E94800280911304882309F429
:1018F0009FC38091D803811194C38DE10E94EB03B3
:1019000090E033E0959587953A95E1F7877080935D
:10191000FA038150843008F08DC380E0082E000C5B
:10192000990B0E94230887EF91E00E94E4078EE163
:1019300091E00E9480020E94F804082E000C990B8E
:101940000E94230887EF91E00E94E40784E191E080
:101950000E9480020E94D204082E000C990B0E9463
:10196000230887EF91E00E94E4078AE091E00E945B
:10197000800286E00E94EB03F82E87E00E94EB03D2
:10198000C82E88E00E94EB034F2D50E070E060E02D
:10199000BA0155274427D12CF12CE12CFE2CED2C3B
:1019A000DC2CCC244C0D5D1D6E1D7F1D480F511D80
:1019B000611D711D4093FC035093FD036093FE0372
:1019C0007093FF034C3C2CEA520728ED6207710527
:1019D00041F108F07EC3463686E0580788ED680777
:1019E0007105F9F008F040C34333A3E95A07ACE6A8
:1019F0006A077105B1F008F01FC34636E6E65E07D8
:101A0000ECE66E07710569F04939F9E75F07FCE616
:101A10006F07710531F0433353456C46710509F08A
:101A200021C380E00E94F00787EF91E00E94E40765
:101A300080E091E00E94800289E00E94EB038F70B9
:101A40008093000480E00E94F00787EF91E00E94FD
:101A5000E40786EF90E00E9480020E9405040E9445
:101A6000F00787EF91E00E94E4078CEE90E00E947F
:101A7000800280911304882309F4A9C389E30E949A
:101A8000EB038093D90380E0082E000C990B0E9491
:101A9000230887EF91E00E94E40782EE90E00E9425
:101AA000800280911304F12C813039F40E94EB0301
:101AB000F82E61EC81E00E94D00383E30E94EB03E7
:101AC0008093090480911304813019F46F2D0E94D2
:101AD000D00380E00E94F00787EF91E00E94E407C6
:101AE00081E08093F0038093F50368EE73E080E07B
:101AF00090E00E942C030E945F03C0903703D090B7
:101B00003803E0903903F0903A03C616D706E8068A
:101B1000F90608F02FC58DE0E4E0F1E09E012F5FAB
:101B20003F4F5901D90101900D928A95E1F7FE01CD
:101B30003E968CEBDF011D928A95E9F785EB91E0EB
:101B40000E9480028091ED03882309F4F4C0809004
:101B5000F003882009F4EFC0F3E0DF2E912CA3E01E
:101B60007A2EE8E0CE2E0E945F036093E403709328
:101B7000E5038093E6039093E7038091ED030E94D1
:101B80009305F82E0E945F036093E8037093E903C6
:101B90008093EA039093EB038CEA91E00E94800229
:101BA0006091E8037091E9038091EA039091EB035F
:101BB0002091E4033091E5034091E6035091E7035F
:101BC000621B730B840B950B4AE00E94A0070E94D6
:101BD0002207F110FEC287EA91E00E948002809104
:101BE000EE03882309F47BC00E94131327E030E042
:101BF00040E050E00E946B131B012C01BFEF2B1A39
:101C00003B0A4B0A5B0A89E991E00E948002822D1F
:101C10000E94F00781E991E00E948002E091EC03CC
:101C2000F0E0E852FE4F8081289EC00111240E94FE
:101C300023080E942207E091EC03F0E0E852FE4FF7
:101C40006081269EB0011124072E000C880B990B91
:101C50000E942C030E945F036093E4037093E503EA
:101C60008093E6039093E7038091ED030E94930530
:101C7000E82EF12C0E945F036093E8037093E90360
:101C80008093EA039093EB0388E891E00E9480023E
:101C90006091E8037091E9038091EA039091EB036E
:101CA0002091E4033091E5034091E6035091E7036E
:101CB000621B730B840B950B4AE00E94A0070E94E5
:101CC000220784E891E0E114F10411F081E891E049
:101CD0000E9480020E942207EF2809F0C8C280916A
:101CE000EF03882309F4D0C20E94D0068111C3C239
:101CF00078E0F72E0E94D0068CE491E00E948002EA
:101D000080910204082E000C990B0E9423080E9467
:101D10002207FA9461E070E080E090E00E942C03DA
:101D200080910204873A0CF4ABC2F110E3CFDA944D
:101D3000982CD11016CF80E180931504BF92AF92FA
:101D40008FE692E09F938F930E949D167C0186EF11
:101D500091E00E94800287EF91E00E94E4070E94D8
:101D60005F03C453DF4F688379838A839B83CC5C92
:101D7000D0400F900F900F900F90A7015527C6539A
:101D8000DF4F59834883CA5CD0400115110509F41F
:101D90009AC3C653DF4F88819981CA5CD0408C3F7B
:101DA00091050CF474C2ABEFB0E0B0930804A093BB
:101DB000070480912D05882309F474C2A0900704BC
:101DC000B09008048091F303811103C0F4E0AF0EDA
:101DD000B11C0E942908C053DF4F688379838A832E
:101DE0009B83C05DD0401091F903C12C54E2D52EE5
:101DF00054EFE52E57E4F52E173081F0C12C64E244
:101E0000D62E64E7E62E68E4F62E183039F0C12CA1
:101E100044E2D42E44EFE42E48E4F42E0091FB0378
:101E2000202E312C61E070E0002E02C0660F771F7B
:101E30000A94E2F7072E000C880B990B0E94F51408
:101E40009B01AC01C701B6010E9452149B01AC0179
:101E500060E070E080E89FE30E9452146B017C0117
:101E600060910504709106046C5F7F4F90E080E004
:101E70000E94F31420E030E048E850E40E94CF13C1
:101E8000A70196010E94DE152B013C01173019F4C1
:101E900011E00C3009F010E0B5017727660F771FCD
:101EA00062197309655F7F4F20910A044BEF42036B
:101EB00090011124620F731F660F771F660F771F43
:101EC000072E000C880B990B0E94F5144B015C0146
:101ED000812F90E0880F991FB101681B790B660F65
:101EE000771F660F771F072E000C880B990B0E9437
:101EF000F5149B01AC01C501B4010E9452140E946B
:101F00003B144B015C016091FA0370E06C5F7F4F02
:101F1000072E000C880B990B0E94F514A501940163
:101F20000E94DE154B015C0120E030E0A9010E9417
:101F3000D91520E030E040E051E4181634F4C50132
:101F4000B4010E94CF139B01AC01C701B6010E94EE
:101F5000DE15A30192010E94CF1320E034E244E792
:101F600059E40E94DE1527E73EEB4FE75FE30E944E
:101F7000CF130E9430150E94C41428EE33E040E0D5
:101F800050E00E949D13CA01B9010E94F31420E0A1
:101F900030E040E85FE30E94CF130E94C4147093C6
:101FA0003B0560933A05C053DF4F88819981AA8130
:101FB000BB81C05DD040861B970BA109B109B7FF5B
:101FC00071C18EEB91E00E9480020E945F034AE0A3
:101FD0000E94A0070E94220704E010E0D6CE82E40F
:101FE0000E94EB03823141F48EEA90E00E942607C2
:101FF00081E08093D803EFCB85E990E00E9426072B
:10200000EACB646032CC80E30E94EB03682F60610E
:1020100080E30E94D00380E30E94EB0384FD33CC75
:1020200035CC8DE10E94EB0390E0959587956ECCC1
:102030008FEF74CC81E072CC411530EE530737ED51
:102040006307710509F4EDCC433383EF580787ED3F
:102050006807710509F4E5CC4C3C5C4C674D710593
:1020600009F4DFCC81E0DECC4115A0E65A07A8EDEB
:102070006A07710509F4D5CCB0F44C3CECE25E077C
:10208000E8ED6E07710509F4CCCC4C3CFCE45F072D
:10209000F8ED6F07710509F4C4CC49395941684D11
:1020A000710501F7BECC463636E8530738ED6307B5
:1020B000710509F4B6CC493989E9580788ED6807F4
:1020C000710509F4AECC43335347684D710551F6A1
:1020D000A8CC4431AEEE5A07A3EE6A07710509F4A5
:1020E000A0CCB0F54E31E5EC5E07E1EE6E07710570
:1020F00009F497CCB0F44115510529ED620771053B
:1021000009F48FCC463636E0530739ED6307710585
:1021100009F487CC4115504C684D710509F0A2CFE8
:1021200080CC493999ED590792EE6907710509F498
:1021300078CC473DA3E65A07A3EE6A07710509F478
:1021400070CC4C355F44624E710509F08BCF69CC81
:102150004C3CECE85E07E5EE6E07710509F461CCD6
:10216000B8F4411520EC520724EE6207710509F41A
:1021700058CC4F3832E0530735EE6307710509F448
:1021800050CC41355847644E710509F06BCF49CCAE
:10219000473491EA590796EE6907710509F441CC75
:1021A00038F44A305741664E710509F05BCF39CC9F
:1021B0004538EBE25E07E7EE6E07710509F431CCB6
:1021C000423C554B674E710509F04CCF2ACC8FEF3E
:1021D0005BCC8DE791E00E9480020E94131327E000
:1021E00030E040E050E00E946B131B012C01EFEF48
:1021F0002E1A3E0A4E0A5E0A8FE691E00E94800285
:10220000822D0E94F00781E691E00E948002312C2D
:10221000E091EC03F0E0E353FE4F8081879DC00125
:1022200011249C01229DC001239D900D329D900D93
:1022300011240E9423080E942207E091EC03F0E0A1
:10224000E353FE4F8081879DC0011124829DB00120
:10225000839D700D929D700D1124072E000C880B2C
:10226000990B0E942C0386E591E00E948002CA949B
:10227000C11079CC34CD8CE391E00E9480025BCD1B
:10228000FF2009F454CD57CD911051CD54CDC653F4
:10229000DF4FE881F981CA5CD040F0930804E093F5
:1022A000070487CD81E00E94EB03182F0E943C05B4
:1022B0008091130461E8813011F061E081E00E94B7
:1022C000D00310920F042091100480910704909184
:1022D000080421117CC021E020930D0420931404F4
:1022E000209109042093160420910E0420931704D2
:1022F0002F5F20930E0410921B04209113042111D0
:1023000008C0CD9730F08CE390E090930804809360
:102310000704AFE6B2E09D012F56324080910704DA
:10232000909108042817390748F48D91E091190419
:10233000F0911A04E20FF31F8083EDCF2091F30395
:10234000211101C004960E945C05082F809115049C
:10235000982F9061909315049091F703992319F0A9
:1023600088618093150460E88DE00E94D00301111C
:1023700042C08091F303811113C0609114040E9444
:10238000D0036091150480E00E94D0036091160490
:1023900080E00E94D0036091170480E00E94D00387
:1023A000F12CE12C8091070490910804E816F906BD
:1023B00010F5E0911904F0911A04EE0DFF1D6081F3
:1023C00080E00E94D0039FEFE91AF90AEBCF213099
:1023D00029F4209118042F5F209318042091F3030F
:1023E000211101C004960E945C05082F8091100401
:1023F00080931B04ABCF612F81E00E94D0030111B9
:10240000ECCDA0E1B7E2B0932C05A0932B050E9480
:102410005F036B017C01B0E1CB0EB7E2DB1EE11C78
:10242000F11C809113048130D1F50E943C0563E8D2
:1024300081E00E94D00382E10E94EB03182F83FD0C
:1024400007C00E945F036C157D058E059F0598F3FC
:1024500013FF37C080912D058823F1F0E0903A05F5
:10246000F0903B050E94290880912D058823A1F05A
:1024700080912E0590912F05A0913005B0913105E6
:102480008E199F09A109B10980932E0590932F05FC
:10249000A0933005B09331050E943C059ECD63E0CA
:1024A00081E00E94D0038FE30E94EB03182F83FD8D
:1024B000CFCF0E945F036C157D058E059F0598F3B5
:1024C000C7CF01E0E9CF8CEE91E00E94800290E05E
:1024D00080E00E94230887EF91E00E94E4070E94B9
:1024E0005F036B017C0184EE91E00E948002809189
:1024F00017040E94F0070E9422078CED91E00E94D1
:102500008002C701B601C453DF4F288139814A8157
:102510005B81CC5CD040621B730B840B950B0E94DB
:10252000F7070E94220784ED91E00E9480028091CB
:10253000E4039091E503A091E603B091E703A701BE
:102540009601281B390B4A0B5B0BCA01B9014AE003
:102550000E94A0070E9422070E945F03605E714BE9
:102560008F4F9F4F609337037093380380933903E5
:1025700090933A0380E090E0892B09F4BCCA0E9452
:10258000FD01882309F4B7CA0E940000B4CA8F92E3
:102590009F92AF92BF92CF92DF92EF92FF92CF9332
:1025A000DF93EC01688179818A819B8161157105D6
:1025B0008105910521F464E279ED8BE597E02DE149
:1025C00033EF41E050E00E946B1349015A019B0137
:1025D000AC01A7EAB1E40E948A136B017C01ACEE66
:1025E000B4EFA50194010E949813C60ED71EE81EF1
:1025F000F91EF7FE06C081E0C81AD108E10880E89C
:10260000F80AC882D982EA82FB82C701B6019F77A5
:10261000DF91CF91FF90EF90DF90CF90BF90AF9080
:102620009F908F9008958F929F92AF92BF92CF927A
:10263000DF92EF92FF926091000170910101809111
:10264000020190910301611571058105910521F445
:1026500064E279ED8BE597E02DE133EF41E050E066
:102660000E946B1349015A019B01AC01A7EAB1E436
:102670000E948A136B017C01ACEEB4EFA5019401BA
:102680000E949813C60ED71EE81EF91EF7FE06C05C
:1026900081E0C81AD108E10880E8F80AC092000178
:1026A000D0920101E0920201F0920301C701B6014C
:1026B0009F77FF90EF90DF90CF90BF90AF909F906B
:1026C0008F9008956093000170930101809302013F
:1026D000909303010895052E97FB1EF400940E9429
:1026E000821357FD07D00E949D1307FC03D04EF4C0
:1026F0000C94821350954095309521953F4F4F4F44
:102700005F4F089590958095709561957F4F8F4F9D
:102710009F4F08950E94BF13A59F900DB49F900DE9
:10272000A49F800D911D11240895B7FF0C948A1366
:102730000E948A13821B930B0895A1E21A2EAA1BF2
:10274000BB1BFD010DC0AA1FBB1FEE1FFF1FA21761
:10275000B307E407F50720F0A21BB30BE40BF50B5E
:10276000661F771F881F991F1A9469F760957095E7
:10277000809590959B01AC01BD01CF010895A29F6A
:10278000B001B39FC001A39F700D811D1124911D45
:10279000B29F700D811D1124911D08955058BB27C3
:1027A000AA270E94E6130C9487150E94791538F029
:1027B0000E94801520F039F49F3F19F426F40C9400
:1027C00076150EF4E095E7FB0C944715E92F0E946F
:1027D000981558F3BA17620773078407950720F016
:1027E00079F4A6F50C94D2150EF4E0950B2EBA2FC1
:1027F000A02D0B01B90190010C01CA01A001112407
:10280000FF27591B99F0593F50F4503E68F11A16B2
:10281000F040A22F232F342F4427585FF3CF469543
:1028200037952795A795F0405395C9F77EF41F1665
:10283000BA0B620B730B840BBAF09150A1F0FF0F2F
:10284000BB1F661F771F881FC2F70EC0BA0F621F1B
:10285000731F841F48F4879577956795B795F7950B
:102860009E3F08F0B0CF9395880F08F09927EE0FA0
:102870009795879508950E94BA1590F09F3748F470
:10288000911116F40C94D31560E070E080E89FE39A
:10289000089526F01B16611D711D811D0C944D15A8
:1028A0000C9468150E9466140C9487150E9480157C
:1028B00058F00E94791540F029F45F3F29F00C94FC
:1028C000471551110C94D3150C9476150E94981548
:1028D00068F39923B1F3552391F3951B550BBB274F
:1028E000AA2762177307840738F09F5F5F4F220F94
:1028F000331F441FAA1FA9F335D00E2E3AF0E0E88B
:1029000032D091505040E695001CCAF72BD0FE2FD4
:1029100029D0660F771F881FBB1F26173707480768
:10292000AB07B0E809F0BB0B802DBF01FF27935820
:102930005F4F3AF09E3F510578F00C9447150C9488
:10294000D3155F3FE4F3983ED4F38695779567956A
:10295000B795F7959F5FC9F7880F911D9695879555
:1029600097F90895E1E0660F771F881FBB1F621774
:1029700073078407BA0720F0621B730B840BBA0B32
:10298000EE1F88F7E09508950E94A01588F09F57E4
:1029900098F0B92F9927B751B0F0E1F0660F771F83
:1029A000881F991F1AF0BA95C9F714C0B13091F079
:1029B0000E94D215B1E008950C94D215672F782F9C
:1029C0008827B85F39F0B93FCCF38695779567953E
:1029D000B395D9F73EF490958095709561957F4FAA
:1029E0008F4F9F4F0895E89409C097FB3EF4909550
:1029F0008095709561957F4F8F4F9F4F9923A9F0D8
:102A0000F92F96E9BB279395F69587957795679566
:102A1000B795F111F8CFFAF4BB0F11F460FF1BC0AA
:102A20006F5F7F4F8F4F9F4F16C0882311F096E93D
:102A300011C0772321F09EE8872F762F05C06623EB
:102A400071F096E8862F70E060E02AF09A95660FA4
:102A5000771F881FDAF7880F9695879597F908955D
:102A60000E94BA1590F09F3748F4911116F00C941B
:102A7000D31560E070E080E89FEB089526F41B1604
:102A8000611D711D811D0C944D150C94681597F9ED
:102A90009F6780E870E060E00895882371F47723F1
:102AA00021F09850872B762F07C0662311F49927C1
:102AB0000DC09051862B70E060E02AF09A95660F69
:102AC000771F881FDAF7880F9695879597F90895ED
:102AD0009F3F31F0915020F4879577956795B79592
:102AE000880F911D9695879597F908959FEF80EC33
:102AF000089500240A941616170618060906089564
:102B000000240A9412161306140605060895092EC9
:102B10000394000C11F4882352F0BB0F40F4BF2B38
:102B200011F460FF04C06F5F7F4F8F4F9F4F089578
:102B300057FD9058440F551F59F05F3F71F047956E
:102B4000880F97FB991F61F09F3F79F08795089553
:102B5000121613061406551FF2CF4695F1DF08C072
:102B6000161617061806991FF1CF8695710561058F
:102B7000089408950E94A015A0F0BEE7B91788F444
:102B8000BB279F3860F41616B11D672F782F882752
:102B9000985FF7CF869577956795B11D9395963990
:102BA000C8F30895E894BB2766277727CB0197F9E8
:102BB00008950E944B1608F48FEF08950E94F115B6
:102BC0000C9487150E94791538F00E94801520F02A
:102BD000952311F00C9447150C94761511240C9440
:102BE000D3150E94981570F3959FC1F3950F50E08F
:102BF000551F629FF001729FBB27F00DB11D639FAF
:102C0000AA27F00DB11DAA1F649F6627B00DA11D54
:102C1000661F829F2227B00DA11D621F739FB00DFA
:102C2000A11D621F839FA00D611D221F749F33276A
:102C3000A00D611D231F849F600D211D822F762F03
:102C40006A2F11249F5750409AF0F1F088234AF0E0
:102C5000EE0FFF1FBB1F661F771F881F915050404C
:102C6000A9F79E3F510580F00C9447150C94D3159D
:102C70005F3FE4F3983ED4F3869577956795B795D3
:102C8000F795E7959F5FC1F7FE2B880F911D9695ED
:102C9000879597F90895990F0008550FAA0BE0E85A
:102CA000FEEF16161706E807F907C0F0121613060E
:102CB000E407F50798F0621B730B840B950B39F44E
:102CC0000A2661F0232B242B252B21F408950A26B4
:102CD00009F4A140A6958FEF811D811D089597FBF2
:102CE000072E16F4009407D077FD09D00E948316B2
:102CF00007FC05D03EF4909581959F4F08957095FF
:102D000061957F4F0895AA1BBB1B51E107C0AA1F05
:102D1000BB1FA617B70710F0A61BB70B881F991F7C
:102D20005A95A9F780959095BC01CD010895EE0FB5
:102D3000FF1F0590F491E02D0994AEE0B0E0E3EAC6
:102D4000F6E10C944C190D891E8986E08C831A8358
:102D500009838FEF9FE79E838D83AE01475E5F4FB0
:102D60006F89788DCE0101960E94C0162F8138851B
:102D7000020F131FF80110822E96E4E00C946819DC
:102D8000ABE0B0E0E6ECF6E10C943E197C013B01CF
:102D90008A01FC0117821682838181FFC8C1CE019E
:102DA00001965C01F7019381F30193FD859193FFF7
:102DB00081913F01882309F453C1853239F493FD91
:102DC000859193FF81913F01853229F4B70190E00D
:102DD0000E94B018E7CF912C212C312CFFE1F31584
:102DE00038F08B3211F190F4803209F1833229F1FD
:102DF00037FC3CC020ED280F2A3050F536FE20C0AD
:102E00008AE0989E200D1124922E06C08D3291F0FA
:102E1000803371F7689430F8F30193FD859193FF47
:102E200081913F018111DACF21C0689431F8689413
:102E300032F8F2CF689433F8EFCF689434F8ECCFDF
:102E4000EAE02E9E200D1124222E689435F8E4CF5E
:102E50008E3229F436FC04C1689436F8DDCF8C3606
:102E600019F4689437F8D8CF8836B1F2982F9F7D3F
:102E700095549330E0F08336A1F18337C1F1833567
:102E800009F063C02801F2E04F0E511CF801C08028
:102E9000D180692D70E036FC02C06FEF7FEFC60174
:102EA0000E949A184C01689437F882010AC00C5F9E
:102EB0001F4FFFE3F98388248394912C6501E894E4
:102EC00037F833FE2DC0522C8114910471F5552032
:102ED00009F468CFB70180E290E00E94B0185A94DC
:102EE000F6CFF801808189830E5F1F4FE4CF280160
:102EF000F2E04F0E511CF801C080D180692D70E0C6
:102F000036FC02C06FEF7FEFC6010E94A5184C018E
:102F10008201D5CFB70180E290E00E94B0182A94D8
:102F20002814190409F0B0F7CECFF60137FC8591CB
:102F300037FE81916F01B70190E00E94B0185110E7
:102F40005A94F1E08F1A9108BFCF843619F0893670
:102F500009F077C0F80137FE6BC060817181828112
:102F600093810C5F1F4FF32DFF763F2E97FF09C013
:102F700090958095709561957F4F8F4F9F4F689486
:102F800037F82AE030E0A5010E94E018C82ECA18E0
:102F90008C2C432C36FE0CC0E89440F8C91440F445
:102FA00034FE05C032FC03C0F32DFE7E4F2E892C6B
:102FB00044FE95C0FE01EC0DF11D8081803309F0C7
:102FC00087C0242D297E422E842D8870582E43FCE4
:102FD00095C040FE8FC09C2C821418F42C0C922CAF
:102FE000981844FE91C0B70180E390E00E94B018A9
:102FF00042FE09C088E790E041FE02C088E590E00B
:10300000B7010E94B018C91408F48AC0CA94D12C20
:103010009FEFC91AD90ACA0CDB1CF60182916F0115
:10302000B70190E00E94B018AC14BD04B1F74FCFC7
:1030300060817181072E000C880B990B0E5F1F4F6A
:1030400092CFD32CE894D4F82AE030E0853739F1D8
:10305000232D297FD22E8F3601F148F48835A9F02F
:10306000F701868197812B96E2E10C945A198037FB
:1030700049F08837A9F7D4FE02C06894D2F820E15D
:1030800030E00DC06894D4F8F6CF34FE03C0822F30
:103090008660D82E20E132E002C028E030E0F8015E
:1030A000D7FE0FC060817181828193810C5F1F4FB9
:1030B000A5010E94E018C82ECA183D2CE89437F8E4
:1030C00067CF6081718190E080E00E5F1F4FF0CF8D
:1030D00042FC02C0839478CF8394839475CF842D6F
:1030E000867809F471CFF6CFB70180E290E00E94B4
:1030F000B01883948214C0F3512C73CF522C5818FB
:10310000821408F46ECFF8CF842D867809F47BCF33
:103110008BE241FE80E247FC8DE2B70190E071CF87
:10312000B70180E390E00E94B0189A946CCF8FEFC3
:103130009FEF99CFFC010590615070400110D8F7C6
:10314000809590958E0F9F1F0895FC0161507040EF
:1031500001900110D8F7809590958E0F9F1F0895CC
:103160000F931F93CF93DF93182F092FEB018B81C0
:1031700081FD09C01FEF0FEF812F902FDF91CF91BD
:103180001F910F91089582FF14C02E813F818C8181
:103190009D81281739073CF4E881F981CF01019618
:1031A0009983888310838E819F8101969F838E836C
:1031B000E3CFE885F985812F0995892BA1F3DACF33
:1031C000FA01AA27283051F1203181F1E8946F9358
:1031D0006E7F6E5F7F4F8F4F9F4FAF4FB1E03ED0FE
:1031E000B4E03CD0670F781F891F9A1FA11D680F9C
:1031F000791F8A1F911DA11D6A0F711D811D911DCF
:10320000A11D20D009F468943F912AE0269F112443
:103210003019305D3193DEF6CF010895462F4770A7
:10322000405D4193B3E00FD0C9F7F6CF462F4F7002
:10323000405D4A3318F0495D31FD4052419302D060
:10324000A9F7EACFB4E0A695979587957795679506
:10325000BA95C9F700976105710508959B01AC0106
:103260000A2E06945795479537952795BA95C9F72D
:10327000620F731F841F951FA01D08952F923F9208
:103280004F925F926F927F928F929F92AF92BF9276
:10329000CF92DF92EF92FF920F931F93CF93DF9322
:1032A000CDB7DEB7CA1BDB0B0FB6F894DEBF0FBE7F
:1032B000CDBF09942A88398848885F846E847D84CC
:1032C0008C849B84AA84B984C884DF80EE80FD80CE
:1032D0000C811B81AA81B981CE0FD11D0FB6F89444
:0E32E000DEBF0FBECDBFED010895F894FFCF05
:1032EE0001000000616768696C65735F6C6F7261E5
:1032FE0000000000000000000000000000000000C0
:10330E0000000000000000000000000000000000AF
:10331E00000000000000000000000000000000009F
:10332E00000000000000000000000000000000008F
:10333E00000000000000000000000000000000007F
:10334E00000000000000000000000000000000006F
:10335E00000000000000000000000000000000005F
:10336E00000000000000000000000000000000004F
:10337E00000000000000000000000000000000003F
:10338E00000000000000000000000000000000002F
:10339E00000000000000000000000000000000001F
:1033AE000000000000000000000000000000B75EFA
:1033BE002C2F17180C0C0704003E1F1010080905BF
:1033CE000301010000000033029301C0019B02F1D2
:0833DE0001CF01E3010D0A001B
:107E0000112484B714BE81FFF0D085E080938100F7
:107E100082E08093C00088E18093C10086E0809377
:107E2000C20080E18093C4008EE0C9D0259A86E02C
:107E300020E33CEF91E0309385002093840096BBD3
:107E4000B09BFECF1D9AA8958150A9F7CC24DD24C4
:107E500088248394B5E0AB2EA1E19A2EF3E0BF2EE7
:107E6000A2D0813461F49FD0082FAFD0023811F036
:107E7000013811F484E001C083E08DD089C08234E0
:107E800011F484E103C0853419F485E0A6D080C0E4
:107E9000853579F488D0E82EFF2485D0082F10E0AE
:107EA000102F00270E291F29000F111F8ED06801E7
:107EB0006FC0863521F484E090D080E0DECF843638
:107EC00009F040C070D06FD0082F6DD080E0C81688
:107ED00080E7D80618F4F601B7BEE895C0E0D1E017
:107EE00062D089930C17E1F7F0E0CF16F0E7DF06D8
:107EF00018F0F601B7BEE89568D007B600FCFDCFD4
:107F0000A601A0E0B1E02C9130E011968C91119780
:107F100090E0982F8827822B932B1296FA010C0160
:107F200087BEE89511244E5F5F4FF1E0A038BF0790
:107F300051F7F601A7BEE89507B600FCFDCF97BE46
:107F4000E89526C08437B1F42ED02DD0F82E2BD052
:107F50003CD0F601EF2C8F010F5F1F4F84911BD097
:107F6000EA94F801C1F70894C11CD11CFA94CF0C13
:107F7000D11C0EC0853739F428D08EE10CD085E9AC
:107F80000AD08FE07ACF813511F488E018D01DD067
:107F900080E101D065CF982F8091C00085FFFCCF94
:107FA0009093C60008958091C00087FFFCCF809118
:107FB000C00084FD01C0A8958091C6000895E0E648
:107FC000F0E098E1908380830895EDDF803219F02E
:107FD00088E0F5DFFFCF84E1DECF1F93182FE3DFCA
:107FE0001150E9F7F2DF1F91089580E0E8DFEE27F6
:047FF000FF270994CA
:027FFE00040479
:0400000300007E007B
:00000001FF
