:020000040800F2
:10000000000200205904000835040008E903000834
:1000100000000000000000000000000000000000E0
:10002000000000000000000000000000BD03000808
:1000300000000000000000009503000845040008CF
:10004000C1000008C1000008215D0008C1000008CF
:10005000C1000008ED090008ED090008ED090008DD
:10006000C1000008C1000008C1000008C10000086C
:10007000C1000008C1000008C10000089113000879
:10008000C1000008C1000008C10000080000000015
:10009000C1000008C1000008C1000008C10000083C
:1000A000C1000008C1000008C1000008570800088E
:1000B0004D080008C100000800000000C100000851
:1000C00010B500F0BFF910BD10B500F095FA10BDE5
:1000D0007047000070B50C00060000F07DFA094B77
:1000E000094A1D682C19944202D8084A944207D242
:1000F0000C23012533606D4200F076FA280070BDB4
:100100001C60F9E700020020005000204C1E002077
:1001100010B51900100000F07DFA10BD10B51900DF
:10012000100000F081FA10BD13230360012040424B
:10013000704713230360012040427047132303607C
:100140000120404270470023022203608A425B4143
:10015000180070470020124B10B51860114B12495F
:100160001B680A685C421C40104B6343104CDB0E5A
:10017000E35C104C9B001B591B68083B93420ED05C
:10018000824204D010790A2801D1013010710A226C
:100190001A710622985E084A0B601080012010BD7B
:1001A00074030020680300207003002031B57C0731
:1001B000BCD700087C0300206C03002030B5037915
:1001C000092919D9092B13D804004379184A9B002F
:1001D0009D580834002D0DD02D6885609D582C60E9
:1001E000D45001234479134AA34014682343136075
:1001F000017130BD8460F3E7092BF9D942790C4CC9
:1002000092001359002B04D01D68AB420DD100237E
:1002100013514579AB00E358002BE9D10133AB40D2
:10022000044A14689C432300E1E72A681A60F0E757
:100230007C0300206803002010B5094B1B681A7965
:10024000092A02D95B79834206D900F0D0F9002847
:1002500003D00122034B1A6010BD00F091F8FBE7B8
:10026000700300207403002070B5002400F0B4F97E
:10027000084B094A1B88094D1BB29B009C50084A39
:10028000210013682868013B1360FFF797FF2C607B
:1002900000F072F86C030020BC0300207003002003
:1002A0007803002003000F48FF229842804140421B
:1002B0000001C3409A4292415242D200D3400F21E2
:1002C00099428941024348428000C3400321994238
:1002D000894149424900CB4002430A435808104330
:1002E0007047C046FFFF0000D318032293431F4A04
:1002F00010B51C1F2260620703D0083B1C001C4B7A
:1003000023608022231F52041A601A4A043B18609B
:10031000043B1A600022043B1A60043B03321A605B
:10032000043B013A1A60043B013A1A60043B19602D
:100330000632043B1A60043B013A1A60043B013A5E
:100340001A60043B013A1A60043B07321A60043B0E
:10035000013A1A60043B013A1A60043B013A1A6000
:100360002000032344385B42036010BD7777777722
:10037000888888886902000800F032F901DFFEE70A
:100380008023034A5B0551680B4353607047C046A6
:1003900000ED00E0EFF30980EC4685464046494613
:1003A00052465B46FFB4704601B46846E5460249D2
:1003B0000968086000F002F870030020FFF7CAFE29
:1003C000EE46084800680068854601BC8446FFBCCC
:1003D0008046894692469B46684680F30988F546E2
:1003E00060470000700300200F4B104A1049684618
:1003F000904203D8984201D9002102E0091C8D46A1
:10040000012104207246024202D1EFF3088001E08C
:10041000EFF30980F0B443464C4655465E4678B447
:100420006B4600F04DF8C0465801002000500020F7
:100430000002002010B50249042000F049FDC0462A
:1004400075D9000810B50249062000F041FDC046EC
:10045000DCD700087047704770B5FFF7FBFF6A46AE
:10046000104B11499A4214D8002310481049114CDE
:100470001A188A420FD300210F4B104A93420ED311
:10048000FFF7E9FF00F002FD0AF092F800F054FDDA
:1004900070BD02C3E6E7E55804331560E8E702C320
:1004A000ECE7C04600000020FEE7FEE70002002067
:1004B00068030020DCE50008680300204C1E0020D3
:1004C000F0B58DB00A92364A0B931268354B040092
:1004D00003919A4202D034480AF008FD039B002B96
:1004E00037D0002531480AF001FD2E0030480AF0CF
:1004F000FDFC0A992F480AF073FC039B002B23D1C3
:100500002D480AF0F3FC31002C480AF069FC6946DA
:10051000234BC91A2A4BC91803D5494229480AF066
:100520005FFC0B9B1E00201C8268C36801698C461F
:1005300041698E46AD46311CF0C9A046A946B24677
:10054000BB46F0C94168006801BE1F49052000F0A4
:10055000BFFC25002368E76904936368A6690593D7
:10056000A36824350693E3680793236908936369B6
:100570000993BB0500D4043D14480AF0B7FC079B5F
:10058000059A00930499069B11480AF029FC0097EC
:100590003300099A08990F480AF022FCA6E7C046E2
:1005A00000000020FEE7FEE7EAD7000800D80008B8
:1005B000C5D80008CAD80008DCD800080DD9000842
:1005C000A8FEFFFF35D9000862D900082FD800081F
:1005D0004AD8000887D80008EFF3108072B6704739
:1005E00062B6EFF31080704780F310887047EFF326
:1005F0000580C0B270470000E12110B5034B044AEA
:100600004902002000F0BEF810BDC04604020020E0
:10061000AD10000810B50A000100024800F051FDBD
:1006200010BDC0460402002010B50C000A000100F5
:10063000002000F065F8200010BD000010B5184A39
:10064000002812D0012825D00421002413698B43EF
:100650001361FFF7C1FFBFF34F8F30BFFFF7C4FF38
:10066000002C01D000F098FD10BD0E210D4B186834
:1006700001431960C02158688900014359608021F5
:100680005868C900014359600423116901240B43D0
:100690001361DEE7022003490B6883430B60F3E735
:1006A00000ED00E00070004010B5FFF795FF00205E
:1006B000FFF7C4FF10BD00001C2343430D4A70B573
:1006C0009C58E569AB0607D50B4BC000616A1A1848
:1006D000C9B2C3585068984708231D4202D0226A05
:1006E00013432362054B1B68002B01D0FFF748FE24
:1006F00070BDC04684D90008800400207403002027
:1007000070B5012803D90D49032000F0E1FB1C233B
:1007100058430B4BC3581868000707D580208A1828
:10072000914204D14022D9691142FCD070BD0C78AD
:10073000DD690542FCD09C620131F1E7BCD90008BB
:1007400084D9000810B50400012803D90A49032000
:1007500000F0BEFB094BC200D358002B02D0012091
:1007600000F0DCFC1C235C43054B1B19987C59688A
:1007700000F07AFD10BDC046BCD9000880040020FE
:1007800084D90008F7B5060001911400012803D9A7
:100790002A49032000F09CFB1C25294AC10045433F
:1007A0008C5052185360274B01215D19EF683800B7
:1007B00000F056F8380000F0AFF8697C380000F01F
:1007C0008AF8002C08D0AF680021380000F048F803
:1007D000297C380000F07FF83000FFF7B3FF1C23BE
:1007E0005E43184B9D5900232B606B60AB60154B2B
:1007F0009E19337D002B1ED1B07C00F027FD01999E
:1008000007F0F6FB0F2203091B051B0C10401843D1
:10081000E8600923002C0BD0F37C5AB2002A06DBD7
:100820001F2213401E3A9A401300074A13602D23DB
:1008300000202B60FEBD01204042FBE7BCD9000830
:100840008004002084D9000800E100E010B50020F9
:10085000FFF732FF10BD10B50120FFF72DFF10BDCF
:10086000F7B501270F230D00390004000600800AA8
:100870001840814003209C431E4000F0F5FC0322F9
:1008800071008A40D04323680192034023602368AB
:100890008446032218002B0013408B40034360461C
:1008A0002360E3680340A808104088403900B14045
:1008B0002D092F40B740E360E368019A1843E060D8
:1008C000636800208B43636063681F436760A368AD
:1008D0001A43A260FEBD0F2270B50325040010402C
:1008E0004600B54094432368AB4323600223B340E2
:1008F00025682B430725236085429B4128408000C3
:10090000824081405B429B00E3181C6A94431C6256
:100910001A6A1143196270BD0F23020018409A43EE
:100920000E3B8340936170470F23020018409A43A7
:1009300010300E3B8340936170470000F7B5040010
:1009400015000F220F00810A11401440234A019123
:10095000E1008B50521801210600089B08005360EB
:1009600000F082FC39003000FFF77AFF1C4B202298
:10097000012C03DD4022032C00DD80221A600122BD
:100980001000A040C043174B9968014099602900AE
:10099000D5401140A140A5409F68A41039439960FB
:1009A000D968A4000840D860D968B2400D430E4908
:1009B000DD60641803210F25314089008D40A06857
:1009C000A843019DA0608D402900A0680143A1605B
:1009D0005A61196800200A431A60FEBD9004002085
:1009E00000E100E00004014000000140F8B50024EF
:1009F00001270C4D6B692E681E403B00A3401E4230
:100A000006D0094A6B61E3009B181A685868904742
:100A10000134102CF1D1054B1B68002B01D0FFF7DE
:100A2000AFFCF8BD000401409004002074030020D6
:100A300010B5002000F06EFC10BD000070B5044C35
:100A40002568FFF7F5FF2368AB42F8D1184370BD66
:100A500018050020054B10B51B68002B04D182B28D
:100A60001900180000F038FC10BDC0461005002029
:100A700010B5094A1368002B08D09C6881688C4225
:100A800007D303D159684468A14202D903601060BA
:100A900010BD1A001B68EEE71C0500208022F0B58F
:100AA0002A4D52022B689B182B602B68002B03D118
:100AB000274A1368013313600020264B26491A6821
:100AC0001860264B224C1B680A6007001900A446D8
:100AD000002904D064468E682468A6421BD90028E9
:100AE00001D01E480160002F14D0002139608A42D5
:100AF00029D01100002B05D050685C681900A04275
:100B000000D81100080012681B68002A0ED103608B
:100B1000114B1960F0BD2C6826004C68240C24048D
:100B2000B442DCD10F0001200968D1E7002B01D1CC
:100B30000260EDE755685E681C00B54200D81400FD
:100B400004602000DFE7044A1360E3E71805002093
:100B50001405002020050020240500201C0500208D
:100B6000F8B50123314E324D33602B68002B08D18C
:100B7000FFF794FFFFF75CFF2E4B9842FAD000245A
:100B800002E0FFF755FF04002B68002B0BD1FFF7A5
:100B90004FFF1430844224D9FFF780FFFFF748FF4E
:100BA0008442FBD3EBE75F68FFF742FF844205D83E
:100BB000BBB2834202D91B1A132BE8D82B685F689B
:100BC000FFF736FF844202D8BFB28742F6D82B68BF
:100BD0001A6818692A6000225A609A60DA68904799
:100BE000D2E72B68002B0CD05F68FFF727FF143F7C
:100BF00014308742C8D3002338003360FFF72AFF40
:100C0000F8BDFFF715FF0700844202D9FFF746FF42
:100C1000B5E7030014339BB2984204D9FFF708FFED
:100C20008742FBD9F2E7034FE5E7C04610050020F5
:100C300024050020FFFF0000174A10B513681100BB
:100C4000834211D11B681360002B04D058681438FC
:100C5000FFF700FF10BD1148FAE71A68984201D16A
:100C60000A60F7E719001300002BF6D10C4A13684D
:100C7000002B09D10B4A1368002BEBD0196898425E
:100C800005D01A000B00F7E71968984201D11160EE
:100C9000E0E71A000B00EBE724050020FFFF00004F
:100CA000200500201C050020002310B5044A05493A
:100CB000180000F041FB01204042FFF7CBFE10BDC1
:100CC000610B000840420F0070B5FFF7B7FE084BFC
:100CD00005001C68FFF7B2FE8542F6D8002223000B
:100CE0001500040012196B411000190070BDC046B8
:100CF00014050020F8B504000D00FFF79FFE002347
:100D0000070023602B1A1E2B0DD8ADB2FFF790FE03
:100D10008542FBD3FFF78CFE8542FBD8E368206950
:100D200098470020F8BDFFF757FC63680600002BCA
:100D300002D1A368002B02D02000FFF77DFF28001E
:100D40001E4A143865601368874211D8A36013687F
:100D5000A2689A4205D81A4B1A68030C1B049A42DF
:100D600008D02000FFF784FE3000FFF73DFCD8E7F5
:100D70000133EBE7BFB2B8420FD9124A1100136832
:100D8000002B02D05F68BD4214D223600C60136850
:100D90009C42E9D1FFF75EFEE6E70B4A1368002BA1
:100DA00002D059688D4202D223601460DCE71A0039
:100DB0001B68F4E719001B68E2E7C0461405002031
:100DC00018050020240500202005002070B504002F
:100DD000FFF702FC63680500002B02D1A368002B1B
:100DE00002D02000FFF728FF2800FFF7FDFB70BDB1
:100DF000C36870B504000D00002B0FD0FFF7E6FFAD
:100E00001D2D0CD8FFF714FE0600FFF711FE801B06
:100E100080B28542F9D8E3682069984770BDFFF732
:100E20000DFE29182000FFF765FFF7E7F7B504006E
:100E30000D00161E02D1FFF7DBFFF7BDFFF7CCFB5D
:100E400063680090002B02D1A368002B02D0200021
:100E5000FFF7F2FEFFF7F2FD0B4B07001B68019353
:100E6000FFF7ECFD8742F5D8019B28186060F31866
:100E7000A84207D32000A360FFF7FAFD0098FFF710
:100E8000B3FBDAE70133F5E71405002010B50B4C8E
:100E900000F074F901212000FFF7E2FC2000FFF7C9
:100EA0003BFD01210648FFF7DBFC01210548FFF768
:100EB000D7FC01210448FFF7D3FC10BD0C00005003
:100EC000050400500604005007040050704700005D
:100ED0000D4B10B51A680C00002A0ED101321A60B1
:100EE000032803D17146094809F07AFF2100084818
:100EF00009F076FF074809F073FFFFF76DFBFFF776
:100F0000E5FFFFF7D1FBC04628050020CED9000839
:100F1000D2D90008EED9000810B500F04BFB034809
:100F200009F05EFF00F0D6FA002010BDFCD90008E1
:100F300010B500F0D9F8FCE71FB5FFF74DFB002412
:100F400080210D4B0F221B68490002930B4B01942B
:100F500000930B480C2300F035F8C021094B072201
:100F60001B68C9000293084B0194009307480C23A7
:100F700000F028F8FFF700FA18020020310F0008EF
:100F80002C0500201C020020190F00082C06002050
:100F900070B50B79092B03D909490320FFF798FF96
:100FA0000A004C7908320368002B02D18B60026082
:100FB00070BD1D00083D6D79AC42F7D31800F2E713
:100FC000BCD90008F0B587B00500029103920493E4
:100FD0000F2A30D803220B00024003D004239B1AAF
:100FE000C518CB1A0322303B93430593EC18049B9E
:100FF0001B0717D42D6003E01B600433A342FBD30F
:10100000FFF7EAFA0123274A0190990056581FB2C8
:10101000002E13D00133212BF7D10198FFF7E4FA0A
:101020008B2709E02B00E9E72000FFF7C7F80198BC
:10103000FFF7DAFA32E016277F422FE08C50059B4B
:101040002A000D99E7800C98FFF74EF9029B0121C9
:10105000E3620E9B144AA362039B20606371012329
:101060005B42E3611368656201331360049B267180
:10107000A660E66026616661A66126620B42D3D156
:101080000B212000FFF79AF8049B5B07CFD401984F
:10109000FFF7AAFA6B469889FFF7CEF8380007B039
:1010A000F0BDC046BC0300207803002070B50400EA
:1010B00000F0ADF905002000103000F0B1FA280072
:1010C00070BD70B504000D0016003200290020002C
:1010D00000F089F9002800D070BD200001211030F7
:1010E00000F06EFAF1E70000F8B50B4D02262C680F
:1010F00023041B0E02D1E6B2731E9E41FFF76CFA69
:101100002B6807009C4202D13000FFF797FA3800A5
:10111000FFF76AFAF8BDC0462002002070B5094DFD
:1011200004002B5CFF2B03D107490320FFF7D0FEFF
:10113000FFF752FA2B5D0133DBB22B55FFF754FA60
:1011400070BDC04620020020BCD9000870B5094D12
:1011500004002B5C002B03D107490320FFF7B8FEE6
:10116000FFF73AFA2B5D013BDBB22B55FFF73CFA58
:1011700070BDC04620020020BCD9000810B500F0A8
:101180002BFC80210020490500F06EF800F004F8E7
:1011900000F050F910BD00008022274B5200196862
:1011A00010B50A431A60D968244A25481140D9600D
:1011B00019680140196000219961186801310143E3
:1011C0001960042118680842FCD002201D490C68EF
:1011D0002043086001200C682043086080201A49E1
:1011E0000001086010204C680442FCD1D968D96025
:1011F000D968D960D968D960D9680A40DA6088228C
:10120000D968D2030A43DA608022196852040A437B
:101210001A608022920419681142FCD00322D96816
:101220009143D960D9680A430C21DA60DA680A4030
:101230000C2AFBD110BDC04600100240FFFF02FF88
:10124000FEFFF2FE002002400070004000487047A0
:101250000048E801024B1B5C024858437047C046F7
:1012600030DA00080048E80100B5032807D80B4B26
:1012700006F0AAFE02080C109A6B11439963BFF3A3
:101280004F8F00BD5A6B11435963F8E71A6B114336
:101290001963F4E7DA6A1143D962F0E700100240FB
:1012A00000B5032808D80B4BC94306F08DFE020693
:1012B0000A0E9A6B1140996300BD5A6B1140596335
:1012C000FAE71A6B11401963F6E7DA6A1140D9623E
:1012D000F2E7C0460010024010B5032914DC0C4BA5
:1012E0000001C4581B185B6800201A400B000C3327
:1012F0009B00E3185A6002238B4022699A432261C3
:10130000E2681343E36010BD01204042FBE7C046A2
:1013100034DA0008024B0001C358586A7047C046CF
:1013200034DA0008034B0001C258012311680B4353
:101330001360704734DA000870B504000E0000280E
:101340001DD180250F49ED050CC10121FFF78CFF50
:101350000D4B2C6020006C60EB62FFF77BFF3100CF
:1013600006F046FE012380220138A8626B61074B1C
:10137000120220001A60FFF7D5FF200070BD012087
:101380004042FBE72C0C0020FFFF000000E100E0E2
:10139000F8B5802400250227E4052369E6681E408D
:1013A0003A00AA40324207D0E36829009343E36041
:1013B000064B1A68586890470135042DF0D1044B4C
:1013C0001B68002B01D0FEF7DBFFF8BD2C0C0020C2
:1013D00074030020836801685A1C82604268013AE5
:1013E0001340C85C7047F8B5070015000C001600E4
:1013F000002E03D0BA68FB689A4201D1A81BF8BD41
:101400003800FFF7E7FF013E20700134F0E7C368C2
:1014100030B5426884681B1B934208D0C3680468D7
:101420005D1CC5600020013A1340E15430BD01202D
:101430004042FBE710B5002004F04EFA012004F012
:101440004BFA04F0AFFB10BD07B5034B6846002113
:10145000595E00F02FFA07BD980D002030B59DB001
:1014600008210CA800F0A4FA01A800F09BFA144C83
:101470001448210009F0B4FC200009F041FD124D90
:10148000C2B22100280000F069FE0200042812D038
:1014900021000E4809F0A4FC03A804F0BFFB039B45
:1014A00003A81433039309F079FA0022084903A82A
:1014B00004F0FAFBD8E7280000F094FEECE7C04601
:1014C000FFDA00080DDB0008540C00201ADB0008CE
:1014D00049140008F0B5284887B009F007FD2748EF
:1014E00009F004FD264C274F2100380000F0D5FA02
:1014F000254E2100300000F0D0FA244D2449280068
:1015000000F0CBFA234C200000F0B2FD200039009F
:1015100000F089FE2000310000F08BFE2000290041
:1015200000F08DFE0521200000F0A0FE1A4809F011
:10153000DDFC2000002100F0D7FD041E05D0174877
:1015400009F0D4FC012007B0F0BD154809F0CEFC2D
:10155000C021144B06220293134B8900009301947F
:1015600023001248FFF72EFD114B0100188004A83C
:1015700000F0A0F92000E6E744DA00086ADA000883
:10158000A0DA00084C0C0020340C00203C0C002099
:1015900090DA0008540C0020B1DA0008C9DA00081B
:1015A000DFDA0008F8DA00085D1400089A0D002060
:1015B000980D002010B500F087FAFFF775FB10BDFD
:1015C00070B504000D00FFF707F823680600002B34
:1015D00006D1013B2360FFF707F80125280070BD05
:1015E000002D18D00D4B02211D682800FEF7E6FDE6
:1015F000236801330AD12B00083323600023AB603A
:101600003000FEF7F1FFFEF7BBFEE6E72900200001
:10161000FFF7BEFCF4E7FEF7E7FFDFE7700300200B
:1016200070B50500FEF7D8FF2C680600002C03D12A
:101630003000FEF7D9FF70BD631C02D100232B6080
:10164000F6E72368083C2B600B212000FEF7B6FD6F
:101650002B68002B01D1013B2B6064793000FEF731
:10166000C3FF2000FEF7E8FDE5E70000F8B5050040
:101670000F00FEF7B1FF3A4B3A4A1B8806001BB237
:101680009B009858036A002B51D044698369A34298
:101690004DD0631C4361C3691C40002F09D103690D
:1016A000002B06D1631C04D13000FEF79DFF200003
:1016B000F8BD002C3FDB026AE300D3182A0082CB7E
:1016C00082C20269002A38D013680361002C0BDB48
:1016D00081694469C369056A0C1BA34224DB4C1C65
:1016E00084610B40DB00ED18083A1400D36806CB88
:1016F00006C523790F25052B06D000230B21E360B7
:101700002000FEF75BFD65793000FEF76DFF0E2DC2
:1017100023D82800FEF790FD1FE01349FFF7D8FB00
:101720003000FEF761FF18E001235B42DAE7012495
:101730006442002FB3D0C560C3E7002CF0DA032168
:10174000FEF73CFD3000FEF74FFFFEF719FE074B9A
:101750001B681879C0B20328DFD00124A7E7C04670
:101760006C030020BC030020BCD9000870030020DB
:1017700010B582694469C369141BA34201DA0020D1
:1017800010BD541C84611340F9D4026ADB00D318E5
:1017900005C905C30120F3E7F7B51E00254B8900F5
:1017A000CC58254B00901B8801920380002C06D159
:1017B00030000125FEF718FF6D422800FEBD237999
:1017C000032B2ED01D4B009920001F68FFF7D0FF80
:1017D000051E09D03000FEF707FF3B790125052BD8
:1017E000EBD1FEF7CDFDE8E7019B002B03D13000E4
:1017F000FEF7FAFEE1E73979009B0539FB604B42C1
:10180000594138000431FEF7D9FC2000390010306E
:10181000FFF7BEFB3000FEF7E7FE0125FEF7B0FD47
:10182000CBE7E368009A03CA03C30B212000FEF74D
:10183000C5FCEFE7BC0300206C0300207003002010
:1018400070B50400FEF7C8FE074B05001B88210099
:101850002380064B1868FFF78BFF04002800FEF773
:10186000C3FE200070BDC0466C0300207003002042
:101870000E4A89000300885810B5002812D0212292
:101880001A800279032A09D1C26812CB12C20B2135
:10189000FEF794FC0120064B186010BD1900FFF7FD
:1018A00067FFFAE701204042F7E7C046BC0300208B
:1018B0007403002070B504000D00FEF798FE0028A8
:1018C00004D029002000FFF7D3FF70BD084B1B8810
:1018D0001BB2AB4203D12000FFF7B2FFF5E7FEF7E2
:1018E0007BFE0122030029002000FFF755FFECE7F3
:1018F0006C030020F7B5114F05003B880C001BB2AC
:101900001600934203D10E490320FFF7E1FAFEF7D8
:1019100063FE3B880B4A1BB29B009F580190052138
:101920003800FEF74BFC2300FC6006CD06C3200008
:101930003100019B0122FFF72FFFFEBD6C03002049
:10194000BCD90008BC03002070B504000D00FEF7F0
:1019500043FE0022A35E114A9B009C580600002C07
:1019600003D10F490320FFF7B3FA2379052B04D0E5
:10197000FEF73AFE0120404270BDE368200006CD2C
:1019800006C30B21FEF71AFC64793000FEF72CFE2B
:101990002000FEF751FC0120EEE7C046BC0300200A
:1019A000BCD9000810B50121FFF760FE10BD000092
:1019B000074B4A1E1B6810B51140186203D0054939
:1019C0000320FFF785FA59619961DA6110BDC046BD
:1019D00070030020BCD90008184B19491A6AF0B5E9
:1019E00011408022D2030A4380211A62DA69C905B4
:1019F0001202120A0A43DA610322C025002194462A
:101A0000FF27AD0064463E000C40E400A6408A0873
:101A10000C489200121850590131B0434026A6409C
:101A2000304350512029EDD1102219690A431A611F
:101A30008022596992000A435A61F0BD00ED00E02E
:101A4000FFFF00FF00E100E003001A78002A01D147
:101A5000181A70470133F8E71F2204210378134056
:101A60000933A932934201D39B1ADBB201395208E0
:101A70000029F7D11F2240781B0110405BB20930CA
:101A80000431A932904201D3801AC0B20139520800
:101A90000029F7D11843C0B27047F8B50700080015
:101AA0000E000124FFF7D0FF00250440AC4202D114
:101AB0004508AC4201D12800F8BD60003018FFF79E
:101AC000CBFF38550134F4E707B5042101A805F030
:101AD000EFFC019800F028F807BD000070B5060083
:101AE000884203D30F490320FFF7F2F90D1A2800AB
:101AF000FEF7D8FB6B1E1D420AD1C0B20124844000
:101B0000013C00F019F820408542FAD9301870BD28
:101B1000C3B21E2B02D8C0B20130EFE701246442E9
:101B2000EFE7C046BCD9000810B50100014805F038
:101B3000CBFA10BD9C1000201449F0B54B680A6820
:101B40001C008E685200CD687440520862405400F8
:101B50006808544068406040012507000A692F402A
:101B60007F423A405640820262404C690B602740F7
:101B70007A408A60120AD318C8608A6958402B409C
:101B80005B4213404E605840F0BDC0469C100020A0
:101B9000F0B587B015000F00060000F078FB01A932
:101BA0000400280002F03AF902AB00280FD000220E
:101BB0001A709A609A819C73180002F041FC082305
:101BC0000B2801D80B4B1B5C180007B0F0BDB17996
:101BD0007279ADB264B2012904D118701A719F6094
:101BE0009D81E8E701211A71032219709F609D8190
:101BF000DA73E0E742DB0008F0B5102187B004009B
:101C0000A0273648FFF7D4FE7F0002A8FFF7CAFEE0
:101C100002AB5888324B984204D103980368DB68C2
:101C20009847F2E72F4BC0180D28EED806F0C2F9FE
:101C3000070B0EEDEDEDEDEDED101A2F41222A4BC5
:101C4000DB689847E1E7284B5B68FAE7039BF8E716
:101C5000039B200059681A68904704A902A8FFF75F
:101C600073FED2E7039B21790193059304A8FFF744
:101C700021FECAE74022039BFF32197AA1545B7A06
:101C80003F3AE3554223FF3AFF33E254BDE7039B5B
:101C9000052B08D1002165790A0061712000FFF74A
:101CA00077FF6571B1E7114A04A84280436021794A
:101CB000DDE720000E4B039D04AE73802A7BA968EC
:101CC0004B3008F099FC3E232A7BFF33E2549F22DD
:101CD000EB785200A35421793000C8E7B8100020F7
:101CE00056340000A9CBFFFF5015002062340000DD
:101CF0006334000007B50A790968FFF749FF6A46AF
:101D0000044B01905380044B68460021595EFFF755
:101D1000D1FD07BD623400003C150020F0B5C5B010
:101D200002AB040058600E2912D8080006F04CF9E6
:101D300008101B10121010101010193436393F0003
:101D40001D4A5A801D4A18000021515EFFF7B2FD5E
:101D500045B0F0BD200004F0F3FD194B1B68984717
:101D6000F6E7184AEDE7236820005D6800231A00B3
:101D70001900A847236801AE05005F680200330020
:101D800004A92000B84702230D48F356846832782E
:101D9000A9B204A8A047DBE70B4AD2E7084B1B69AE
:101DA000DDE7074B606F5B69C0B29847D0E7044B33
:101DB000783420789B69F8E7563400003C15002001
:101DC000501500205834000057340000037807B540
:101DD000042B0AD16A46054B6846538005230193BC
:101DE000034B0021595EFFF765FD07BD623400001B
:101DF0003C150020037807B5002B02D0012B13D02F
:101E000007BD0F4B42780021595E0E4B002A05D1C9
:101E1000684601924380FFF74DFDF1E76A46538023
:101E2000012301936846F6E74378002BE8D16A4620
:101E3000054B01905380024B0021595EF2E7C046EA
:101E40003C150020613400006434000037B543784D
:101E50000400002B19D143790F4D012B09D16A469B
:101E60000E4B68465380052301930023E95EFFF77C
:101E700021FD637B002B09D06A46094B01945380F6
:101E80000023E95E6846FFF715FD37BD6A46034B40
:101E9000538006230193F3E73C15002062340000D1
:101EA0006334000007B54378002B0ED10378002B74
:101EB0000AD16A46074B538006230193064B6846B6
:101EC0000021595EFFF7F6FC07BD6A46014B5380BF
:101ED0000723F2E7623400003C150020F0B50D78CE
:101EE0008DB00400002D03D0012D3BD00DB0F0BD0E
:101EF00000F0CDF90127012101902000FFF760FBE0
:101F000004A80770057102F08FF8E31D08930833E9
:101F1000099308330A93019B07AE20003570337490
:101F2000FFF77EFB300002F0EBF9B8420CD000283E
:101F3000DCD0294A02A9294B4A800B2810D10390F2
:101F40000021595E02A808E0234B02AA53800A230D
:101F500010000393214B0021595EFFF7ABFCC5E74E
:101F60000397EDE7290000F0C6F929002000FFF7EC
:101F700027FB002307AE30003371357002F054F8B0
:101F80002100042347314A7833700B7812021A4338
:101F90008B7830001B041A43CB781B0613431BBA03
:101FA000736002F041F805233370230030003733AB
:101FB000736002F039F806233370230030002733B2
:101FC000736002F031F830003570357102F02CF892
:101FD0002000FFF725FB89E7613400003C15002055
:101FE00070B50D00160004000121FFF7E9FA1B4B44
:101FF00032002B601A4B29006B601A4B1A48AB60F9
:102000001A4BEB60052301F0C5FD2000FFF708FB2C
:102010002000002100F02AF92000002100F049F9F9
:102020002000012100F056F92000002100F00DF9F8
:102030002000022100F070F92000002100F06EF96C
:102040002000322100F06CF90C21200000F079F919
:1020500042230022FF33E25470BDC046A51E000893
:102060004D1E0008F51D000850150020CD1D00086C
:1020700030B5134C85B005001249200003F080FEF6
:102080008021114B06222360104BC9006360104B66
:10209000019502930F4B104800930823FEF792FF1F
:1020A0000E4B1880002807DD28000D4A0D49FFF768
:1020B00097FF002005B030BD01204042FAE7C0463E
:1020C0006C1500205CDB0008E8DC00081D1D000822
:1020D0004EDB0008F91B0008381100203C150020D9
:1020E0003815002040150020F0B58BB06B46D97133
:1020F00001210600DD1DFFF763FA012307AC200074
:10210000237001F0FBFE27793000FFF789FA0320E6
:10211000002F19D10D4B0E4A1B8805A8337103AB54
:10212000039243600B4A0C4B4280210000229A5ECE
:102130000495FFF7DFFB2B783800002B04D120003B
:10214000FFF730FC6068C0B20BB0F0BD6C0300203C
:10215000DD1E0008603400003C150020F0B542236D
:102160008DB001920022FF33C2540E000121050000
:10217000FFF726FA012309AC2000237001F0BEFE10
:1021800027792800FFF74CFA0220002F1ED0104BB1
:1021900003AA1B8807A82B71019B0E49137105AB7D
:1021A000069243600C4A0D4B0591428021000022AB
:1021B0009A5E0396FFF79EFB2000FFF7F3FB084BA8
:1021C000628808209A4201D16068C0B20DB0F0BDAB
:1021D0006C030020F51C0008603400003C15002052
:1021E0006234000007B50A4B1B8803716846FFF78D
:1021F000D9FB6B465888074B984205D0064BC01850
:102200004342584108300EBD0198C0B2FBE7C046BA
:102210006C030020623400009DCBFFFF10B501214C
:10222000FFF7CEF910BD10B50730082208F0E4F929
:1022300010BD10B50F30082208F0DEF910BD10B542
:102240001730102208F0D8F910BD30B585B00D0058
:102250000400FFF7E3FF002301A80370057101F0FC
:10226000E3FE2000FFF7DCF905B030BD30B585B0E6
:102270000D000400FFF7D2FF142301A803700571BD
:1022800001F0D2FE2000FFF7CBF905B030BD30B52C
:1022900085B00500FFF7C2FF142301AC20002370B6
:1022A00001F02CFE24792800FFF7BAF9200005B0D0
:1022B00030BD30B585B00D000400FFF7AFFF02233D
:1022C00001A80370057101F0AFFE2000FFF7A8F927
:1022D00005B030BD30B585B00D000400FFF79EFF9E
:1022E000072301A80370057101F09EFE2000FFF78F
:1022F00097F905B030BD30B585B004000D00FFF78B
:102300008DFF032301A80370456001F08DFE2000BE
:10231000FFF786F905B030BD417170478171704794
:1023200030B585B004000D00FFF778FF1B2301A82E
:102330000370456001F078FE2000FFF771F905B0E9
:1023400030BD30B585B00D000400FFF767FF1C23DA
:1023500001A80370057101F067FE2000FFF760F926
:1023600005B030BD37B515000E4A01AB2C321278DE
:1023700004009A7009221A700B4A59701278002AC8
:1023800001D00A221A70094A1900107802F058FA8E
:10239000641983B20020A34203D3FF23A342404128
:1023A000C0B23EBD7C170020661A0020F017002046
:1023B00070B50024284B294A1C70294B1C60294BFE
:1023C0001C60294B1C60294B1C7001231370284A88
:1023D0001370284A1470284A1470284A1380284A17
:1023E0001470284A1470284A1370284A284B117810
:1023F000901C197051785970C07F991CC8771900CA
:1024000010002431243060C860C1100019002C3045
:1024100000782C310870100019002D3000782D3113
:102420000870116B526B19635A631A4B02211878AA
:1024300002F016FA184B1C70184B1C70184B1C70CD
:10244000184B1B68002B04D1174A1370174A1370DE
:1024500070BD5C629B6AF5E7311600202402002003
:10246000181B00202C16002018160020291600200A
:1024700025020020EC150020201A00201E16002046
:1024800075190020F619002026020020B41700203C
:102490007C170020F0170020641A0020E81A0020A2
:1024A000F7190020601A002028160020331600209B
:1024B00010B50C4805F042F80B4B1B78002B07D0E9
:1024C00001220A4B1A700423094A116899431160CA
:1024D000084B1B78022B04D1074A1E3311780B439B
:1024E000137010BDF0150020641A0020EC150020B8
:1024F000F0180020621700206317002073B51748FA
:1025000005F01CF80023164A164C1370164A174D96
:102510001278174E2270AA1CD27FE2702A002D3248
:102520001278A3742274E374124A134B12781B7846
:102530006274022B02D1336B019398470F4B104A00
:1025400018780432210002F0C5F9A27C736B0020D8
:10255000002A00D1E868984773BDC046981A002049
:10256000671A0020681A0020281600207C17002017
:1025700020DD0008661A002062170020F0170020F6
:10258000381A002070B5174804F0D8FF164B174CC6
:102590001B78174D23706B6A164A63602B002D332E
:1025A0001B7812782374144B1B7863740123E37433
:1025B000022A00D00023A374104A114B0432187869
:1025C000210002F087F900280AD00E4BA27C5B6B39
:1025D0000020002A00D1E868984701220A4B1A70AF
:1025E00070BDC046C01A002028160020801A0020A6
:1025F0007C17002062170020661A0020381A00207D
:10260000F017002020DD0008671A002010B5FFF742
:10261000B9FF0222014B1A7010BDC046671A002094
:1026200013B51D4C2378022B03D01C4BDB6A01939E
:1026300098471B4B1A781B4B19781B4B00291DD14F
:10264000002A02D0194A0331517003225A702378AC
:10265000022B1DD0164B186804F08EFF154B1B681B
:10266000984207D3144804F069FF2023134A1178D5
:102670000B4313702378022B0AD013BD002A02D01B
:1026800004210A4A517004225A702378022BECD19B
:10269000FFF7BCFFF1E7C0466217002020DD00080D
:1026A000641A0020671A0020501A0020241A002003
:1026B00020160020941A0020C01A00206317002062
:1026C0000B4B07B51B78022B0ED00A4BDB6A01932C
:1026D00098470223084A5370084A5370084A1E3329
:1026E00011780B43137007BDFFF790FFF1E7C04669
:1026F0006217002020DD0008241A0020501A002054
:102700006317002013B51D4C2378022B03D01C4BFC
:10271000DB6A019398471B4B1A781B4B19781B4BAC
:1027200000291DD1002A02D0194A05315170052215
:102730005A702378022B1DD0164B186804F01CFF2A
:10274000154B1B68984207D3144804F0F7FE20236A
:10275000134A11780B4313702378022B0AD013BD50
:10276000002A02D006210A4A517006225A702378A4
:10277000022BECD1FFF74AFFF1E7C04662170020B9
:1027800020DD0008641A0020671A0020501A00207B
:10279000241A002020160020941A0020C01A0020BD
:1027A00063170020F0B587B004F0DDFE3A4D060057
:1027B0002B78022B5BD0394BDB6A01939847384B5F
:1027C000384C1B78002B55D0374B384F19683800E0
:1027D00004F0BBFE380004F09BFE2B78022B08D0DF
:1027E000334F344B3800196804F0AFFE380004F062
:1027F0008FFE2B78022B03D02F4B1B78002B10D091
:10280000122303A90B702D4B187802F019F8294BED
:102810002B4D19684118280004F097FE280004F099
:1028200077FE2278274B120733D5274A1278002AE1
:102830002FD101321A70254B254A1B7804A9137039
:102840000B70244B4E601B784B701C4B187802F0B9
:1028500000F8214B1E60184B1B78002B05D11F4A36
:1028600053701F4A13780133137007B0F0BDFFF7A0
:10287000CDFEA4E7194A53700422134B5A702378F3
:10288000002B01D1013323702023227813432370BE
:10289000C7E70022CEE7C0466217002020DD00080F
:1028A00026020020631700207C1A0020981A0020BE
:1028B000C01A0020941A0020641A0020F01700208B
:1028C000F015002034160020501A00202816002091
:1028D000331600203116002020160020241A002074
:1028E00029160020F0B504000E008FB00392079364
:1028F000039B9E4201D30FB0F0BDA05D751C023852
:10290000EDB20828F7D805F069FB0900150086002C
:10291000A300E5000A0142016B01A5010022E14B81
:102920005A70615DB21CD2B21972A25C0336F6B263
:102930005A72DDE700230B2706AA53729372BF1861
:1029400009AA13703B706B1EE3180B93039B0BA932
:1029500001335B1B0B71D44BD44E1B7806A88B71D3
:1029600033002C331B784B717378CB7133780B7237
:10297000CF4BDB7F4B72CF4B1B7801929C460A23D7
:1029800006AA9B18092200971218604601F0B9FFA9
:10299000C34304905B0708D106AB5B7AC44A7370EB
:1029A00006AB9B7A33703B78D37709AB1E78052151
:1029B000300005F01DFB8021BF4A49421278BF4F0D
:1029C0008A1A0021D2B2013A0692BD4AC3B2BC466D
:1029D00010780A000593BB4B1B78059F974209D1DD
:1029E000002903D0B74A1370B54B1870013EAE19D9
:1029F000F6B27DE7069FBB420ADA60460327591C00
:102A0000C754049FC9B24754012001000233DBB20E
:102A10000132D2B2E1E70121635DAB4A8025137038
:102A20000A009A40A94BA7481A80A34B6D421B7815
:102A30000278EB1A0236DBB2F6B2934200D857E7BF
:102A40005318037004209D4B98549D4B19704FE709
:102A5000635D07251A090BAF2A407A700F221340D5
:102A60003B70B31CDBB2E15C301DF31CC0B2DBB2C7
:102A7000E25C235C12021B04134364220B435343A6
:102A80000C938C4B3900187801F04AFF0536F6B2EA
:102A90000540072D09D1854B39781A00283211706D
:102AA0007A685A627A780233DA778025824A8549D1
:102AB00012786D42AA1AD2B20B78013A934200DB27
:102AC00016E77E4A8535D5549D1C0133DBB20D7067
:102AD000D0547CE07E4BFF201B68002B03D01B688A
:102AE000002B00D098478026734A764212787549A9
:102AF000B21AD2B20B78023A2E00934200DBF7E60C
:102B000006256E4AD5545D1CEDB25055D81C087090
:102B10003F2107980233DBB20140995433E0635DF3
:102B200009A90B71F31CDBB2E55C331DDBB2E35C7E
:102B30002D021B042B43B51CEDB2655D701D2B43AC
:102B400064256B430B930023C0B20C93235C0BAA48
:102B50001372584B0992187801F0EBFE564A594906
:102B60001278E43DAA1AD2B20B780636013AF6B2D0
:102B7000934200DBBCE6514A8735D5549D1C013396
:102B8000DBB20D70D05401224D4B1A70B0E60F220B
:102B9000635D0236F6B21A4000D10132FA23FA21FF
:102BA00080209B005343414A890013615B185361A5
:102BB000414B44491B784042C31A0A78DBB2934226
:102BC00000D895E6531C0B7008213C4B9954042205
:102BD000404B1A701023404A11780B431370D2E710
:102BE0000022635D0BAD02362A702032F6B21A4025
:102BF0002ED16A70DA0601D501222A700F22134005
:102C0000AB702C4B2900187801F09CFE431C00D1BE
:102C10006EE6264F2A783B002C331A703B006A7808
:102C20002D331A70AB782D4AD05C05F083FE3863E3
:102C30008020214B23491B784042C31A0A78DBB21B
:102C4000934200D854E6531C0B701C4B092164E7D7
:102C50000122CEE7635D0BA90B70B31CDBB2E25C13
:102C6000371DF31CDBB2FFB2E05CE35D00021B0426
:102C7000034313436422802553434B600D4B6D4245
:102C8000187801F068FE0C4A0E4912780B78AA1ADF
:102C90000536D2B2F6B29A4200D829E6074A8A35FA
:102CA00011E7C046501A00201C1600207C17002097
:102CB0007D170020F0170020F6190020F5180020DD
:102CC000F719002075190020201A00201E16002078
:102CD000541700205C1A00206317002084DB0008D2
:102CE000F0B58BB0049310AB05921A8800230C004A
:102CF000B44DB54906930B702B80049BB34E591EFF
:102D00008B4101785B42317000781A40B04FD3B2EA
:102D100040093B7005F062F9080054014C00540171
:102D2000490054015401440101232B80A94B08227E
:102D30001968A94804F0D7FB2888A84B083080B24E
:102D4000196808222880301804F0CDFB2B8808333E
:102D50002B80A34B5B6904939847A24B82B21A80E5
:102D60002B88120AF054991C01339BB2F2549E4AEC
:102D700089B23000298006ABC9B2126801F0C6FCE6
:102D80002B88069A591C100A89B2F2547054991C67
:102D900089B2100C7054191D03339BB2120EF254F9
:102DA0000026298030000BB0F0BD0122864B1A703E
:102DB0008E4B07261B78002BF4D023780125F34097
:102DC0008B4E07A94B7033680D704B60894B8A4856
:102DD0005A7800780A721A784A721A002C321278DD
:102DE0008A725A19009601F05DFD4023284025782B
:102DF00080019D43814B05431A782570002A05D038
:102E000000221A702023EAB2134323707C4B6F4FC9
:102E10001B687C4E1A0A7B70BA701A0C1B0EFA7073
:102E20003B71237830787B71774B784D1B687849FC
:102E3000BB711B0AFB71774B40191A7804F04FFBEA
:102E4000744B32781B780499D218D2B23270724B1C
:102E5000002971D05E49087800286DD01B780826BB
:102E6000002B13D00F2A62D80F2021780B071B0FDD
:102E7000D318814303400B4323707B71002391B22D
:102E800098B281424ED816000836F6B20021624B45
:102E90005F4D19700B009A4257D85E4B197000298C
:102EA00002D001225C4B1A70049B002B1BD0484BB4
:102EB0001978002917D0544A514B1068741C434AA2
:102EC000059DE4B2955589B21B68A218002D61D109
:102ED000059E4C4D2E700292504A01900096049827
:102EE00001F098FB26003A4B364C197806AB89194D
:102EF000002621800293444B484A1B6800960193A8
:102F00003F4B38001B6801F043FB069A2188100AEA
:102F10007B187A5458700431100C120E9870DA70C5
:102F200021803FE7EC5CF81804720133A8E70A70CF
:102F3000002304950593A9E70826002AA6D01B784C
:102F4000002BA3D0224B1A70F2E73048C45CE01E7D
:102F500007280FD805F038F81C0E04191C110E04B0
:102F60006C540133294CDBB2481CE45CC0B2023122
:102F7000C9B22C540133DBB28DE7481C84460820CB
:102F8000234C60546146C9B2F4E70233DBB2F1E787
:102F90000133FBE70292002201900092204A9EE753
:102FA000049E311E00D1FDE60026B34200D1F9E6B1
:102FB000D2B2094804F093FA3B7801332B80F1E652
:102FC0000226EFE650170020641A00205016002059
:102FD000F418002038160020511600205C1700203D
:102FE00020DD0008601700203C160020311600206C
:102FF000181600207C170020F0170020E81A002087
:103000005817002075190020181B0020F518002003
:1030100076190020F6190020F71900206C170020FF
:1030200040160020F0B589B002ABDE1D002301245C
:1030300004A91C4D0190087033706B781A4F4B70C7
:103040002B7832008B702B6B4B606B6B8B60174B4C
:103050001B888B81164B18783B0001F046FC154B02
:10306000154A5C7054706978144D99703178280055
:10307000D97001991961396851609960FA21890004
:1030800004F063FA280004F043FA084B0C4819785E
:103090000C4B9B6A984700200B4B1A6814431C602A
:1030A00009B0F0BD7C170020141B00205017002031
:1030B000F0170020241A0020501A0020F8190020D0
:1030C0005016002020DD0008F01800200023F0B585
:1030D00089B004934D4B03901B780925FF2B4ED0EC
:1030E000002B01D14A4A13604A4B4B4A1B7805AD6D
:1030F00012784A4EEB704A4B2A7032781868AA70E0
:1031000004F03AFA474C484F23686860AB60474B7D
:1031100029001B7838786B7001F02FFC444B38780D
:103120001A882368013A5343394A424C1360059385
:10313000637829002B723378AB72374B1B786B7234
:103140003D4B1B686B60009204AB3C4A01F01CFCD9
:10315000051E17D00B2812D1039B002B0FD0002582
:103160000499A9420BD01023354A364C106803430A
:103170002000136004F0E9F9200004F0C9F92800E8
:1031800009B0F0BD21000122A31C3D78DB7F2D3169
:103190005BB2A2560978280001F00AFC2A4E227A76
:1031A000009641B26368280001F089FB2821387835
:1031B000264F227A61560097636801F080FB164B18
:1031C0001B78002B0FD1A269F368D318204A136033
:1031D000E369FA689B181F4A1360184B1878FFF7C9
:1031E00021FF0500CBE701211B4B61561A781B4BD1
:1031F00008251878FFF7B6F80028C0D02269F368D0
:10320000D318134A13606369E3E7C046201A00200D
:10321000241600203316002031160020301600201E
:1032200064170020141B0020F01700203416002023
:103230001E1600207C1700202016002028160020D3
:10324000F0180020EC1A0020681A0020801A0020D4
:103250007C1A0020941A002075190020F418002010
:1032600030B50D000B4C85B0247803A9E4010C7037
:10327000009313002A00FFF733FD002807D1064A08
:10328000064B126858711871DA60FFF71FFF05B01E
:1032900030BDC0461C160020181B0020241A002038
:1032A00010B5064804F04AF91023054A01201168B8
:1032B00099431160FFF70AFF10BDC046EC1A0020C9
:1032C000F0180020F7B5A34804F038F9A24CA34D3C
:1032D0002278930600D48BE02B68590602D5412151
:1032E0008B432B60092100231140994213D09C4845
:1032F0004678022E03D09B4E7678022E0BD1012306
:103300002E68994F9E432E6000263E70974F06719F
:103310003F7886604771964E3078002816D1002B92
:1033200014D1002912D0110700D4B4E08D490878D7
:10333000002800D0AFE04A78002A03D18D4A1360FC
:103340008D4A137001232A689A432A6023788B4A96
:103350009B071BD5854B824918780B79002B03D12D
:10336000874B1B78834211D2002313703370854B37
:103370001B78002B05D17F4B9C4667461B680133A9
:103380003B60012348712968994329601378002B19
:103390002ED0102329680B402AD11370734B784A22
:1033A0001B7812789A4200D8B7E0082B00D9B4E015
:1033B00001336E4ADBB21370DB070FD51E2301A960
:1033C0000B70714B2C331B788B706F4B5B784B7091
:1033D0006E4B187801F034FA6B4B58700120FFF7F0
:1033E00075FE002800D07CE02022237893432370D0
:1033F00002222B68134201D093432B602B68002BD1
:1034000000D09DE001222378134206D0934323701D
:103410005F4B53481B681B68984708222378134268
:1034200006D0934323705A4B4E481B689B689847BD
:10343000584B1B78002B06D00422574B1A701023D0
:10344000227813432370202223789343237002228F
:103450002378134213D093432370504B1B7893422D
:1034600001D1FFF7D3F823785B0704D4484B4C48CD
:103470001B685B68984704222378934323701022CB
:103480002378134206D093432370414B42481B6874
:10349000DB689847F7BD02231A403B4B364901339E
:1034A000D87F0B78984208D9002A0ED120222378A1
:1034B00093432370FFF7F4FE48E7002A05D12A4B17
:1034C0001A70384A13680133136000230B702D4BB8
:1034D0001B78002B00D035E7264A136801331360B0
:1034E00030E709231E49204A4B7000231370012244
:1034F00033700B711D4B28681B7890434B71224B26
:1035000028605B788B701F4B1B78002B00D06FE717
:10351000184A1368013313606AE71C4B01211878BD
:1035200001F09EF901232A689A4300232A600E4A7B
:10353000337013700A4A13710C4B1B785371E2E716
:10354000FA210448890004F000F8024803F0E0FF83
:103550007DE7C046F819002063170020F01800200E
:10356000241A0020501A002075190020250200207E
:10357000641A0020181B002029160020EC150020DA
:1035800024020020321600207C170020F0170020B3
:10359000EC170020F61900205C1A002062170020AA
:1035A000381A0020181600204023094A10B5116867
:1035B0000B431360074B1B78002B01D0FEF778FFFD
:1035C0002221054A13780B431370FFF77BFE10BDD1
:1035D000F0180020641A002063170020F0B595B0A1
:1035E00005910021C64EDBB207933374C54B04909E
:1035F0001B78C5487374C54B0171DB6A1191F28168
:1036000071807171B16031737173B17471613170B6
:1036100006939847BE4803F091FF049B1B78580916
:1036200001380A93062800D93FE204F0D7FC0700CE
:103630003E029B003E029B003E022E02B54B1B78D1
:10364000002B02D00123737014E1059BB24DB34FE0
:103650000498591E89B201303B002A6801F07EF8B7
:10366000AF4C0A9B2A682370059B2000191F89B262
:1036700011AB01F04BF8059BAA4EE218D31E911E28
:103680001B7809781B0209040B43111F013A0978C2
:1036900012780B4312061343119A9A4247D1A24B58
:1036A00039001A88A14B00932868A14B01F078F8E3
:1036B0006379A2791B0212041343227913439D4AB2
:1036C0001360227AE37912021A43637A1B041A43C5
:1036D000A37A1B061343984A1360E17A974B4A0674
:1036E000520F981CC2770F201A0001402832117027
:1036F000227B024019D01A61FA22196992004A43CA
:10370000FA2189001A6152185A618D4B059D129356
:103710008C4B12A91878113D0D7101F0B3F80023FC
:103720007C4A73700133137003E00122E3E707233F
:103730007370854B854C1B78002B00D0BAE1844B0D
:103740001B78022B02D1200003F0F8FE2379002B16
:1037500006D1804A203311780B431370FFF7B2FD76
:1037600015B0F0BD754B10A92D331B788B703379D4
:103770004B7009230B70784B1B78002B01D00A2368
:103780000B70704B187801F05BF8059A0D3A131C1A
:10379000120400D500231BB2834200D952E7049BD8
:1037A0005A1C597853781B0219439378D2781B041A
:1037B0000B4312061A43604B06921B6893425ED07D
:1037C000664B1D68002D01D10B233CE72B68069A40
:1037D000934252D12B1D089310330E9301236E6A2E
:1037E0000B93049B059A5B791C070993230F0D9398
:1037F000049B9B18DA1E14789A1E12782402120475
:1038000014431A1F013B12781B7814431B062343F1
:103810000F93049B049ADB7997791B021F43BF1B0C
:10382000BBB20C936B463027DF5F059B191F89B233
:1038300011AB002F2DDB029301230C9A00939719F3
:10384000069B089A0197049800F0A2FE119B0F9A1C
:103850009C1A63425C41E4B2112310A90B70394BEE
:10386000187800F0EDFF0C9A254B824225D30A22EE
:103870005F615A70FFF798FE72E7AD6AA2E7384BB6
:1038800000251E6800230B93284B0E93284B0893AA
:10389000A7E7802201245202B018C7190293089AA0
:1038A000069B01970094049800F072FE119B0F9AFA
:1038B0009342D1D037000024CEE7002C00D1E2E0C3
:1038C00000220B995A70997009999A60C906C90F1C
:1038D00059710D491A734A7022495F610A60224981
:1038E0000A700B99012900D07EE002321A706B6ACF
:1038F000BB423BD1002F39D00822014B5A70B9E7A7
:10390000381A0020671A0020241A002020DD000841
:10391000C01A0020311600203C160020F2170020AB
:10392000F1170020501A00206017002040160020D8
:103930006C17002068170020581700207C17002003
:10394000FE170020F0170020641A0020F015002058
:103950006217002063170020661A0020601A0020FA
:103960002C16002018160020F61900206F62242261
:103970006B469B18564A1E781378012B53D1B30619
:1039800008D50021534B1970099B9B06DB0F13715F
:10399000514A93740F230D9A1E40059B0832043B35
:1039A0009B1A002B69DD0D9C0599049B09340D1BA6
:1039B0009B5C4949043DEDB2CB70002B45D1002EF4
:1039C00035D1049BA9B218190123444C0093089ADD
:1039D000069B0294019700F08BFE2A003100200024
:1039E000079BFEF77FFF2BE03D490A9C08681F21DB
:1039F0008C4321003B4CA0290ED1012222701A7069
:103A0000874206D1002F04D00423374A11780B4394
:103A10001370334B1F60AAE722701A708742F8D1E7
:103A2000002FF6D068E700222A4B1A70B2E7042272
:103A30002D49087802430A70254A1371264A937467
:103A40000223294A11780B436DE6002E04D0079B10
:103A500008210498FEF746FF049B204E1819012404
:103A6000069BA9B20296019700940E9A00F040FEC0
:103A7000194B9E601D735C73E2E7002EE0D0079B3C
:103A800008210498ADE70C2238E7144C0499059AF4
:103A90000131200003F023FD032333700023059D33
:103AA0007370013DB4603573CAE701237370FFF78B
:103AB0007BFD3EE6064B1B79002B00D043E60B4B0B
:103AC0001A780B4B1B789A4200D83FE63BE6C0467B
:103AD000241A002075190020381A0020F117002040
:103AE0002C160020E81A0020631700202502002071
:103AF0002402002010B5134B86B01B7802AA137065
:103B0000114B02A95A7888814A701A788A701A6B08
:103B10005B6B0392019304930C4B187800F041FF08
:103B2000FA210B4C8900200003F00FFD200003F068
:103B3000EFFC01230020074A11680B43136006B015
:103B400010BDC046281600207C170020F01700206A
:103B5000F8190020F018002010B504000A4B0800E6
:103B6000DB6B51B222009847FA21084C89002000F3
:103B700003F0EBFC200003F0CBFC0123044A0020FF
:103B800011680B43136010BD20DD0008F8190020F8
:103B9000F0180020F0B51D00032385B007000C00CD
:103BA00016000193002900D1F9E00B68002B00D129
:103BB000F5E04B68002B00D1F1E08B68002B00D1C1
:103BC000EDE0CB68002B00D1E9E0280000F034FEE6
:103BD0000A230193002800D1E1E00022714B280064
:103BE0001C60714B03AC1E60704B714E1A70714BB0
:103BF00021001A70704B35701A60704B1A70704B40
:103C00001A60704B1A600B23237000F019FE431EDC
:103C100098416D4B2100187008233078237000F014
:103C20000FFE0523694D210028703078237000F0C5
:103C300007FE0C23687021003078237000F000FE2E
:103C40000D23E86021003078237000F0F9FD0E2389
:103C5000286121003078237000F0F2FD0F236861A5
:103C600021003078237000F0EBFD1023A8612100C3
:103C70003078237000F0E4FD1323E86121003078F0
:103C8000237000F0DDFDAB1CD877142321003078C1
:103C9000237000F0D5FD1523686221003078237071
:103CA00000F0CEFD2B00283318701A232100307845
:103CB000237000F0C5FD2B002C3318701B2321004E
:103CC0003078237000F0BCFD2B002D3318701C23BE
:103CD00021003078237000F0B3FD1D2328632100FC
:103CE0003078237000F0ACFD012468630021307847
:103CF00000F0B6FD6B1CDC770A2306220A216B60FC
:103D0000334B2A721A72EA685960DA602A691A61BA
:103D10006A695A61AA699A61EA69DA611B19DC77F2
:103D2000FEF746FB2B4D2C49280003F0ECFBFA2153
:103D30002800890003F009FC2849294803F0E3FB27
:103D40002849294803F0DFFB2849294803F0DBFB19
:103D50002849294803F0D7FB03F005FC274B284DE1
:103D60001860284B38003B60274BBB60274B3B61FA
:103D7000274B7B60274BFB602B68019398476B694F
:103D80000193984703F0A2FB234B20001C70AB6DFE
:103D900001939847EB6A0193984700230193019898
:103DA00005B0F0BDEC170020541700206317002069
:103DB000F017002062170020F0180020661A00207B
:103DC000201600202416002030160020B4170020F2
:103DD0007C170020F8190020C5320008A132000825
:103DE000EC1A0020FD240008981A00208525000800
:103DF000C01A0020B1240008F0150020641700202C
:103E000020DD0008A5270008DD350008052700088B
:103E1000C126000821260008651A0020F0B50E26EC
:103E20008DB02E4A059004ABF61853780D00337010
:103E30000F2304A912785B181A700320002D43D0B9
:103E4000274A09A91278274C0392274A274F12784C
:103E5000049200220A70264A12784A70254A106895
:103E600048606078087220782C3448722078887214
:103E700038780092320000F015FD237808A98B7085
:103E800033784B7009230B701B4B1B78002B01D030
:103E90000A230B70049A039B944638786344DCB27F
:103EA00000F0CEFCC0B26870A0420FD3001B287097
:103EB0000E23002104AA9B18595622000598FEF7EC
:103EC00051FA43425841C0000DB0F0BD0024044BEC
:103ED00028701C70044B1C70EAE7C046B417002021
:103EE000751900207C170020F6190020F01700201B
:103EF0001C16002018160020661A002013B5032394
:103F0000041E19D00078013B1E2815D804F05CF877
:103F10001016181A1D1F2224262831373D3A404416
:103F2000474A4D5053565A585C5E606265686C0053
:103F30002E4B1B7823710023180016BD2C4BF8E77D
:103F40002C4BF6E72C4B1B6802E02C4BFBE72C4B71
:103F50006360F0E72B4BFBE72B4BEAE72B4BE8E7E3
:103F6000192301A90B702A4B187800F069FC6060D6
:103F7000E1E7284B0434243306CB06C4DBE70434E2
:103F8000254BF8E701A91723ECE701A91623E9E778
:103F9000204B0133DB7FCDE71E4BDB68D8E71D4BA1
:103FA0001B69D5E71B4B5B69D2E71A4B9B69CFE7CF
:103FB000184BDB69CCE7184B5B78BBE7154BFBE78D
:103FC000154BB6E7134BB4E7144BBCE7144BBAE7F9
:103FD000144BB8E70F4B5B68BAE70E4B1B7AA9E7A7
:103FE0000C4B5B6B6360A6E70B4BFAE76217002094
:103FF000311600201C1600206817002058170020DA
:104000006C17002040160020651A0020661A002058
:10401000F01700207C170020B4170020181B002088
:104020002C160020601A002070B5040086B000280D
:1040300000D1C3E00120A04B1B68034200D0BEE0CA
:1040400020781E2800D934E103F0C8FF1F00450086
:1040500049004C00500053005B00610069003301CF
:104060006C009800BB00AC00C000C800CC00D000C1
:10407000D400D800DC00EB000C01FE001A011D0189
:104080003301200126012C013001257900248B4BBE
:104090001D70A54203D0022D07D020008FE0884B71
:1040A000DB6A03939847002089E0864B1C70844BA1
:1040B000DB6A03939847844B844D19008448283168
:1040C00009781A7A0078009549B25B6800F0F7FB2E
:1040D000FEF79CFAE1E722797E4B1A70E3E722793A
:1040E0007D4BFAE762687D4B1A60DCE762687C4BC7
:1040F000FAE76168002961D010227A4803F0EFF9ED
:10410000D1E76168002959D010227748F6E7207975
:10411000764B18706A4B9B6D03939847C3E72279DF
:10412000734BDAE7237A684D04A90B702B00684EB5
:104130002D331B78307806224B7000F098FB002856
:104140003CD02B000434243306CC06C35B4B1B78D5
:10415000022BA8D15F4B1B78002BA4D0584BDB6AF5
:10416000039398472821594B2A7A6956307800934F
:104170006B6800F0A4FBFEF749FA94E7237A04A9E0
:104180000B70514B06222D331B784B70504B187817
:1041900000F06DFB002811D0564B0434243306CCBC
:1041A00006C380E7636804A9049301230B71484B9D
:1041B000187800F06EFB002800D074E7032006B0EA
:1041C00070BD636804A904930023EFE72279531EAE
:1041D0000E2BF3D83C4B0133DA7764E762683A4B35
:1041E000DA6060E76268384B1A615CE76268364BF8
:1041F0005A6158E76268344B9A6154E76268324BFF
:10420000DA6150E7237904AD2B70314B0522187821
:10421000290000F02CFB0028D0D02A78354B5A70AA
:1042200041E72379284C04AD2B7023002C331B78F5
:104230000422AB70264B2900187800F018FB0028E8
:10424000BCD02B7863702EE7237904AD2B70204B04
:1042500008221878290000F00AFB0028AED02A783E
:10426000244B3AE7237904AD2B70194B07221878B9
:10427000290000F0FCFA0028A0D02A78124B2CE785
:1042800062681D4B30E762681C4B2DE76368194A72
:1042900053600D4A536006E72379164A13720A4A9F
:1042A000137200E76268084B5A63FCE66268114BC0
:1042B000FAE7022083E7C046F018002062170020CA
:1042C00020DD0008641A00207C170020801A0020DE
:1042D000F0170020311600201C160020681700205F
:1042E000581700206C17002040160020651A002087
:1042F000661A0020B4170020181B00202C1600207E
:1043000073B5041E01D1032076BD404D29680029F4
:1043100001D00120F8E73E4E0C22300003F0EFF808
:1043200001232078737003286ED803F04DFE023B02
:10433000556010232D681D40EBD16368002BE2D03F
:10434000A368002BDFD0E368002BDCD0FEF730F849
:104350000823304A11780B431021137023786268C8
:1043600033702D4B1A602D4BA2681A602C4BE268FB
:104370001A602C4B6156187800F0F6FA2A4B2A0086
:10438000587001A805702B002900FEF769FF00286E
:10439000BAD000220821254B1A701E4A13788B438D
:1043A0001370B1E708231B4A0120117830700B43CA
:1043B00013701F4B1F491C7880235B421B1B0A781C
:1043C000DBB29342E5D913180B7002211A4B9954B2
:1043D0001A4B1870002097E702230E4A33701178A9
:1043E00006330B431370A088FFF784FBCFE703234A
:1043F000084A3370117805330B431370227BA08871
:10440000A168FFF7A9FBC2E70220C2E7F01800206D
:10441000501A0020631700205C1700203816002077
:104420003C160020F01700207C170020641A0020A2
:10443000F619002075190020F5180020F719002042
:10444000F0B5040089B0002803D10325280009B085
:10445000F0BD464B01251B680193002BF6D1444E5D
:104460001900300005AF14223B7003F048F8757056
:10447000404B26781D70AE421BD0002E04D0032E78
:104480002AD0019E370035E01F223B4B2E001D70C5
:104490003B781A40402313433B700E272379E7579C
:1044A0000193A3680293A3890393019BE02BCCD8CB
:1044B00020E0E27B304B1A701F223B781A408023A9
:1044C0005B4213433B700E272379E7570193A368A0
:1044D0000293A3890393E8E7274B3A781D702023C2
:1044E0005B4213433B700A272E006368E757029331
:1044F00023890393012307A90B70204B02252C333A
:104500001B788B701E4B187800F09AF9002E9DD006
:104510001C4B1B78002B14D1B84200D23800174B2B
:1045200006AD28702C331B780422AB70144B290085
:10453000187800F09CF9002800D186E72B780F4A04
:104540005370039B029A019905A8FEF789FE051E88
:1045500008D12278064B1A7001230B4A11780B43BD
:10456000137073E70022094B1A706FE7F0180020F0
:10457000241A002025020020240200207C1700209D
:10458000F01700201C16002063170020641A00207A
:10459000F7B50E000700019208AA1B4C1178099A82
:1045A0006171190A194DA371E171190C1B0E637227
:1045B000130A2800A272E372130C120E23736273A3
:1045C000E673217203F05AF92800019903F066F9A5
:1045D00028002100102203F068F9F2B23900280007
:1045E00003F063F90A4C2900200003F0C2F9627855
:1045F000237812021A43A3781B041A43E3781B069C
:1046000013430A9A1360F7BD270200201C1B0020E9
:10461000251D0020F0B51D0085B0324F0AAB1B7878
:1046200002900E0001920021F02238000B9C0393AF
:1046300002F065FF3A001021019803F0C9FA2A4BF5
:10464000039A9D715A712A0ADA712A0C2D0E5D7235
:1046500000251A72220A9C72DA72220C240E1A7336
:104660005C730196019B2C01E4B20F2B20D810241F
:10467000330964425C4334191D01A4B2EDB2013325
:10468000002C13D0194F1848164A3900C37303F091
:1046900023FB00230C9A5019029A5519EA5CF95C25
:1046A0004A40C25401339AB2A242F7D305B0F0BDDA
:1046B0000E4F0D4801350B4A3900EDB2C57303F0BA
:1046C0000BFB22003F1B103202993B5D095D4B4002
:1046D0000C990B5501349442F6D1019B103B9BB2CF
:1046E0000193BFE7341C002037020020351D002055
:1046F00030B585B00A9D08AC24780295099D0094D8
:104700000195FFF787FF05B030BD0000F7B5070042
:104710000D001E000F4C0192200003F0AFF801992C
:10472000200003F0BBF8EAB23900200003F0BDF826
:10473000094D2100280003F01CF96A782B78120239
:104740001A43AB781B041A43EB781B061343336000
:10475000F7BDC0461C1B0020251D0020F7B51D001D
:1047600004000E4E0F0001920021F022300002F0F2
:10477000C6FE32001021019803F02AFA3200290007
:10478000200003F0A9FA0F2F06D9290020001031CC
:104790001030320003F0A0FAF7BDC046341C0020F0
:1047A000F0B587B000936B460400224DDA800F000D
:1047B0002800F02200219E1D02F0A1FE2A001021F7
:1047C000200002AC03F004FA20001022002102F0C5
:1047D00096FE0123237008336B443900180006222B
:1047E00002F07DFE0F236B4418003100022202F01C
:1047F00076FE2A000099200003F06EFA20001022B5
:10480000002102F07CFE0223237009236B4439004F
:104810001800062202F063FE0F236B4418003100DB
:10482000022202F05CFE2A000C99200003F054FAE8
:1048300007B0F0BD341C0020053843425841704792
:1048400010B5052803D1080000F00CF910BD0020B8
:10485000FCE710B5052802D1080000F069F910BD89
:1048600010B5052802D1080000F076F910BD10B58A
:104870000B00052804D11100180000F09BF910BDB1
:104880000020FCE710B5052802D1080000F056FD15
:1048900010BD10B5052803D1080000F0A9F910BD1E
:1048A0000020FCE710B50400080011001A00052CD8
:1048B00003D1029B00F0B4F910BD0020FCE710B555
:1048C0000400080011001A00052C02D1029B00F020
:1048D000E1F910BD10B50B00052804D11100180036
:1048E00000F01AFA10BD0020FCE710B50400080023
:1048F0001100052C03D11A0000F084FA10BD00202D
:10490000FCE713B50400080011001A00052C05D1BE
:10491000059B0093049B00F001FB16BD0020FCE703
:1049200010B5052803D1080000F090FB10BD002051
:10493000FCE710B5052803D1080000F035FD10BDD7
:104940000020FCE710B5052803D1080000F0A2FB09
:1049500010BD0020FCE710B5052803D1080000F0C9
:104960009DFB10BD0020FCE710B5052803D1080011
:1049700000F0B4FB10BD0020FCE710B5052802D103
:10498000080000F0ADFB10BD10B5040008001100D8
:104990001A00052C03D1029B00F0BEFB10BD0A20BB
:1049A000FCE710B5052802D1080000F01FFD10BD7E
:1049B00010B5040008001100052C03D11A0000F006
:1049C0003DFD10BDD0B2FCE737B5194B04001B6AA2
:1049D0000D0001939847002806D0164B164AE3189D
:1049E000934202D802232B703EBD144B144AE318A5
:1049F000934201D80023F6E7124B134AE31893427F
:104A000001D80123EFE7114B114AE3189342E9D98A
:104A1000104B114AE318934201D80323E3E70F4BED
:104A2000E4180F4B9C4201D80423DCE70020DBE7AD
:104A300020DD000840AA8FCC7F841E00C02571CCE9
:104A4000C0C62D00FF5E43CCBF270900A0B038CC04
:104A500020A1070040022ECC90D00300606E29CC2C
:104A6000E09304000300007810B50938152847D8F2
:104A700003F0AAFA161B0B1F212427292B2E4637D9
:104A800046393B3D3F464641440D012010BD0020C4
:104A90005B785BB2834201D0013BD8B240B2F5E70C
:104AA0005B78184A5BB2D05CF0E75B78164A5BB281
:104AB000F9E71648EAE7FA208000E7E7FA20C000A5
:104AC000E4E71348E2E71348E0E78020C001DDE7B0
:104AD000FA211148890002F0FAFCFA23DB00C01821
:104AE000D4E70E48D2E70E48D0E70E48CEE71020B4
:104AF000CCE70D48CAE78320C005C7E70B48C5E7E8
:104B00000020C3E7E0DB0008E8DB0008B80B00008A
:104B1000881300007017000018FCFFFF08E6D3336D
:104B20000A1E0020081E0020481D00209A990940F6
:104B30000C220300017810B55143054A4078521801
:104B4000527A0449120189185A6800F01BFD10BD01
:104B5000481D00204802002070B5012818D0002808
:104B600002D002281BD070BD0E4B0F4A1800110056
:104B700070C970C070C970C01833183213CA13C31B
:104B80000723012209490B80094800F0EDFCEAE700
:104B9000074A0649138809880B431380E3E701227B
:104BA0000249F1E7481D002094DB0008081E0020A0
:104BB0000A1E00200300081F10B5072805D803F0BF
:104BC00003FA1006101010040414002010BD002079
:104BD00005221856002100F088FC431E9841C0B2FF
:104BE000F4E7002007221856F4E70120EEE7000062
:104BF00010B50479002C03D0012C08D0002005E06A
:104C000001220168044800F0AFFC012010BD0168DA
:104C100022000248F7E7C0460A1E0020081E0020B6
:104C2000F0B585B00192092608220F00416882562E
:104C30008657196044780500002C03D0002A07D15C
:104C40001A6000242000019B3A701E7005B0F0BD70
:104C500043683F2BF5D900265F2BF3D91F210B406A
:104C6000012BEFD103A81D3342700370AB7A837020
:104C7000FFF7F8FE42B2B242E4D12C781600002CC5
:104C8000E0D007230249088803430B80D9E7C046D8
:104C90000A1E0020F0B587B01C0004911500031C0B
:104CA000072800DD0723174F5EB2BC461649B20045
:104CB000637053580127634504D0144FDB195F42DA
:104CC0005F417F00A770062816DD322000F032FD1C
:104CD0000F4B0600DB6D0F00059398472300083447
:104CE0000C330293009001942B00049A3000390099
:104CF00000F02CFD07B0F0BD064B8958985D00F020
:104D0000FFFCE5E790D00300B8DB0008E05EF8FFA9
:104D100020DD0008D8DB0008F0B50127324B8DB04C
:104D20005B680B91C75705000A93446898470023B6
:104D3000984241D1EB7C002B09D10C2229782B4BD6
:104D40004A43D1589B185C68002C00D10C00284BBA
:104D50002000DB571E00244BDB680A939847224B48
:104D60009B690A93AB7C072F29D1099301230593F3
:104D7000AB6800249BB202930523FA2201931D4BDA
:104D800092000093230072431B49089407940694F1
:104D90000494039420000A9EB0476B7C2000002BF3
:104DA00020D0164BD95D104B0D315B6DC9B20A9303
:104DB00098470B9B1F70012318000DB0F0BDAA6827
:104DC000012492B2099302920023082207930693CA
:104DD00005930493039301920093A9780894230008
:104DE0003200D7E7064BDDE720DD0008481D002034
:104DF000D8DB00088545010050C30000E8DB00084F
:104E0000E0DB00080123F0B591B00E910F92C3567C
:104E1000394A0178D25605000A920C225143374A8A
:104E20005218517A364A0901521892788178101C2A
:104E30004CB252B2A24200DA081C42B20B92314A82
:104E40009B009B58304A0127934204D02F4A9B185D
:104E50005F425F417F00AA6869680B9800F0D6FC4A
:104E60000C232B4C2A780D905343E2680C92234A72
:104E700098580C9B98470122E36900240C93AA568A
:104E8000244B0794089306940594072A23D1012301
:104E9000049304330293FA230A9A9B005343039426
:104EA000009301943B001C4A0D9920000C9EB047D2
:104EB000174E297B736D20000A939847736A297BEC
:104EC00020000A9398470F9B0B9A186001200E9BB5
:104ED0001A7011B0F0BD0823012602930A9B0394B7
:104EE0000093220004960C9C01963B000D99300023
:104EF000A0473400DCE7C046D8DB0008481D00208E
:104F000048020020B8DB000890D00300E05EF8FF04
:104F100020DD0008B80B0000A8610000F0B5050016
:104F200000200724062791B0059306AB0391049255
:104F3000588001902B79019A934208D92B68019AE5
:104F400007AE9818310000F072FB00283DD109A887
:104F50000470AB7907AC4370637806AA8370A378BA
:104F600006A9C370237806320371EB7905314371CA
:104F70002B7A83716B7AC3711023037206AB9F1C6B
:104F8000E023DB0003822F4BC760436107230383C9
:104F9000230000F067FB0500072807D12A4E0222F4
:104FA0000021300002F0ABFA3B88338028006378A0
:104FB000039A1370A378049A13702378059A1370D8
:104FC000169B019A1A7011B0F0BD019B1818C3B25C
:104FD0000193B28806AB5A80F178002902D13C00D7
:104FE000002AA7D04B1E3C00042BA3D90629A1D828
:104FF0000C2600230724B4460293062915D16646E1
:105000005E4310488659002E05D001269E4001209F
:10501000324392B202900133102BEED1029B002B4F
:1050200000D187E706AB5A8084E7160001201E41B5
:105030000642F0D066465E4302488659002EEAD109
:105040003C00E8E7481D00200A1E002037B5104B41
:1050500005001B6A4068019398470400601E844164
:105060000020072228560021063400F03EFA0028CE
:1050700001D102239C43012005222856002100F083
:1050800034FA002801D104239C4320003EBDC046D1
:1050900020DD0008012040427047000013B56B4638
:1050A000D91D0023040040680B70FFF78DFC0C2213
:1050B000431E98412178084B4A43D15802300029B9
:1050C00002D10223984316BD032803D19B186268BE
:1050D0005A60F8E70220F6E7481D002070470000FC
:1050E0007FB50B4A01AB01920A4A029242781A72CA
:1050F00002785A7282789A72C278DA72426804929E
:1051000082681800059200F096FB07B000BDC0460B
:10511000481D002048020020F0B58BB00491050026
:105120000021160006A810221F0005F0F7FA3F4CD8
:1051300001220021200000F0F7F9002803D1072305
:1051400022881343238068682C6802F015FA844291
:1051500056D800243C60A97A687A0523344A00F0C6
:1051600017FA01906B7A02930823EB5625000393FC
:105170000094E3B205932D4B01221B882341134277
:1051800010D10134102CF4D1002D43D0691E002021
:1051900002F09DF906AB1B5C0020049A137030608E
:1051A0000BB0F0BD0C276743224BFB181A68002A8E
:1051B000E7D0029A002A1DD0197A03984AB209074B
:1051C0001211091700F091F90028DAD0194BFF18D5
:1051D0007A7A174B12019B18DB68002B05D16B1CE8
:1051E00006AAE1B25155DDB2CBE7009B0133DBB239
:1051F0000093C6E70722012122410A42DCD1C0E721
:1052000068682C6802F0B8F9231A0193019B0B20FF
:105210003360C5E7009B002BF8D10723034A0C201D
:1052200011880B431380009B3360B9E70A1E0020EE
:1052300048020020481D0020F0B5002485B002ABD4
:10524000DF1D3C700679050003200F2E57D82B6810
:105250002100187A07220007001700F046F9019094
:1052600008202B68210018560722001100F03DF994
:105270000134002803D0019C63425C41E4B22B68F6
:10528000187A030740B21B170011834200DD012486
:10529000022E11D8002B00DD01240722052100F089
:1052A00024F9002800D101240C2373432A681549EE
:1052B00012685B589A4206D12B6839001868FFF7CC
:1052C00083FB002804D10620002C18D1023816E0F8
:1052D0000520002C13D10C2211007143094BCB186F
:1052E00018002968019302F0FAF83B78019A20002F
:1052F00053720122B24004490B8813430B8005B05E
:10530000F0BDC046481D00200A1E002010B50478DC
:105310000021022C0CD90C22130063430548C0184D
:1053200005F0FCF921001022034800F0E8F8010024
:10533000080010BD481D00200A1E00205023F0B5B3
:1053400087B003AC237203790700102B20D100260D
:105350000325072D1ED839688A5D891922604B788C
:105360001B021A4322608B781B04134364225343AD
:105370002360002363602368002B0FD001A80194F1
:105380000571FFF759FF0135EDB20336102DE0D15D
:1053900007B0F0BD002323602372EBE76B4668463D
:1053A0001D70FFF7B3FFEEE713B5026803791468C9
:1053B000002C09D16A4668461370FFF7A7FF002842
:1053C00000D00334200016BD00926A46684613716F
:1053D000FFF732FF02240428F4D0013C0528F1D065
:1053E00042425041023440420440EBE737B50C22C0
:1053F00001780F4B4A43D5589B185A7A0D4B12012E
:105400009B189B788278040051B2181C5BB28B42C7
:1054100000DA101CA268616840B200F0F7F9064B90
:105420000100DB6B2800A2890193984737BDC04675
:10543000481D00204802002020DD00088A1A52B2D0
:10544000101C002A00DA0020C0B27047074B02008F
:1054500064209A4208D90023054991425B41584291
:10546000044B1840044BC0187047C0467FEE36000E
:105470007F3F5C02D8DCFFFF10270000F7B5002655
:10548000019108ACA65700259A4209DB2C00B242D4
:1054900006DC0F239C462701FFB2B84202D8002544
:1054A0002800FEBD0025019963005B5A0093009B14
:1054B00001262B41334210D061460B367B197343D2
:1054C000099EF3181B7A5EB21B071B1736110B409F
:1054D0009A4202DB0E40B24205DD0135102DE6D1C5
:1054E0000134E4B2D7E70125DAE70023884204DB80
:1054F000C30FD11782424B41DBB21800704730B561
:1055000000230C091509A5420CD391420AD20F338E
:1055100019400E3B1A008A401100640000190288ED
:105520008A430280180030BDF7B5061E019205D0EF
:1055300000264B00C318019A914201D33000FEBDF2
:1055400000252C001F880120A84002003A4090420C
:1055500001D10134E4B20135102DF4D136190131F5
:10556000F6B2C9B20233E6E710B5002805D000292B
:1055700003D000235200934200D110BDCC5AC45234
:105580000233F8E78A60002800D070474A60FCE7E1
:10559000F7B501250F00141D1B011B190190009385
:1055A0006D42009BA34201D12800FEBD019B002B50
:1055B0001ED1206801F0E0FF0600002F34D06068A3
:1055C00001F0DAFF864211D9206801F0D5FF06000C
:1055D000A368B34201D80023A360A368002B03D0C3
:1055E0009E1BB54200D935001034DAE76068ECE75D
:1055F000002F16D06068A66801F0BEFF864201D871
:105600000023A360A668002EEED0606801F0B4FF0E
:10561000361AAE42E8D26068A56801F0ADFF2D1AD7
:10562000E2E7A7603D00DFE70028D1D0CCE710B566
:10563000027803000020032A13D15A780F30140097
:10564000120904408C704A709A788A80DC782402AF
:1056500022438A801B795A06520F0340CA700B708E
:105660000A3810BDF0B587B005930223032604273E
:1056700003910492C3560400029343780578865739
:10568000C757002B0CD11D4A0220215E914202D047
:1056900007271D00E75705230626E356A657029362
:1056A000002D1ED06269102301921122A256E356EA
:1056B0000092207A029AE168FFF7E0FE002801D10B
:1056C00002239D4319231822E356A256B34212DC4B
:1056D000B24201DA04239D43072D02D1002F00D1ED
:1056E00001372800039B029A1A70049B1E70059BC9
:1056F0001F7007B0F0BD1E00EEE7C0460F0F0000A0
:1057000001238340D0B518000C0004F069FE0600A8
:1057100020000F0004F09EFE02000B003000390054
:1057200003F064FC0022024B04F06AF8D0BDC046CE
:1057300000408F4010B504F08DFE02000B000020E9
:10574000014903F053FC10BD00002040F7B50400F0
:105750000D00101F40000092019304F041FE220052
:105760002B0004F04DF8019B060058000F0004F0D8
:1057700071FE02000B003000390003F01BF92B0012
:10578000220003F033FC06000F0001F031FD02F0AF
:105790002DFE009B984206D93000390001F028FD0B
:1057A00002F024FE0090099B009A20001A60290054
:1057B0000022144B04F024F8060000980F0004F0B7
:1057C00049FE22002B0004F01BF800220E4B04F0CF
:1057D00017F802000B003000390004F083FA0400CF
:1057E00008980D0004F036FE02000B00200029008E
:1057F00004F078FA01F0FCFC04F0BCFD0A9B186090
:10580000F7BDC046000010400000E03F70B540000A
:10581000141C0D1C03F08EF8011C281C02F0C6FE9F
:10582000211C02F0C3FE04F047FE01F075FD04F0F8
:10583000A1FD40B270BDF8B50C23C27A04005343F9
:105840000268D3185D7A43682D015D190023EB606F
:10585000437A2E88877A002B12D1C068FFF7F6FDB5
:10586000002F02D1237A002B09D082B2331C96423A
:1058700000D2031C22699BB2013B5343EB60F8BD8D
:10588000002FFCD00369013E5E43EE60F7E70000A5
:10589000F8B5104C40012418676801213800FAF768
:1058A000DFFFA66800213000FAF7DAFFE568012182
:1058B0002800FAF7D5FF247D38002100FBF70BF80C
:1058C00030002100FBF707F828002100FBF703F860
:1058D000F8BDC046F0DB0008F8B50400012803D984
:1058E0000E490320FBF7F4FA00250D4B8200D5503A
:1058F000FFF7CEFF0B4B64011B191E7F9F69300021
:105900003900FBF7B1FC074B3900E35830001D604C
:10591000DD615D60FBF7C4FCF8BDC046BCD9000882
:105920000C1E0020F0DB000870B50C00012822D806
:105930004B1C23D0FF22124B9143994201D11442B8
:105940001CD19C420FD10F4C4001241825696B1CBF
:1059500014D001212800FAF783FF217D2800FAF7EF
:10596000BAFF002070BD01212000FAF779FF200066
:10597000FAF7D2FFF5E701204042F3E70220FBE708
:1059800000FFFFFFF0DB0008F7B504000193830080
:1059900016480F00C01801210092FBF711FE0120EC
:1059A000FBF7BCFB124E640133191D7F9969280077
:1059B000FBF75AFC05236B430E4D0099ED18019B34
:1059C000A259EB5CDB000B4304210B4313600A4B31
:1059D0009F4206D0C02311689B000B431360002038
:1059E000FEBD536819435160F9E7C0460C1E002004
:1059F000F0DB000830DC000800FFFFFF002170B57D
:105A0000042504000A4B4001C2581B18116051685C
:105A1000187FA94351609969FBF742FC0120FBF70D
:105A200095FB0448A4000019FBF7FAFD70BDC046C1
:105A3000F0DB00080C1E0020F7B5089D0F00019256
:105A40001E1E05D1002D03D136490320FBF740FA75
:105A5000354B4001C4584023226813432360334B25
:105A60009F4204D07B1C02D03800FAF75DFF002D66
:105A700032D1099A3300B6180222B34223D102234D
:105A8000A2681A42FCD08023A2681A42FCD10123EA
:105A9000A2681A421ED10223A2681A42FCD08023B7
:105AA000A2681A42FCD1019B002B0BD17B1C09D0B0
:105AB00040222368934323601C4B9F4202D038004E
:105AC000FAF72AFFF7BDA1681142FCD0197801331B
:105AD0002173D2E7E268DBE700239E4210D0022266
