:100000000C948D010C94B5010C94B5010C94B501C0
:100010000C94B5010C94B5010C94B5010C94B50188
:100020000C94B5010C94B5010C94B5010C94B50178
:100030000C94B5010C94B5010C94B5010C94B50168
:100040000C94790A0C94B5010C94470A0C94210A7B
:100050000C94B5010C94B5010C94B5010C94B50148
:100060000C94B5010C94B501000000002500280097
:100070002B0000000008000201000003040700003C
:10008000000000000000535831323736204C462F14
:1000900048462063616C6962726174696F6E00002A
:1000A000000000240027002A00010204081020405C
:1000B0008001020408102001020408102004040436
:1000C0000404040404020202020202030303030301
:1000D00003556E7265636F676E697A65642074722A
:1000E000616E7363656976657200535831323736D5
:1000F0002064657465637465642C20737461727424
:10010000696E670053583132373220646574656315
:100110007465642C207374617274696E670053583F
:1001200031323732207375636365737366756C6C37
:100130007920636F6E6669677572656400536574D4
:1001400074696E67206E6F646520616464723A2022
:100150007374617465200053657474696E67205010
:100160006F7765723A20737461746520005365740B
:1001700074696E67204368616E6E656C3A207374B3
:10018000617465200053657474696E67204D6F64F7
:10019000653A207374617465200053696D706C65F5
:1001A000204C6F52612073656E736F722064656DB1
:1001B0006F002323206E6F7420656E6F7567682053
:1001C000546F4120617420002D2D3E20525353491D
:1001D000206572726F720A002D2D3E2052535349D2
:1001E00020002D2D3E2072657472790A002044494A
:1001F00046533D33534946533D20002D2D3E207735
:1002000061697420666F72200023310A0023320076
:100210004F4B32002D2D3E204341442000204341CE
:1002200044203D20002D2D3E207761697420666FAB
:100230007220004F4B310A002D2D3E2043414420B7
:10024000002D2D3E204353310A0052656164696ED2
:100250006720005061636B65742073656E742C2099
:10026000737461746520004C6F52612053656E7425
:1002700020772F43414420696E20004C6F5261204B
:1002800053656E7420696E20004C6F526120706B54
:10029000742073657120005265616C207061796C07
:1002A0006F61642073697A65206973200053656EFD
:1002B00064696E6720002853656E736F72207661E3
:1002C0006C756520697320002E2E2E002072656DDE
:1002D00061696E696E6720546F4120697320002048
:1002E0006379636C6520656E6473206174200063BC
:1002F00079636C6520626567696E732061742000A4
:100300002323206E6577206379636C6520666F72A6
:1003100020546F4120232300C30A11241FBECFEFB6
:10032000D8E0DEBFCDBF11E0A0E0B1E0E6E6F5E346
:1003300002C005900D92A834B107D9F723E0A8E4D4
:10034000B1E001C01D92A33DB207E1F711E0CDE895
:10035000D1E004C02197FE010E94D317CC38D10709
:10036000C9F70E94530B0C94B11A0C940000AF9281
:10037000BF92CF92DF92EF92FF920F931F93CF9392
:10038000DF936C017B018B01040F151FEB015E01F4
:10039000AE18BF08C017D10759F06991D601ED9189
:1003A000FC910190F081E02DC6010995892B79F728
:1003B000C501DF91CF911F910F91FF90EF90DF90DA
:1003C000CF90BF90AF900895FC01538D448D252FA1
:1003D00030E0842F90E0821B930B541710F0CF96DF
:1003E000089501970895FC01918D828D981761F011
:1003F000A28DAE0FBF2FB11D5D968C91928D9F5F28
:100400009F73928F90E008958FEF9FEF0895FC0106
:10041000918D828D981731F0828DE80FF11D858DB9
:1004200090E008958FEF9FEF0895FC01918D228D4C
:10043000892F90E0805C9F4F821B91098F739927D1
:10044000089582ED91E00E94150221E0892B09F4C4
:1004500020E0822F089580E090E0892B29F00E940F
:10046000210281110C9400000895FC01A48DA80FB5
:10047000B92FB11DA35ABF4F2C91848D90E00196E6
:100480008F739927848FA689B7892C93A089B18906
:100490008C91837080648C93938D848D981306C0A7
:1004A0000288F389E02D80818F7D80830895EF920B
:1004B000FF920F931F93CF93DF93EC0181E0888F1E
:1004C0009B8D8C8D98131AC0E889F989808185FFEE
:1004D00015C09FB7F894EE89FF896083E889F98990
:1004E00080818370806480839FBF81E090E0DF9192
:1004F000CF911F910F91FF90EF900895F62E0B8DE5
:1005000010E00F5F1F4F0F731127E02E8C8D8E119F
:100510000CC00FB607FCFACFE889F989808185FF06
:10052000F5CFCE010E943502F1CFEB8DEC0FFD2F00
:10053000F11DE35AFF4FF0829FB7F8940B8FEA89C1
:10054000FB8980818062CFCF0F931F93CF93DF937E
:100550008C01D0E0C0E0F801EC0FFD1F6491662330
:1005600041F082ED91E00E945702892B11F0219613
:10057000F2CFCE01DF91CF911F910F910895CF93CC
:10058000DF93EC01888D8823B9F0AA89BB89E889BB
:10059000F9898C9185FD03C0808186FD0DC00FB661
:1005A00007FCF7CF8C9185FFF2CF808185FFEDCFDF
:1005B000CE010E943502E9CFDF91CF91089590E0FE
:1005C000FC01EE58FF4F2491FC01E755FF4F349199
:1005D000FC01E354FF4FE491EE23C9F0222339F0EC
:1005E000233001F1A8F4213019F1223029F1F0E093
:1005F000EE0FFF1FE859FF4FA591B4918FB7F89404
:10060000EC91611126C030953E233C938FBF089535
:100610002730A9F02830C9F0243049F780918000B4
:100620008F7D03C0809180008F7780938000DFCF23
:1006300084B58F7784BDDBCF84B58F7DFBCF809170
:10064000B0008F778093B000D2CF8091B0008F7DC3
:10065000F9CF3E2BDACFCF93DF9390E0FC01E75543
:10066000FF4F249183549F4FFC0184918823D1F044
:1006700090E0880F991FFC01E156FF4FA591B491BE
:10068000FC01E859FF4FC591D49161110EC09FB78D
:10069000F8948C91E22FE0958E238C932881E223AD
:1006A000E8839FBFDF91CF9108958FB7F894EC91C5
:1006B000E22BEC938FBFF6CF3FB7F89480914D01BA
:1006C00090914E01A0914F01B091500126B5A89B89
:1006D00005C02F3F19F00196A11DB11D3FBFBA2FD4
:1006E000A92F982F8827BC01CD01620F711D811D94
:1006F000911D42E0660F771F881F991F4A95D1F719
:1007000008958F929F92AF92BF92CF92DF92EF9215
:10071000FF926B017C010E945C034B015C01C114E0
:10072000D104E104F104B9F00E945C03681979096D
:100730008A099B09683E73408105910580F321E099
:10074000C21AD108E108F10888EE880E83E0981EED
:10075000A11CB11CE4CFFF90EF90DF90CF90BF9031
:10076000AF909F908F9008952FB7F89460914901B2
:1007700070914A0180914B0190914C012FBF0895D7
:100780008EBD00000DB407FEFDCF8EB508950F930A
:100790001F93CF93DF93082F162FCFE6D2E060E0B0
:1007A0008B810E94DF02802F80680E94C003812F0E
:1007B0000E94C00361E08B81DF91CF911F910F9167
:1007C0000C94DF021F93CF93DF93182FCFE6D2E074
:1007D00060E08B810E94DF02812F0E94C00380E0D5
:1007E0000E94C003182F61E08B810E94DF02812FDD
:1007F000DF91CF911F910895CF9381E00E94E20392
:10080000C82F8091AA02813061F461E80E94C70379
:100810006FEF82E10E94C7036C2F81E0CF910C94AF
:10082000C70361E081E00E94C7036FEF8EE30E947F
:10083000C7036FEF8FE3EECF2F923F924F925F92FD
:100840006F927F928F929F92AF92BF92CF92DF92E0
:10085000EF92FF920F931F93CF93DF93CDB7DEB745
:1008600061970FB6F894DEBF0FBECDBF898B809124
:100870009002812C34E2932E34EFA32E37E4B32E72
:10088000873081F0812C44E2942E44EFA42E48E47A
:10089000B42E883039F4812C24E2922E24E7A22E43
:1008A00028E4B22E1091920281E00E94E2038B8331
:1008B0000E94B4032091AA02288B213009F0F5C0D0
:1008C00061E881E00E94C70381E090E002C0880FE8
:1008D000991F1A95E2F7312C212C10E000E033E04B
:1008E00039839C01990F440B550B2C873D874E870C
:1008F0005F870E94FC030E94B4030E94B4039B0123
:10090000AC012C593F4F4F4F5F4F2C833D834E839B
:100910005F8367E881E00E94C7030E945C036887E9
:1009200079878A879B8782E10E94E2031A82382FA7
:100930003470F32E82FD4EC00E94B4032C813D81A1
:100940004E815F81621773078407950708F042C0E4
:100950000E945C036B017C016C857D858E859F8583
:100960000E942C169B01AC01C501B4010E948215A6
:100970009B01AC0160E070E080E89FE30E9482157B
:100980002B013C01C701B601288539854A855B8565
:10099000621B730B840B950B0E942A166B017C0162
:1009A00020E034E244E759E4C301B2010E94391760
:1009B00020E030E040E753E40E94FA149B01AC01D0
:1009C000C701B6010E94341718169CF082E10E94FC
:1009D000E203ADCF0E94B403F11025C0898181509C
:1009E0008983882309F45EC08989811182CF1982A5
:1009F00025C03A813111EACF80916F0295E7F92E37
:100A0000813011F483E6F82E8BE10E94E2038F0D12
:100A100080939902280E311C87FD3A940F5F1F4F77
:100A200041E04A83D3CF82E10E94E2038170598979
:100A30005150598B51112FC08983188AC101B801B7
:100A40000E94AB17609399026B8181E00E94C703FB
:100A50000E94B4030E94FC034981442311F052E038
:100A6000588B888961960FB6F894DEBF0FBECDBF54
:100A7000DF91CF911F910F91FF90EF90DF90CF907A
:100A8000BF90AF909F908F907F906F905F904F90AE
:100A90003F902F900895882309F42BCF188A91E076
:100AA0009983CCCF21E02983C9CF198232E0388BDA
:100AB000CBCFEF92FF920F931F93CF93DF93809151
:100AC000AA0205E010E0D0E0C0E0813041F535E059
:100AD000E32EF12C10E000E080916F02C5E7813039
:100AE00009F4C3E68BE10E94E2038C0F8093990224
:100AF000080F111D87FD1A9581E0E81AF10861F7CA
:100B0000C80165E070E00E94AB176093990280E035
:100B1000DF91CF911F910F91FF90EF90089581E1A8
:100B20000E94E20390E09595879580939902C80F03
:100B3000D91F0150110999F7CE01E3CFCF93DF936D
:100B4000C82F81E00E94E203D82FC093AF028091AA
:100B5000AA028130F9F461E80E94C7036091AF02F4
:100B600082E20E94C70382E20E94E203C1E0909108
:100B7000AF02981301C0C0E06D2F81E00E94C7034F
:100B80006AEF70E080E090E00E9481038C2FDF919B
:100B9000CF91089561E081E00E94C7036091AF02A8
:100BA00082E30E94C70382E3DFCFCF93DF93D82F86
:100BB000D06281E00E94E203C82F8091AA0261E81E
:100BC000813011F061E081E00E94C7036D2F8BE05E
:100BD0000E94C7036C2F81E00E94C70380E0DF9171
:100BE000CF9108958F929F92AF92BF92CF92DF9252
:100BF000EF92FF92CF93DF934B015C010E94B4030D
:100C000060937302709374028093750290937602DE
:100C100081E00E94E203C82F8091AA0261E881303E
:100C200011F061E081E00E94C703B5018827992790
:100C300086E00E94C70399278B2D7A2D692D87E0C6
:100C40000E94C703682D88E00E94C7030E94B40376
:100C500060937702709378028093790290937A027E
:100C600064E670E080E090E00E94810386E00E94EC
:100C7000E203C82E87E00E94E203D82FD12CDC2C9F
:100C8000CC24F12CE12CFE2CED2CDC2CCC2488E0A7
:100C90000E94E2032D2F30E0322F222790E0B0E0B7
:100CA000A0E0820F931FA11DB11D8C0D9D1DAE1DD7
:100CB000BF1DD1E088169906AA06BB0649F48092AA
:100CC000930290929402A0929502B0929602D0E084
:100CD0006C2F81E00E94C70364E670E080E090E042
:100CE0000E9481038D2FDF91CF91FF90EF90DF90D5
:100CF000CF90BF90AF909F908F9008958091AA025F
:100D0000882381F08EE10E94E20390E024E0959533
:100D100087952A95E1F7809392028650873020F0DC
:100D200081E008958FEF089580E008958091AA02F0
:100D3000882321F18DE10E94E20390916F02682FD8
:100D400091111AC064608DE10E94C7038DE10E9479
:100D5000E20390916F0220E0911101C022E090E047
:100D600002C0959587952A95E2F780FF09C081E03A
:100D70008093A10280E008956160E5CF8FEF089530
:100D800081E00895FC0101900020E9F73197AF015F
:100D9000481B590BBC0182ED91E00C94B70180E334
:100DA00091E00C94C206CF93DF930E94A402EC0161
:100DB0000E94CF068C0F9D1FDF91CF9108951F9346
:100DC000CF93DF93C0E01AE068EC70E080E090E041
:100DD0000E94810360E081E00E94C70360E881E037
:100DE0000E94C70361E881E00E94C703C19FB00170
:100DF00011246E5C7F4F072E000C880B990B0E940C
:100E0000810381E00E94E203D82F88EC92E00E94E7
:100E1000D306C0FD03C0C43159F0CF5FD138A1F66D
:100E200081E08093AA0280E0DF91CF911F91089525
:100E3000C0E0F4CFCF93DF93C82F81E00E94E2039C
:100E4000D82F8091AA02811102C00E94DF0661E8BA
:100E500081E00E94C7036C2F89E30E94C70364E608
:100E600070E080E090E00E94810389E30E94E20349
:100E7000C81311C0C0937002C0E06D2F81E00E94C2
:100E8000C70364E670E080E090E00E9481038C2F4D
:100E9000DF91CF910895C1E0F0CFFF920F931F93A0
:100EA000CF93DF938C0181E00E94E203F82E8091C2
:100EB000AA02D2E0811103C00E94DF06D82F61E8A8
:100EC00081E00E94C7038DE10E94E203C82F909148
:100ED0006F02911142C008301105C9F109301105A6
:100EE000C9F1CF730E947E06809192028B3011F47B
:100EF000C16002C08C30E1F36C2F8DE10E94C7030A
:100F000064E670E080E090E00E9481038DE10E9441
:100F1000E20390916F02282F30E0911144C096E0D7
:100F2000359527959A95E1F70830110589F1093033
:100F30001105A9F1232B41F4909192029B3009F005
:100F400057C08095D82FD170D11157C024C0CF770A
:100F5000C064D2CFCF7BC068CFCFCF70083011052F
:100F6000D1F30930110591F0C0670E947E0680918F
:100F700092028B50823008F0BFCF86E20E94E203DB
:100F8000682F686086E20E94C703B6CFC069B4CFFD
:100F900021303105C9F600939002D0E02EC02230F6
:100FA000310591F6F8CF84E0359527958A95E1F7DC
:100FB0000830110599F009301105A9F027303105E5
:100FC00019F686E20E94E203909192029B3031F57D
:100FD00083FBDD27D0F981E0D827B6CF2830310553
:100FE00009F0B2CFD8CF2930310509F0ADCFD3CF3A
:100FF0009C3089F680FDCFCFD1E06F2D81E00E943B
:10100000C70364E670E080E090E00E9481038D2FCA
:10101000DF91CF911F910F91FF9008959C3009F0BF
:10102000BACF83FDB8CFE8CFFF920F931F93CF9332
:10103000DF93182F81E00E94E203082F8091AA021B
:10104000811115C00E94DF06602F81E00E94C70356
:1010500064E670E080E090E00E94810310939202C9
:1010600080E0DF91CF911F910F91FF90089561E88B
:1010700081E00E94C7038EE10E94E203C82F1A306C
:10108000B1F040F4183069F0193071F0CF77C067D3
:10109000D0E034C01B3071F01C30C1F7CF7CC06C85
:1010A0001CC0CF78C068F4CFCF79C069F1CFCF7AB8
:1010B000C06AEECFCF7BC06B8091AA02882369F013
:1010C00080916F0281116BC08DE10E94E2038295D5
:1010D00086958695837080939002809190028730E8
:1010E000B9F680916F02811160C08DE10E94E20328
:1010F000D82FD1606D2F8DE10E94C7038091AA0285
:10110000882339F18DE10E94E2039091920296309A
:1011100049F090916F02682F911150C06B7F8DE163
:101120000E94C70380916F02F12C811102C082E0FE
:10113000F82E80919202863061F08DE10E94E203E8
:1011400090E002C095958795FA94E2F780FF10929F
:10115000A10263E081E30E94C7036AE087E30E9483
:10116000C70380916F0281112BC0C4606D2F8DE188
:101170000E94C7036C2F8EE10E94C70364E670E0F3
:1011800080E090E00E94810380916F0281111FC076
:101190008DE10E94E2038EE10E94E20355CF8DE1D2
:1011A0000E94E20382958F7096CF86E20E94E2034E
:1011B000682F686086E20E94C7036ACF6E7FAFCF58
:1011C00086E20E94E203682F646086E2D1CF86E265
:1011D000E0CFCF93DF9381E00E94E203D82F80918C
:1011E000AA02C2E0811103C00E94DF06C82F61E895
:1011F00081E00E94C7038DE10E94E20390916F029B
:10120000682F91112EC06F7C68608DE10E94C7032A
:1012100064E670E080E090E00E9481038DE10E942E
:10122000E20320916F02213009F023E090E002C038
:10123000959587952A95E2F787709927019709F484
:10124000C0E081E0809391026D2F0E94C70364E6A5
:1012500070E080E090E00E9481038C2FDF91CF91BD
:101260000895617F6260D1CF8F929F92AF92BF92BB
:101270000F931F93CF93DF93CDB7DEB7A1970FB630
:10128000F894DEBF0FBECDBF19A2423008F44AE089
:101290008E010F5D1F4F842E912CB12CA12CA50126
:1012A00094010E94C814E62FB901CA01EA30F4F48F
:1012B000E05DD801EE938D01232B242B252B79F7AC
:1012C00090E080E0109719F0CD010E94C206A1962F
:1012D0000FB6F894DEBF0FBECDBFDF91CF911F9147
:1012E0000F91BF90AF909F908F900895E95CE1CFF0
:1012F000CF92DF92EF92FF92CF93DF9397FF1BC0C5
:101300006B017C016DE282ED91E00E945702EC01DD
:1013100066277727CB016C197D098E099F094AE062
:101320000E9434098C0F9D1FDF91CF91FF90EF90A9
:10133000DF90CF9008954AE0DF91CF91FF90EF903A
:10134000DF90CF900C943409CF93DF93BC01990FB9
:10135000880B990B0E947809EC010E94CF068C0F34
:101360009D1FDF91CF9108950E94B403AB01BC0192
:101370008091CD039091CE03A091CF03B091D00383
:1013800084179507A607B70708F052C08093C903D2
:101390009093CA03A093CB03B093CC0340EA5CE8DC
:1013A00060E070E04093C5035093C6036093C703A9
:1013B0007093C80380589141A94CBF4F8093CD03CF
:1013C0009093CE03A093CF03B093D00380E093E03B
:1013D0000E94D3068FEE92E00E94A4026091C9039E
:1013E0007091CA038091CB039091CC034AE00E9494
:1013F00034098FED92E00E94A4026091CD037091B8
:10140000CE038091CF039091D0034AE00E9434092B
:101410008CEC92E00E94A4026091C5037091C60317
:101420008091C7039091C8030E9478090E94CF065B
:101430006091C5037091C6038091C7039091C80362
:1014400008951F920F920FB60F9211242F933F937E
:101450004F935F936F937F938F939F93AF93BF93BC
:10146000EF93FF9382ED91E00E943502FF91EF919F
:10147000BF91AF919F918F917F916F915F914F91AC
:101480003F912F910F900FBE0F901F9018951F92B4
:101490000F920FB60F9211242F938F939F93EF9378
:1014A000FF93E091E201F091E3018081E091E80196
:1014B000F091E90182FD1BC090818091EB018F5F6B
:1014C0008F732091EC01821741F0E091EB01F0E085
:1014D000EE52FE4F958F8093EB01FF91EF919F911C
:1014E0008F912F910F900FBE0F901F9018958081B4
:1014F000F4CF1F920F920FB60F9211242F933F93A8
:101500008F939F93AF93BF938091490190914A012C
:10151000A0914B01B0914C013091480123E0230F81
:101520002D3758F50196A11DB11D209348018093D8
:10153000490190934A01A0934B01B0934C018091D3
:101540004D0190914E01A0914F01B0915001019633
:10155000A11DB11D80934D0190934E01A0934F01A9
:10156000B0935001BF91AF919F918F913F912F9177
:101570000F900FBE0F901F90189526E8230F02962C
:10158000A11DB11DD2CF0F931F93CF93DF93E2ED37
:10159000F1E01382128288EE93E0A0E0B0E0848351
:1015A0009583A683B78382E291E09183808385EC63
:1015B00090E09587848784EC90E09787868780EC1D
:1015C00090E0918B808B81EC90E0938B828B82EC0E
:1015D00090E0958B848B86EC90E0978B868B118EB8
:1015E000128E138E148ECFE6D2E08AE08B8397E0C2
:1015F00099A381E08AA39BA340E050EC64EE70E0E5
:101600004CA35DA36EA37FA31AAA1CAA1BAE9FE0E6
:1016100098A71EAA1FAA18AE92E19A831B8E1E8A53
:101620008F8B188E89E08D8B1D8E1092C4030E94C3
:10163000B4036093C9037093CA038093CB03909360
:10164000CC0300EA1CE820E030E00093C5031093CF
:10165000C6032093C7033093C80360587141894C77
:101660009F4F6093CD037093CE038093CF039093ED
:10167000D0031F8E83EC92E09093B1028093B0026E
:101680009093B9028093B8028EEB93E09093C102DD
:101690008093C00219AE88AD8093B202DF91CF91E2
:1016A0001F910F910895CF93DF93CDB7DEB72B979E
:1016B0000FB6F894DEBF0FBECDBF789484B58260BC
:1016C00084BD84B5816084BD85B5826085BD85B5E6
:1016D000816085BD80916E00816080936E00109264
:1016E00081008091810082608093810080918100DF
:1016F0008160809381008091800081608093800070
:101700008091B10084608093B1008091B0008160CD
:101710008093B00080917A00846080937A008091F9
:101720007A00826080937A0080917A008160809351
:101730007A0080917A00806880937A001092C100CC
:1017400068EB7BE080E090E00E948103E091E201A1
:10175000F091E30182E08083E091DE01F091DF010E
:101760001082E091E001F091E10183E38083109227
:10177000EA01E091E601F091E70186E08083E091E3
:10178000E401F091E501808180618083E091E401D2
:10179000F091E501808188608083E091E401F0911F
:1017A000E501808180688083E091E401F091E501AA
:1017B00080818F7D80838AE991E00E94D30661E079
:1017C000809172020E942B0361E0809172020E945C
:1017D000DF0264E670E080E090E00E9481032FB7B2
:1017E0002983F89480915101811127C0E7ECF0E042
:1017F0008491E3EBF0E09491E82FF0E0EE0FFF1F0F
:10180000E156FF4FA591B491EC91E92321F461E0F9
:101810008AE00E94DF0261E08AE00E942B038CB51F
:1018200080618CBD8CB580648CBD61E08DE00E94D0
:101830002B0361E08BE00E942B03809151018F5FAD
:101840008093510139813FBF8CB58F7D8CBD8CB5A4
:101850008C7F81608CBD8DB581608DBD8CB5837FA3
:101860008CBD64E670E080E090E00E94810382E439
:101870000E94E203823209F004C584E091E00E94F4
:10188000D30610926F0280916F02813041F586E895
:1018900090E00E94D30660E089E00E94C7038BE3DA
:1018A0000E94E203682F60648BE30E94C7038BE30E
:1018B0000E94E20385FDFBCF60E070E089ED90E0DF
:1018C0000E94F2058BE30E94E203682F60648BE3C1
:1018D0000E94C7038BE30E94E20385FDFBCF8BE1EF
:1018E0000E94D5050E94DF064091AA024D83413037
:1018F00009F0E0C480916F028111D5C45DE1598384
:1019000089810E94E20390916F02682F9111D0C4E7
:10191000626089810E94C70389810E94E20390E08E
:101920000D8002C0959587950A94E2F780FF03C069
:1019300081E08093A3028091AA02813009F0C8C49B
:1019400080E20E94E20310929C0280939D0281E259
:101950000E94E20320919C0230919D02820F932FFE
:10196000911D90939D0280939C02809171020E9430
:101970001A078091AA02882329F089E30E94E203D2
:101980008093700280917002809371020E94B40370
:10199000611571058105910511F00E94581481E0CF
:1019A0000E94E2038D838091AA02811102C00E94ED
:1019B000DF0661E881E00E94C7030E94E9088CE02D
:1019C0000E94140887E090E00E944D078DE10E947C
:1019D000E20320916F0290E0211183C4B3E095955A
:1019E0008795BA95E1F7019709F47FC4A1E0A9832F
:1019F000809171020E941A07F981F11103C081E000
:101A0000809383026D8181E00E94C70364E670E0E9
:101A100080E090E00E94810385E891E00E94A402AA
:101A20002981822F90E00E94A40931E0309387023F
:101A30006CEC7CE488ED90E00E94F20589838DE6F1
:101A400091E00E94A4024981842F440F990B0E94C7
:101A5000A40951E050938C0280916F02811158C407
:101A60008AE5898381E00E94E2038D838091AA0246
:101A700061E8813011F061E081E00E94C70364E811
:101A800089810E94C70380E10E94D50590916F0271
:101A900080918C02911142C4882309F43CC4ACE8C3
:101AA000A983698189E00E94C70339813093970235
:101AB00089E00E94E20341E04983909197029813E4
:101AC00001C019826D8181E00E94C70364E670E065
:101AD00080E090E00E94810387E591E00E94A402EB
:101AE0005981852F90E00E94A40989E08093A0028B
:101AF00081E00E94E20389838091AA0261EC813037
:101B000011F061E081E00E94C70369E083E30E9475
:101B1000C70360E084E30E94C70383E30E94E203FB
:101B2000182F698181E00E94C70381E090E09A83C9
:101B300089838091A002811302C01A8219828DE3E9
:101B400091E00E94A40289819A810E94A4098EE1F9
:101B500091E00E94D30664EF71E080E090E00E9483
:101B6000810360E08EE00E942B0361E089E00E9427
:101B70002B03ECE32E2E312C0E94B4030091CE01F6
:101B80001091CF012091D0013091D1010617170794
:101B90002807390708F068C361E089E00E94DF0286
:101BA00064EF71E080E090E00E94810380E4809324
:101BB0007C0080917A00806480937A0080917A0022
:101BC00086FDFCCF6091780090917900B92FA62F07
:101BD000BA83A98360E089E00E94DF028AE492E090
:101BE0000E94A40289819A810E94A409E981FA8154
:101BF000BF01FF0F880B990B0E942C1620E030E4E8
:101C00004EE455E40E94391720E030E040E85AE302
:101C10000E94391720E030E040E251E40E94821532
:101C20006B017C014B015C01C092CA01D092CB01D7
:101C3000E092CC01F092CD0186EB92E00E94A402EA
:101C4000A7019601C701B6010E94A617882309F4CF
:101C500071C383E391E00E94C2060E94CF06C09048
:101C6000CA01D090CB01E090CC01F090CD01C7012A
:101C7000B6010E94F4154B015C014AE066EB71E08D
:101C8000C4010E94611426EB31E03A832983098163
:101C90001A810F5F1F4FA981BA818C918111DEC318
:101CA0008EE28C93C501B4010E942C169B01AC01FD
:101CB000C701B6010E94F91420E030E048EC52E47C
:101CC0000E9439170E94F415DC01CB01B7FF07C051
:101CD000B095A095909581959F4FAF4FBF4F8A309B
:101CE0009105A105B10544F409811A810E5F1F4FCA
:101CF00020E3E981FA8121834AE0B8010E9461145E
:101D000086EB91E09F938F9320E031E03F932F93F8
:101D10008FE391E09F938F93E2E5F1E0FF93EF93E0
:101D20000E94D9179A8389838DEA92E00E94A402C7
:101D300082E591E00E94C2060E94CF0687E992E008
:101D40000E94A4023981632F70E090E080E04AE0B5
:101D50000E9434090E94CF0649815A8155275E832B
:101D60004D8381E492E00E94A4020FB6F894DEBF96
:101D70000FBECDBF80918402882309F4FCC0A090DF
:101D80008702AA2009F4F7C013E0B12C73E0972E64
:101D900008E00E94B40360937B0270937C028093FE
:101DA0007D0290937E02809184020E941C04F82E92
:101DB0000E94B40360937F0270938002809381023B
:101DC0009093820288E392E00E94A40260917F02D5
:101DD00070918002809181029091820240907B02FA
:101DE00050907C0260907D0270907E0264197509AB
:101DF000860997094AE00E9434090E94CF06F11033
:101E000030C383E392E00E94A4028091850288237C
:101E100009F484C00E94091427E030E040E050E05B
:101E20000E9496146B017C01AFEFCA1ADA0AEA0A23
:101E3000FA0A85E292E00E94A402C701B601772760
:101E4000882799274AE00E9434098DE192E00E9498
:101E5000A402E0918302F0E0ED5EFE4F6081C69E39
:101E6000B0011124072E000C880B990B0E947809F1
:101E70000E94CF06E0918302F0E0ED5EFE4F6081AC
:101E8000C69EB0011124072E000C880B990B0E94EE
:101E900081030E94B40360937B0270937C02809361
:101EA0007D0290937E02809184020E941C04E82EA1
:101EB000F12C0E94B40360937F02709380028093A0
:101EC00081029093820284E192E00E94A4026091D8
:101ED0007F027091800280918102909182024090F5
:101EE0007B0250907C0260907D0270907E026419AB
:101EF0007509860997094AE00E9434090E94CF06B5
:101F000080E192E0E114F10411F08DE092E00E9492
:101F1000A4020E94CF06EF2809F0F9C28091860240
:101F2000882309F401C30E9459058111F4C208E015
:101F30000E94590588ED91E00E94A40260919902E7
:101F4000062E000C770B880B990B0E9478090E94D3
:101F5000CF06015061E070E080E090E00E948103D4
:101F600080919902873A0CF4DBC20111E1CF115044
:101F7000BA2C09F00DCF0E94B40369837A838B8356
:101F80009C8380E18093AC02ED81FE81EC3FF10502
:101F90000CF4CDC28BEF90E090939F0280939E0251
:101FA0008091C403882309F4C9C2A0909E02B09016
:101FB0009F0280918A02811103C034E0A30EB11CFC
:101FC0000E94B4096D837E838F839887409190022D
:101FD0004987C12C54E2D52E54EFE52E57E4F52E57
:101FE000473081F0C12C64E2D62E64E7E62E68E427
:101FF000F62E483039F0C12C44E2D42E44EFE42EC2
:1020000048E4F42E509192025A87052F10E061E0C7
:1020100070E002C0660F771F5A95E2F7072E000C9A
:10202000880B990B0E942C169B01AC01C701B601CD
:102030000E9482159B01AC0160E070E080E89FE3A4
:102040000E9482156B017C0160919C0270919D023F
:102050006C5F7F4F90E080E00E942A1620E030E025
:1020600048E850E40E94FA14A70196010E9439172B
:102070002B013C018985873029F491E09987AA8555
:10208000AC3009F01986BB24AA0CBB1CA01AB10AFB
:10209000BBE0AB0EB11C6091A1022BEF2603B00197
:1020A00011246A0D7B1D660F771F660F771F072EA1
:1020B000000C880B990B0E942C164B015C01598572
:1020C000452F50E0440F551FB801641B750B660F78
:1020D000771F660F771F072E000C880B990B0E9445
:1020E0002C169B01AC01C501B4010E9482150E940F
:1020F00066154B015C016091910270E06C5F7F4F4F
:10210000072E000C880B990B0E942C16A501940138
:102110000E9439174B015C0120E030E0A9010E94C8
:10212000341720E030E040E051E4181634F4C501E3
:10213000B4010E94FA149B01AC01C701B6010E94D0
:102140003917A30192010E94FA1420E034E244E717
:1021500059E40E94391727E73EEB4FE75FE30E94FF
:10216000FA140E9467160E94FB1528EE33E040E047
:1021700050E00E94C814CA01B9010E942A1620E04A
:1021800030E040E85FE30E94FA140E94FB15709370
:10219000D2036093D1038D819E81AF81B885861B68
:1021A000970BA109B109B7FFC9C182EB91E00E9469
:1021B000A4020E94B4034AE00E9434090E94CF06A0
:1021C00014E00E94B4036B017C0189E892E00E9454
:1021D000A4026091AE0270E090E080E04AE00E94CC
:1021E00034090E94CF068BE792E00E94A402C70147
:1021F000B60129813A814B815C81621B730B840B90
:10220000950B0E9478090E94CF0687E692E00E9413
:10221000A40280917B0290917C02A0917D02B091FA
:102220007E02A7019601281B390B4A0B5B0BCA01E2
:10223000B9014AE00E9434090E94CF0683E592E08A
:102240000E94A402812F90E00E94A4090E94B4037E
:10225000605A75418F4F9F4F6093CE017093CF01AD
:102260008093D0019093D10180E090E0892B09F414
:1022700083CC0E942102882309F47BCC0E940000B9
:1022800078CC82E40E94E203823141F48AEE90E04D
:102290000E94D30681E080936F02F5CA81ED90E041
:1022A0000E94D306F0CA82E08D839EE1998328CBF9
:1022B00064602FCB80E30E94E203682F606180E3BB
:1022C0000E94C70380E30E94E20384FD31CB33CB3D
:1022D00085E20E94E20310929C0280939D0286E2B6
:1022E00037CB95958795C99781F48EE10E94E203DB
:1022F00090E0F4E095958795FA95E1F7B1E0B98320
:102300000C9709F075CB198273CBE1E0E98370CBB0
:102310009DE49983A7CBBFE0B983C3CB811107C0EC
:10232000EEE0E983298120672983622FBBCBFCE89B
:10233000F983F8CF26013701E89477F82FEF3FEFC4
:102340004FE75FE7C301B2010E94A61781110DC0DC
:102350002FEF3FEF4FE75FE7C301B2010E947D150A
:1023600018161CF487E391E076CC2FEF3FEF4FE790
:102370005FE4C701B6010E94341718161CF48BE302
:1023800091E069CC2FEF3FEF4FE75FECC701B6015B
:102390000E947D1587FDF3CF20E030E0A901C70141
:1023A000B6010E947D1587FF0BC06DE282ED91E0C2
:1023B0000E94570246015701B7FAB094B7F8B0949B
:1023C0002AE037ED43EA5BE3C501B4010E94FA1449
:1023D0004B015C010E94FB156B017C010E942A16D7
:1023E0009B01AC01C501B4010E94F9144B015C01D1
:1023F0004AE0C701B6010E9434096EE282ED91E025
:102400000E94570220E030E040E251E4C501B401EF
:102410000E9439174B015C010E94FB156B01F12CE6
:10242000E12C4AE0C701B6010E943409C701B60198
:102430000E942A169B01AC01C501B4010E94F91447
:1024400020E030E040E251E40E9439170E94FB1581
:1024500090E080E04AE00E943409FFCB1A830983B0
:1024600016CC89E092E00E94A4020E94091427E0A1
:1024700030E040E050E00E9496146B017C01BFEF19
:10248000CB1ADB0AEB0AFB0A8BEF91E00E94A40255
:10249000C701B6017727882799274AE00E943409A7
:1024A0008DEE91E00E94A402D12CE0918302F0E035
:1024B000E85FFE4F8081899DC00111248C9DB00191
:1024C0008D9D700D9C9D700D1124072E000C880BA6
:1024D000990B0E9478090E94CF06E0918302F0E0F8
:1024E000E85FFE4F8081899DC00111248C9DB00161
:1024F0008D9D700D9C9D700D1124072E000C880B76
:10250000990B0E94810382EE91E00E94A402015087
:1025100009F03FCC03CD88EC91E00E94A4022BCDC2
:10252000002309F424CD27CDB11021CD24CD2D8158
:102530003E8130939F0220939E0232CD81E00E9423
:10254000E203082F0E94FC038091AA0261E8813017
:1025500011F061E081E00E94C7031092A602209171
:10256000A70280919E0290919F02211182C021E0DA
:102570002093A4022093AB022091A0022093AD02ED
:102580002091A5022093AE022F5F2093A502109206
:10259000B2022091AA02211106C0CD9720F03092FC
:1025A0009F0220929E02E2E5F1E09F012255314018
:1025B00080919E0290919F022817390750F4419113
:1025C0008091B0029091B102280F391FD9014C932C
:1025D000ECCF20918A02211101C004960E949E0531
:1025E000182F8091AC02982F90619093AC0290913B
:1025F0008E02992319F088618093AC0260E88DE027
:102600000E94C703111149C080918A02811113C031
:102610006091AB020E94C7036091AC0280E00E940F
:10262000C7036091AD0280E00E94C7036091AE02D3
:1026300080E00E94C7031E821D8280919E029091BD
:102640009F02ED81FE81E817F90738F5E091B002AD
:10265000F091B1022D813E81E20FF31F608180E095
:102660000E94C7034D815E814F5F5F4F5E834D8344
:10267000E4CF213029F42091AF022F5F2093AF02E5
:1026800020918A02211101C004960E949E05182FF4
:102690008091A7028093B202A4CF602F81E00E94B4
:1026A000C70311118ECD80E197E29093C30380930D
:1026B000C2030E94B4036B017C01A0E1CA0EA7E231
:1026C000DA1EE11CF11C8091AA02813009F040C0A1
:1026D0000E94FC0363E881E00E94C70382E10E943C
:1026E000E2038D83BD81B3FD07C00E94B4036C1566
:1026F0007D058E059F0590F3FD81F3FF3CC0809121
:10270000C403882311F12091D1033091D2033E8379
:102710002D830E94B4098091C4038823B1F0809175
:10272000C5039091C603A091C703B091C8034D8122
:102730005E81841B950BA109B1098093C503909319
:10274000C603A093C703B093C8030E94FC0339CD0E
:1027500063E081E00E94C7038FE30E94E2038D8360
:10276000ED81E3FDC9CF0E94B4036C157D058E0594
:102770009F0590F3C1CF11E0E8CF8F929F92AF9267
:10278000BF92CF92DF92EF92FF92CF93DF93EC0153
:10279000688179818A819B81611571058105910527
:1027A00021F464E279ED8BE597E02DE133EF41E030
:1027B00050E00E94961449015A019B01AC01A7EA1E
:1027C000B1E40E94B5146B017C01ACEEB4EFA5013D
:1027D00094010E94C314C60ED71EE81EF91EF7FE10
:1027E00006C081E0C81AD108E10880E8F80AC8826A
:1027F000D982EA82FB82C701B6019F77DF91CF9130
:10280000FF90EF90DF90CF90BF90AF909F908F9010
:1028100008958F929F92AF92BF92CF92DF92EF92E4
:10282000FF926091040170910501809106019091E1
:102830000701611571058105910521F464E279EDC7
:102840008BE597E02DE133EF41E050E00E949614D4
:1028500049015A019B01AC01A7EAB1E40E94B514F9
:102860006B017C01ACEEB4EFA50194010E94C3148E
:10287000C60ED71EE81EF91EF7FE06C081E0C81A74
:10288000D108E10880E8F80AC0920401D09205015D
:10289000E0920601F0920701C701B6019F77FF9011
:1028A000EF90DF90CF90BF90AF909F908F90089562
:1028B00060930401709305018093060190930701D2
:1028C0000895BB274A3031F4992322F4BDE2909554
:1028D00081959F4F0C946D14BB27FB015527AA27A8
:1028E000880F991FAA1FA41710F0A41B839550519D
:1028F000B9F7A05DAA3308F0A95DA193009779F715
:10290000B111B1931192CB010C948614DC01FC013E
:10291000672F71917723E1F7329704C07C916D9313
:1029200070836291AE17BF07C8F30895052E97FB19
:102930001EF400940E94AD1457FD07D00E94C814E5
:1029400007FC03D04EF40C94AD145095409530958F
:1029500021953F4F4F4F5F4F08959095809570950B
:1029600061957F4F8F4F9F4F08950E94EA14A59F56
:10297000900DB49F900DA49F800D911D112408957A
:10298000B7FF0C94B5140E94B514821B930B0895E5
:10299000A1E21A2EAA1BBB1BFD010DC0AA1FBB1F63
:1029A000EE1FFF1FA217B307E407F50720F0A21BD5
:1029B000B30BE40BF50B661F771F881F991F1A9442
:1029C00069F760957095809590959B01AC01BD016C
:1029D000CF010895A29FB001B39FC001A39F700DC6
:1029E000811D1124911DB29F700D811D1124911D17
:1029F00008955058BB27AA270E9411150C94E2167F
:102A00000E94D41638F00E94DB1620F039F49F3F64
:102A100019F426F40C94D1160EF4E095E7FB0C940F
:102A2000A216E92F0E94F31658F3BA17620773072C
:102A30008407950720F079F4A6F50C942D170EF471
:102A4000E0950B2EBA2FA02D0B01B90190010C01BE
:102A5000CA01A0011124FF27591B99F0593F50F4D6
:102A6000503E68F11A16F040A22F232F342F44272E
:102A7000585FF3CF469537952795A795F040539526
:102A8000C9F77EF41F16BA0B620B730B840BBAF0F6
:102A90009150A1F0FF0FBB1F661F771F881FC2F761
:102AA0000EC0BA0F621F731F841F48F48795779575
:102AB0006795B795F7959E3F08F0B0CF9395880F2F
:102AC00008F09927EE0F9795879508950E9415179E
:102AD00090F09F3748F4911116F40C942E1760E093
:102AE00070E080E89FE3089526F01B16611D711DBC
:102AF000811D0C94A8160C94C3160E947E1608F42F
:102B000081E008950E9496150C94E2160E94DB164F
:102B100058F00E94D41640F029F45F3F29F00C943D
:102B2000A21651110C942E170C94D1160E94F31674
:102B300068F39923B1F3552391F3951B550BBB27EC
:102B4000AA2762177307840738F09F5F5F4F220F31
:102B5000331F441FAA1FA9F335D00E2E3AF0E0E828
:102B600032D091505040E695001CCAF72BD0FE2F72
:102B700029D0660F771F881FBB1F26173707480706
:102B8000AB07B0E809F0BB0B802DBF01FF279358BE
:102B90005F4F3AF09E3F510578F00C94A2160C94CA
:102BA0002E175F3FE4F3983ED4F3869577956795AB
:102BB000B795F7959F5FC9F7880F911D96958795F3
:102BC00097F90895E1E0660F771F881FBB1F621712
:102BD00073078407BA0720F0621B730B840BBA0BD0
:102BE000EE1F88F7E09508950E94FB156894B111D7
:102BF0000C942E1708950E94FB1688F09F5798F0AA
:102C0000B92F9927B751B0F0E1F0660F771F881FF1
:102C1000991F1AF0BA95C9F714C0B13091F00E940B
:102C20002D17B1E008950C942D17672F782F882762
:102C3000B85F39F0B93FCCF3869577956795B39532
:102C4000D9F73EF490958095709561957F4F8F4FA1
:102C50009F4F0895E89409C097FB3EF490958095A6
:102C6000709561957F4F8F4F9F4F9923A9F0F92F52
:102C700096E9BB279395F695879577956795B795D0
:102C8000F111F8CFFAF4BB0F11F460FF1BC06F5FB6
:102C90007F4F8F4F9F4F16C0882311F096E911C0C8
:102CA000772321F09EE8872F762F05C0662371F0E9
:102CB00096E8862F70E060E02AF09A95660F771FFD
:102CC000881FDAF7880F9695879597F908950E94DF
:102CD000151790F09F3748F4911116F00C942E17A9
:102CE00060E070E080E89FEB089526F41B16611DFC
:102CF000711D811D0C94A8160C94C316990F000821
:102D0000550FAA0BE0E8FEEF16161706E807F907BD
:102D1000C0F012161306E407F50798F0621B730B58
:102D2000840B950B39F40A2661F0232B242B252BD9
:102D300021F408950A2609F4A140A6958FEF811D7C
:102D4000811D089597F99F6780E870E060E008951D
:102D5000882371F4772321F09850872B762F07C0B2
:102D6000662311F499270DC09051862B70E060E026
:102D70002AF09A95660F771F881FDAF7880F9695C5
:102D8000879597F908959F3F31F0915020F48795EA
:102D900077956795B795880F911D9695879597F9C3
:102DA00008959FEF80EC089500240A9416161706E4
:102DB00018060906089500240A941216130614062C
:102DC00005060895092E0394000C11F4882352F08F
:102DD000BB0F40F4BF2B11F460FF04C06F5F7F4F47
:102DE0008F4F9F4F089557FD9058440F551F59F02E
:102DF0005F3F71F04795880F97FB991F61F09F3FE8
:102E000079F087950895121613061406551FF2CF10
:102E10004695F1DF08C0161617061806991FF1CF60
:102E2000869571056105089408950E94FB16A0F02F
:102E3000BEE7B91788F4BB279F3860F41616B11D9A
:102E4000672F782F8827985FF7CF869577956795B6
:102E5000B11D93959639C8F30895E894BB2766276A
:102E60007727CB0197F908950E947E1608F48FEF1B
:102E700008950E944C170C94E2160E94D41638F064
:102E80000E94DB1620F0952311F00C94A2160C94EE
:102E9000D11611240C942E170E94F31670F3959FEF
:102EA000C1F3950F50E0551F629FF001729FBB2741
:102EB000F00DB11D639FAA27F00DB11DAA1F649FDD
:102EC0006627B00DA11D661F829F2227B00DA11D90
:102ED000621F739FB00DA11D621F839FA00D611D16
:102EE000221F749F3327A00D611D231F849F600D37
:102EF000211D822F762F6A2F11249F5750409AF060
:102F0000F1F088234AF0EE0FFF1FBB1F661F771FEB
:102F1000881F91505040A9F79E3F510580F00C94B6
:102F2000A2160C942E175F3FE4F3983ED4F38695D7
:102F300077956795B795F795E7959F5FC1F7FE2B56
:102F4000880F911D9695879597F908950E947E1692
:102F5000880B990B089597FB072E16F4009407D061
:102F600077FD09D00E94BF1707FC05D03EF490956D
:102F700081959F4F0895709561957F4F0895AA1B85
:102F8000BB1B51E107C0AA1FBB1FA617B70710F054
:102F9000A61BB70B881F991F5A95A9F78095909586
:102FA000BC01CD010895EE0FFF1F0590F491E02DB7
:102FB0000994AEE0B0E0EFEDF7E10C94881A0D89CA
:102FC0001E8986E08C831A8309838FEF9FE79E8397
:102FD0008D83AE01475E5F4F6F89788DCE0101967C
:102FE0000E94FC172F813885020F131FF8011082F1
:102FF0002E96E4E00C94A41AABE0B0E0E2E0F8E135
:103000000C947A1A7C013B018A01FC01178216821A
:10301000838181FFC8C1CE0101965C01F7019381D4
:10302000F30193FD859193FF81913F01882309F47A
:1030300053C1853239F493FD859193FF81913F010E
:10304000853229F4B70190E00E94EC19E7CF912C6A
:10305000212C312CFFE1F31538F08B3211F190F473
:10306000803209F1833229F137FC3CC020ED280F72
:103070002A3050F536FE20C08AE0989E200D11249B
:10308000922E06C08D3291F0803371F7689430F83B
:10309000F30193FD859193FF81913F018111DACF77
:1030A00021C0689431F8689432F8F2CF689433F80C
:1030B000EFCF689434F8ECCFEAE02E9E200D112477
:1030C000222E689435F8E4CF8E3229F436FC04C100
:1030D000689436F8DDCF8C3619F4689437F8D8CF79
:1030E0008836B1F2982F9F7D95549330E0F0833667
:1030F000A1F18337C1F1833509F063C02801F2E003
:103100004F0E511CF801C080D180692D70E036FC53
:1031100002C06FEF7FEFC6010E94D6194C01689480
:1031200037F882010AC00C5F1F4FFFE3F983882440
:103130008394912C6501E89437F833FE2DC0522C0E
:103140008114910471F5552009F468CFB70180E22C
:1031500090E00E94EC195A94F6CFF801808189839F
:103160000E5F1F4FE4CF2801F2E04F0E511CF80113
:10317000C080D180692D70E036FC02C06FEF7FEF18
:10318000C6010E94E1194C018201D5CFB70180E24E
:1031900090E00E94EC192A942814190409F0B0F761
:1031A000CECFF60137FC859137FE81916F01B701D3
:1031B00090E00E94EC1951105A94F1E08F1A910896
:1031C000BFCF843619F0893609F077C0F80137FE91
:1031D0006BC060817181828193810C5F1F4FF32DE1
:1031E000FF763F2E97FF09C0909580957095619569
:1031F0007F4F8F4F9F4F689437F82AE030E0A5014A
:103200000E941C1AC82ECA188C2C432C36FE0CC0E7
:10321000E89440F8C91440F434FE05C032FC03C001
:10322000F32DFE7E4F2E892C44FE95C0FE01EC0D41
:10323000F11D8081803309F087C0242D297E422E24
:10324000842D8870582E43FC95C040FE8FC09C2C66
:10325000821418F42C0C922C981844FE91C0B701DB
:1032600080E390E00E94EC1942FE09C088E790E0FC
:1032700041FE02C088E590E0B7010E94EC19C91434
:1032800008F48AC0CA94D12C9FEFC91AD90ACA0C73
:10329000DB1CF60182916F01B70190E00E94EC19EE
:1032A000AC14BD04B1F74FCF60817181072E000CC3
:1032B000880B990B0E5F1F4F92CFD32CE894D4F854
:1032C0002AE030E0853739F1232D297FD22E8F3641
:1032D00001F148F48835A9F0F701868197812B9692
:1032E000E2E10C94961A803749F08837A9F7D4FEAA
:1032F00002C06894D2F820E130E00DC06894D4F8A0
:10330000F6CF34FE03C0822F8660D82E20E132E053
:1033100002C028E030E0F801D7FE0FC06081718163
:10332000828193810C5F1F4FA5010E941C1AC82E39
:10333000CA183D2CE89437F867CF6081718190E01E
:1033400080E00E5F1F4FF0CF42FC02C0839478CF25
:103350008394839475CF842D867809F471CFF6CF4A
:10336000B70180E290E00E94EC1983948214C0F3CC
:10337000512C73CF522C5818821408F46ECFF8CF0A
:10338000842D867809F47BCF8BE241FE80E247FCF6
:103390008DE2B70190E071CFB70180E390E00E9429
:1033A000EC199A946CCF8FEF9FEF99CFFC010590A9
:1033B000615070400110D8F7809590958E0F9F1F37
:1033C0000895FC016150704001900110D8F780957C
:1033D00090958E0F9F1F08950F931F93CF93DF93A8
:1033E000182F092FEB018B8181FD09C01FEF0FEF13
:1033F000812F902FDF91CF911F910F91089582FF20
:1034000014C02E813F818C819D81281739073CF49F
:10341000E881F981CF0101969983888310838E8199
:103420009F8101969F838E83E3CFE885F985812F65
:103430000995892BA1F3DACFFA01AA27283051F197
:10344000203181F1E8946F936E7F6E5F7F4F8F4FD5
:103450009F4FAF4FB1E03ED0B4E03CD0670F781F34
:10346000891F9A1FA11D680F791F8A1F911DA11D19
:103470006A0F711D811D911DA11D20D009F4689452
:103480003F912AE0269F11243019305D3193DEF6FA
:10349000CF010895462F4770405D4193B3E00FD0B0
:1034A000C9F7F6CF462F4F70405D4A3318F0495D9B
:1034B00031FD4052419302D0A9F7EACFB4E0A6957E
:1034C0009795879577956795BA95C9F700976105A0
:1034D000710508959B01AC010A2E069457954795F6
:1034E00037952795BA95C9F7620F731F841F951FEB
:1034F000A01D08952F923F924F925F926F927F92FC
:103500008F929F92AF92BF92CF92DF92EF92FF92F3
:103510000F931F93CF93DF93CDB7DEB7CA1BDB0B9F
:103520000FB6F894DEBF0FBECDBF09942A88398844
:1035300048885F846E847D848C849B84AA84B9844B
:10354000C884DF80EE80FD800C811B81AA81B98157
:10355000CE0FD11D0FB6F894DEBF0FBECDBFED016B
:063560000895F894FFCF6E
:10356600544300000100000000B75E2C2F17180C12
:103576000C0704003E1F1010080905030101000096
:1035860000005702B701E401BF021502F30107026A
:103596000D0A006E616E00696E66006F7666005CED
:0835A6002125732F257300009D
:00000001FF
