:100000000C9498030C94C0030C94C0030C94C0038C
:100010000C94C0030C94C0030C94C0030C94C00354
:100020000C94C0030C94C0030C94C0030C94C00344
:100030000C94C0030C94C0030C94C0030C94C00334
:100040000C9476110C94C0030C9444110C941E1162
:100050000C94C0030C94C0030C94C0030C94C00314
:100060000C94C0030C94C0036173204C522D425376
:100070002E2057616974696E6720524620696E7040
:10008000757420666F72207472616E737061726530
:100090006E742052462D73657269616C20627269BC
:1000A0006467650A005E245358313237322F373681
:1000B00020636F6E6669677572656420005E245206
:1000C000617720666F726D61742C206E6F74206191
:1000D0007373756D696E6720616E79206865616400
:1000E000657220696E20726563657074696F6E0A4F
:1000F000003A20737461746520005E244C6F526175
:10010000206164647220005E24507265616D626CCF
:1001100065204C656E6774683A20005E24476574FC
:1001200020507265616D626C65204C656E67746805
:100130003A20737461746520005E2442616420502B
:100140007265616D626C65204C656E6774683A20FB
:10015000736574206261636B20746F2038005E24C5
:10016000507265616D626C65204C656E6774683AAB
:1001700020005E2447657420507265616D626C6575
:10018000204C656E6774683A207374617465200052
:100190005E24506F7765723A207374617465200035
:1001A0005E24536574204C6F526120706F776572C6
:1001B0002064426D20746F20005E245573652050CA
:1001C000415F424F4F535420616D706C69666965A1
:1001D00072206C696E65005F3836383A207374613E
:1001E000746520005E244368616E6E656C20434830
:1001F0005F30005E244368616E6E656C2043485F2B
:1002000031005E244368616E6E656C2043485F3147
:10021000385F383638283836382E314D487A293A02
:1002200020737461746520005E24436F6E66696795
:100230007572696E6720666F72204C6F526157410C
:100240004E0A005E2453657474696E67206D6F6496
:10025000653A20737461746520005E244C6F5261AE
:10026000206D6F646520000000000800020100009E
:1002700003040700000000000000005E244C6F52E1
:10028000612073796E6320776F72643A20737461B2
:10029000746520005E245365742073796E63207743
:1002A0006F726420746F203078005E24446566614C
:1002B000756C742073796E6320776F72643A2030A6
:1002C00078005E242A2A2A2A2A2A2A2A2A2A506FD1
:1002D000776572204F4E3A20737461746520002355
:1002E000230041434B20534E52206C6173742072A3
:1002F000637620706B743A200041434B2070617923
:100300006C6F61643A200041434B206C656E6774EA
:10031000683A200041434B206E756D6265723A2049
:1003200000536F757263653A200044657374696E9B
:100330006174696F6E3A200023232041434B20747F
:100340006F2073656E643A0023232041434B207372
:10035000657420616E64207772697474656E2069BB
:100360006E204649464F202323002323206E6F74BE
:1003700020656E6F75676820546F4120666F72202C
:1003800041434B20617400556E7265636F676E69FF
:100390007A656420636D640A00496E76616C6964F5
:1003A00020636F6D6D616E642E204F4E206F722042
:1003B0004F46462061636365707465642E0A005E73
:1003C0002453657474696E67204C6F5261206D6FA1
:1003D00064756C6520746F204F46460A005E245396
:1003E000657474696E6720706F776572204F4E3A3E
:1003F00020737461746520005E2453657474696EA3
:1004000067204C6F5261206D6F64756C6520746F4E
:10041000204F4E00496E76616C696420506F77659D
:10042000722E204C2C20482C204D2C2078206F72CE
:1004300020582061636365707465642E0A005E2431
:1004400053657474696E6720506F7765723A2073D4
:100450007461746520005E24536574204C6F526192
:1004600020506F77657220746F200054696D653A73
:1004700020005E2453657474696E67204368616E62
:100480006E656C3A20737461746520005E24536558
:1004900074204C6F5261206368616E6E656C2074CD
:1004A0006F2000232323004F4B002D2D3E20534966
:1004B0004653206475726174696F6E2000536574D1
:1004C0002073656E645F6361645F6E756D626572F3
:1004D00020746F20005E244C6F52612073796E632C
:1004E00020776F72643A20737461746520005E2413
:1004F0005365742073796E6320776F726420746F14
:1005000020307800507265616D626C65204C656EBC
:100510006774683A200047657420507265616D62A7
:100520006C65204C656E6774683A207374617465FD
:1005300020005E244C6F5261206D6F64653A207319
:100540007461746520005E24536574204C6F5261A1
:10055000206D6F646520746F20005E2473657420C5
:1005600053463A20737461746520005E2473657489
:100570002053463A20005E2452656D6F74652063F7
:100580006F6E666967206C6F636B65640A005E243A
:10059000005E2450617273696E6720636F6D6D61D8
:1005A0006E640A005E2441434B2072657175657369
:1005B00074656420627920005E2453657474696EEA
:1005C0006720706F776572204F4E3A2073746174A4
:1005D0006520005E24526573657474696E672072CD
:1005E0006164696F206D6F64756C65005E2452658F
:1005F0006365697665206572726F7220005E244CB7
:100600006F772D6C6576656C2067772073746174E5
:100610007573204F4E005263762073657269616C6A
:100620003A20002072656D61696E696E6720546FB3
:10063000412069732000206379636C6520656E64D6
:100640007320617420006379636C6520626567695B
:100650006E7320617420002323206E6577206379F8
:10066000636C6520666F7220546F41202323005312
:100670005831323736204C462F48462063616C692A
:1006800062726174696F6E00556E7265636F676E3A
:10069000697A6564207472616E73636569766572E8
:1006A000005358313237362064657465637465646D
:1006B0002C207374617274696E670053583132373D
:1006C000322064657465637465642C207374617290
:1006D00074696E670000000000250028002B0000F0
:1006E000000000240027002A000404040404040479
:1006F00004020202020202030303030303010204D1
:100700000810204080010204081020010204081093
:10071000202A2A205573696E672073796E632077CB
:100720006F7264206F66203078002E2E2E00C0116C
:1007300011241FBECFEFD8E0DEBFCDBF12E0A0E096
:10074000B1E0E2EFF6E402C005900D92AC33B107E0
:10075000D9F724E0ACE3B2E001C01D92AA35B2079C
:10076000E1F713E0C8E9D3E004C02197FE010E943D
:100770008520C739D107C9F70E9464120C947723EA
:100780000C94000090E0FC01E350F94F2491875154
:10079000994FFC018491882399F090E0880F991F6C
:1007A000FC01E152F94FA591B491FC01EB52F94FD4
:1007B000859194918FB7F894EC91E22BEC938FBFD5
:1007C0000895AF92BF92CF92DF92EF92FF920F9374
:1007D0001F93CF93DF936C017B018B01040F151FD7
:1007E000EB015E01AE18BF08C017D10759F069913F
:1007F000D601ED91FC910190F081E02DC6010995A3
:10080000892B79F7C501DF91CF911F910F91FF904F
:10081000EF90DF90CF90BF90AF900895FC01538D83
:10082000448D252F30E0842F90E0821B930B5417CA
:1008300010F0CF96089501970895FC01918D828D57
:10084000981761F0A28DAE0FBF2FB11D5D968C91F0
:10085000928D9F5F9F73928F90E008958FEF9FEF2F
:100860000895FC01918D828D981731F0828DE80FEB
:10087000F11D858D90E008958FEF9FEF0895FC01A5
:10088000918D228D892F90E0805C9F4F821B910972
:100890008F739927089585E592E00E943F0421E037
:1008A000892B09F420E0822F089580E090E0892BC5
:1008B00029F00E944B0481110C9400000895FC0162
:1008C000A48DA80FB92FB11DA35ABF4F2C91848DB1
:1008D00090E001968F739927848FA689B7892C930E
:1008E000A089B1898C91837080648C93938D848D61
:1008F000981306C00288F389E02D80818F7D808364
:100900000895EF92FF920F931F93CF93DF93EC0123
:1009100081E0888F9B8D8C8D98131AC0E889F989A6
:10092000808185FF15C09FB7F894EE89FF896083A9
:10093000E889F98980818370806480839FBF81E02A
:1009400090E0DF91CF911F910F91FF90EF9008956C
:10095000F62E0B8D10E00F5F1F4F0F731127E02E47
:100960008C8D8E110CC00FB607FCFACFE889F9897F
:10097000808185FFF5CFCE010E945F04F1CFEB8D22
:10098000EC0FFD2FF11DE35AFF4FF0829FB7F89453
:100990000B8FEA89FB8980818062CFCF0F931F93F1
:1009A000CF93DF938C01D0E0C0E0F801EC0FFD1F86
:1009B0006491662341F085E592E00E948104892BD1
:1009C00011F02196F2CFCE01DF91CF911F910F91BF
:1009D0000895682F85E592E00C948104CF93DF930E
:1009E000EC01888D8823B9F0AA89BB89E889F98947
:1009F0008C9185FD03C0808186FD0DC00FB607FC7C
:100A0000F7CF8C9185FFF2CF808185FFEDCFCE01AE
:100A10000E945F04E9CFDF91CF91089590E0FC013F
:100A2000E959FD4F2491FC01E350F94F3491FC0149
:100A3000E751F94FE491EE23C9F0222339F0233036
:100A400001F1A8F4213019F1223029F1F0E0EE0F84
:100A5000FF1FEB52F94FA591B4918FB7F894EC9129
:100A6000611126C030953E233C938FBF08952730F7
:100A7000A9F02830C9F0243049F7809180008F7D9B
:100A800003C0809180008F7780938000DFCF84B592
:100A90008F7784BDDBCF84B58F7DFBCF8091B00095
:100AA0008F778093B000D2CF8091B0008F7DF9CF47
:100AB0003E2BDACF9FB7F89480915402882319F027
:100AC00081508093540280915402811103C08CB5EF
:100AD0008F7B8CBD9FBF8091F5020E94C20360E0B6
:100AE0008091F5020C940E053FB7F8948091420274
:100AF00090914302A0914402B091450226B5A89B73
:100B000005C02F3F19F00196A11DB11D3FBFBA2F9F
:100B1000A92F982F8827BC01CD01620F711D811D5F
:100B2000911D42E0660F771F881F991F4A95D1F7E4
:100B300008958F929F92AF92BF92CF92DF92EF92E1
:100B4000FF924B015C010E9474056B017C010E94C5
:100B500074056C197D098E099F09683E73408105F3
:100B60009105A8F321E0821A9108A108B10888EE46
:100B7000C80E83E0D81EE11CF11C81149104A1046D
:100B8000B10429F7FF90EF90DF90CF90BF90AF9026
:100B90009F908F9008952FB7F89460913E027091C6
:100BA0003F0280914002909141022FBF08958EBD77
:100BB00000000DB407FEFDCF8EB508951F93CF93AF
:100BC000DF93182FC2EFD2E060E08B810E940E0508
:100BD000812F0E94D70580E00E94D705182F61E081
:100BE0008B810E940E05812FDF91CF911F91089577
:100BF00080912D038130B9F480E20E94DE051092CD
:100C00001F038093200381E20E94DE0520911F03D1
:100C100030912003820F932F911D90932003809396
:100C20001F0380E0089585E20E94DE0510921F03F5
:100C30008093200386E2E8CF80912D03882381F002
:100C40008EE10E94DE0590E024E0959587952A9537
:100C5000E1F7809315038650873020F081E00895F6
:100C60008FEF089580E0089580912D038130D9F4AD
:100C700089E10E94DE0580931003282F30E087FF72
:100C80000DC03195219531093595279535952795D5
:100C90002F73219520931B0380E0089535952795A8
:100CA00035952795F7CF8FEF08958F929F92AF924A
:100CB000BF92CF92DF92EF92FF920F931F93CF9349
:100CC000DF9380912D03CFEF813009F05AC00E944D
:100CD0003406C82F811155C08AE10E94DE05D091EB
:100CE0001B039091F20200911603109117032091BB
:100CF000180330911903C82ED12CF12CE12CD7FF09
:100D000053C0913009F44DC08BE890E070E060E092
:100D10000C3C1C4C274D310510F467E070E0680F67
:100D2000791F719561957109072E000C880B990B3D
:100D30000E94F71E4B015C01C701B6010E94F71E1D
:100D40009B01AC01C501B4010E94CA1D6B017C016D
:100D50006D2FDD0F770B880B990B0E94F71E20E09B
:100D600030E040E85EE30E94E01F9B01AC01C70158
:100D7000B6010E94CA1D0E94BF1E70931E0360939D
:100D80001D038C2FCC0F990BDF91CF911F910F91E9
:100D9000FF90EF90DF90CF90BF90AF909F908F909B
:100DA00008958DE990E0B2CF6BE870E0913011F4D6
:100DB0006DE970E00C3C1C4C274D310520F190E0B2
:100DC00080E0680F791F719561957109072E000CFD
:100DD000880B990B0E94F71E4B015C01C701B601FD
:100DE0000E94F71E20E030E040E851E40E94E01F3E
:100DF00020E030E040E751E40E944D1E9B01AC0131
:100E0000C501B401B6CF87E090E0DBCF0F931F930D
:100E1000CF93DF93082F162FC2EFD2E060E08B81D3
:100E20000E940E05802F80680E94D705812F0E94A6
:100E3000D70561E08B81DF91CF911F910F910C94C9
:100E40000E05CF93DF93D82FD06281E00E94DE059C
:100E5000C82F80912D0361E8813011F061E081E0BD
:100E60000E9406076D2F8BE00E9406076C2F81E021
:100E70000E94060780E0DF91CF9108958F929F92A4
:100E8000AF92BF92CF92DF92EF92FF92CF93DF9318
:100E90004B015C010E94CB056093F6027093F70250
:100EA0008093F8029093F90281E00E94DE05C82F3A
:100EB00080912D0361E8813011F061E081E00E94B2
:100EC0000607B5018827992786E00E94060799271B
:100ED0008B2D7A2D692D87E00E940607682D88E00A
:100EE0000E9406070E94CB056093FA027093FB02F2
:100EF0008093FC029093FD0264E670E080E090E055
:100F00000E94990586E00E94DE05C82E87E00E94B7
:100F1000DE05D82FD12CDC2CCC24F12CE12CFE2C9E
:100F2000ED2CDC2CCC2488E00E94DE052D2F30E057
:100F3000322F222790E0B0E0A0E0820F931FA11D86
:100F4000B11D8C0D9D1DAE1DBF1DD1E088169906EB
:100F5000AA06BB0649F48092160390921703A0924A
:100F60001803B0921903D0E06C2F81E00E940607AD
:100F700064E670E080E090E00E9499058D2FDF919B
:100F8000CF91FF90EF90DF90CF90BF90AF909F9068
:100F90008F90089580912D03882321F18DE10E9487
:100FA000DE059091F202682F91111AC064608DE104
:100FB0000E9406078DE10E94DE059091F20220E07A
:100FC000911101C022E090E002C0959587952A9585
:100FD000E2F780FF09C081E08093240380E0089558
:100FE0006160E5CF8FEF089581E00895CF9381E0B0
:100FF0000E94DE05C82F80912D03813061F461E8E5
:101000000E9406076FEF82E10E9406076C2F81E0C5
:10101000CF910C94060761E081E00E9406076FEF14
:101020008EE30E9406076FEF8FE3EECFCF93DF933F
:10103000C82F81E00E94DE05D82FC0933203809133
:101040002D038130F9F461E80E94060760913203B4
:1010500082E20E94060782E20E94DE05C1E09091D2
:101060003203981301C0C0E06D2F81E00E94060793
:101070006AEF70E080E090E00E9499058C2FDF918C
:10108000CF91089561E081E00E94060760913203EC
:1010900082E30E94060782E3DFCFFC01019000207B
:1010A000E9F73197AF01481B590BBC0185E592E088
:1010B0000C94E1038BEB91E00C944D08CF93DF93FC
:1010C0000E94CE04EC010E945A088C0F9D1FDF91F4
:1010D000CF9108951F93CF93DF93C0E01AE068EC9F
:1010E00070E080E090E00E94990560E081E00E945D
:1010F000060760E881E00E94060761E881E00E943F
:101100000607C19FB00111246E5C7F4F072E000CB3
:10111000880B990B0E94990581E00E94DE05D82F6B
:101120008AE297E00E945E08C0FD03C0C43159F016
:10113000CF5FD138A1F681E080932D0380E0DF916D
:10114000CF911F910895C0E0F4CFCF93DF93C82FC4
:1011500081E00E94DE05D82F80912D03811102C00D
:101160000E946A0861E881E00E9406076C2F89E30B
:101170000E94060764E670E080E090E00E94990516
:1011800089E30E94DE05C81311C0C093F302C0E0DA
:101190006D2F81E00E94060764E670E080E090E039
:1011A0000E9499058C2FDF91CF910895C1E0F0CF77
:1011B000FF920F931F93CF93DF938C0181E00E94E6
:1011C000DE05F82E80912D03D2E0811103C00E942C
:1011D0006A08D82F61E881E00E9406078DE10E942D
:1011E000DE05C82F9091F202911142C0083011051E
:1011F000C9F109301105C9F1CF730E941C06809115
:1012000015038B3011F4C16002C08C30E1F36C2FF8
:101210008DE10E94060764E670E080E090E00E94A5
:1012200099058DE10E94DE059091F202282F30E0B1
:10123000911144C096E0359527959A95E1F70830CD
:10124000110589F109301105A9F1232B41F4909181
:1012500015039B3009F057C08095D82FD170D1115C
:1012600057C024C0CF77C064D2CFCF7BC068CFCF68
:10127000CF7008301105D1F30930110591F0C06726
:101280000E941C06809115038B50823008F0BFCF5E
:1012900086E20E94DE05682F686086E20E940607EB
:1012A000B6CFC069B4CF21303105C9F6009313031E
:1012B000D0E02EC02230310591F6F8CF84E035958C
:1012C00027958A95E1F70830110599F00930110545
:1012D000A9F02730310519F686E20E94DE059091CB
:1012E00015039B3031F583FBDD27D0F981E0D8274A
:1012F000B6CF2830310509F0B2CFD8CF293031052B
:1013000009F0ADCFD3CF9C3089F680FDCFCFD1E0AF
:101310006F2D81E00E94060764E670E080E090E0B7
:101320000E9499058D2FDF91CF911F910F91FF9012
:1013300008959C3009F0BACF83FDB8CFE8CFEF9283
:10134000FF920F931F93CF93DF93182F81E00E949A
:10135000DE05082F80912D03DAEFD10F81111AC01D
:101360000E946A08C82F602F81E00E94060764E689
:1013700070E080E090E00E949905D73018F4109357
:101380001503C0E08C2FDF91CF911F910F91FF903B
:10139000EF90089561E881E00E9406078EE10E94C7
:1013A000DE05C82FD73008F053C0ED2FF0E0E5522E
:1013B000F64F0C948520E209260A2A0A2D0A300AE3
:1013C000330A920ACF76C0660E94CA070E94CA07F3
:1013D00065E081E30E9406076CE087E30E94060750
:1013E000F12C8091F2028111ABC0C4606F2D8DE1B0
:1013F0000E9406076C2F8EE10E94060764E670E0EB
:1014000080E090E00E949905F090F202F1109FC0F8
:101410008DE10E94DE05C82F8EE10E94DE05282F97
:10142000D73008F0C9C0ED2FF0E0E15EF54F90E055
:1014300034E0959587953A95E1F70C948520B20AAA
:10144000BC0AC10AC50AC80ACB0AD90ACF77C06745
:10145000F12C2EC0CF78C068FBCFCF79C069F8CF10
:10146000CF7AC06AF5CFCF7BC06B80912D038823E4
:1014700069F08091F20281114FC08DE10E94DE057A
:1014800082958695869583708093130380911303CC
:101490008730F1F68091F202811147C08DE10E9400
:1014A000DE05F82E6894F0F86F2D8DE10E94060796
:1014B00080912D03882339F18DE10E94DE05909102
:1014C0001503963049F09091F202682F911136C0C1
:1014D0006B7F8DE10E9406078091F202E12C811161
:1014E00002C052E0E52E80911503863061F08DE157
:1014F0000E94DE0590E002C095958795EA94E2F798
:1015000080FF1092240363E081E30E9406076AE0F3
:1015100087E30E94060765CF8DE10E94DE05829574
:101520008F70B2CFCF7CC06CB1CF86E20E94DE0557
:10153000682F686086E20E9406078ACF6E7FC9CF57
:1015400086E20E94DE05682F646086E251CF86E263
:101550000E94DE05C82F8EE10E94DE052C2F43E09D
:10156000F42E5ECF069779F422FF0DC080912403FC
:10157000813049F4C0E0F7CE079729F422FF03C079
:10158000F9CF0897D9F3C2E0EECE0997E1F7F6CF8D
:101590000A97C9F7F3CF0B97B1F722FFF4CF8C2F3F
:1015A00090E002C095958795FA94E2F780FFEBCF23
:1015B000E1CF0C9741F7F1CFC1E0D5CE1F93CF9388
:1015C000DF93C82F81E00E94DE05182F80912D0344
:1015D000D2E0811103C00E946A08D82F61E881E03F
:1015E0000E9406078DE10E94DE059091F2029111A2
:1015F0003EC0C230B1F158F5C13081F1682F8DE1A4
:101600000E94060764E670E080E090E00E94990581
:101610008DE10E94DE052091F202213009F023E0E5
:10162000C23009F450C0A0F5C13009F440C0D1E087
:10163000612F81E00E94060764E670E080E090E0A0
:101640000E9499058D2FDF91CF911F910895C3308E
:1016500059F0C43099F6877E8062D0CF8F7C886045
:10166000CDCF877D8061CACF8F7D8861C7CF817FD5
:10167000C23051F020F4C13009F68260BFCFC330D0
:1016800029F0C43061F3BACF8460B8CF8660B6CF9A
:10169000C33031F1C43059F690E002C0959587957A
:1016A0002A95E2F7877099270497B9F40AC090E069
:1016B00002C0959587952A95E2F78770992701973B
:1016C00061F4D0E00AC090E002C0959587952A9514
:1016D000E2F7877099270297A1F3C0931403A8CF6C
:1016E00090E002C0959587952A95E2F78770992733
:1016F000039799F7E6CF8F929F92AF92BF920F9385
:101700001F93CF93DF93CDB7DEB7A1970FB6F894B1
:10171000DEBF0FBECDBF19A2423008F44AE08E01F1
:101720000F5D1F4F842E912CB12CA12CA50194018B
:101730000E94981DE62FB901CA01EA30F4F4E05D79
:10174000D801EE938D01232B242B252B79F790E0E4
:1017500080E0109719F0CD010E944D08A1960FB6B8
:10176000F894DEBF0FBECDBFDF91CF911F910F91D7
:10177000BF90AF909F908F900895E95CE1CFCF929A
:10178000DF92EF92FF92CF93DF936C01990FEE08F7
:10179000FF086A307105D1F44AE0F7FE18C08DE207
:1017A0000E94E904EC0166277727CB016C197D09BB
:1017B0008E099F094AE00E947B0B8C0F9D1FDF91D1
:1017C000CF91FF90EF90DF90CF900895462FC70103
:1017D000B601DF91CF91FF90EF90DF90CF900C9406
:1017E0007B0B462F682F70E090E080E00C947B0B21
:1017F000CF93DF930E94F10BEC010E945A088C0FEB
:101800009D1FDF91CF9108951F93CF93DF93C82F32
:1018100081E00E94DE05D82F80912D03811102C046
:101820000E946A0861E881E00E9406071FEF1C0F12
:101830001B3008F0A6C1E12FF0E0EE5DF34F81E030
:101840000C9485202D0C350C580C5C0C640C680C29
:101850006C0C700C740C780C7C0C0E94DE0A8CE012
:101860000E949F0987E090E007C00E94DE0A8CE09A
:101870000E949F0988E090E00E94D8088DE10E94B4
:10188000DE051B3008F058C0E12FF0E0E35BF34FBA
:1018900090E02091F2020C948520930CB00CC00CC7
:1018A000E30CF50C070D260D450D570D760D950D26
:1018B0000E94DE0A8AE0D4CF0E94DE0A8CE00E94F9
:1018C0009F0989E090E0D8CF0E94DE0A8AE0D0CF5D
:1018D0000E94DE0A8BE0F3CF0E94DE0A89E0C8CFC7
:1018E0000E94DE0A89E0EBCF0E94DE0A88E0E7CFA3
:1018F0000E94DE0A87E0E3CF0E94DE0A8CE00E94AD
:101900009F0987E090E00E94D80884E30E94A50820
:1019100081E197E00E94CE0460E170E08091F302E3
:101920000E94F80BABCF211109C0E3E09595879594
:10193000EA95E1F7019731F011E037C09595879569
:10194000C997D1F78EE10E94DE0590E064E095959D
:1019500087956A95E1F711E00C9739F510E025C0FD
:10196000211108C053E0959587955A95E1F709979D
:1019700019F7E8CF9595879581349105E9F6E2CF7F
:1019800021111BC033E0959587953A95E1F70197B2
:1019900099F68EE10E94DE0590E014E0959587951A
:1019A0001A95E1F711E00A97C9F28091F4020E94BA
:1019B000A508112309F4E2C0C1C095958795C99780
:1019C00009F0BACFE6CF211109C0B3E0959587950C
:1019D000BA95E1F7419709F0AFCFB4CF95958795C8
:1019E0008934910509F0A8CFADCF211109C0F3E0EA
:1019F00095958795FA95E1F7099709F09DCFC9CF9D
:101A0000959587958134910509F096CFC2CF211124
:101A100016C073E0959587957A95E1F7419709F09F
:101A20008BCF8EE10E94DE0590E054E0959587957E
:101A30005A95E1F711E00B9709F0B7CF8FCF959545
:101A400087958934910509F077CFEBCF211116C026
:101A500043E0959587954A95E1F7099709F06CCF92
:101A60008EE10E94DE0590E024E0959587952A9509
:101A7000E1F711E0099709F098CF70CF9595879518
:101A80008134910509F058CFEBCF211109C013E043
:101A9000959587951A95E1F7419709F04DCFE0CFDD
:101AA000959587958934910509F046CFD9CF2111B5
:101AB00016C0A3E095958795AA95E1F7419709F09F
:101AC0003BCF8EE10E94DE0590E0E4E0959587959E
:101AD000EA95E1F711E0089709F067CF3FCF9595B8
:101AE00087958934910509F027CFEBCF211116C0D6
:101AF00073E0959587957A95E1F7419709F01CCFAA
:101B00008EE10E94DE0590E054E0959587955A9508
:101B1000E1F711E0079709F048CF20CF9595879519
:101B20008934910509F008CFEBCF211117C043E0AC
:101B3000959587954A95E1F70197A1F011E06D2FF2
:101B400081E00E94060764E670E080E090E00E9479
:101B50009905812FDF91CF911F91089595958795D4
:101B6000C99761F78EE10E94DE0590E024E095952B
:101B700087952A95E1F70C9709F710E0C0930603C3
:101B8000DECF1FEFDCCFCF93DF938DEB91E00E9490
:101B90004D08EC010E945A088C0F9D1FDF91CF91D8
:101BA0000895CF92DF92EF92FF920E94CB05AB0196
:101BB000BC018091500490915104A0915204B091C5
:101BC000530484179507A607B70708F062C08093EF
:101BD0004C0490934D04A0934E04B0934F0440EAFC
:101BE0005CE860E070E040934804509349046093DF
:101BF0004A0470934B0480589141A94CBF4F809385
:101C0000500490935104A0935204B093530487E579
:101C100096E00E945E0886E496E00E94CE04609101
:101C20004C0470914D0480914E0490914F044AE011
:101C30000E947B0B86E396E00E94CE0460915004E4
:101C40007091510480915204909153044AE00E9493
:101C50007B0B83E296E00E94CE04C0904804D090B3
:101C60004904E0904A04F0904B044AE0C701B601F1
:101C7000F7FE0BC08DE20E94E90466277727CB01AF
:101C80006C197D098E099F094AE00E947B0B0E9416
:101C90005A08609148047091490480914A049091D7
:101CA0004B04FF90EF90DF90CF9008950F931F9318
:101CB000CF93DF938AE592E00E94CE046AE070E061
:101CC000809103010E94F10B0E94C30D80910301DA
:101CD0000E94040CC82F83E492E00E94CE046AE0C4
:101CE00070E08C2FCC0F990B0E94BF0B0E94C30D8C
:101CF00080910301883008F413C196E090934A0262
:101D00008B3009F010C188E292E00E94CE0466E6B2
:101D100076E089ED90E00E943E07C82F880FDD0B2A
:101D200082E092E00E94CE0481E080933C0284E352
:101D3000809300016AE070E0CE010E94BF0B0E9418
:101D4000C30D81E080930F0389EB91E00E94CE04E4
:101D50000E94C30D8091F202CAE58111CDE481E0B9
:101D60000E94DE05D82F80912D0361E8813011F0AB
:101D700061E081E00E94060764E88C2F0E9406075C
:101D800080E10E9421079091F20280910F0391114E
:101D9000F6C0CCE8811101C0CFE06C2F89E00E9431
:101DA0000607C0931A0389E00E94DE05C1E0909106
:101DB0001A03981301C0C0E06D2F81E00E9406074E
:101DC00064E670E080E090E00E94990580EA91E08E
:101DD0000E94CE046AE070E08EE00E94F10B0E9447
:101DE000C30D80E991E00E94CE046AE070E08C2F80
:101DF00090E00E94BF0B0E94C30D0E94F805C82FFF
:101E000082E791E00E94CE046AE070E08C2F90E0BF
:101E10000E94BF0B0E94C30D8EE591E00E94CE048C
:101E200060911F037091200390E080E04AE00E94DF
:101E30007B0B0E94C30D80911F0390912003089794
:101E400009F440C089E391E00E94CE0481E00E9441
:101E5000DE05C82F80912D03813009F095C061E81F
:101E60000E94060760E080E20E94060768E081E2C7
:101E70000E9406076C2F81E00E94060764E670E06E
:101E800080E090E00E9499050E94F805C82F8BE140
:101E900091E00E94CE046AE070E08C2F90E00E94F6
:101EA000BF0B0E94C30D87E091E00E94CE046091B9
:101EB0001F037091200390E080E04AE00E947B0BBA
:101EC0000E94C30DC1E0C09323038AEF90E00E94FB
:101ED000CE046AE070E081E00E94F10B81EF90E0B7
:101EE0000E94CE046AE070E090E080E00E94BF0BA8
:101EF0000E94C30D80913C02882331F08DEB90E06D
:101F00000E94CE04C0930D0385EA90E00E94CE04A7
:101F100088E690E0DF91CF911F910F910C94CE0451
:101F200083E080934A026091560470915704809137
:101F30005804909159040E943E07C82F809168016F
:101F4000082F10E0863090F083EF91E00E94CE04DD
:101F50006AE070E0C80106970E94BF0B0C2E000CCF
:101F6000DD0B87ED91E00E94CE04E4CE84EE91E09B
:101F70000E94CE046AE070E0C8010496EDCFCEE086
:101F80008111CCE8C06709CF61E081E00E940607BB
:101F900060E085E20E94060768E086E269CFFF9272
:101FA0000F931F93CF93DF9300D000D000D01F92E8
:101FB000CDB7DEB7BC0127E0EEEBF1E0CE01019634
:101FC000DC0101900D922A95E1F7DC0130E020E080
:101FD00004E011E0FB0140815181FA01EC5FFE4F0A
:101FE000F080F3E2FF16E1F0F80101900020E9F73C
:101FF000E550F1404E175F0798F4FC010190002076
:10200000E9F73197E81BF90B2E173F0748F4FD92CB
:102010004F5F5F4FFB01518340832F5F3F4FDACF0C
:10202000280F391FF90110820E942A1D27960FB62A
:10203000F894DEBF0FBECDBFDF91CF911F910F91FE
:10204000FF9008951F93CF93DF938091F5020E9434
:10205000C20361E08091F5020E940E0564E670E023
:1020600080E090E00E949905CFB7F89480915402E7
:10207000811124C0E3EFF6E08491E7E0F7E094916A
:10208000E82FF0E0EE0FFF1FE152F94FA591B49158
:10209000EC91E92321F461E08AE00E940E058AE0D8
:1020A0000E94C2038CB580618CBD8CB580648CBDF0
:1020B0008DE00E94C2038BE00E94C2038091540213
:1020C0008F5F80935402CFBF8CB58F7D8CBD8CB554
:1020D0008C7F81608CBD8DB581608DBD8CB5837F1B
:1020E0008CBD64E670E080E090E00E94990582E497
:1020F0000E94DE05823209F07FC08BEB96E00E94E1
:102100005E081092F2028091F202813041F58FE672
:1021100096E00E945E0860E089E00E9406078BE37B
:102120000E94DE05682F60648BE30E9406078BE344
:102130000E94DE0585FDFBCF60E070E089ED90E058
:102140000E943E078BE30E94DE05682F60648BE3EC
:102150000E9406078BE30E94DE0585FDFBCF8BE125
:102160000E9421070E946A08182FD0912D03D130B8
:1021700009F056C08091F202CDE1882311F0D2E03F
:10218000CEE18C2F0E94DE059091F202682F911112
:1021900045C062608C2F0E9406078C2F0E94DE05CE
:1021A00090E002C095958795DA95E2F780FF03C02D
:1021B00081E0809326030E94F8058091F4020E943A
:1021C000A50880912D03882329F089E30E94DE056C
:1021D0008093F3028091F3028093F4020E94CB0576
:1021E000611571058105910511F00E94211D812F56
:1021F000DF91CF911F91089582E40E94DE05823124
:1022000041F481EA96E00E945E0881E08093F20248
:102210007ACF88E896E00E945E0875CF6460BACFF6
:1022200080E30E94DE05682F606180E30E9406075C
:1022300080E30E94DE0584FDBBCFBDCF1F920F92CD
:102240000FB60F9211242F933F934F935F936F9389
:102250007F938F939F93AF93BF93EF93FF9385E506
:1022600092E00E945F04FF91EF91BF91AF919F9127
:102270008F917F916F915F914F913F912F910F902F
:102280000FBE0F901F9018951F920F920FB60F92CE
:1022900011242F938F939F93EF93FF93E091650207
:1022A000F09166028081E0916B02F0916C0282FDF8
:1022B0001BC0908180916E028F5F8F7320916F029F
:1022C000821741F0E0916E02F0E0EB5AFD4F958FDE
:1022D00080936E02FF91EF919F918F912F910F90BC
:1022E0000FBE0F901F9018958081F4CF1F920F9210
:1022F0000FB60F9211242F933F938F939F93AF9319
:10230000BF9380913E0290913F02A0914002B09114
:10231000410230913D0223E0230F2D3758F50196FD
:10232000A11DB11D20933D0280933E0290933F0278
:10233000A0934002B09341028091420290914302E7
:10234000A0914402B09145020196A11DB11D809358
:10235000420290934302A0934402B0934502BF917E
:10236000AF919F918F913F912F910F900FBE0F9042
:102370001F90189526E8230F0296A11DB11DD2CFFC
:102380000F931F93CF93DF93E5E5F2E01382128260
:1023900088EE93E0A0E0B0E084839583A683B783C2
:1023A00081E791E09183808385EC90E09587848735
:1023B00084EC90E09787868780EC90E0918B808B0F
:1023C00081EC90E0938B828B82EC90E0958B848BF8
:1023D00086EC90E0978B868B118E128E138E148E66
:1023E000C2EFD2E08AE08B8397E099A381E08AA3D1
:1023F0009BA340E050EC64EE70E04CA35DA36EA3A1
:102400007FA31AAA1CAA1BAE9FE098A71EAA1FAA08
:1024100018AE92E19A831B8E1E8A8F8B188E89E0EC
:102420008D8B1D8E109247040E94CB0560934C0447
:1024300070934D0480934E0490934F0400EA1CE87F
:1024400020E030E0009348041093490420934A04AC
:1024500030934B0460587141894C9F4F60935004F6
:102460007093510480935204909353041F8E86E41A
:1024700093E0909334038093330390933C038093D1
:102480003B0381E494E0909344038093430319AEAB
:1024900088AD80933503E091680184E0E89FF00106
:1024A0001124E158FE4F80819181A281B3818093F4
:1024B000560490935704A0935804B0935904DF91A5
:1024C000CF911F910F910895CF93DF93CDB7DEB7D2
:1024D00069970FB6F894DEBF0FBECDBF789484B570
:1024E000826084BD84B5816084BD85B5826085BD10
:1024F00085B5816085BD80916E00816080936E009E
:10250000109281008091810082608093810080918F
:102510008100816080938100809180008160809340
:1025200080008091B10084608093B1008091B00000
:1025300081608093B00080917A00846080937A00FB
:1025400080917A00826080937A0080917A00816025
:1025500080937A0080917A00806880937A0010924C
:10256000C10068EB7BE080E090E00E94990580E488
:1025700080937C0080917A00806480937A008091BF
:102580007A0086FDFCCF8091780060917900762FEB
:10259000682F072E000C880B990B611571058105BA
:1025A000910511F00E94211DE0916502F0916602F3
:1025B00082E08083E0916102F09162021082E091FA
:1025C0006302F091640283E3808310926D02E091D4
:1025D0006902F0916A0286E08083E0916702F091DF
:1025E0006802808180618083E0916702F0916802D7
:1025F000808188608083E0916702F0916802808129
:1026000080688083E0916702F091680280818F7D0D
:1026100080830E942210082F10E082EC92E00E943A
:10262000CE046AE070E0C8010E94BF0B0E94C30D97
:10263000012B29F481E0809351020E94560E809173
:102640002D03882389F089E30E94DE058093F3023D
:102650008AEA92E00E94CE0460E170E08091F30289
:102660000E94F10B0E94C30D809100018231E1F0C4
:102670000E94A508182F84E992E00E94CE0460E130
:1026800070E0809100010E94F10B0E94C30D8BE766
:1026900092E00E94CE046AE070E0812F110F990B46
:1026A0000E94BF0B0E94C30D85E592E00E94EE04DC
:1026B00068EE73E080E090E00E9499051A8219822A
:1026C000109253021092520285E592E00E943F045C
:1026D000892B99F11A82198285E592E00E943F04C4
:1026E00029813A81892BC1F020353105ACF485E58B
:1026F00092E00E941D0429813A81F901EC5FFE4FAE
:1027000080832F5F3F4F3A83298362E370E080E04C
:1027100090E00E949905E0CF2C5F3E4FD9011C92BA
:1027200086E196E00E94CE0484E091E00E944D088C
:102730000E94C30D81E08093530200915102002357
:1027400009F4CFC0B0905302B110D4C080914F02B1
:10275000909150028C33910511F0892B71F48DEF1B
:1027600095E00E94CE040E94C30D85E592E00E9490
:10277000EE041092500210924F02E6E3F3E088E07C
:10278000DF011D928A95E9F786E493E090933C037C
:1027900080933B0368E08AE00E94060763E28CE0D6
:1027A0000E94060760E08DE00E94060780911503F5
:1027B0008A5065E0833008F068E08FE10E940607E8
:1027C00060E085E20E94060780912D03813061F46C
:1027D0008FEF0E941608182F65E881E00E94060717
:1027E000112381F011E035C08091210390912203E3
:1027F00020910D03211101C004960E941608182F84
:1028000065E0EBCF0E94CB056B017C01B0E1CB0E04
:10281000B7E2DB1EE11CF11C80912D03813009F031
:10282000BBC082E10E94DE05A82EA4FCBEC70E94A8
:10283000CB056C157D058E059F0508F4A2C080911F
:102840002D0361E0813009F461E881E00E94060710
:1028500013E080914F0290915002019690935002A4
:1028600080934F02112311F40C942E1CE12EF12CB5
:102870001330B9F18CEE95E00E94CE046AE070E06E
:10288000C7010E94BF0B0E94C30DE2E0EE16F104E7
:1028900021F50E945A051092510283ED95E00E94A5
:1028A000CE040E94C30D0E942210082F10E088EB76
:1028B00095E00E94CE046AE070E0C8010E94BF0B60
:1028C0000E94C30D012B29F481E0809351020E94E4
:1028D000560E1092500210924F0285E592E00E942F
:1028E000EE0480915302811105C080915202882329
:1028F00009F4E3C41A821982809104018F3209F02D
:10290000DCC480910501803409F0D7C481E995E0E9
:102910000E94CE0482E090E09A8389838EE895E05D
:102920000E94CE0484E091E00E944D080E94C30DF5
:1029300080915202882389F0E981FA81EC5FFE4F91
:102940008081853551F086E795E00E94CE04E981CB
:10295000FA81EC5FFE4F8AE2808389819A81FC01D3
:10296000EC5FFE4F20812F3409F4E8C60CF0D6C38B
:10297000233409F4E5C42D3409F44DC487E893E009
:1029800011C782E10E94DE05A82E61E070E080E0C0
:1029900090E00E94990549CF8FE30E94DE0582FDF9
:1029A0001AC70E94CB056C157D058E059F05A0F307
:1029B00046CF81E08093290303E061E881E00E9433
:1029C0000607BB2009F4AEC180912D03813009F0C8
:1029D0003EC160E08DE00E94060780910D038111E9
:1029E00017C00E94DE058093360314C08FE30E9457
:1029F000DE0582FD2BC70E94CB056C157D058E057B
:102A00009F05A0F302E028C710922903B02EFACF49
:102A10001092360380910D0381115AC10E94DE0588
:102A200080933703807F803109F41AC1803209F422
:102A300017C182E08093290303E08091290381304C
:102A400009F49BC2823009F49AC20E9434060E94A3
:102A50005506053009F0FDCE80914704882309F41E
:102A60006FC10E94D10D6B837C838D839E83009107
:102A70001303C12C24E2D22E24EFE22E27E4F22EFF
:102A8000073081F0C12C34E2D32E34E7E32E38E452
:102A9000F32E083039F0C12C94E2D92E94EFE92EB0
:102AA00098E4F92EB09015032B2C312C61E070E0E6
:102AB0000B2C02C0660F771F0A94E2F7072E000C5A
:102AC000880B990B0E94F71E9B01AC01C701B60150
:102AD0000E944D1E9B01AC0160E070E080E89FE326
:102AE0000E944D1E6B017C0160911F0370912003B9
:102AF0006C5F7F4F90E080E00E94F51E20E030E0A8
:102B000048E850E40E94CA1DA70196010E94E01FF8
:102B10002B013C01073019F401E02CE0B21200E077
:102B2000609124033BEF3603B0011124621973094D
:102B3000675E7F4F660F771F660F771F072E000CAB
:102B4000880B990B0E94F71E4B015C01802F90E0CF
:102B5000880F991FB101681B790B660F771F660FED
:102B6000771F072E000C880B990B0E94F71E9B0104
:102B7000AC01C501B4010E944D1E0E94361E4B01DE
:102B80005C016091140370E06C5F7F4F072E000CB6
:102B9000880B990B0E94F71EA50194010E94E01F6B
:102BA0004B015C0120E030E0A9010E94DB1F20E026
:102BB00030E040E051E4181634F4C501B4010E943D
:102BC000CA1D9B01AC01C701B6010E94E01FA30111
:102BD00092010E94CA1D20E034E244E759E40E94B9
:102BE000E01F27E73EEB4FE75FE30E94CA1D0E940C
:102BF000321F0E94C61E28EE33E040E050E00E94E3
:102C0000981DCA01B9010E94F51E20E030E040E89D
:102C10005FE30E94CA1D0E94C61E70935504609314
:102C200054048B819C81AD81BE81861B970BA109C9
:102C3000B109B7FF85C08AE693E00E94CE040E94E6
:102C4000CB054AE00E947B0B0E945A08CBCD80E363
:102C50000E94DE05867009F4C4CE80912703C3CE9E
:102C600080E00E94DE058093380380E00E94DE054C
:102C7000809339038091290381113BC083E10E9435
:102C8000DE0580933A0390912D03913049F4209111
:102C90000D0390E0222319F19093220380932103E6
:102CA000F12CE12C8091210390912203E816F90682
:102CB000C0F4C0903B03D0903C03CE0CDF1C80E0FE
:102CC0000E94DE05F6018083FFEFEF1AFF0AEACFCC
:102CD000109237031092380310923903CBCF049728
:102CE000DBCF8091370383FF19C081E0809312030B
:102CF00005E080912D03813021F460E08DE00E9499
:102D000006070E94F607002309F497CE033009F462
:102D100094CE053009F491CE12E09BCD10921203AF
:102D200000E0E7CF80912903813019F780912A03D1
:102D300090912B038917E8F68F5F80932A03D9CFF0
:102D40000E94F60780912D0361E8813011F061E067
:102D500081E00E94060787E00E941608811142CD9B
:102D60008091380380933E0380E280933F038091FB
:102D7000360380934003809139038093410382E0BE
:102D800080934203E0914303F0914403809129032F
:102D90008083E0904303F090440389E10E94DE05C4
:102DA000D70111968C9360E88DE00E940607609130
:102DB0003E0380E00E94060760913F0380E00E948E
:102DC00006076091400380E00E940607609141037E
:102DD00080E00E9406076091420380E00E9406079F
:102DE000E0914303F0914403608180E00E94060774
:102DF000E0914303F0914403618180E00E94060763
:102E000088E493E00E945E0888E393E00E945E08F5
:102E10008AE293E00E94CE046AE070E080913E0373
:102E20000E94F80B81E293E00E94CE046AE070E019
:102E3000809140030E94F80B84E193E00E94CE044D
:102E40006AE070E0809141030E94F80B87E093E014
:102E50000E94CE046AE070E0809142030E94F80B69
:102E600089EF92E00E94CE04E0914303F091440385
:102E70006AE070E080810E94F80B82EE92E00E948E
:102E8000CE0480911B036AE070E0082E000C990BC1
:102E90000E94BF0B0E945A088FED92E00E945E08CC
:102EA0000E945A081092290364EF71E080E090E0DC
:102EB0000E94990580E197E290934604809345042F
:102EC0000E94CB056B017C01B0E1CB0EB7E2DB1EAB
:102ED000E11CF11C80912D038130D1F50E94F60791
:102EE00063E881E00E94060782E10E94DE05082F68
:102EF00083FD07C00E94CB056C157D058E059F05DF
:102F000098F303FF37C0809147048823F1F0E090E5
:102F10005404F09055040E94D10D809147048823F9
:102F2000A1F08091480490914904A0914A04B09185
:102F30004B048E199F09A109B1098093480490930D
:102F40004904A0934A04B0934B040E94F60781CC35
:102F500063E081E00E9406078FE30E94DE05082FF0
:102F600083FDCFCF0E94CB056C157D058E059F0597
:102F700098F3C7CF0E94F60735CC14E06ACC15E071
:102F800068CC3AEF883009F4B1C434EF21E011275E
:102F9000809115031F928F938091140390E0049603
:102FA0009F938F932F933F9380911E038F938091D4
:102FB0001D038F9380911B03282F082E000C330BC9
:102FC0003F938F931F930F9385EC91E09F938F9383
:102FD000A4E0EA2EA1E0FA2EFF92EF920E949F2039
:102FE000C7010E944D08809139031F928F938091F1
:102FF00038031F928F93809137031F928F93809194
:1030000036031F928F9384EF91E09F938F93FF92EB
:10301000EF920E949F20C7010E944D0880911E03DD
:103020008F9380911D038F9380911B03282F082E6F
:10303000000C330B3F938F931F930F9385E092E027
:103040009F938F93FF92EF920E949F200FB6F89468
:10305000DEBF0FBECDBFC7010E944D0840911503D2
:103060008091140390E0049620911303273009F413
:1030700049C0283009F048C02AEF30E01F924F9332
:103080009F938F933F932F9383E092E09F938F932F
:1030900084E091E09F938F930E949F2084E091E0D1
:1030A0000E944D088FEF0E94E9048EEF0E94E90410
:1030B00085E592E00E94EE040FB6F894DEBF0FBEE5
:1030C000CDBFF12CE12CE016F1060CF5E0913B03AD
:1030D000F0913C03EE0DFF1D80810E94E90454E64F
:1030E000E516F1045CF4E0913B03F0913C03EE0D36
:1030F000FF1D8081F701EC5FFE4F80838FEFE81AA0
:10310000F80AE1CF2DE7B9CF24EF31E0B7CFF801CE
:10311000EC5FFE4F10820E94C30DDFCB233509F414
:1031200051C0273509F4D6C0203509F027CC1181CC
:1031300084EB810F823048F0812F8F7E883429F014
:1031400084E194E0183709F02DC31093010186E55E
:1031500094E00E94CE04812F0E94E9040E94C30DD6
:10316000009101018091F2029AE5F92E882311F075
:103170008DE4F82E81E00E94DE05E82E80912D037B
:1031800061E8813011F061E081E00E9406070D34B2
:1031900009F4B8C30CF0B1C3083409F4B5C30C3456
:1031A00009F4A6C310E08BE00E942107083709F05C
:1031B00098C280E10E9421071CE864E88F2D0E94DC
:1031C00006079AC22181263409F073C002969A83B9
:1031D0008983CE0101960E94CF0F6B01CB01069728
:1031E000079708F066C08BE695E00E94CE046AE07F
:1031F00070E0C6010E94BF0B0E94C30D8C2D0E947F
:103200009F09182F8AE595E00E94CE046AE070E0DD
:10321000812F90E092C001969A838983CE01019616
:103220000E94CF0F6B019CE0C916D10428F0F4E096
:10323000CF2ED12CE12CF12CC092030186E495E035
:103240000E94CE046AE070E08C2D0E94F10B0E9477
:10325000C30D809103010E94040C182F82E395E0B6
:103260000E94CE046AE070E0812F110F990B0E943A
:10327000BF0B0E94C30D0E94F805182F86E195E050
:103280000E94CE046AE070E0812F90E00E94BF0BA4
:103290000E94C30D84E095E00E94CE0460911F035C
:1032A0007091200390E080E04AE00E947B0B0E9436
:1032B000C30D85E592E00E94EE0480E090E0892B4A
:1032C00009F4FCC90E944B04882309F4F7C90E9441
:1032D0000000F4C901969A838983CE0101960E9469
:1032E000CF0FCB016AE070E00E947120E4E0660F2E
:1032F000771FEA95E1F78B01080F191FC8010197A5
:103300008F3F910510F002E110E08EEE94E00E94F4
:10331000CE0460E170E0C8010E94BF0B0E94C30DA3
:10332000802F0E94A508182F85ED94E00E94CE04FE
:103330006AE070E0812F110F990B0E94BF0BB7CF8D
:103340009C012F5F3F4FD901AC5FBE4F4C91413480
:1033500009F062C14281443409F05EC123812F34F7
:1033600029F524812E34D1F405969A838983CE01E0
:1033700001960E94CF0F8B016F3F710519F014F079
:103380000FEF10E0009302018DEB94E00E94CE0459
:103390006AE070E0802F0E94F10B89CF263431F46F
:1033A0008581863419F41092020183CF0E94CB05E7
:1033B0004B015C0180924B0290924C02A0924D0214
:1033C000B0924E0200914A0280911303412C54E2C4
:1033D000552E54EF652E57E4752E873081F0412C21
:1033E00064E2562E64E7662E68E4762E883039F063
:1033F000412C44E2542E44EF642E48E4742EF090A5
:10340000150381E00E94DE0589870E94CB0510919B
:103410002D03113009F0FDC061E881E00E9406072C
:1034200081E090E002C0880F991FFA94E2F7312CF6
:10343000212C1C821B82A3E0AF839C01990F440BBB
:10344000550B2E8B3F8B488F598F0E94F6070E9499
:10345000CB050E94CB059B01AC012C593F4F4F4F30
:103460005F4F2A873B874C875D8767E881E00E9432
:1034700006070E9474056E877F87888B998B82E18F
:103480000E94DE051886382F3470F32E82FD52C05C
:103490000E94CB052A853B854C855D8562177307A5
:1034A0008407950708F046C00E9474056B017C01F3
:1034B0006E897F89888D998D0E94F71E9B01AC01D2
:1034C000C301B2010E944D1E9B01AC0160E070E09F
:1034D00080E89FE30E944D1E6A8B7B8B8C8B9D8BBB
:1034E000C701B6012E853F8548895989621B730B38
:1034F000840B950B0E94F51E6B017C0120E034E2E9
:1035000044E759E46A897B898C899D890E94E01F80
:1035100020E030E040E753E40E94CA1D9B01AC016B
:10352000C701B6010E94DB1F181694F082E10E94C9
:10353000DE05A9CF0E94CB05F11028C08F818150F4
:103540008F83882309F463C001117FCF00E026C078
:1035500038853111EBCF8091F20233E6F32E8130C2
:1035600011F025E7F22E8BE10E94DE058F0D80938E
:103570001C03280E311C87FD3A944B815C814F5F00
:103580005F4F5C834B8351E05887D0CF82E10E942C
:10359000DE0581700150B9F5082F10E0C1016B8183
:1035A0007C810E94712060931C03698581E00E94E8
:1035B00006070E94CB050E94F607011112E00E9447
:1035C000CB056B017C01C0924602D0924702E0928B
:1035D0004802F09249028AEA94E00E94CE04C701B0
:1035E000B601681979098A099B094AE00E947B0B98
:1035F0000E94C30D87EA94E0112311F083EA94E05E
:103600000E94CE0454CE882309F41FCF10E001E0BD
:10361000C5CF00E012E0C9CF3A832983CE010196DD
:103620000E94CF0F6B01CB0104970F9708F456C08F
:1036300084E080936801E0916801E450E0936801C0
:1036400094E0E99FF0011124E158FE4F80819181BF
:10365000A281B3818093560490935704A093580499
:10366000B09359048CE894E00E94CE046AE070E0C4
:10367000C6010E94BF0B0E94C30D60915604709159
:10368000570480915804909159040E943E07182FC6
:1036900082E794E00E94CE046AE070E0812F110F6F
:1036A000990B0E94BF0B0E94C30D8BE694E00E9411
:1036B000CE046091FA027091FB028091FC0290911D
:1036C000FD020091F6021091F7022091F80230916C
:1036D000F902601B710B820B930BE6CDC09268015F
:1036E000AACF083509F069CD106867E88F2D0E94D0
:1036F000060782E10E9421078091F20281111CC01D
:10370000612F89E00E94060710931A0389E00E9446
:10371000DE0511E090911A03981301C010E06E2DA0
:1037200081E00E94060764E670E080E090E00E947D
:1037300099058EE394E068CD1067E2CF81818E34E5
:1037400009F588EF93E00E94CE040E942210082F12
:1037500010E08DED93E00E94CE046AE070E0C801B5
:103760000E94BF0B0E94C30D012B29F481E08093BE
:1037700051020E94560E64EF71E080E090E00E94DA
:10378000990597CD863461F48281863449F48FEBB4
:1037900093E00E94CE040E945A051092510289CDF6
:1037A00089E993E00E94CE0484CD0E94CB0560930A
:1037B000F6027093F7028093F8029093F9020E9448
:1037C000CB056C157D058E059F0550F485E20E94A2
:1037D000DE058823A1F380E00E94DE0580932703A5
:1037E0008091270390912303891739F0882329F0CA
:1037F00080910D03882309F422C80E94CB056B0138
:103800007C01A0E1CA0EA7E2DA1EE11CF11C809146
:103810002D03813009F0EAC882E10E94DE05A82E5E
:1038200086FD09C00E94CB056C157D058E059F05A0
:1038300098F302E0C2C88CE10E94DE0586FF02C058
:10384000A5FCB7C810922903B02EF3CF81FDDCC8C8
:1038500081E08093290303E061E0B0C88091120306
:10386000882381F084EA95E00E94CE046AE070E04B
:10387000809138030E94F10B0E94C30D85E592E010
:103880000E94EE0481E08093520200912103109186
:1038900022030E9434060E945506809139031F922C
:1038A0008F93809138031F928F93809137031F92DB
:1038B0008F93809136031F928F938FE092E09F93B6
:1038C0008F9384E091E09F938F930E949F2084E0E8
:1038D00091E00E944D08809113030FB6F894DEBF6B
:1038E0000FBECDBF873009F04CCB3DE720E04FCB7A
:1038F0008BE00E94210713E060CC083519F00837EF
:1039000009F050CC1FE04FCC17E04DCC8F929F9226
:10391000AF92BF92CF92DF92EF92FF92CF93DF935D
:10392000EC01688179818A819B816115710581052E
:10393000910521F464E279ED8BE597E02DE133EF19
:1039400041E050E00E94661D49015A019B01AC0113
:10395000A7EAB1E40E94851D6B017C01ACEEB4EFD7
:10396000A50194010E94931DC60ED71EE81EF91EE4
:10397000F7FE06C081E0C81AD108E10880E8F80A1D
:10398000C882D982EA82FB82C701B6019F77DF91A4
:10399000CF91FF90EF90DF90CF90BF90AF909F902E
:1039A0008F9008958F929F92AF92BF92CF92DF92A5
:1039B000EF92FF926091690170916A0180916B01B1
:1039C00090916C01611571058105910521F464E206
:1039D00079ED8BE597E02DE133EF41E050E00E9477
:1039E000661D49015A019B01AC01A7EAB1E40E949E
:1039F000851D6B017C01ACEEB4EFA50194010E9422
:103A0000931DC60ED71EE81EF91EF7FE06C081E004
:103A1000C81AD108E10880E8F80AC0926901D0927A
:103A20006A01E0926B01F0926C01C701B6019F77C9
:103A3000FF90EF90DF90CF90BF90AF909F908F90CE
:103A400008956093690170936A0180936B0190936C
:103A50006C0108951F93FC0199278827BC01E89405
:103A600011911032E9F3193010F01E30C8F31B32F7
:103A700051F01D3249F4689406C00E94511D610F37
:103A8000711D811D911D119110531A30B0F33EF438
:103A900090958095709561957F4F8F4F9F4F1F91A7
:103AA0000895592F482F372F262F660F771F881F0D
:103AB000991F660F771F881F991F620F731F841F3E
:103AC000951F660F771F881F991F0895052E97FB76
:103AD0001EF400940E947D1D57FD07D00E94981D82
:103AE00007FC03D04EF40C947D1D50954095309505
:103AF00021953F4F4F4F5F4F08959095809570955A
:103B000061957F4F8F4F9F4F08950E94BA1DA59FCB
:103B1000900DB49F900DA49F800D911D11240895C8
:103B2000B7FF0C94851D0E94851D821B930B089581
:103B3000A1E21A2EAA1BBB1BFD010DC0AA1FBB1FB1
:103B4000EE1FFF1FA217B307E407F50720F0A21B23
:103B5000B30BE40BF50B661F771F881F991F1A9490
:103B600069F760957095809590959B01AC01BD01BA
:103B7000CF010895A29FB001B39FC001A39F700D14
:103B8000811D1124911DB29F700D811D1124911D65
:103B900008955058BB27AA270E94E11D0C94891F45
:103BA0000E947B1F38F00E94821F20F039F49F3F53
:103BB00019F426F40C94781F0EF4E095E7FB0C94AE
:103BC000491FE92F0E949A1F58F3BA17620773071B
:103BD0008407950720F079F4A6F50C94D41F0EF411
:103BE000E0950B2EBA2FA02D0B01B90190010C010D
:103BF000CA01A0011124FF27591B99F0593F50F425
:103C0000503E68F11A16F040A22F232F342F44277C
:103C1000585FF3CF469537952795A795F040539574
:103C2000C9F77EF41F16BA0B620B730B840BBAF044
:103C30009150A1F0FF0FBB1F661F771F881FC2F7AF
:103C40000EC0BA0F621F731F841F48F487957795C3
:103C50006795B795F7959E3F08F0B0CF9395880F7D
:103C600008F09927EE0F9795879508950E94BC1F3D
:103C700090F09F3748F4911116F40C94D51F60E032
:103C800070E080E89FE3089526F01B16611D711D0A
:103C9000811D0C944F1F0C946A1F0E94611E0C948E
:103CA000891F0E94821F58F00E947B1F40F029F458
:103CB0005F3F29F00C94491F51110C94D51F0C94AF
:103CC000781F0E949A1F68F39923B1F3552391F34B
:103CD000951B550BBB27AA2762177307840738F07B
:103CE0009F5F5F4F220F331F441FAA1FA9F335D0D8
:103CF0000E2E3AF0E0E832D091505040E695001C8C
:103D0000CAF72BD0FE2F29D0660F771F881FBB1F45
:103D1000261737074807AB07B0E809F0BB0B802D23
:103D2000BF01FF2793585F4F3AF09E3F510578F04F
:103D30000C94491F0C94D51F5F3FE4F3983ED4F3D5
:103D4000869577956795B795F7959F5FC9F7880F23
:103D5000911D9695879597F90895E1E0660F771F75
:103D6000881FBB1F621773078407BA0720F0621B06
:103D7000730B840BBA0BEE1F88F7E09508950E9431
:103D8000C61E6894B1110C94D51F08950E94A21FFD
:103D900088F09F5798F0B92F9927B751B0F0E1F00C
:103DA000660F771F881F991F1AF0BA95C9F714C0BC
:103DB000B13091F00E94D41FB1E008950C94D41F4B
:103DC000672F782F8827B85F39F0B93FCCF38695F5
:103DD00077956795B395D9F73EF490958095709552
:103DE00061957F4F8F4F9F4F0895E89409C097FBCF
:103DF0003EF490958095709561957F4F8F4F9F4FC2
:103E00009923A9F0F92F96E9BB279395F695879505
:103E100077956795B795F111F8CFFAF4BB0F11F4C8
:103E200060FF1BC06F5F7F4F8F4F9F4F16C088236F
:103E300011F096E911C0772321F09EE8872F762FA5
:103E400005C0662371F096E8862F70E060E02AF0E6
:103E50009A95660F771F881FDAF7880F96958795D2
:103E600097F908950E94BC1F90F09F3748F4911174
:103E700016F00C94D51F60E070E080E89FEB089589
:103E800026F41B16611D711D811D0C944F1F0C948F
:103E90006A1F97F99F6780E870E060E008958823C3
:103EA00071F4772321F09850872B762F07C0662373
:103EB00011F499270DC09051862B70E060E02AF034
:103EC0009A95660F771F881FDAF7880F9695879562
:103ED00097F908959F3F31F0915020F48795779599
:103EE0006795B795880F911D9695879597F90895D1
:103EF0009FEF80EC089500240A9416161706180602
:103F00000906089500240A941216130614060506DD
:103F10000895092E0394000C11F4882352F0BB0F6E
:103F200040F4BF2B11F460FF04C06F5F7F4F8F4FD1
:103F30009F4F089557FD9058440F551F59F05F3F0C
:103F400071F04795880F97FB991F61F09F3F79F0BB
:103F500087950895121613061406551FF2CF46953D
:103F6000F1DF08C0161617061806991FF1CF8695BF
:103F700071056105089408950E94A21FA0F0BEE794
:103F8000B91788F4BB279F3860F41616B11D672F48
:103F9000782F8827985FF7CF869577956795B11D1D
:103FA00093959639C8F30895E894BB276627772739
:103FB000CB0197F908950E944D2008F48FEF0895E2
:103FC0000E94F31F0C94891F0E947B1F38F00E94EF
:103FD000821F20F0952311F00C94491F0C94781F38
:103FE00011240C94D51F0E949A1F70F3959FC1F362
:103FF000950F50E0551F629FF001729FBB27F00D97
:10400000B11D639FAA27F00DB11DAA1F649F6627EB
:10401000B00DA11D661F829F2227B00DA11D621F3A
:10402000739FB00DA11D621F839FA00D611D221FF4
:10403000749F3327A00D611D231F849F600D211DD8
:10404000822F762F6A2F11249F5750409AF0F1F05B
:1040500088234AF0EE0FFF1FBB1F661F771F881FC4
:1040600091505040A9F79E3F510580F00C94491F94
:104070000C94D51F5F3FE4F3983ED4F38695779573
:104080006795B795F795E7959F5FC1F7FE2B880F6A
:10409000911D9695879597F90895990F0008550FEA
:1040A000AA0BE0E8FEEF16161706E807F907C0F0BE
:1040B00012161306E407F50798F0621B730B840BC6
:1040C000950B39F40A2661F0232B242B252B21F4A0
:1040D00008950A2609F4A140A6958FEF811D811D40
:1040E000089597FB072E16F4009407D077FD09D0AA
:1040F0000E948B2007FC05D03EF4909581959F4F40
:104100000895709561957F4F0895EE0FFF1F0590FC
:10411000F491E02D0994AA1BBB1B51E107C0AA1F13
:10412000BB1FA617B70710F0A61BB70B881F991F58
:104130005A95A9F780959095BC01CD010895AEE000
:10414000B0E0E5EAF0E20C944E230D891E8986E08A
:104150008C831A8309838FEF9FE79E838D83AE0143
:10416000475E5F4F6F89788DCE0101960E94C22015
:104170002F813885020F131FF80110822E96E4E07C
:104180000C946A23ABE0B0E0E8ECF0E20C9440233E
:104190007C013B018A01FC0117821682838181FF29
:1041A000C8C1CE0101965C01F7019381F30193FD33
:1041B000859193FF81913F01882309F453C1853292
:1041C00039F493FD859193FF81913F01853229F464
:1041D000B70190E00E94B222E7CF912C212C312C24
:1041E000FFE1F31538F08B3211F190F4803209F1D0
:1041F000833229F137FC3CC020ED280F2A3050F5DE
:1042000036FE20C08AE0989E200D1124922E06C012
:104210008D3291F0803371F7689430F8F30193FD9B
:10422000859193FF81913F018111DACF21C068947C
:1042300031F8689432F8F2CF689433F8EFCF68948D
:1042400034F8ECCFEAE02E9E200D1124222E689443
:1042500035F8E4CF8E3229F436FC04C1689436F880
:10426000DDCF8C3619F4689437F8D8CF8836B1F2A0
:10427000982F9F7D95549330E0F08336A1F18337DA
:10428000C1F1833509F063C02801F2E04F0E511CE3
:10429000F801C080D180692D70E036FC02C06FEF5C
:1042A0007FEFC6010E949C224C01689437F882017E
:1042B0000AC00C5F1F4FFFE3F98388248394912C7D
:1042C0006501E89437F833FE2DC0522C8114910417
:1042D00071F5552009F468CFB70180E290E00E94A3
:1042E000B2225A94F6CFF801808189830E5F1F4F66
:1042F000E4CF2801F2E04F0E511CF801C080D180BC
:10430000692D70E036FC02C06FEF7FEFC6010E949E
:10431000A7224C018201D5CFB70180E290E00E9434
:10432000B2222A942814190409F0B0F7CECFF6016E
:1043300037FC859137FE81916F01B70190E00E94B3
:10434000B22251105A94F1E08F1A9108BFCF8436EF
:1043500019F0893609F077C0F80137FE6BC060812B
:104360007181828193810C5F1F4FF32DFF763F2E69
:1043700097FF09C090958095709561957F4F8F4FFD
:104380009F4F689437F82AE030E0A5010E94E222AE
:10439000C82ECA188C2C432C36FE0CC0E89440F86A
:1043A000C91440F434FE05C032FC03C0F32DFE7E78
:1043B0004F2E892C44FE95C0FE01EC0DF11D80812D
:1043C000803309F087C0242D297E422E842D8870E9
:1043D000582E43FC95C040FE8FC09C2C821418F4CC
:1043E0002C0C922C981844FE91C0B70180E390E009
:1043F0000E94B22242FE09C088E790E041FE02C05E
:1044000088E590E0B7010E94B222C91408F48AC07E
:10441000CA94D12C9FEFC91AD90ACA0CDB1CF60129
:1044200082916F01B70190E00E94B222AC14BD04EA
:10443000B1F74FCF60817181072E000C880B990B6B
:104440000E5F1F4F92CFD32CE894D4F82AE030E0CF
:10445000853739F1232D297FD22E8F3601F148F48B
:104460008835A9F0F701868197812B96E2E10C94BB
:104470005C23803749F08837A9F7D4FE02C06894DE
:10448000D2F820E130E00DC06894D4F8F6CF34FEC5
:1044900003C0822F8660D82E20E132E002C028E0DF
:1044A00030E0F801D7FE0FC0608171818281938175
:1044B0000C5F1F4FA5010E94E222C82ECA183D2C96
:1044C000E89437F867CF6081718190E080E00E5FFB
:1044D0001F4FF0CF42FC02C0839478CF8394839423
:1044E00075CF842D867809F471CFF6CFB70180E2BD
:1044F00090E00E94B22283948214C0F3512C73CFB7
:10450000522C5818821408F46ECFF8CF842D867878
:1045100009F47BCF8BE241FE80E247FC8DE2B701DC
:1045200090E071CFB70180E390E00E94B2229A94AC
:104530006CCF8FEF9FEF99CFFC01059061507040D9
:104540000110D8F7809590958E0F9F1F0895FC015C
:104550006150704001900110D8F7809590958E0FB2
:104560009F1F08950F931F93CF93DF93182F092F49
:10457000EB018B8181FD09C01FEF0FEF812F902F81
:10458000DF91CF911F910F91089582FF14C02E816A
:104590003F818C819D81281739073CF4E881F9819E
:1045A000CF0101969983888310838E819F81019624
:1045B0009F838E83E3CFE885F985812F0995892B29
:1045C000A1F3DACFFA01AA27283051F1203181F185
:1045D000E8946F936E7F6E5F7F4F8F4F9F4FAF4F0B
:1045E000B1E03ED0B4E03CD0670F781F891F9A1F1E
:1045F000A11D680F791F8A1F911DA11D6A0F711DD2
:10460000811D911DA11D20D009F468943F912AE0DD
:10461000269F11243019305D3193DEF6CF010895C5
:10462000462F4770405D4193B3E00FD0C9F7F6CFF6
:10463000462F4F70405D4A3318F0495D31FD4052BE
:10464000419302D0A9F7EACFB4E0A6959795879554
:1046500077956795BA95C9F7009761057105089533
:104660009B01AC010A2E06945795479537952795DF
:10467000BA95C9F7620F731F841F951FA01D089577
:104680002F923F924F925F926F927F928F929F9262
:10469000AF92BF92CF92DF92EF92FF920F931F9350
:1046A000CF93DF93CDB7DEB7CA1BDB0B0FB6F89401
:1046B000DEBF0FBECDBF09942A88398848885F8441
:1046C0006E847D848C849B84AA84B984C884DF80B2
:1046D000EE80FD800C811B81AA81B981CE0FD11D96
:1046E0000FB6F894DEBF0FBECDBFED010895F8946C
:0246F000FFCFFA
:1046F200127803012A2A2A2A2A2A2A2A2A2A2A2A32
:104702002A2A2A2A000000000000000000000000FF
:104712000000000000000000000000000000000097
:104722000000000000000000000000000000000087
:104732000000000000000000000000000000000077
:104742000000000000000000000000000000000067
:104752000000000000000000060100000000000050
:10476200008104E1030E04EE043F041D043104CC75
:10477200CCD70000E0D70033F3D7006606D8009903
:1047820019D800CC2CD800CC4CD8000060D800330B
:1047920073D8006686D8009999D800CCACD80000AE
:1047A200C0D8000000D9006606D9000D0A002A2AE6
:1047B2002A2A2A2A00206C656E3D256420534E5217
:1047C2003D25642052535349706B743D2564204249
:1047D200573D25642043523D342F25642053463DE6
:1047E20025640A005E7025642C25642C25642C2522
:1047F200642C005E7225642C25642C25640A002D2D
:104802002D2D2072786C6F72612E206473743D2599
:104812006420747970653D30782530325820737287
:0C482200633D2564207365713D25640032
:107E0000112484B714BE81FFF0D085E080938100F7
:107E100082E08093C00088E18093C10086E0809377
:107E2000C20080E18093C4008EE0C9D0259A86E02C
:107E300020E33CEF91E0309385002093840096BBD3
:107E4000B09BFECF1D9AA8958150A9F7CC24DD24C4
:107E500088248394B5E0AB2EA1E19A2EF3E0BF2EE7
:107E6000A2D0813461F49FD0082FAFD0023811F036
:107E7000013811F484E001C083E08DD089C08234E0
:107E800011F484E103C0853419F485E0A6D080C0E4
:107E9000853579F488D0E82EFF2485D0082F10E0AE
:107EA000102F00270E291F29000F111F8ED06801E7
:107EB0006FC0863521F484E090D080E0DECF843638
:107EC00009F040C070D06FD0082F6DD080E0C81688
:107ED00080E7D80618F4F601B7BEE895C0E0D1E017
:107EE00062D089930C17E1F7F0E0CF16F0E7DF06D8
:107EF00018F0F601B7BEE89568D007B600FCFDCFD4
:107F0000A601A0E0B1E02C9130E011968C91119780
:107F100090E0982F8827822B932B1296FA010C0160
:107F200087BEE89511244E5F5F4FF1E0A038BF0790
:107F300051F7F601A7BEE89507B600FCFDCF97BE46
:107F4000E89526C08437B1F42ED02DD0F82E2BD052
:107F50003CD0F601EF2C8F010F5F1F4F84911BD097
:107F6000EA94F801C1F70894C11CD11CFA94CF0C13
:107F7000D11C0EC0853739F428D08EE10CD085E9AC
:107F80000AD08FE07ACF813511F488E018D01DD067
:107F900080E101D065CF982F8091C00085FFFCCF94
:107FA0009093C60008958091C00087FFFCCF809118
:107FB000C00084FD01C0A8958091C6000895E0E648
:107FC000F0E098E1908380830895EDDF803219F02E
:107FD00088E0F5DFFFCF84E1DECF1F93182FE3DFCA
:107FE0001150E9F7F2DF1F91089580E0E8DFEE27F6
:047FF000FF270994CA
:027FFE00040479
:0400000300007E007B
:00000001FF
