:100000000C9458030C9480030C9480030C9480038C
:100010000C9480030C9480030C9480030C94800354
:100020000C9480030C9480030C9480030C94800344
:100030000C9480030C9480030C9480030C94800334
:100040000C94CE110C9480030C949C110C9476119A
:100050000C9480030C9480030C9480030C94800314
:100060000C9418120C94800300000000230026005A
:10007000290000000000250028002B0000000008D7
:10008000000201000003040700000000000000005F
:10009000535831323736204C462F48462063616C26
:1000A0006962726174696F6E0000000000240027AD
:1000B000002A0001020408102040800102040810F8
:1000C00020010204081020040404040404040402AF
:1000D0000202020202030303030303556E72656307
:1000E0006F676E697A6564207472616E73636569A7
:1000F0007665720053583132373620646574656313
:100100007465642C207374617274696E670053584F
:10011000313237322064657465637465642C2073F2
:1001200074617274696E67005358313237322073CC
:1001300075636365737366756C6C7920636F6E6647
:100140006967757265640A0053657474696E672027
:100150006E6F646520616464723A207374617465C3
:10016000200053657474696E6720506F7765723A2A
:10017000207374617465200053657474696E672020
:100180004368616E6E656C3A20737461746520001B
:1001900053657474696E67204D6F64653A2073749B
:1001A000617465200041546D6567613332385020B9
:1001B00064657465637465640A0053696D706C6589
:1001C000204C6F52612070696E672D706F6E6720D2
:1001D00077697468207468652067617465776179F0
:1001E0000A002D2D3E2052535349206572726F72C2
:1001F0000A002D2D3E205253534920002D2D3E2024
:1002000072657472790A0020444946533D3353495C
:1002100046533D20002D2D3E207761697420666F86
:1002200072200023310A002332004F4B32002D2D63
:100230003E20434144200020434144203D20002DE6
:100240002D3E207761697420666F7220004F4B311C
:100250000A002D2D3E2043414420002D2D3E2043F9
:1002600053310A0023230041434B20534E52206F49
:10027000662072637620706B742061742067773A11
:10028000200041434B207061796C6F61643A20001B
:1002900041434B206C656E6774683A200041434BC4
:1002A000206E756D6265723A2000536F75726365DA
:1002B0003A200044657374696E6174696F6E3A2008
:1002C0000023232041434B20726563656976656492
:1002D0003A005374617274696E67202767657441D0
:1002E000434B27002323206E6F7420656E6F756764
:1002F0006820546F4120617420006E6F2041434B91
:10030000007761697420666F722041434B00506F23
:100310006E672072656365697665642066726F6DCD
:10032000206761746577617921004E6F20506F6E90
:10033000672066726F6D20677721005061636B657F
:10034000742073656E742C2073746174652000537F
:10035000656E64696E672050696E67002072656D16
:1003600061696E696E6720546F41206973200020B7
:100370006379636C6520656E64732061742000632B
:1003800079636C6520626567696E73206174200013
:100390002323206E6577206379636C6520666F7216
:1003A00020546F41202323002E2E2E00207F00009A
:1003B0000000000000000000005E000000000000DF
:1003C00006000006000000247E24247E2400002471
:1003D0006B2A2A6B12000046261008646200003463
:1003E0004A4A5420500000000000060000000000AF
:1003F000003C42000000000000423C000000002AD7
:100400001C3E1C2A00000008083E080800000000EE
:10041000403000000000000808080808080000003C
:100420000040000000000040201008040200003CD2
:1004300062524A463C000040447E40400000006456
:10044000525252524C000024424A4A4A3400003868
:100450002422227E2000002E4A4A4A4A3200003CD2
:100460004A4A4A4A300000020262120A0600003478
:100470004A4A4A4A3400000C525252523C00000090
:1004800000240000000000004024000000000000E4
:1004900008142200000000141414141414000000A6
:1004A000002214080000000402520A040000001890
:1004B000245A5A241800007C121212127C00007E6A
:1004C0004A4A4A4A3400003C424242422400007EEA
:1004D000424242423C00007E4A4A4A424200007E7A
:1004E0000A0A0A020200003C424252523400007ED4
:1004F000080808087E000000427E4200000000203C
:10050000404040403E00007E080808146200007E23
:10051000404040404000007E040808047E00007E09
:10052000040810207E00003C424242423C00007E13
:10053000121212120C00003C425262423C00007E39
:10054000121212324C0000244A4A4A4A3000000279
:10055000027E02020000003E404040403E00001E7D
:10056000204040201E00007E201010207E0000420F
:1005700024181824420000020478040200000042FB
:1005800062524A46420000007E42420000000002E1
:1005900004081020400000000042427E00000000DD
:1005A0000004020400008080808080808080000041
:1005B0000002040000000020545454780000007E23
:1005C00048484830000000384444442800000030C7
:1005D0004848487E00000038545454480000000049
:1005E000087C0A0200000018A4A4A47C0000007E7D
:1005F0000808087000000000487A40000000004031
:100600008080887A0000007E1010284400000000DE
:10061000427E40000000007C047804780000007CEA
:10062000040404780000003844444438000000FC0E
:100630004444443800000038444444FC0000007C3A
:10064000080404040000004854545424000000002E
:10065000043E44000000003C4040207C0000001CA0
:100660002040201C0000001C601C601C0000004496
:10067000281028440000001CA0A0A07C000000441A
:1006800064544C44000000000836410000000000A3
:1006900000FF0000000000004136080000000804D0
:1006A00004081010080000000000000000003313D0
:1006B00011241FBECFEFD8E0DEBFCDBF12E0A0E017
:1006C000B1E0ECE7F9E402C005900D92A233B10766
:1006D000D9F725E0A2E3B2E001C01D92A132B20732
:1006E000E1F713E0C8E5D3E004C02197FE010E94C2
:1006F000D721C735D107C9F70E943C140C94BC24FC
:100700000C94000080E008951F93CF93DF9300D0F6
:1007100000D01F92CDB7DEB71C8221E02B839A83D5
:100720008983E091EE04F091EF0411891D82A0917C
:10073000EE04B091EF04E091F204F091F3049E0115
:100740002F5F3F4F50964C916FE08EEE94E00995ED
:100750008D818F5F8D83811750F30F900F900F90D5
:100760000F900F90DF91CF911F910895662329F08C
:100770006A3019F0862F90E008958FEF9FEF08956B
:10078000CF93DF93CDB7DEB72D970FB6F894DEBFCA
:100790000FBECDBFFE01319698E0DF011D929A9504
:1007A000E9F7A091EE04B091EF0451969C91519716
:1007B000891798F41C868D8781E08B87FA87E987F3
:1007C000E091F204F091F3049E01275F3F4F5096B1
:1007D0004C916FE08EEE94E009952D960FB6F8944B
:1007E000DEBF0FBECDBFDF91CF9108959B01DC012D
:1007F0001896ED91FC9141E067E10994AF92BF92A8
:10080000CF92DF92EF92FF920F931F93CF93DF93DC
:100810006C017B018B01040F151FEB015E01AE180B
:10082000BF08C017D10759F06991D601ED91FC912D
:100830000190F081E02DC6010995892B79F7C5015A
:10084000DF91CF911F910F91FF90EF90DF90CF90AC
:10085000BF90AF900895FC01538D448D252F30E05B
:10086000842F90E0821B930B541710F0CF960895BD
:1008700001970895FC01918D828D981761F0A28DEA
:10088000AE0FBF2FB11D5D968C91928D9F5F9F73B0
:10089000928F90E008958FEF9FEF0895FC01918D66
:1008A000828D981731F0828DE80FF11D858D90E0D3
:1008B00008958FEF9FEF0895FC01918D228D892F70
:1008C00090E0805C9F4F821B91098F739927089558
:1008D00089EE92E00E945C0421E0892B09F420E07B
:1008E000822F089580E090E0892B29F00E9468040F
:1008F00081110C9400000895FC01A48DA80FB92F5C
:10090000B11DA35ABF4F2C91848D90E001968F7337
:100910009927848FA689B7892C93A089B1898C9156
:10092000837080648C93938D848D981306C00288A5
:10093000F389E02D80818F7D80830895EF92FF926F
:100940000F931F93CF93DF93EC0181E0888F9B8DF2
:100950008C8D98131AC0E889F989808185FF15C0AC
:100960009FB7F894EE89FF896083E889F9898081CF
:100970008370806480839FBF81E090E0DF91CF919E
:100980001F910F91FF90EF900895F62E0B8D10E0C0
:100990000F5F1F4F0F731127E02E8C8D8E110CC02F
:1009A0000FB607FCFACFE889F989808185FFF5CF7A
:1009B000CE010E947C04F1CFEB8DEC0FFD2FF11DD9
:1009C000E35AFF4FF0829FB7F8940B8FEA89FB89B7
:1009D00080818062CFCFEF92FF920F931F93CF93CE
:1009E000DF938C017B01D0E0C0E0F701EC0FFD1F2D
:1009F0006491662339F0C8010E949E04892B11F08E
:100A00002196F3CFCE01DF91CF911F910F91FF90EF
:100A1000EF900895CF93DF93EC01888D8823B9F090
:100A2000AA89BB89E889F9898C9185FD03C08081F9
:100A300086FD0DC00FB607FCF7CF8C9185FFF2CF76
:100A4000808185FFEDCFCE010E947C04E9CFDF914C
:100A5000CF910895833081F028F4813099F082306D
:100A6000A9F008958730A9F08830C9F08430B1F436
:100A7000809180008F7D03C0809180008F7780936C
:100A80008000089584B58F7784BD089584B58F7DE7
:100A9000FBCF8091B0008F778093B0000895809154
:100AA000B0008F7DF9CF1F93CF93DF93282F30E0D5
:100AB000F901E458FF4F8491F901ED54FF4FD491AF
:100AC000F901E953FF4FC491CC23A9F0162F8111EE
:100AD0000E942A05EC2FF0E0EE0FFF1FEE58FF4FAB
:100AE000A591B4918FB7F894EC91111108C0D095ED
:100AF000DE23DC938FBFDF91CF911F910895DE2B12
:100B0000F8CFCF93DF9390E0FC01ED54FF4F249199
:100B100089539F4FFC0184918823D1F090E0880F86
:100B2000991FFC01E755FF4FA591B491FC01EE58C8
:100B3000FF4FC591D491623071F49FB7F8943C9106
:100B4000822F809583238C93E8812E2B28839FBF4F
:100B5000DF91CF9108958FB7F894EC912E2B2C93C1
:100B60008FBFF6CF3FB7F8948091C6029091C7022D
:100B7000A091C802B091C90226B5A89B05C02F3F1D
:100B800019F00196A11DB11D3FBFBA2FA92F982FB3
:100B90008827BC01CD01620F711D811D911D42E0AE
:100BA000660F771F881F991F4A95D1F708958F9276
:100BB0009F92AF92BF92CF92DF92EF92FF926B0122
:100BC0007C010E94B2054B015C01C114D104E10417
:100BD000F104B9F00E94B205681979098A099B09E4
:100BE000683E73408105910580F321E0C21AD10867
:100BF000E108F10888EE880E83E0981EA11CB11C64
:100C0000E4CFFF90EF90DF90CF90BF90AF909F9098
:100C10008F9008952FB7F8946091C2027091C3022B
:100C20008091C4029091C5022FBF089585ED8093F5
:100C3000BC008091BC0084FDFCCF10929B02089503
:100C400020917702260F3327331F21323105ECF430
:100C500020919B02FC0190E080E0243069F082E06A
:100C60000895A09177022191AC01495A5D4FA40FDC
:100C7000B52FB11D2C930196861798F380917702BA
:100C8000680F6093770280E0089581E008950895E9
:100C90008FEF9FEF08958FEF9FEF08958091560299
:100CA00090E09195819591090895CF93DF93CB01C1
:100CB000EA01642F0E942006CE01DF91CF910895B2
:100CC000CF93DF931F92CDB7DEB7698361E0CE018A
:100CD00001960E94200681E090E00F90DF91CF9175
:100CE0000895DC011A96ED91FC9130E020E0099422
:100CF000DC011696ED91FC9130E020E040E069E1E6
:100D00000994DC011696ED91FC9130E020E040E082
:100D100068E109949A01DC011696ED91FC91462F49
:100D200067E10994EF92FF920F931F93CF93DF93A4
:100D30001F92CDB7DEB77C018B01D8016C91673172
:100D400029F150F46531A0F40F90DF91CF911F91FC
:100D50000F91FF90EF9008956A3118F16E3FA1F75F
:100D6000F8014181498369E2C7010E9471060BC005
:100D7000F80141814983D7011696ED91FC9130E04D
:100D800020E0C70109950E5F1F4FD7CFF801818181
:100D90008983AE014F5F5F4F61E0C7010E948A0601
:100DA000F2CF0F5F1F4FD7011696ED91FC9130E007
:100DB00020E040E0C7010995C0CF462FDC01169620
:100DC000ED91FC9130E020E066E10994462FDC01D2
:100DD0001696ED91FC9130E020E065E10994EF92E8
:100DE000FF920F931F93CF93DF93EC01042F7901B0
:100DF0006D3009F446C050F46B30C9F1693009F424
:100E00009FC06A3009F465C080E046C06E3009F4C6
:100E100052C06F3099F70E948106F7011381110FBC
:100E2000110F110F6889160F60E4CE010E94E606CB
:100E3000612F62956F706061CE010E94E606612F9E
:100E40006F70CE010E94DD06F7016481606BCE01F8
:100E50000E94DD06F701408151816281660F660FB5
:100E6000660FCE010E948A060150A1F72EC067E1ED
:100E700071E0442311F062E171E0CE010E9492061C
:100E80000AC0411110C06BE071E00E949206E88137
:100E9000F9818289888B81E0DF91CF911F910F9139
:100EA000FF90EF90089564E071E00E949206E8815F
:100EB000F9818389EFCF0E94810661E8CE010E940B
:100EC000E606602FCE010E94DD06CE010E94780664
:100ED000E2CFEA85FB8530E020E040E068E2CE0129
:100EE0000995EE81FF8130E020E040E064E1CE0131
:100EF000099541E06BE4CE010E947106E881F98119
:100F0000448169E2CE010E94710640E06BE4CE01AB
:100F10000E947106E881F981448169E2CE010E9454
:100F2000710641E06BE4CE010E947106E881F9810F
:100F3000458169E2CE010E9471066CE171E09DCFAE
:100F400081E591E099838883188AA5CF41E06DE41B
:100F50000C947106DC01ED91FC9145856DE20C94D9
:100F60007106CF93DF93EC0141E06CE40E947106BF
:100F7000CE01DF91CF910C94AA07CF93DF93EC01C0
:100F8000662379F00E94A607CE010E94AA07CE012F
:100F90000E94B10740E06CE4CE01DF91CF910C9448
:100FA000710640E06DE40E947106EECF1F93CF936F
:100FB000DF93EC01162F60780E94BD07612F6074EB
:100FC000CE010E94BD07612F6072CE010E94BD0755
:100FD000612F6071CE010E94BD07612F6870CE0144
:100FE0000E94BD07612F6470CE010E94BD07612F72
:100FF0006270CE010E94BD07612F6170CE010E9418
:10100000BD07CE010E94A607CE010E94AA07CE010D
:101010000E94B107CE010E94A607CE010E94AA0736
:1010200040E06CE4CE01DF91CF911F910C947106EA
:10103000EF92FF921F93CF93DF93EC01142F79016E
:10104000683151F130F46431D1F06731A9F080E0BA
:1010500006C0693109F443C06032C9F781E0DF910D
:10106000CF911F91FF90EF900895F70161917F015B
:10107000CE010E94D60711501111F7CFEFCF41E0FA
:101080006CE40E94710641E06DE4CE010E9471069D
:10109000CE010E94AA07E2CF8B89882349F0CE01B6
:1010A0000E94A607CE010E94AA07CE010E94B107A6
:1010B000CE010E94A60740E06DE4CE010E947106B9
:1010C000CE010E94AA0740E06CE4CE010E947106A6
:1010D00081E08B8B6A89CE010E94D607BFCF40E0AA
:1010E0006DE40E947106CE010E94AA07CE010E9403
:1010F000B107CE010E94A607CE010E94AA071B8A53
:10110000ADCFDC011896ED91FC9130E020E040E09D
:1011100069E10994DC011896ED91FC9130E020E042
:1011200040E068E10994CF93DF931F92CDB7DEB71B
:101130006983BE016F5F7F4F0E94F6030F90DF91BE
:10114000CF910895EF92FF921F93CF93DF93EC011D
:10115000162F7A010E948A0860E4CE010E9493084B
:10116000E885F9859701412F67E1CE010995CE0108
:10117000DF91CF911F91FF90EF900C948108EF9237
:10118000FF921F93CF93DF93EC01142F7901673106
:1011900030F4653178F4643159F180E005C067318D
:1011A000F9F06A31D0F781E0DF91CF911F91FF9084
:1011B000EF9008950E948A0860E0CE010E94930893
:1011C000612FCE010E949308CE010E948108EBCFCF
:1011D00068E1CE010E94A208185188E1E80EF11CD6
:1011E000A7011931A8F7612FCE010E94A208DBCF19
:1011F0008A898F3F11F488E78A8BE885F985970102
:10120000412F64E1CE01DF91CF911F91FF90EF90CC
:101210000994CF93DF93DC011C96ED91FC911D970F
:1012200084913196E491681768F1E61758F1681BCC
:10123000770B83E0660F771F8A95E1F7CB01029663
:10124000EA01665F7F4F1C96ED91FC911D97E80FB8
:10125000F91FE491E993019686179707A1F7519634
:101260008C91882361F0FA019A01285F3F4F8191A8
:10127000DF01119780958C932E173F07C1F7DF91FF
:10128000CF910895FA01CA0108961192E817F9075B
:10129000E1F7E5CFBF92CF92DF92EF92FF920F93EB
:1012A0001F93CF93DF93CDB7DEB72D970FB6F8948A
:1012B000DEBF0FBECDBFB82E109203057B0110E03C
:1012C000CE0101966C0101E0F70161917F01E0918F
:1012D000F004F091F1048EEE94E009958F3F9807A9
:1012E000E9F08E3F2FEF920779F3A601682F8EEE7B
:1012F00094E00E9409091C87BD860B87DA86C9869F
:10130000E091F204F091F3049E01275F3F4F41E02A
:101310006FE08EEE94E009951F5FD6CF812F2D965A
:101320000FB6F894DEBF0FBECDBFDF91CF911F91F6
:101330000F91FF90EF90DF90CF90BF90089526EB34
:1013400033E03093F1042093F0040C944A090F9396
:101350001F93CF93DF93EC01862F642F8C3208F01C
:101360003AC08A3208F060C0883209F44BC0893232
:1013700009F460C0803408F475C0982F9F73FE0193
:10138000E90FF11D838D8F3F09F44EC0903108F4B1
:1013900036C0282F30E0F901E458FF4F8491F9015D
:1013A000ED54FF4F0491F901E953FF4F14911123BC
:1013B00079F081110E942A05E12FF0E0EE0FFF1F66
:1013C000E859FF4FA591B491EC910E2381E009F407
:1013D00080E08E8B29C08D3299F108F4CBCF94EB4D
:1013E000980F923008F0C6CF8F73C80FD11D8B8D28
:1013F000411134C061E00E94810560E08B8D0E9444
:10140000530512C08E01055E1F4FD0E0F801819197
:101410008F018F3F31F061E0D03108F062E00E942F
:101420008105DF5FD63191F781E0DF91CF911F9188
:101430000F91089570E090E080E00E94D705F4CF0E
:1014400085E090E0433010F082E090E0880F991F33
:10145000880F991F05970197F1F7E6CF62E00E9488
:101460008105E2CF80E0E1CFAF92BF92CF92DF92D1
:10147000EF92FF920F931F93CF93DF93CDB7DEB719
:101480002D970FB6F894DEBF0FBECDBFFC01F6A8B6
:101490006A30B1F4F394F6AA15AA81E090E02D9693
:1014A0000FB6F894DEBF0FBECDBFDF91CF911F9175
:1014B0000F91FF90EF90DF90CF90BF90AF90089585
:1014C0008C01E5A86C0184E0C80ED11CDE011196E8
:1014D0005D01AD01C6010E940909EC86FD8681E02F
:1014E0008B87BA86A986D8011896ED91FC919E014A
:1014F000275F3F4F41E06FE0C6010995F80185A9DC
:101500008F5F85ABCACF8EBD00000DB407FEFDCF47
:101510008EB508950F931F93CF93DF93082F162F47
:10152000C6E8D3E060E08B810E945305802F80687D
:101530000E94830A812F0E94830A61E08B81DF91E0
:10154000CF911F910F910C9453051F93CF93DF936D
:10155000182FC6E8D3E060E08B810E945305812FED
:101560000E94830A80E00E94830A182F61E08B8129
:101570000E945305812FDF91CF911F910895CF9342
:10158000DF93D82FD06281E00E94A50AC82F8091F6
:10159000C10361E8813011F061E081E00E948A0AB4
:1015A0006D2F8BE00E948A0A6C2F81E00E948A0ACC
:1015B00080E0DF91CF9108958F929F92AF92BF927A
:1015C000CF92DF92EF92FF92CF93DF934B015C01BA
:1015D0000E940A0660938A0370938B0380938C03A6
:1015E00090938D0381E00E94A50AC82F8091C103CA
:1015F00061E8813011F061E081E00E948A0AB50162
:101600008827992786E00E948A0A99278B2D7A2DB0
:10161000692D87E00E948A0A682D88E00E948A0A64
:101620000E940A0660938E0370938F038093900349
:101630009093910364E670E080E090E00E94D7050B
:1016400086E00E94A50AC82E87E00E94A50AD82F2E
:10165000D12CDC2CCC24F12CE12CFE2CED2CDC2C20
:10166000CC2488E00E94A50A2D2F30E0322F2227BB
:1016700090E0B0E0A0E0820F931FA11DB11D8C0D82
:101680009D1DAE1DBF1DD1E088169906AA06BB069A
:1016900049F48092AA039092AB03A092AC03B0925B
:1016A000AD03D0E06C2F81E00E948A0A64E670E00E
:1016B00080E090E00E94D7058D2FDF91CF91FF90C1
:1016C000EF90DF90CF90BF90AF909F908F90089554
:1016D0008091C103882381F08EE10E94A50A90E0E9
:1016E00024E0959587952A95E1F78093A903865084
:1016F000873020F081E008958FEF089580E008950D
:101700008091C103882321F18DE10E94A50A909167
:101710008603682F91111AC064608DE10E948A0AC5
:101720008DE10E94A50A9091860320E0911101C0ED
:1017300022E090E002C0959587952A95E2F780FF18
:1017400009C081E08093B80380E008956160E5CF2F
:101750008FEF089581E008958091C1038130D9F41D
:1017600089E10E94A50A8093A403282F30E087FF17
:101770000DC03195219531093595279535952795DA
:101780002F7321952093AF0380E008953595279519
:1017900035952795F7CF8FEF0895CF9381E00E947D
:1017A000A50AC82F8091C103813061F461E80E94CD
:1017B0008A0A6FEF82E10E948A0A6C2F81E0CF9142
:1017C0000C948A0A61E081E00E948A0A6FEF8EE33E
:1017D0000E948A0A6FEF8FE3EECFCF93DF93C82F7B
:1017E00081E00E94A50AD82FC093C6038091C1034F
:1017F0008130F9F461E80E948A0A6091C60382E2AE
:101800000E948A0A82E20E94A50AC1E09091C60362
:10181000981301C0C0E06D2F81E00E948A0A6AEF30
:1018200070E080E090E00E94D7058C2FDF91CF918F
:10183000089561E081E00E948A0A6091C60382E314
:101840000E948A0A82E3DFCF8091B5039091B603AC
:101850002091A103211101C004960C94ED0B2F924D
:101860003F924F925F926F927F928F929F92AF9230
:10187000BF92CF92DF92EF92FF920F931F93CF937D
:10188000DF93CDB7DEB761970FB6F894DEBF0FBE1A
:10189000CDBF898B8091A703812C34E2932E34EF46
:1018A000A32E37E4B32E873081F0812C44E2942EAE
:1018B00044EFA42E48E4B42E883039F4812C24E27D
:1018C000922E24E7A22E28E4B22E1091A90381E0E3
:1018D0000E94A50A8B830E940A062091C103288BCF
:1018E000213009F0F5C061E881E00E948A0A81E0B8
:1018F00090E002C0880F991F1A95E2F7312C212C35
:1019000010E000E033E039839C01990F440B550B44
:101910002C873D874E875F870E94CD0B0E940A0669
:101920000E940A069B01AC012C593F4F4F4F5F4F5D
:101930002C833D834E835F8367E881E00E948A0A9F
:101940000E94B205688779878A879B8782E10E9417
:10195000A50A1A82382F3470F32E82FD4EC00E94E1
:101960000A062C813D814E815F81621773078407CF
:10197000950708F042C00E94B2056B017C016C859E
:101980007D858E859F850E9435209B01AC01C50118
:10199000B4010E948B1F9B01AC0160E070E080E805
:1019A0009FE30E948B1F2B013C01C701B6012885D4
:1019B00039854A855B85621B730B840B950B0E94EE
:1019C00033206B017C0120E034E244E759E4C30199
:1019D000B2010E941E2120E030E040E753E40E9463
:1019E000081F9B01AC01C701B6010E9419211816FE
:1019F0009CF082E10E94A50AADCF0E940A06F11078
:101A000025C0898181508983882309F45EC0898932
:101A1000811182CF198225C03A813111EACF80919C
:101A2000860395E7F92E813011F483E6F82E8BE1D9
:101A30000E94A50A8F0D8093B003280E311C87FDEC
:101A40003A940F5F1F4F41E04A83D3CF82E10E9457
:101A5000A50A817059895150598B51112FC0898322
:101A6000188AC101B8010E94AF216093B0036B8155
:101A700081E00E948A0A0E940A060E94CD0B4981D9
:101A8000442311F052E0588B888961960FB6F89480
:101A9000DEBF0FBECDBFDF91CF911F910F91FF90A1
:101AA000EF90DF90CF90BF90AF909F908F907F90FE
:101AB0006F905F904F903F902F900895882309F486
:101AC0002BCF188A91E09983CCCF21E02983C9CF0D
:101AD000198232E0388BCBCFEF92FF920F931F9396
:101AE000CF93DF938091C10305E010E0D0E0C0E028
:101AF000813041F535E0E32EF12C10E000E08091DB
:101B00008603C5E7813009F4C3E68BE10E94A50A8C
:101B10008C0F8093B003080F111D87FD1A9581E08B
:101B2000E81AF10861F7C80165E070E00E94AF2192
:101B30006093B00380E0DF91CF911F910F91FF90F0
:101B4000EF90089581E10E94A50A90E09595879510
:101B50008093B003C80FD91F0150110999F7CE0126
:101B6000E3CFCF92DF92EF92FF920F931F93CF9329
:101B7000DF936C01EB017B01E40EF51E10E000E049
:101B8000CE15DF0561F06991D601ED91FC910190D0
:101B9000F081E02DC6010995080F191FF1CFC8018A
:101BA000DF91CF911F910F91FF90EF90DF90CF9039
:101BB0000895089590E080E00895FB0101900020D1
:101BC000E9F73197AF01461B570B0C94FE038F9238
:101BD0009F92AF92BF92EF92FF920F931F93CF937A
:101BE000DF93CDB7DEB7A1970FB6F894DEBF0FBE77
:101BF000CDBF7C01FA01CB0119A2223008F42AE002
:101C00008E010F5D1F4F822E912CB12CA12CBF0194
:101C1000A50194010E94D61EF901CA016A300CF593
:101C2000605DD8016E938D01232B242B252B79F732
:101C300090E080E0109721F0BD01C7010E94DD0D0A
:101C4000A1960FB6F894DEBF0FBECDBFDF91CF9146
:101C50001F910F91FF90EF90BF90AF909F908F904A
:101C60000895695CDECFCF92DF92EF92FF920F93DF
:101C70001F93CF93DF93EC016A017B016DE20E9419
:101C80009E048C0144275527BA014C195D096E0941
:101C90007F092AE0CE010E94E70D800F911FDF919E
:101CA000CF911F910F91FF90EF90DF90CF9008950B
:101CB0006DE971E00C94DD0DCF93DF93BC0189EEEB
:101CC00092E00E94EB04EC0189EE92E00E94580E33
:101CD0008C0F9D1FDF91CF9108951F93CF93DF93BA
:101CE000C0E01AE068EC70E080E090E00E94D70568
:101CF00060E081E00E948A0A60E881E00E948A0A2E
:101D000061E881E00E948A0AC19FB00111246E5CE3
:101D10007F4F072E000C880B990B0E94D70581E09E
:101D20000E94A50AD82F88EA93E00E945C0EC0FDAD
:101D300003C0C43159F0CF5FD138A1F681E0809360
:101D4000C10380E0DF91CF911F910895C0E0F4CFEF
:101D5000CF93DF93C82F81E00E94A50AD82F8091EE
:101D6000C103811102C00E946D0E61E881E00E94F2
:101D70008A0A6C2F89E30E948A0A64E670E080E098
:101D800090E00E94D70589E30E94A50AC81311C0FC
:101D9000C0938703C0E06D2F81E00E948A0A64E649
:101DA00070E080E090E00E94D7058C2FDF91CF910A
:101DB0000895C1E0F0CFFF920F931F93CF93DF936D
:101DC0008C0181E00E94A50AF82E8091C103D2E027
:101DD000811103C00E946D0ED82F61E881E00E943E
:101DE0008A0A8DE10E94A50AC82F9091860391115D
:101DF00042C008301105C9F109301105C9F1CF738E
:101E00000E94680B8091A9038B3011F4C16002C05D
:101E10008C30E1F36C2F8DE10E948A0A64E670E059
:101E200080E090E00E94D7058DE10E94A50A909184
:101E30008603282F30E0911144C096E03595279510
:101E40009A95E1F70830110589F109301105A9F1DA
:101E5000232B41F49091A9039B3009F057C0809542
:101E6000D82FD170D11157C024C0CF77C064D2CF42
:101E7000CF7BC068CFCFCF7008301105D1F30930C8
:101E8000110591F0C0670E94680B8091A9038B50E7
:101E9000823008F0BFCF86E20E94A50A682F6860F2
:101EA00086E20E948A0AB6CFC069B4CF21303105DC
:101EB000C9F60093A703D0E02EC02230310591F679
:101EC000F8CF84E0359527958A95E1F7083011051C
:101ED00099F009301105A9F02730310519F686E28D
:101EE0000E94A50A9091A9039B3031F583FBDD2761
:101EF000D0F981E0D827B6CF2830310509F0B2CF2C
:101F0000D8CF2930310509F0ADCFD3CF9C3089F639
:101F100080FDCFCFD1E06F2D81E00E948A0A64E678
:101F200070E080E090E00E94D7058D2FDF91CF9187
:101F30001F910F91FF9008959C3009F0BACF83FD57
:101F4000B8CFE8CFFF920F931F93CF93DF93182F53
:101F500081E00E94A50A082F8091C103811115C05C
:101F60000E946D0E602F81E00E948A0A64E670E094
:101F700080E090E00E94D7051093A90380E0DF91F4
:101F8000CF911F910F91FF90089561E881E00E9429
:101F90008A0A8EE10E94A50AC82F1A30B1F040F4D7
:101FA000183069F0193071F0CF77C067D0E034C0D5
:101FB0001B3071F01C30C1F7CF7CC06C1CC0CF78D7
:101FC000C068F4CFCF79C069F1CFCF7AC06AEECFC5
:101FD000CF7BC06B8091C103882369F08091860319
:101FE00081116BC08DE10E94A50A82958695869528
:101FF00083708093A7038091A7038730B9F68091FF
:102000008603811160C08DE10E94A50AD82FD1609E
:102010006D2F8DE10E948A0A8091C103882339F1D6
:102020008DE10E94A50A9091A903963049F0909104
:102030008603682F911150C06B7F8DE10E948A0A40
:1020400080918603F12C811102C082E0F82E8091EC
:10205000A903863061F08DE10E94A50A90E002C0DC
:1020600095958795FA94E2F780FF1092B80363E0A4
:1020700081E30E948A0A6AE087E30E948A0A8091CB
:10208000860381112BC0C4606D2F8DE10E948A0AE6
:102090006C2F8EE10E948A0A64E670E080E090E096
:1020A0000E94D7058091860381111FC08DE10E9497
:1020B000A50A8EE10E94A50A55CF8DE10E94A50ACE
:1020C00082958F7096CF86E20E94A50A682F68607D
:1020D00086E20E948A0A6ACF6E7FAFCF86E20E94B4
:1020E000A50A682F646086E2D1CF86E2E0CFCF9365
:1020F000DF9381E00E94A50AD82F8091C103C2E03E
:10210000811103C00E946D0EC82F61E881E00E941A
:102110008A0A8DE10E94A50A90918603682F911189
:102120002EC06F7C68608DE10E948A0A64E670E0D0
:1021300080E090E00E94D7058DE10E94A50A2091E1
:102140008603213009F023E090E002C09595879541
:102150002A95E2F787709927019709F4C0E081E09A
:102160008093A8036D2F0E948A0A64E670E080E0E5
:1021700090E00E94D7058C2FDF91CF910895617F69
:102180006260D1CFCF93DF93262F482F50E070E0CD
:1021900060E089EE92E00E94E70DEC0189EE92E0AA
:1021A0000E94580E8C0F9D1FDF91CF9108950F93C1
:1021B0001F93CF93DF93EC010E94DD0D8C01CE01C4
:1021C0000E94580E800F911FDF91CF911F910F91A8
:1021D0000895AB01770F660B770B77FD0C94330EE8
:1021E0002AE00C94E70D0E940A06AB01BC01809125
:1021F000E4049091E504A091E604B091E70484170B
:102200009507A607B70708F062C08093E004909393
:10221000E104A093E204B093E30440EA5CE860E0E8
:1022200070E04093DC045093DD046093DE0470930F
:10223000DF0480589141A94CBF4F8093E4049093F0
:10224000E504A093E604B093E70480E993E00E94DC
:102250005C0E6FE773E089EE92E00E94EB04409120
:10226000E0045091E1046091E2047091E3042AE0FB
:1022700089EE92E00E94E70D6FE673E089EE92E04E
:102280000E94EB044091E4045091E5046091E6045F
:102290007091E7042AE089EE92E00E94E70D6CE578
:1022A00073E089EE92E00E94EB044091DC045091CF
:1022B000DD046091DE047091DF0477FF11C089EEC8
:1022C00092E00E94330E89EE92E00E94580E6091D7
:1022D000DC047091DD048091DE049091DF040895A8
:1022E0002AE089EE92E00E94E70DEDCF1F920F9257
:1022F0000FB60F9211242F933F934F935F936F93D9
:102300007F938F939F93AF93BF93EF93FF9389EE48
:1023100092E00E947C04FF91EF91BF91AF919F9159
:102320008F917F916F915F914F913F912F910F907E
:102330000FBE0F901F9018951F920F920FB60F921D
:1023400011242F938F939F93EF93FF93E091F902C2
:10235000F091FA028081E091FF02F091000382FD8A
:102360001BC09081809102038F5F8F7320910303C4
:10237000821741F0E0910203F0E0E751FD4F958FA5
:1023800080930203FF91EF919F918F912F910F9076
:102390000FBE0F901F9018958081F4CF1F920F925F
:1023A0000FB60F9211242F933F938F939F93AF9368
:1023B000BF938091C2029091C302A091C402B091D8
:1023C000C5023091C10223E0230F2D3758F5019645
:1023D000A11DB11D2093C1028093C2029093C3023C
:1023E000A093C402B093C5028091C6029091C70227
:1023F000A091C802B091C9020196A11DB11D8093A0
:10240000C6029093C702A093C802B093C902BF91BD
:10241000AF919F918F913F912F910F900FBE0F9091
:102420001F90189526E8230F0296A11DB11DD2CF4B
:102430001F920F920FB60F9211242F933F934F9339
:102440005F936F937F938F939F93AF93BF93EF931C
:10245000FF938091B900887F803609F44AC0F0F577
:10246000883209F4A5C018F5803109F499C0B8F490
:10247000882309F4F5C0883009F492C0FF91EF91E8
:10248000BF91AF919F918F917F916F915F914F918C
:102490003F912F910F900FBE0F901F90189588318C
:1024A00009F486C0803251F780939A0214C08034B8
:1024B00009F49BC040F48033B9F38833F9F6809374
:1024C0009A0285ECAEC0803509F483C0883509F4E2
:1024D00094C0883499F60E941606D0CF883909F442
:1024E0008AC038F5883729F050F4883611F08037E3
:1024F00029F683E080939B021092990255C0883898
:1025000009F479C0803919F0803809F0B7CF80918B
:102510009902803208F06FC0E091990281E08E0F3D
:10252000809399028091BB00F0E0E758FD4F8083D3
:102530003BC0803B39F0D0F4803A09F477C0883A48
:1025400009F09CCF84E080939B0210927802109255
:102550007702F0E0E0E009958091770281110FC0E9
:1025600081E0809377021092570209C0803C09F401
:10257000A8CF883C09F4A5CF883B09F07FCFE09134
:10258000780281E08E0F80937802F0E0E95AFD4FE7
:1025900080818093BB00909178028091770229C05E
:1025A0008091C0028093BB0085EC8093BC0066CF15
:1025B0009091BF028091BE02981758F5E091BF023A
:1025C00081E08E0F8093BF02F0E0E256FD4F8081E4
:1025D000E9CFE091BF0281E08E0F8093BF0280912E
:1025E000BB00F0E0E256FD4F80839091BF028091E6
:1025F000BE029817C8F285E8D8CFE091BF0281E00B
:102600008E0F8093BF028091BB00F0E0E256FD4F39
:10261000808380919D0281115ECF81E080939C0236
:1026200084EA8093BC0010929B0228CF85EC8093B3
:10263000BC0010929B0280919902803230F4E091AC
:102640009902F0E0E758FD4F10826091990270E026
:1026500089E792E0F0E0E0E00995109299020ECF50
:1026600010929A0238CF0F931F93CF931092EC02DF
:102670001092EB0288EE93E0A0E0B0E08093ED02D0
:102680009093EE02A093EF02B093F00283E891E002
:102690009093EA028093E90285EC90E09093F60231
:1026A0008093F50284EC90E09093F8028093F70217
:1026B00080EC90E09093FA028093F90281EC90E034
:1026C0009093FC028093FB0282EC90E09093FE02D8
:1026D0008093FD0286EC90E0909300038093FF02CC
:1026E0001092020310920303109204031092050348
:1026F0008AE08093890397E09093A70381E0809319
:10270000A8039093A90340E050EC64EE70E040937E
:10271000AA035093AB036093AC037093AD03109284
:10272000B8031092BA031092C1039FE09093AE03D6
:102730001092BC031092BD031092BE0392E19093DD
:1027400088031092A10310929C0380939D03109222
:102750009E0389E080939B031092A3031092DB04F5
:102760000E940A066093E0047093E1048093E204FF
:102770009093E30400EA1CE820E030E00093DC04DE
:102780001093DD042093DE043093DF046058714120
:10279000894C9F4F6093E4047093E5048093E604B2
:1027A0009093E7041092A5038AED93E09093C803F9
:1027B0008093C7039093D0038093CF0385ED94E07B
:1027C0009093D8038093D7031092BF038091BE03E8
:1027D0008093C9031092ED041092EC0410921F052F
:1027E0001092200585E991E09093EB048093EA0430
:1027F0001092EF041092EE041092FF041092020562
:10280000109203058FEF8093000580930505E9E0A2
:10281000F5E08FE195E0CFEFC1938E179F07E1F7C9
:102820008FEE96E09093F3048093F2048FEB98E0A0
:102830009093F5048093F40488E198E09093F70472
:102840008093F60487EA99E09093F9048093F80462
:1028500030E020E040E069E08EEE94E00E94EF0678
:1028600083E18093150582E180931605C0931405DA
:10287000CF911F910F910895CF93DF93CDB7DEB71E
:102880006E970FB6F894DEBF0FBECDBF789484B5B7
:10289000826084BD84B5816084BD85B5826085BD5C
:1028A00085B5816085BD80916E00816080936E00EA
:1028B00010928100809181008260809381008091DC
:1028C000810081608093810080918000816080938D
:1028D00080008091B10084608093B1008091B0004D
:1028E00081608093B00080917A00846080937A0048
:1028F00080917A00826080937A0080917A00816072
:1029000080937A0080917A00806880937A00109298
:10291000C10060ED77E080E090E00E94D705E09193
:10292000F902F091FA0282E08083E091F502F091E1
:10293000F6021082E091F702F091F80283E38083BF
:1029400010920103E091FD02F091FE0286E0808387
:10295000E091FB02F091FC02808180618083E09134
:10296000FB02F091FC02808188608083E091FB0291
:10297000F091FC02808180688083E091FB02F091FD
:10298000FC0280818F7D80836AEB71E089EE92E0AA
:102990000E94EB0461E088E00E94810561E088E02C
:1029A0000E945305E091F204F091F30430E020E03E
:1029B00040E06AE08EEE94E00995CE0101961C019C
:1029C00088E0D1011D928A95E9F7C1010E94840334
:1029D000E091F204F091F30430E020E040E06BE09D
:1029E0008EEE94E009958CEA93E09093FB0480933B
:1029F000FA0460EA71E081E00E949F0960EB71E0F7
:102A000082E00E949F0965EA71E089EE92E00E94EF
:102A1000EB0461E0809189030E94810561E080916F
:102A200089030E94530564E670E080E090E00E9414
:102A3000D7051FB7F8948091CA02811127C0E1ED34
:102A4000F0E08491EDEBF0E09491E82FF0E0EE0FF0
:102A5000FF1FE755FF4FA591B491EC91E92321F4B5
:102A600061E08AE00E94530561E08AE00E948105EE
:102A70008CB580618CBD8CB580648CBD61E08DE0CF
:102A80000E94810561E08BE00E9481058091CA026D
:102A90008F5F8093CA021FBF8CB58F7D8CBD8CB5B4
:102AA0008C7F81608CBD8DB581608DBD8CB5837F41
:102AB0008CBD64E670E080E090E00E94D70582E47F
:102AC0000E94A50A823209F0B9C08EE091E00E940E
:102AD0005C0E1092860380918603813041F580E977
:102AE00090E00E945C0E60E089E00E948A0A8BE31D
:102AF0000E94A50A682F60648BE30E948A0A8BE318
:102B00000E94A50A85FDFBCF60E070E089ED90E0B2
:102B10000E94DC0A8BE30E94A50A682F60648BE3A5
:102B20000E948A0A8BE30E94A50A85FDFBCF8BE1F8
:102B30000E94BF0A0E946D0E0091C103013009F08E
:102B400091C0809186031DE1882311F002E01EE10F
:102B5000812F0E94A50A90918603682F911180C051
:102B60006260812F0E948A0A812F0E94A50A90E04C
:102B700002C0959587950A95E2F780FF03C081E032
:102B80008093BA038091C103813009F079C080E25B
:102B90000E94A50A1092B3038093B40381E20E94BD
:102BA000A50A2091B3033091B403820F932F911D96
:102BB0009093B4038093B303809188030E94A80E7E
:102BC0008091C103882329F089E30E94A50A80939C
:102BD000870380918703809388030E940A0661150A
:102BE00071058105910511F00E949B1E81E00E94F4
:102BF000A50A082F8091C103811102C00E946D0EA9
:102C000061E881E00E948A0A0E9477108CE00E94AD
:102C1000A20F87E090E00E94DB0E8DE10E94A50AE2
:102C20002091860390E0211134C053E0959587955B
:102C30005A95E1F7019789F111E03CC082E40E94C6
:102C4000A50A823141F484EF90E00E945C0E81E09D
:102C50008093860340CF8BED90E00E945C0E3BCFCB
:102C600064607FCF80E30E94A50A682F606180E3E3
:102C70000E948A0A80E30E94A50A84FD80CF82CF49
:102C800085E20E94A50A1092B3038093B40386E202
:102C900086CF95958795C99779F68EE10E94A50A0A
:102CA00090E034E0959587953A95E1F711E00C971F
:102CB00009F410E0809188030E94A80E111103C04E
:102CC00081E080939A03602F81E00E948A0A64E683
:102CD00070E080E090E00E94D70560E971E089EE45
:102CE00092E00E94EB04612F110F770B89EE92E0C6
:102CF0000E94E9106FE971E089EE92E00E94D7101E
:102D000001E000939E036CEC7CE488ED90E00E946F
:102D1000DC0A182F68E771E089EE92E00E94EB046C
:102D2000612F110F770B89EE92E00E94E9106FE995
:102D300071E089EE92E00E94D7100093A303809186
:102D400086031AE581111DE481E00E94A50A082F7F
:102D50008091C10361E8813011F061E081E00E945F
:102D60008A0A64E8812F0E948A0A80E10E94BF0AD1
:102D7000909186038091A3039111DDC31CE881111A
:102D800001C01FE0612F89E00E948A0A1093AE0300
:102D900089E00E94A50A11E09091AE03981301C04A
:102DA00010E0602F81E00E948A0A64E670E080E013
:102DB00090E00E94D70562E671E089EE92E00E9401
:102DC000EB04612F70E089EE92E00E94E9106FE958
:102DD00071E089EE92E00E94D71088E08093B703FB
:102DE00081E00E94A50A182F8091C10361EC813017
:102DF00011F061E081E00E948A0A68E083E30E94AA
:102E00008A0A60E084E30E948A0A83E30E94A50A9A
:102E1000F82E612F81E00E948A0A01E010E0809183
:102E2000B7038F1102C010E000E068E471E089EEA2
:102E300092E00E94EB04B80189EE92E00E94E91052
:102E40006FE971E089EE92E00E94D71068E271E0CC
:102E500089EE92E00E94EB0464EF71E080E090E084
:102E60000E94D70580E18093C30327E0422E512CB6
:102E7000612C712C6BE572E089EE92E00E94EB040C
:102E800080919B03882309F416C1C0909E03CC2037
:102E900009F411C193E0F92ED12C88E0E82E0E94AC
:102EA0000A06609392037093930380939403909324
:102EB000950380919B030E942F0C182F0E940A06F5
:102EC000609396037093970380939803909399036C
:102ED00062E572E089EE92E00E94EB044091960375
:102EE0005091970360919803709199038091920398
:102EF00090919303A0919403B0919503481B590BB3
:102F00006A0B7B0B2AE089EE92E00E94E70D89EEC6
:102F100092E00E94580E111113C36DE472E089EE25
:102F200092E00E94EB0480919C03882309F492C0F4
:102F30000E944C1EA30192010E94A41E4B015C0141
:102F4000BFEF8B1A9B0AAB0ABB0A6FE372E089EEF4
:102F500092E00E94EB04B501A4015527662777276C
:102F60002AE089EE92E00E94E70D67E372E089EEC5
:102F700092E00E94EB04E0919A03F0E0EC58FE4FDF
:102F80006081869EB001112489EE92E00E94E910D2
:102F900089EE92E00E94580EE0919A03F0E0EC581E
:102FA000FE4F6081869EB0011124072E000C880B15
:102FB000990B0E94D7050E940A06609392037093B2
:102FC0009303809394039093950380919B030E94B5
:102FD0002F0C082F10E00E940A066093960370934E
:102FE000970380939803909399036EE272E089EEC1
:102FF00092E00E94EB0440919603509197036091F8
:103000009803709199038091920390919303A091FA
:103010009403B0919503481B590B6A0B7B0B2AE074
:1030200089EE92E00E94E70D89EE92E00E94580E30
:103030006AE272E00115110511F067E272E089EEB3
:1030400092E00E94EB0489EE92E00E94580E012B60
:1030500009F0D6C280919D03882309F4E0C20E9442
:103060006C0D8111D1C218E00E946C0D62EF71E00D
:1030700089EE92E00E94EB046091B003062E000CF2
:10308000770B89EE92E00E94E91089EE92E00E94AF
:10309000580E115061E070E080E090E00E94D7058A
:1030A0008091B003873A0CF4B6C21111DDCFFA94C7
:1030B000DC2CF110F2CE6CEB71E08BEC92E00E9414
:1030C000DD216FE473E089EE92E00E94EB046FE98A
:1030D00071E089EE92E00E94D71061EC71E083E02C
:1030E0000E949F0984E00E94C00385E00E94C00303
:1030F00081E08093A50384E090E09093B6038093F1
:10310000B5038091DB04882309F48CC28091A1036C
:1031100004E0A02EB12C811103C018E0A12EB12C27
:103120000E94F3106B8F7C8F8D8F9E8F1091A70361
:10313000C12CA4E2DA2EA4EFEA2EA7E4FA2E17306F
:1031400081F0C12CB4E2DB2EB4E7EB2EB8E4FB2E09
:10315000183039F0C12CF4E2DF2EF4EFEF2EF8E452
:10316000FF2E0091A903A02FB0E0BE8BAD8B61E0D4
:1031700070E0002E02C0660F771F0A94E2F7072E58
:10318000000C880B990B0E9435209B01AC01C701F4
:10319000B6010E948B1F9B01AC0160E070E080E8EB
:1031A0009FE30E948B1F6B017C016091B3037091C0
:1031B000B4036C5F7F4F90E080E00E94332020E0FA
:1031C00030E048E850E40E94081FA70196010E94E1
:1031D0001E216F8B788F898F9A8F173019F411E029
:1031E0000C3009F010E0B501660F771FED89FE89FC
:1031F0006E1B7F0B655F7F4F2091B8034BEF42033F
:1032000090011124620F731F660F771F660F771FDF
:10321000072E000C880B990B0E9435204B015C0196
:10322000812F90E0880F991F6D897E89681B790B2B
:10323000660F771F660F771F072E000C880B990B00
:103240000E9435209B01AC01C501B4010E948B1F77
:103250000E94741F4B015C016091A80370E06C5FD9
:103260007F4F072E000C880B990B0E943520A5017B
:1032700094010E941E214B015C0120E030E0A90175
:103280000E94192120E030E040E051E4181634F4A7
:10329000C501B4010E94081F9B01AC01C701B60122
:1032A0000E941E212F89388D498D5A8D0E94081F3A
:1032B00020E034E244E759E40E941E2127E73EEB78
:1032C0004FE75FE30E94081F0E9470200E940420C5
:1032D00028EE33E040E050E00E94D61ECA01B9015A
:1032E0000E94332020E030E040E85FE30E94081FA6
:1032F0000E9404207093E9046093E8048B8D9C8DF8
:10330000AD8DBE8D861B970BA109B109B7FF8AC190
:1033100064EE72E089EE92E00E94EB040E940A06DD
:10332000AB01BC012AE089EE92E00E94E70D89EE34
:1033300092E00E94580E14E01092A5036BE373E034
:1033400089EE92E00E94EB04612F70E089EE92E03A
:103350000E94E9106FE971E089EE92E00E94D710B7
:1033600062ED71E0113051F0133081F46AE273E0E4
:1033700089EE92E00E94EB0463EE71E083E00E942C
:103380009F0964EF71E084E00E949F091111C6C09B
:103390006EE073E089EE92E00E94EB046FE971E069
:1033A00089EE92E00E94D7108091A203282F082E68
:1033B000000C330B3F938F9382E092E09F938F93A7
:1033C0003F922F920E94E421B10189EE92E00E9487
:1033D000DD0D6FE971E089EE92E00E94D71062E1A5
:1033E00072E083E00E949F09B10184E00E949F097E
:1033F0000E94AC0B0F900F900F900F900F900F90BA
:103400008091C103813009F05CC00E94AC0B811136
:1034100058C08AE10E94A50A1091AF0390918603DB
:103420008090AA039090AB03A090AC03B090AD0342
:10343000C82ED12CF12CE12C17FF62C36DE970E08E
:10344000913011F06BE870E087E090E0BCEC8B16F7
:103450009B06B7EDAB06B10410F090E080E0680F7A
:10346000791F719561957109072E000C880B990BD6
:103470000E9435204B015C01C701B6010E94352036
:103480009B01AC01C501B4010E94081F6B017C01C6
:10349000612F110F770B880B990B0E94352020E0CC
:1034A00030E040E85EE30E941E219B01AC01C701B1
:1034B000B6010E94081F0E94FD1F7093B203609323
:1034C000B1038091B2038F938091B1038F93809168
:1034D000AF03282F082E000C330B3F938F9383E20A
:1034E00092E09F938F933F922F920E94E421B1012B
:1034F00089EE92E00E94DD0D6FE971E089EE92E0C5
:103500000E94D71085E00E94C003B10185E00E94AF
:103510009F090FB6F894DEBF0FBECDBF6FE971E013
:1035200089EE92E00E94D71060E177E280E090E0BF
:103530000E94D7059FCC1EE081111CE8106722CCA9
:1035400063E272E089EE92E00E94EB040E944C1E5E
:10355000A30192010E94A41E4B015C01EFEF8E1AA1
:103560009E0AAE0ABE0A65E172E089EE92E00E9410
:10357000EB04B501A4015527662777272AE089EED9
:1035800092E00E94E70D67E072E089EE92E00E940F
:10359000EB04912CE0919A03F0E0E759FE4F808113
:1035A000F3E08F9FC0011124889DB001899D700DAB
:1035B000989D700D112489EE92E00E94E91089EE29
:1035C00092E00E94580EE0919A03F0E0E759FE4F16
:1035D000808123E0829FC0011124889DB001899DD4
:1035E000700D989D700D1124072E000C880B990BFF
:1035F0000E94D7056CEF71E089EE92E00E94EB0427
:10360000EA94E1104CCC26CD62EE71E089EE92E0B6
:103610000E94EB0450CD112309F449CD4CCDD110BB
:1036200046CD49CD81E00E94A50AE82E0E94CD0B2F
:103630008091C10361E8813011F061E081E00E9476
:103640008A0A1092BD038091BE0381117AC081E085
:103650008093BB038093C2038091B7038093C4031C
:103660008091BC038093C5038F5F8093BC0310924D
:10367000C9038091C10381110CC08091B503909161
:10368000B603CD9730F08CE390E09093B60380932F
:10369000B503ABECB2E0CD018B5C92402091B50359
:1036A0003091B6038217930748F42D91E091C70338
:1036B000F091C803E80FF91F2083EDCF0E94240C7E
:1036C000F82E8091C303982F90619093C30390913B
:1036D000A503992319F088618093C30360E88DE006
:1036E0000E948A0AF1103CC08091A103811113C08D
:1036F0006091C2030E948A0A6091C30380E00E9425
:103700008A0A6091C40380E00E948A0A6091C5031E
:1037100080E00E948A0A10E000E08091B503909159
:10372000B60308171907E0F4E091C703F091C80346
:10373000E00FF11F608180E00E948A0A0F5F1F4F37
:10374000ECCF813029F48091C6038F5F8093C6034C
:103750000E94240CF82E8091BE038093C903B1CF40
:103760006E2D81E00E948A0A1F2DF110E5CD80E1C7
:1037700097E29093DA048093D9040E940A066B01C1
:103780007C01A0E1CA0EA7E2DA1EE11CF11C8091C7
:10379000C1038130C9F40E94CD0B63E881E00E942F
:1037A0008A0A82E10E94A50A182F83FD07C00E94A1
:1037B0000A066C157D058E059F0598F313FD16C04E
:1037C0000E94CD0B11E0B8CD63E081E00E948A0A2F
:1037D0008FE30E94A50A182F83FDF0CF0E940A06EE
:1037E0006C157D058E059F0598F3E8CF8091DB046D
:1037F000882351F00091E8041091E9040E94F3102D
:103800008091DB04811167C00E94CD0BEAECF3E0EC
:1038100088E0DF011D928A95E9F78AED93E09093A5
:10382000D0038093CF0368E08AE00E948A0A63E2B3
:103830008CE00E948A0A60E08DE00E948A0A8091F2
:10384000A9038A5065E0833008F068E08FE10E94A8
:103850008A0A60E085E20E948A0A8091C103813071
:1038600009F04EC08FEF0E94ED0B182F65E881E044
:103870000E948A0A111160CD81E093E00E945C0EE3
:103880000E940A066B017C01B0E1CB0EB7E2DB1EA1
:10389000E11CF11C8091C103813009F041C082E13B
:1038A0000E94A50A182F14FD5EC10E940A066C151D
:1038B0007D058E059F0548F18091C10361E081304F
:1038C00009F461E881E00E948A0A8AEF92E00E948E
:1038D0005C0E13E031CD8091DC049091DD04A09169
:1038E000DE04B091DF04801B910BA109B109809324
:1038F000DC049093DD04A093DE04B093DF0484CF56
:103900000E94240C182F65E0B2CF82E10E94A50A24
:10391000182F61E070E080E090E00E94D705C3CFEF
:103920008FE30E94A50A82FD34C10E940A066C152D
:103930007D058E059F05A0F3BFCF11E061E881E012
:103940000E948A0A111115C011E00E94CD0BF4CC1F
:103950008FE30E94A50A82FD09C00E940A066C1529
:103960007D058E059F05A0F310E001C011E061E028
:10397000E6CF8091BB038093D20380E00E94A50A2A
:103980008093D30380E00E94A50A8093D40380E053
:103990000E94A50A8093D50380E00E94A50A809327
:1039A000D6030091D7031091D80380E00E94A50AA6
:1039B000F80180830091D7031091D80380E00E9422
:1039C000A50AD80111968C938091D303803209F017
:1039D000BBCF9091D2038091C40312E09813B5CF6E
:1039E0009091D4038091C2039813AECF9091D503E8
:1039F0008091C5039813A8CF8091D603823009F037
:103A0000A3CFE091D703F091D803108111119CCF7F
:103A100081EC92E00E945C0E63EB72E089EE92E032
:103A20000E94EB046AE070E08091D2030E94C21011
:103A30006AEA72E089EE92E00E94EB046AE070E0CC
:103A40008091D4030E94C2106DE972E089EE92E089
:103A50000E94EB046AE070E08091D5030E94C210DE
:103A600060E972E089EE92E00E94EB046AE070E0A7
:103A70008091D6030E94C21062E872E089EE92E063
:103A80000E94EB04E091D703F091D8036AE070E064
:103A900080810E94C21067E672E089EE92E00E9487
:103AA000EB04E091D703F091D8032181822F90E0BD
:103AB00027FF21C0919581959109959587959595B9
:103AC00087958F7381958093A2036091A203062E40
:103AD000000C770B89EE92E00E94E91089EE92E0EB
:103AE0000E94580E84E692E00E945C0E89EE92E0FD
:103AF0000E94580E2ACF9595879595958795E3CF87
:103B00006DE970E0913011F06BE870E087E090E0D3
:103B1000ECEC8E169E06E7EDAE06B10410F090E0D8
:103B200080E0680F791F719561957109072E000C6F
:103B3000880B990B0E9435204B015C01C701B6012F
:103B40000E94352020E030E040E851E40E941E2130
:103B500020E030E040E751E40E948B1F9B01AC0164
:103B6000C501B401A6CC0E940A0660938A03709333
:103B70008B0380938C0390938D030E940A066C152F
:103B80007D058E059F0550F485E20E94A50A8823D5
:103B9000A1F380E00E94A50A8093BB038091BB0340
:103BA0009091B703891739F0882329F08091A103F8
:103BB000882309F481CE89EE92E00E94580E82EDAE
:103BC00092E00E945C0E0E940A066B017C01A0E15B
:103BD000CA0EA7E2DA1EE11CF11C8091C1038130FC
:103BE00009F0B6CE82E10E94A50A86FDA6CE0E940B
:103BF0000A066C157D058E059F05A0F310E09ECE8C
:103C00008F929F92AF92BF92CF92DF92EF92FF92EC
:103C1000CF93DF93EC01688179818A819B81611563
:103C200071058105910521F464E279ED8BE597E05A
:103C30002DE133EF41E050E00E94A41E49015A01FA
:103C40009B01AC01A7EAB1E40E94C31E6B017C0199
:103C5000ACEEB4EFA50194010E94D11EC60ED71E92
:103C6000E81EF91EF7FE06C081E0C81AD108E10877
:103C700080E8F80AC882D982EA82FB82C701B601CD
:103C80009F77DF91CF91FF90EF90DF90CF90BF9023
:103C9000AF909F908F9008958F929F92AF92BF9216
:103CA000CF92DF92EF92FF9260910001709101013B
:103CB00080910201909103016115710581059105C3
:103CC00021F464E279ED8BE597E02DE133EF41E0FB
:103CD00050E00E94A41E49015A019B01AC01A7EAD1
:103CE000B1E40E94C31E6B017C01ACEEB4EFA501F0
:103CF00094010E94D11EC60ED71EE81EF91EF7FEC3
:103D000006C081E0C81AD108E10880E8F80AC0922C
:103D10000001D0920101E0920201F0920301C7017B
:103D2000B6019F77FF90EF90DF90CF90BF90AF905C
:103D30009F908F900895609300017093010180938C
:103D40000201909303010895052E97FB1EF4009441
:103D50000E94BB1E57FD07D00E94D61E07FC03D051
:103D60004EF40C94BB1E50954095309521953F4FD5
:103D70004F4F5F4F089590958095709561957F4F57
:103D80008F4F9F4F08950E94F81EA59F900DB49FDE
:103D9000900DA49F800D911D11240895B7FF0C94E0
:103DA000C31E0E94C31E821B930B0895A1E21A2E0C
:103DB000AA1BBB1BFD010DC0AA1FBB1FEE1FFF1FCF
:103DC000A217B307E407F50720F0A21BB30BE40B1F
:103DD000F50B661F771F881F991F1A9469F7609566
:103DE0007095809590959B01AC01BD01CF01089520
:103DF000A29FB001B39FC001A39F700D811D11242C
:103E0000911DB29F700D811D1124911D0895505870
:103E1000BB27AA270E941F1F0C94C7200E94B9200D
:103E200038F00E94C02020F039F49F3F19F426F4A6
:103E30000C94B6200EF4E095E7FB0C948720E92F54
:103E40000E94D82058F3BA176207730784079507B2
:103E500020F079F4A6F50C9412210EF4E0950B2EC7
:103E6000BA2FA02D0B01B90190010C01CA01A001CC
:103E70001124FF27591B99F0593F50F4503E68F127
:103E80001A16F040A22F232F342F4427585FF3CF68
:103E9000469537952795A795F0405395C9F77EF439
:103EA0001F16BA0B620B730B840BBAF09150A1F082
:103EB000FF0FBB1F661F771F881FC2F70EC0BA0F08
:103EC000621F731F841F48F4879577956795B79590
:103ED000F7959E3F08F0B0CF9395880F08F099278B
:103EE000EE0F9795879508950E94FA2090F09F37DE
:103EF00048F4911116F40C94132160E070E080E80E
:103F00009FE3089526F01B16611D711D811D0C9401
:103F10008D200C94A8200E949F1F0C94C7200E9403
:103F2000C02058F00E94B92040F029F45F3F29F0EA
:103F30000C94872051110C9413210C94B6200E94EC
:103F4000D82068F39923B1F3552391F3951B550BB2
:103F5000BB27AA2762177307840738F09F5F5F4F5C
:103F6000220F331F441FAA1FA9F335D00E2E3AF09B
:103F7000E0E832D091505040E695001CCAF72BD0B3
:103F8000FE2F29D0660F771F881FBB1F2617370704
:103F90004807AB07B0E809F0BB0B802DBF01FF2736
:103FA00093585F4F3AF09E3F510578F00C9487206C
:103FB0000C9413215F3FE4F3983ED4F386957795F4
:103FC0006795B795F7959F5FC9F7880F911D9695EF
:103FD000879597F90895E1E0660F771F881FBB1F4B
:103FE000621773078407BA0720F0621B730B840BF8
:103FF000BA0BEE1F88F7E09508950E94042068949C
:10400000B1110C94132108950E94E02088F09F576D
:1040100098F0B92F9927B751B0F0E1F0660F771FEC
:10402000881F991F1AF0BA95C9F714C0B13091F0E2
:104030000E941221B1E008950C941221672F782F6D
:104040008827B85F39F0B93FCCF3869577956795A7
:10405000B395D9F73EF490958095709561957F4F13
:104060008F4F9F4F0895E89409C097FB3EF49095B9
:104070008095709561957F4F8F4F9F4F9923A9F041
:10408000F92F96E9BB279395F695879577956795D0
:10409000B795F111F8CFFAF4BB0F11F460FF1BC014
:1040A0006F5F7F4F8F4F9F4F16C0882311F096E9A7
:1040B00011C0772321F09EE8872F762F05C0662355
:1040C00071F096E8862F70E060E02AF09A95660F0E
:1040D000771F881FDAF7880F9695879597F90895C7
:1040E0000E94FA2090F09F3748F4911116F00C943A
:1040F000132160E070E080E89FEB089526F41B1622
:10410000611D711D811D0C948D200C94A82097F9C0
:104110009F6780E870E060E00895882371F477235A
:1041200021F09850872B762F07C0662311F499272A
:104130000DC09051862B70E060E02AF09A95660FD2
:10414000771F881FDAF7880F9695879597F9089556
:104150009F3F31F0915020F4879577956795B795FB
:10416000880F911D9695879597F908959FEF80EC9C
:10417000089500240A9416161706180609060895CD
:1041800000240A9412161306140605060895092E33
:104190000394000C11F4882352F0BB0F40F4BF2BA2
:1041A00011F460FF04C06F5F7F4F8F4F9F4F0895E2
:1041B00057FD9058440F551F59F05F3F71F04795D8
:1041C000880F97FB991F61F09F3F79F087950895BD
:1041D000121613061406551FF2CF4695F1DF08C0DC
:1041E000161617061806991FF1CF869571056105F9
:1041F000089408950E94E020A0F0BEE7B91788F463
:10420000BB279F3860F41616B11D672F782F8827BB
:10421000985FF7CF869577956795B11D93959639F9
:10422000C8F30895E894BB2766277727CB0197F951
:1042300008950E948B2108F48FEF08950E94312188
:104240000C94C7200E94B92038F00E94C02020F0B2
:10425000952311F00C9487200C94B62011240C9413
:1042600013210E94D82070F3959FC1F3950F50E061
:10427000551F629FF001729FBB27F00DB11D639F18
:10428000AA27F00DB11DAA1F649F6627B00DA11DBE
:10429000661F829F2227B00DA11D621F739FB00D64
:1042A000A11D621F839FA00D611D221F749F3327D4
:1042B000A00D611D231F849F600D211D822F762F6D
:1042C0006A2F11249F5750409AF0F1F088234AF04A
:1042D000EE0FFF1FBB1F661F771F881F91505040B6
:1042E000A9F79E3F510580F00C9487200C94132170
:1042F0005F3FE4F3983ED4F3869577956795B7953D
:10430000F795E7959F5FC1F7FE2B880F911D969556
:10431000879597F90895990F0008550FAA0BE0E8C3
:10432000FEEF16161706E807F907C0F01216130677
:10433000E407F50798F0621B730B840B950B39F4B7
:104340000A2661F0232B242B252B21F408950A261D
:1043500009F4A140A6958FEF811D811D089597FB5B
:10436000072E16F4009407D077FD09D00E94C321D0
:1043700007FC05D03EF4909581959F4F0895709568
:1043800061957F4F0895AA1BBB1B51E107C0AA1F6F
:10439000BB1FA617B70710F0A61BB70B881F991FE6
:1043A0005A95A9F780959095BC01CD010895EE0F1F
:1043B000FF1F0590F491E02D0994FB01DC010190B1
:1043C0000D920020E1F70895AEE0B0E0EAEEF1E2F0
:1043D0000C9493240D891E8986E08C831A830983AB
:1043E0008FEF9FE79E838D83AE01475E5F4F6F899E
:1043F000788DCE0101960E9407222F813885020F09
:10440000131FF80110822E96E4E00C94AF24ABE069
:10441000B0E0EDE0F2E20C9485247C013B018A01DE
:10442000FC0117821682838181FFC8C1CE010196EB
:104430005C01F7019381F30193FD859193FF8191D5
:104440003F01882309F453C1853239F493FD8591E6
:1044500093FF81913F01853229F4B70190E00E94DA
:10446000F723E7CF912C212C312CFFE1F31538F005
:104470008B3211F190F4803209F1833229F137FC4B
:104480003CC020ED280F2A3050F536FE20C08AE0CF
:10449000989E200D1124922E06C08D3291F080330B
:1044A00071F7689430F8F30193FD859193FF819142
:1044B0003F018111DACF21C0689431F8689432F855
:1044C000F2CF689433F8EFCF689434F8ECCFEAE099
:1044D0002E9E200D1124222E689435F8E4CF8E32C2
:1044E00029F436FC04C1689436F8DDCF8C3619F413
:1044F000689437F8D8CF8836B1F2982F9F7D9554BD
:104500009330E0F08336A1F18337C1F1833509F0B0
:1045100063C02801F2E04F0E511CF801C080D18029
:10452000692D70E036FC02C06FEF7FEFC6010E947C
:10453000E1234C01689437F882010AC00C5F1F4FD9
:10454000FFE3F98388248394912C6501E89437F87C
:1045500033FE2DC0522C8114910471F5552009F4BD
:1045600068CFB70180E290E00E94F7235A94F6CF1B
:10457000F801808189830E5F1F4FE4CF2801F2E0AC
:104580004F0E511CF801C080D180692D70E036FCBF
:1045900002C06FEF7FEFC6010E94EC234C01820145
:1045A000D5CFB70180E290E00E94F7232A94281427
:1045B000190409F0B0F7CECFF60137FC859137FE2C
:1045C00081916F01B70190E00E94F72351105A9436
:1045D000F1E08F1A9108BFCF843619F0893609F0BF
:1045E00077C0F80137FE6BC0608171818281938151
:1045F0000C5F1F4FF32DFF763F2E97FF09C090955C
:104600008095709561957F4F8F4F9F4F689437F8D5
:104610002AE030E0A5010E942724C82ECA188C2C5D
:10462000432C36FE0CC0E89440F8C91440F434FE24
:1046300005C032FC03C0F32DFE7E4F2E892C44FEB4
:1046400095C0FE01EC0DF11D8081803309F087C01B
:10465000242D297E422E842D8870582E43FC95C02F
:1046600040FE8FC09C2C821418F42C0C922C9818AD
:1046700044FE91C0B70180E390E00E94F72342FE20
:1046800009C088E790E041FE02C088E590E0B701EC
:104690000E94F723C91408F48AC0CA94D12C9FEF52
:1046A000C91AD90ACA0CDB1CF60182916F01B70145
:1046B00090E00E94F723AC14BD04B1F74FCF6081A6
:1046C0007181072E000C880B990B0E5F1F4F92CF44
:1046D000D32CE894D4F82AE030E0853739F1232D43
:1046E000297FD22E8F3601F148F48835A9F0F701E1
:1046F000868197812B96E2E10C94A124803749F0C2
:104700008837A9F7D4FE02C06894D2F820E130E0DF
:104710000DC06894D4F8F6CF34FE03C0822F8660B3
:10472000D82E20E132E002C028E030E0F801D7FEC8
:104730000FC060817181828193810C5F1F4FA50141
:104740000E942724C82ECA183D2CE89437F867CF5A
:104750006081718190E080E00E5F1F4FF0CF42FCDE
:1047600002C0839478CF8394839475CF842D867808
:1047700009F471CFF6CFB70180E290E00E94F723F1
:1047800083948214C0F3512C73CF522C5818821486
:1047900008F46ECFF8CF842D867809F47BCF8BE2B6
:1047A00041FE80E247FC8DE2B70190E071CFB70196
:1047B00080E390E00E94F7239A946CCF8FEF9FEFF5
:1047C00099CFFC010590615070400110D8F7809599
:1047D00090958E0F9F1F0895FC01615070400190CD
:1047E0000110D8F7809590958E0F9F1F08950F9315
:1047F0001F93CF93DF93182F092FEB018B8181FD3E
:1048000009C01FEF0FEF812F902FDF91CF911F91E4
:104810000F91089582FF14C02E813F818C819D816C
:10482000281739073CF4E881F981CF010196998373
:10483000888310838E819F8101969F838E83E3CF2F
:10484000E885F985812F0995892BA1F3DACFFA0143
:10485000AA27283051F1203181F1E8946F936E7FBF
:104860006E5F7F4F8F4F9F4FAF4FB1E03ED0B4E0B0
:104870003CD0670F781F891F9A1FA11D680F791FF1
:104880008A1F911DA11D6A0F711D811D911DA11D02
:1048900020D009F468943F912AE0269F1124301912
:1048A000305D3193DEF6CF010895462F4770405DAD
:1048B0004193B3E00FD0C9F7F6CF462F4F70405D5C
:1048C0004A3318F0495D31FD4052419302D0A9F7B7
:1048D000EACFB4E0A6959795879577956795BA95B1
:1048E000C9F700976105710508959B01AC010A2E77
:1048F00006945795479537952795BA95C9F7620F4E
:10490000731F841F951FA01D08952F923F924F92F1
:104910005F926F927F928F929F92AF92BF92CF924F
:10492000DF92EF92FF920F931F93CF93DF93CDB758
:10493000DEB7CA1BDB0B0FB6F894DEBF0FBECDBFD0
:1049400009942A88398848885F846E847D848C84A1
:104950009B84AA84B984C884DF80EE80FD800C81AA
:104960001B81AA81B981CE0FD11D0FB6F894DEBF8D
:0C4970000FBECDBFED010895F894FFCFFD
:10497C00010000001815A015C019FF1815A115C8C5
:10498C0019FF1815AE19FF1815AF19FF1815AE152C
:10499C00D5168015A8163F15D316001540158D1683
:1049AC00141520160015A115C815DA161215811646
:1049BC00CF15D916F115DB1640152E15A415A61911
:1049CC00FF0001140A6464323200127A00000428D9
:1049DC0096100800008000400000B75E2C2F1718BE
:1049EC000C0C0704003E1F10100809050301010000
:1049FC000000009E04FE032B040A055C043A044EDE
:104A0C000400000000340AB10DDA0DD90D0D0A00B6
:104A1C0053696D706C652050696E67506F6E6700DE
:104A2C004C6F5261206D6F646520310050696E6768
:104A3C000053656E64696E672050696E672E2E2E6A
:104A4C002E004572726F722073656E64696E673DDD
:104A5C003120004E6F20506F6E672066726F6D2094
:104A6C0067772100534E522061742067773D4E2F9B
:104A7C004100534E522061742067773D25642020FD
:104A8C00200047657420506F6E672066726F6D2032
:104A9C0067770067772D3E534E523D25643A256467
:024AAC00000008
:00000001FF
